{
  "_format": "hh-sol-artifact-1",
  "contractName": "Anchor",
  "sourceName": "contracts/anchors/bridged/Anchor.sol",
  "abi": [
    {
      "inputs": [
        {
          "internalType": "contract IVerifier",
          "name": "_verifier",
          "type": "address"
        },
        {
          "internalType": "contract IPoseidonT3",
          "name": "_hasher",
          "type": "address"
        },
        {
          "internalType": "uint256",
          "name": "_denomination",
          "type": "uint256"
        },
        {
          "internalType": "uint32",
          "name": "_merkleTreeHeight",
          "type": "uint32"
        },
        {
          "internalType": "contract ITokenWrapper",
          "name": "_token",
          "type": "address"
        },
        {
          "internalType": "address",
          "name": "_bridge",
          "type": "address"
        },
        {
          "internalType": "address",
          "name": "_admin",
          "type": "address"
        },
        {
          "internalType": "address",
          "name": "_handler",
          "type": "address"
        },
        {
          "internalType": "uint8",
          "name": "_maxEdges",
          "type": "uint8"
        }
      ],
      "stateMutability": "nonpayable",
      "type": "constructor"
    },
    {
      "anonymous": false,
      "inputs": [
        {
          "indexed": true,
          "internalType": "bytes32",
          "name": "commitment",
          "type": "bytes32"
        },
        {
          "indexed": false,
          "internalType": "uint32",
          "name": "leafIndex",
          "type": "uint32"
        },
        {
          "indexed": false,
          "internalType": "uint256",
          "name": "timestamp",
          "type": "uint256"
        }
      ],
      "name": "Deposit",
      "type": "event"
    },
    {
      "anonymous": false,
      "inputs": [
        {
          "indexed": false,
          "internalType": "uint256",
          "name": "chainID",
          "type": "uint256"
        },
        {
          "indexed": false,
          "internalType": "uint256",
          "name": "latestLeafIndex",
          "type": "uint256"
        },
        {
          "indexed": false,
          "internalType": "bytes32",
          "name": "merkleRoot",
          "type": "bytes32"
        }
      ],
      "name": "EdgeAddition",
      "type": "event"
    },
    {
      "anonymous": false,
      "inputs": [
        {
          "indexed": false,
          "internalType": "uint256",
          "name": "chainID",
          "type": "uint256"
        },
        {
          "indexed": false,
          "internalType": "uint256",
          "name": "latestLeafIndex",
          "type": "uint256"
        },
        {
          "indexed": false,
          "internalType": "bytes32",
          "name": "merkleRoot",
          "type": "bytes32"
        }
      ],
      "name": "EdgeUpdate",
      "type": "event"
    },
    {
      "anonymous": false,
      "inputs": [
        {
          "indexed": true,
          "internalType": "bytes32",
          "name": "commitment",
          "type": "bytes32"
        },
        {
          "indexed": false,
          "internalType": "bytes32",
          "name": "nullifierHash",
          "type": "bytes32"
        },
        {
          "indexed": false,
          "internalType": "uint32",
          "name": "insertedIndex",
          "type": "uint32"
        }
      ],
      "name": "Refresh",
      "type": "event"
    },
    {
      "anonymous": false,
      "inputs": [
        {
          "indexed": false,
          "internalType": "address",
          "name": "to",
          "type": "address"
        },
        {
          "indexed": false,
          "internalType": "bytes32",
          "name": "nullifierHash",
          "type": "bytes32"
        },
        {
          "indexed": true,
          "internalType": "address",
          "name": "relayer",
          "type": "address"
        },
        {
          "indexed": false,
          "internalType": "uint256",
          "name": "fee",
          "type": "uint256"
        }
      ],
      "name": "Withdrawal",
      "type": "event"
    },
    {
      "inputs": [],
      "name": "FIELD_SIZE",
      "outputs": [
        {
          "internalType": "uint256",
          "name": "",
          "type": "uint256"
        }
      ],
      "stateMutability": "view",
      "type": "function"
    },
    {
      "inputs": [],
      "name": "ROOT_HISTORY_SIZE",
      "outputs": [
        {
          "internalType": "uint32",
          "name": "",
          "type": "uint32"
        }
      ],
      "stateMutability": "view",
      "type": "function"
    },
    {
      "inputs": [],
      "name": "ZERO_VALUE",
      "outputs": [
        {
          "internalType": "uint256",
          "name": "",
          "type": "uint256"
        }
      ],
      "stateMutability": "view",
      "type": "function"
    },
    {
      "inputs": [
        {
          "internalType": "uint256",
          "name": "sourceChainID",
          "type": "uint256"
        },
        {
          "internalType": "bytes32",
          "name": "root",
          "type": "bytes32"
        },
        {
          "internalType": "uint256",
          "name": "leafIndex",
          "type": "uint256"
        }
      ],
      "name": "addEdge",
      "outputs": [],
      "stateMutability": "payable",
      "type": "function"
    },
    {
      "inputs": [],
      "name": "admin",
      "outputs": [
        {
          "internalType": "address",
          "name": "",
          "type": "address"
        }
      ],
      "stateMutability": "view",
      "type": "function"
    },
    {
      "inputs": [],
      "name": "bridge",
      "outputs": [
        {
          "internalType": "address",
          "name": "",
          "type": "address"
        }
      ],
      "stateMutability": "view",
      "type": "function"
    },
    {
      "inputs": [
        {
          "internalType": "bytes32",
          "name": "",
          "type": "bytes32"
        }
      ],
      "name": "commitments",
      "outputs": [
        {
          "internalType": "bool",
          "name": "",
          "type": "bool"
        }
      ],
      "stateMutability": "view",
      "type": "function"
    },
    {
      "inputs": [
        {
          "internalType": "uint256",
          "name": "",
          "type": "uint256"
        }
      ],
      "name": "currentNeighborRootIndex",
      "outputs": [
        {
          "internalType": "uint32",
          "name": "",
          "type": "uint32"
        }
      ],
      "stateMutability": "view",
      "type": "function"
    },
    {
      "inputs": [],
      "name": "currentRootIndex",
      "outputs": [
        {
          "internalType": "uint32",
          "name": "",
          "type": "uint32"
        }
      ],
      "stateMutability": "view",
      "type": "function"
    },
    {
      "inputs": [],
      "name": "denomination",
      "outputs": [
        {
          "internalType": "uint256",
          "name": "",
          "type": "uint256"
        }
      ],
      "stateMutability": "view",
      "type": "function"
    },
    {
      "inputs": [
        {
          "internalType": "bytes32",
          "name": "_commitment",
          "type": "bytes32"
        }
      ],
      "name": "deposit",
      "outputs": [],
      "stateMutability": "payable",
      "type": "function"
    },
    {
      "inputs": [
        {
          "internalType": "uint256",
          "name": "",
          "type": "uint256"
        }
      ],
      "name": "edgeExistsForChain",
      "outputs": [
        {
          "internalType": "bool",
          "name": "",
          "type": "bool"
        }
      ],
      "stateMutability": "view",
      "type": "function"
    },
    {
      "inputs": [
        {
          "internalType": "uint256",
          "name": "",
          "type": "uint256"
        }
      ],
      "name": "edgeIndex",
      "outputs": [
        {
          "internalType": "uint256",
          "name": "",
          "type": "uint256"
        }
      ],
      "stateMutability": "view",
      "type": "function"
    },
    {
      "inputs": [
        {
          "internalType": "uint256",
          "name": "",
          "type": "uint256"
        }
      ],
      "name": "edgeList",
      "outputs": [
        {
          "internalType": "uint256",
          "name": "chainID",
          "type": "uint256"
        },
        {
          "internalType": "bytes32",
          "name": "root",
          "type": "bytes32"
        },
        {
          "internalType": "uint256",
          "name": "latestLeafIndex",
          "type": "uint256"
        }
      ],
      "stateMutability": "view",
      "type": "function"
    },
    {
      "inputs": [
        {
          "internalType": "uint256",
          "name": "",
          "type": "uint256"
        }
      ],
      "name": "filledSubtrees",
      "outputs": [
        {
          "internalType": "bytes32",
          "name": "",
          "type": "bytes32"
        }
      ],
      "stateMutability": "view",
      "type": "function"
    },
    {
      "inputs": [],
      "name": "getChainId",
      "outputs": [
        {
          "internalType": "uint256",
          "name": "",
          "type": "uint256"
        }
      ],
      "stateMutability": "view",
      "type": "function"
    },
    {
      "inputs": [],
      "name": "getLastRoot",
      "outputs": [
        {
          "internalType": "bytes32",
          "name": "",
          "type": "bytes32"
        }
      ],
      "stateMutability": "view",
      "type": "function"
    },
    {
      "inputs": [],
      "name": "getLatestNeighborRoots",
      "outputs": [
        {
          "internalType": "bytes32[]",
          "name": "roots",
          "type": "bytes32[]"
        }
      ],
      "stateMutability": "view",
      "type": "function"
    },
    {
      "inputs": [],
      "name": "handler",
      "outputs": [
        {
          "internalType": "address",
          "name": "",
          "type": "address"
        }
      ],
      "stateMutability": "view",
      "type": "function"
    },
    {
      "inputs": [
        {
          "internalType": "uint256",
          "name": "_chainID",
          "type": "uint256"
        }
      ],
      "name": "hasEdge",
      "outputs": [
        {
          "internalType": "bool",
          "name": "",
          "type": "bool"
        }
      ],
      "stateMutability": "view",
      "type": "function"
    },
    {
      "inputs": [
        {
          "internalType": "contract IPoseidonT3",
          "name": "_hasher",
          "type": "address"
        },
        {
          "internalType": "bytes32",
          "name": "_left",
          "type": "bytes32"
        },
        {
          "internalType": "bytes32",
          "name": "_right",
          "type": "bytes32"
        }
      ],
      "name": "hashLeftRight",
      "outputs": [
        {
          "internalType": "bytes32",
          "name": "",
          "type": "bytes32"
        }
      ],
      "stateMutability": "pure",
      "type": "function"
    },
    {
      "inputs": [],
      "name": "hasher",
      "outputs": [
        {
          "internalType": "contract IPoseidonT3",
          "name": "",
          "type": "address"
        }
      ],
      "stateMutability": "view",
      "type": "function"
    },
    {
      "inputs": [
        {
          "internalType": "uint256",
          "name": "neighborChainID",
          "type": "uint256"
        },
        {
          "internalType": "bytes32",
          "name": "_root",
          "type": "bytes32"
        }
      ],
      "name": "isKnownNeighborRoot",
      "outputs": [
        {
          "internalType": "bool",
          "name": "",
          "type": "bool"
        }
      ],
      "stateMutability": "view",
      "type": "function"
    },
    {
      "inputs": [
        {
          "internalType": "bytes32",
          "name": "_root",
          "type": "bytes32"
        }
      ],
      "name": "isKnownRoot",
      "outputs": [
        {
          "internalType": "bool",
          "name": "",
          "type": "bool"
        }
      ],
      "stateMutability": "view",
      "type": "function"
    },
    {
      "inputs": [
        {
          "internalType": "bytes32",
          "name": "_nullifierHash",
          "type": "bytes32"
        }
      ],
      "name": "isSpent",
      "outputs": [
        {
          "internalType": "bool",
          "name": "",
          "type": "bool"
        }
      ],
      "stateMutability": "view",
      "type": "function"
    },
    {
      "inputs": [
        {
          "internalType": "bytes32[]",
          "name": "_nullifierHashes",
          "type": "bytes32[]"
        }
      ],
      "name": "isSpentArray",
      "outputs": [
        {
          "internalType": "bool[]",
          "name": "spent",
          "type": "bool[]"
        }
      ],
      "stateMutability": "view",
      "type": "function"
    },
    {
      "inputs": [
        {
          "internalType": "bytes32[]",
          "name": "roots",
          "type": "bytes32[]"
        }
      ],
      "name": "isValidRoots",
      "outputs": [
        {
          "internalType": "bool",
          "name": "",
          "type": "bool"
        }
      ],
      "stateMutability": "view",
      "type": "function"
    },
    {
      "inputs": [],
      "name": "levels",
      "outputs": [
        {
          "internalType": "uint32",
          "name": "",
          "type": "uint32"
        }
      ],
      "stateMutability": "view",
      "type": "function"
    },
    {
      "inputs": [],
      "name": "maxEdges",
      "outputs": [
        {
          "internalType": "uint8",
          "name": "",
          "type": "uint8"
        }
      ],
      "stateMutability": "view",
      "type": "function"
    },
    {
      "inputs": [
        {
          "internalType": "uint256",
          "name": "",
          "type": "uint256"
        },
        {
          "internalType": "uint32",
          "name": "",
          "type": "uint32"
        }
      ],
      "name": "neighborRoots",
      "outputs": [
        {
          "internalType": "bytes32",
          "name": "",
          "type": "bytes32"
        }
      ],
      "stateMutability": "view",
      "type": "function"
    },
    {
      "inputs": [],
      "name": "nextIndex",
      "outputs": [
        {
          "internalType": "uint32",
          "name": "",
          "type": "uint32"
        }
      ],
      "stateMutability": "view",
      "type": "function"
    },
    {
      "inputs": [
        {
          "internalType": "bytes32",
          "name": "",
          "type": "bytes32"
        }
      ],
      "name": "nullifierHashes",
      "outputs": [
        {
          "internalType": "bool",
          "name": "",
          "type": "bool"
        }
      ],
      "stateMutability": "view",
      "type": "function"
    },
    {
      "inputs": [
        {
          "internalType": "uint256",
          "name": "",
          "type": "uint256"
        }
      ],
      "name": "roots",
      "outputs": [
        {
          "internalType": "bytes32",
          "name": "",
          "type": "bytes32"
        }
      ],
      "stateMutability": "view",
      "type": "function"
    },
    {
      "inputs": [
        {
          "internalType": "address",
          "name": "_bridge",
          "type": "address"
        }
      ],
      "name": "setBridge",
      "outputs": [],
      "stateMutability": "nonpayable",
      "type": "function"
    },
    {
      "inputs": [
        {
          "internalType": "address",
          "name": "_handler",
          "type": "address"
        }
      ],
      "name": "setHandler",
      "outputs": [],
      "stateMutability": "nonpayable",
      "type": "function"
    },
    {
      "inputs": [],
      "name": "token",
      "outputs": [
        {
          "internalType": "address",
          "name": "",
          "type": "address"
        }
      ],
      "stateMutability": "view",
      "type": "function"
    },
    {
      "inputs": [
        {
          "internalType": "uint256[8]",
          "name": "_proof",
          "type": "uint256[8]"
        }
      ],
      "name": "unpackProof",
      "outputs": [
        {
          "internalType": "uint256[2]",
          "name": "",
          "type": "uint256[2]"
        },
        {
          "internalType": "uint256[2][2]",
          "name": "",
          "type": "uint256[2][2]"
        },
        {
          "internalType": "uint256[2]",
          "name": "",
          "type": "uint256[2]"
        }
      ],
      "stateMutability": "pure",
      "type": "function"
    },
    {
      "inputs": [
        {
          "internalType": "address",
          "name": "tokenAddress",
          "type": "address"
        },
        {
          "internalType": "uint256",
          "name": "amount",
          "type": "uint256"
        }
      ],
      "name": "unwrapIntoNative",
      "outputs": [],
      "stateMutability": "nonpayable",
      "type": "function"
    },
    {
      "inputs": [
        {
          "internalType": "address",
          "name": "tokenAddress",
          "type": "address"
        },
        {
          "internalType": "uint256",
          "name": "amount",
          "type": "uint256"
        }
      ],
      "name": "unwrapIntoToken",
      "outputs": [],
      "stateMutability": "nonpayable",
      "type": "function"
    },
    {
      "inputs": [
        {
          "internalType": "uint256",
          "name": "sourceChainID",
          "type": "uint256"
        },
        {
          "internalType": "bytes32",
          "name": "root",
          "type": "bytes32"
        },
        {
          "internalType": "uint256",
          "name": "leafIndex",
          "type": "uint256"
        }
      ],
      "name": "updateEdge",
      "outputs": [],
      "stateMutability": "payable",
      "type": "function"
    },
    {
      "inputs": [],
      "name": "verifier",
      "outputs": [
        {
          "internalType": "contract IVerifier",
          "name": "",
          "type": "address"
        }
      ],
      "stateMutability": "view",
      "type": "function"
    },
    {
      "inputs": [
        {
          "internalType": "bytes",
          "name": "_proof",
          "type": "bytes"
        },
        {
          "components": [
            {
              "internalType": "bytes",
              "name": "_roots",
              "type": "bytes"
            },
            {
              "internalType": "bytes32",
              "name": "_nullifierHash",
              "type": "bytes32"
            },
            {
              "internalType": "bytes32",
              "name": "_refreshCommitment",
              "type": "bytes32"
            },
            {
              "internalType": "address payable",
              "name": "_recipient",
              "type": "address"
            },
            {
              "internalType": "address payable",
              "name": "_relayer",
              "type": "address"
            },
            {
              "internalType": "uint256",
              "name": "_fee",
              "type": "uint256"
            },
            {
              "internalType": "uint256",
              "name": "_refund",
              "type": "uint256"
            }
          ],
          "internalType": "struct AnchorBase.PublicInputs",
          "name": "_publicInputs",
          "type": "tuple"
        }
      ],
      "name": "withdraw",
      "outputs": [],
      "stateMutability": "payable",
      "type": "function"
    },
    {
      "inputs": [
        {
          "internalType": "bytes",
          "name": "_proof",
          "type": "bytes"
        },
        {
          "components": [
            {
              "internalType": "bytes",
              "name": "_roots",
              "type": "bytes"
            },
            {
              "internalType": "bytes32",
              "name": "_nullifierHash",
              "type": "bytes32"
            },
            {
              "internalType": "bytes32",
              "name": "_refreshCommitment",
              "type": "bytes32"
            },
            {
              "internalType": "address payable",
              "name": "_recipient",
              "type": "address"
            },
            {
              "internalType": "address payable",
              "name": "_relayer",
              "type": "address"
            },
            {
              "internalType": "uint256",
              "name": "_fee",
              "type": "uint256"
            },
            {
              "internalType": "uint256",
              "name": "_refund",
              "type": "uint256"
            }
          ],
          "internalType": "struct AnchorBase.PublicInputs",
          "name": "_publicInputs",
          "type": "tuple"
        },
        {
          "internalType": "address",
          "name": "tokenAddress",
          "type": "address"
        }
      ],
      "name": "withdrawAndUnwrap",
      "outputs": [],
      "stateMutability": "payable",
      "type": "function"
    },
    {
      "inputs": [
        {
          "internalType": "address",
          "name": "tokenAddress",
          "type": "address"
        },
        {
          "internalType": "bytes32",
          "name": "_commitment",
          "type": "bytes32"
        }
      ],
      "name": "wrapAndDeposit",
      "outputs": [],
      "stateMutability": "payable",
      "type": "function"
    },
    {
      "inputs": [],
      "name": "wrapNative",
      "outputs": [],
      "stateMutability": "payable",
      "type": "function"
    },
    {
      "inputs": [
        {
          "internalType": "address",
          "name": "tokenAddress",
          "type": "address"
        },
        {
          "internalType": "uint256",
          "name": "amount",
          "type": "uint256"
        }
      ],
      "name": "wrapToken",
      "outputs": [],
      "stateMutability": "nonpayable",
      "type": "function"
    },
    {
      "inputs": [
        {
          "internalType": "uint256",
          "name": "i",
          "type": "uint256"
        }
      ],
      "name": "zeros",
      "outputs": [
        {
          "internalType": "bytes32",
          "name": "",
          "type": "bytes32"
        }
      ],
      "stateMutability": "pure",
      "type": "function"
    }
  ],
  "bytecode": "0x610140604052600280546001600160401b03191690553480156200002257600080fd5b5060405162005806380380620058068339810160408190526200004591620008c0565b888888888787878787878787848184818160008263ffffffff1611620000885760405162461bcd60e51b81526004016200007f9062000a05565b60405180910390fd5b60208263ffffffff1610620000b15760405162461bcd60e51b81526004016200007f90620009ce565b60e09190911b6001600160e01b03191660a05260601b6001600160601b03191660805260005b8263ffffffff168163ffffffff1610156200012857620000fd63ffffffff821662000245565b63ffffffff8216600090815260208190526040902055806200011f8162000aa7565b915050620000d7565b50620001466200013a60018462000a7f565b63ffffffff1662000245565b60008052600160208190527fa6eef7e35abe7026729641147f7915573c7e97b47efa546f5f6e3230263bcb49919091556003555050826200019b5760405162461bcd60e51b81526004016200007f9062000989565b606094851b6001600160601b031990811660c05260e0939093526000600e5560f81b7fff00000000000000000000000000000000000000000000000000000000000000166101005250600480546001600160a01b03199081166001600160a01b03998a16179091556005805482169789169790971790965560068054909616949096169390931790935550509990991b909816610120525062000afd9a5050505050505050505050565b6000816200027557507f2fe54c60d3acabf3343a35b6eba15db4821b340f76e741e2249685ed4899af6c6200089c565b8160011415620002a757507f13e37f2d6cb86c78ccc1788607c2b199788c6bb0a615a21f2e7a8e88384222f86200089c565b8160021415620002d957507f217126fa352c326896e8c2803eec8fd63ad50cf65edfef27a41a9e32dc6227656200089c565b81600314156200030b57507f0e28a61a9b3e91007d5a9e3ada18e1b24d6d230c618388ee5df34cacd7397eee6200089c565b81600414156200033d57507f27953447a6979839536badc5425ed15fadb0e292e9bc36f92f0aa5cfa50135876200089c565b81600514156200036f57507f194191edbfb91d10f6a7afd315f33095410c7801c47175c2df6dc2cce0e3affc6200089c565b8160061415620003a157507f1733dece17d71190516dbaf1927936fa643dc7079fc0cc731de9d6845a47741f6200089c565b8160071415620003d357507f267855a7dc75db39d81d17f95d0a7aa572bf5ae19f4db0e84221d2b2ef9992196200089c565b81600814156200040557507f1184e11836b4c36ad8238a340ecc0985eeba665327e33e9b0e3641027c27620d6200089c565b81600914156200043757507f0702ab83a135d7f55350ab1bfaa90babd8fc1d2b3e6a7215381a7b2213d6c5ce6200089c565b81600a14156200046957507f2eecc0de814cfd8c57ce882babb2e30d1da56621aef7a47f3291cffeaec26ad76200089c565b81600b14156200049b57507f280bc02145c155d5833585b6c7b08501055157dd30ce005319621dc462d33b476200089c565b81600c1415620004cd57507f045132221d1fa0a7f4aed8acd2cbec1e2189b7732ccb2ec272b9c60f0d5afc5b6200089c565b81600d1415620004ff57507f27f427ccbf58a44b1270abbe4eda6ba53bd6ac4d88cf1e00a13c4371ce71d3666200089c565b81600e14156200053157507f1617eaae5064f26e8f8a6493ae92bfded7fde71b65df1ca6d5dcec0df70b2cef6200089c565b81600f14156200056357507f20c6b400d0ea1b15435703c31c31ee63ad7ba5c8da66cec2796feacea575abca6200089c565b81601014156200059557507f09589ddb438723f53a8e57bdada7c5f8ed67e8fece3889a73618732965645eec6200089c565b8160111415620005c657507e64b6a738a5ff537db7b220f3394f0ecbd35bfd355c5425dc1166bf3236079b6200089c565b8160121415620005f857507f095de56281b1d5055e897c3574ff790d5ee81dbc5df784ad2d67795e557c9e9f6200089c565b81601314156200062a57507f11cf2e2887aa21963a6ec14289183efe4d4c60f14ecd3d6fe0beebdf855a9b636200089c565b81601414156200065c57507f2b0f6fc0179fa65b6f73627c0e1e84c7374d2eaec44c9a48f2571393ea77bcbb6200089c565b81601514156200068e57507f16fdb637c2abf9c0f988dbf2fd64258c46fb6a273d537b2cf1603ea460b132796200089c565b8160161415620006c057507f21bbd7e944f6124dad4c376df9cc12e7ca66e47dff703ff7cedb1a454edcf0ff6200089c565b8160171415620006f257507f2784f8220b1c963e468f590f137baaa1625b3b92a27ad9b6e84eb0d3454d99626200089c565b81601814156200072457507f16ace1a65b7534142f8cc1aad810b3d6a7a74ca905d9c275cb98ba57e509fc106200089c565b81601914156200075657507f2328068c6a8c24265124debd8fe10d3f29f0665ea725a65e3638f6192a96a0136200089c565b81601a14156200078857507f2ddb991be1f028022411b4c4d2c22043e5e751c120736f00adf54acab1c9ac146200089c565b81601b1415620007ba57507f0113798410eaeb95056a464f70521eb58377c0155f2fe518a5594d38cc209cc06200089c565b81601c1415620007ec57507f202d1ae61526f0d0d01ef80fb5d4055a7af45721024c2c24cffd6a3798f54d506200089c565b81601d14156200081e57507f23ab323453748129f2765f79615022f5bebd6f4096a796300aab049a60b0f1876200089c565b81601e14156200085057507f1f15585f8947e378bcf8bd918716799da909acdb944c57150b1eb4565fda8aa06200089c565b81601f14156200088257507f1eb064b21055ac6a350cf41eb30e4ce2cb19680217df3a243617c2838185ad066200089c565b60405162461bcd60e51b81526004016200007f9062000a48565b919050565b80516200089c8162000ae4565b805160ff811681146200089c57600080fd5b60008060008060008060008060006101208a8c031215620008df578485fd5b8951620008ec8162000ae4565b60208b0151909950620008ff8162000ae4565b60408b015160608c0151919950975063ffffffff8116811462000920578586fd5b60808b0151909650620009338162000ae4565b60a08b0151909550620009468162000ae4565b60c08b0151909450620009598162000ae4565b92506200096960e08b01620008a1565b91506200097a6101008b01620008ae565b90509295985092959850929598565b60208082526025908201527f64656e6f6d696e6174696f6e2073686f756c6420626520677265617465722074604082015264068616e20360dc1b606082015260800190565b6020808252601e908201527f5f6c6576656c732073686f756c64206265206c657373207468616e2033320000604082015260600190565b60208082526023908201527f5f6c6576656c732073686f756c642062652067726561746572207468616e207a60408201526265726f60e81b606082015260800190565b60208082526013908201527f496e646578206f7574206f6620626f756e647300000000000000000000000000604082015260600190565b600063ffffffff8381169083168181101562000a9f5762000a9f62000ace565b039392505050565b600063ffffffff8083168181141562000ac45762000ac462000ace565b6001019392505050565b634e487b7160e01b600052601160045260246000fd5b6001600160a01b038116811462000afa57600080fd5b50565b60805160601c60a05160e01c60c05160601c60e0516101005160f81c6101205160601c614bb562000c5160003960008181610e4001528181610eea015281816110d20152818161161a01528181611c1201528181612453015281816126a701528181613133015281816132190152818161325301528181613289015261334801526000818161085e015281816108d601528181610a7201528181610f8f015281816111c00152818161276b015281816127e90152818161291001528181612a5d01528181612be801528181612db201526130420152600081816111f90152818161164d0152818161174001528181611a9601528181611c43015281816126d8015281816131bc015281816131eb01526132b50152600081816109ea015261300f01526000818161097b01528181610eb1015281816124a601526124ff01526000818161237001526125980152614bb56000f3fe6080604052600436106102885760003560e01c80639fa12d0b1161015a578063e5285dcc116100c1578063f178e47c1161007a578063f178e47c14610702578063f5ab0dd614610722578063f851a44014610751578063fa73168714610766578063fc0c546a14610786578063fc7e9c6f1461079b57610288565b8063e5285dcc14610663578063e70ea87c14610683578063e78cea92146106a3578063e8295588146106b8578063ec732959146106d8578063ed33639f146106ed57610288565b8063c80916d411610113578063c80916d4146105d1578063cd3a9550146105e6578063cd87a3b4146105f9578063d0e8d34a1461060e578063dbc916b814610621578063df203aa71461065057610288565b80639fa12d0b1461053c5780639ff80063146103e8578063b214faa514610569578063ba70f7571461057c578063bac426d014610591578063c2b40ae4146105b157610288565b80634f401241116101fe578063839df945116101b7578063839df945146104925780638bca6d16146104b25780638dd14802146104c75780638ea3099e146104e757806390eeb02b14610507578063921563111461051c57610288565b80634f401241146103e85780635d2d766c14610408578063616e0957146104285780636ad481f3146104485780636d9833e31461045057806371523c321461047057610288565b80633b9e44de116102505780633b9e44de14610349578063414a37ba1461035e57806343e7119f1461037357806344347ba914610393578063460b53e3146103a65780634ecf518b146103c657610288565b806311e4dcb91461028d57806317cc915c146102c35780631e627617146102e35780632b7ac3f3146103055780633408e47014610327575b600080fd5b34801561029957600080fd5b506102ad6102a8366004613e27565b6107b0565b6040516102ba91906141fa565b60405180910390f35b3480156102cf57600080fd5b506102ad6102de366004613c68565b610845565b3480156102ef57600080fd5b506102f861085a565b6040516102ba9190614138565b34801561031157600080fd5b5061031a6109e8565b6040516102ba9190614055565b34801561033357600080fd5b5061033c610a0c565b6040516102ba9190614205565b61035c610357366004613e48565b610a10565b005b34801561036a57600080fd5b5061033c610bda565b34801561037f57600080fd5b5061033c61038e366004613e73565b610bfe565b61035c6103a1366004613e48565b610c1b565b3480156103b257600080fd5b5061035c6103c13660046138ab565b610e29565b3480156103d257600080fd5b506103db610eaf565b6040516102ba919061481e565b3480156103f457600080fd5b5061035c6104033660046138ab565b610ed3565b34801561041457600080fd5b506103db610423366004613c68565b610f23565b34801561043457600080fd5b506102ad610443366004613aa5565b610f3b565b61035c6110bb565b34801561045c57600080fd5b506102ad61046b366004613c68565b611142565b34801561047c57600080fd5b506104856111be565b6040516102ba9190614845565b34801561049e57600080fd5b506102ad6104ad366004613c68565b6111e2565b3480156104be57600080fd5b5061033c6111f7565b3480156104d357600080fd5b5061035c6104e2366004613864565b61121b565b3480156104f357600080fd5b5061033c610502366004613ddb565b611267565b34801561051357600080fd5b506103db611384565b34801561052857600080fd5b506102ad610537366004613c68565b611390565b34801561054857600080fd5b5061055c610557366004613a37565b6113a5565b6040516102ba91906140f2565b61035c610577366004613c68565b611484565b34801561058857600080fd5b5061033c61154c565b34801561059d57600080fd5b5061035c6105ac366004613864565b611567565b3480156105bd57600080fd5b5061033c6105cc366004613c68565b6115b3565b3480156105dd57600080fd5b5061031a6115c5565b61035c6105f4366004613880565b6115d4565b34801561060557600080fd5b506103db611711565b61035c61061c366004613c80565b611716565b34801561062d57600080fd5b5061064161063c366004613c68565b611a34565b6040516102ba93929190614808565b61035c61065e366004613ceb565b611a67565b34801561066f57600080fd5b506102ad61067e366004613c68565b611cff565b34801561068f57600080fd5b5061033c61069e366004613c68565b611d14565b3480156106af57600080fd5b5061031a611d26565b3480156106c457600080fd5b5061033c6106d3366004613c68565b611d35565b3480156106e457600080fd5b5061033c61234a565b3480156106f957600080fd5b5061031a61236e565b34801561070e57600080fd5b5061033c61071d366004613c68565b612392565b34801561072e57600080fd5b5061074261073d366004613b4b565b6123a4565b6040516102ba9392919061417e565b34801561075d57600080fd5b5061031a61242d565b34801561077257600080fd5b506102ad610781366004613c68565b61243c565b34801561079257600080fd5b5061031a612451565b3480156107a757600080fd5b506103db612475565b6000816107bf5750600061083f565b6000838152600b602052604090205463ffffffff16805b6000858152600a6020908152604080832063ffffffff851684529091529020548414156108085760019250505061083f565b63ffffffff81166108175750601e5b8061082181614aa6565b9150508163ffffffff168163ffffffff1614156107d6576000925050505b92915050565b600c6020526000908152604090205460ff1681565b60607f000000000000000000000000000000000000000000000000000000000000000060ff166001600160401b038111156108a557634e487b7160e01b600052604160045260246000fd5b6040519080825280602002602001820160405280156108ce578160200160208202803683370190505b50905060005b7f000000000000000000000000000000000000000000000000000000000000000060ff168110156109e45761090a8160016148c0565b60095410610976576009818154811061093357634e487b7160e01b600052603260045260246000fd5b90600052602060002090600302016001015482828151811061096557634e487b7160e01b600052603260045260246000fd5b6020026020010181815250506109d2565b6109a57f000000000000000000000000000000000000000000000000000000000000000063ffffffff16611d35565b8282815181106109c557634e487b7160e01b600052603260045260246000fd5b6020026020010181815250505b806109dc81614ac6565b9150506108d4565b5090565b7f000000000000000000000000000000000000000000000000000000000000000081565b4690565b6006546001600160a01b03163314610a435760405162461bcd60e51b8152600401610a3a906147d1565b60405180910390fd5b60026003541415610a665760405162461bcd60e51b8152600401610a3a9061479a565b600260035560095460ff7f00000000000000000000000000000000000000000000000000000000000000001611610aaf5760405162461bcd60e51b8152600401610a3a90614235565b6000838152600860209081526040808320805460ff1916600190811790915560098054835160608101855289815280860189815281860189815294830184559287528051600383027f6e1540171b6c0c960b71a7020d9f60077f6af931a8bbf590da0223dacf75c7af81019190915592517f6e1540171b6c0c960b71a7020d9f60077f6af931a8bbf590da0223dacf75c7b084015592517f6e1540171b6c0c960b71a7020d9f60077f6af931a8bbf590da0223dacf75c7b19092019190915587855260078452828520819055600a84528285208580529093528184208690559051919290917fcf4749969bace1552af6a97fe7e4affedf68875511f9746c6332eb40647b305490610bc590889087908990614808565b60405180910390a15050600160035550505050565b7f30644e72e131a029b85045b68181585d2833e84879b9709143e1f593f000000181565b600a60209081526000928352604080842090915290825290205481565b6006546001600160a01b03163314610c455760405162461bcd60e51b8152600401610a3a906147d1565b60026003541415610c685760405162461bcd60e51b8152600401610a3a9061479a565b600260035560008381526008602052604090205460ff16610c9b5760405162461bcd60e51b8152600401610a3a9061426c565b600083815260076020526040902054600980548392908110610ccd57634e487b7160e01b600052603260045260246000fd5b90600052602060002090600302016002015410610cfc5760405162461bcd60e51b8152600401610a3a90614460565b6000838152600760209081526040918290205482516060810184528681529182018590529181018390526009805483908110610d4857634e487b7160e01b600052603260045260246000fd5b60009182526020808320845160039093020191825583810151600180840191909155604094850151600290930192909255878352600b9052918120549091601e91610d9b9163ffffffff909116906148d8565b610da59190614b05565b6000868152600b60209081526040808320805463ffffffff191663ffffffff8616908117909155600a835281842090845290915290819020869055519091507f675e61f04bcf314a9c310a93f2346f417a03d704c1caf9c6af8a65ad8addfa3f90610e1590879086908890614808565b60405180910390a150506001600355505050565b604051630594d27160e31b81526001600160a01b037f00000000000000000000000000000000000000000000000000000000000000001690632ca6938890610e79903390869086906004016140a3565b600060405180830381600087803b158015610e9357600080fd5b505af1158015610ea7573d6000803e3d6000fd5b505050505050565b7f000000000000000000000000000000000000000000000000000000000000000081565b60405163130e405b60e11b81526001600160a01b037f0000000000000000000000000000000000000000000000000000000000000000169063261c80b690610e79903390869086906004016140a3565b600b6020526000908152604090205463ffffffff1681565b6000610f6e82600081518110610f6157634e487b7160e01b600052603260045260246000fd5b6020026020010151611142565b610f8a5760405162461bcd60e51b8152600401610a3a906142c9565b610fb57f00000000000000000000000000000000000000000000000000000000000000006001614900565b60ff16825114610fd75760405162461bcd60e51b8152600401610a3a90614566565b60005b6009548110156110b05760006009828154811061100757634e487b7160e01b600052603260045260246000fd5b90600052602060002090600302016040518060600160405290816000820154815260200160018201548152602001600282015481525050905061108181600001518584600161105691906148c0565b8151811061107457634e487b7160e01b600052603260045260246000fd5b60200260200101516107b0565b61109d5760405162461bcd60e51b8152600401610a3a9061459d565b50806110a881614ac6565b915050610fda565b50600190505b919050565b604051630594d27160e31b81526001600160a01b037f00000000000000000000000000000000000000000000000000000000000000001690632ca6938890349061110e90339060009081906004016140a3565b6000604051808303818588803b15801561112757600080fd5b505af115801561113b573d6000803e3d6000fd5b5050505050565b600081611151575060006110b6565b60025463ffffffff16805b63ffffffff8116600090815260016020526040902054841415611184576001925050506110b6565b63ffffffff81166111935750601e5b8061119d81614aa6565b9150508163ffffffff168163ffffffff16141561115c575060009392505050565b7f000000000000000000000000000000000000000000000000000000000000000081565b600d6020526000908152604090205460ff1681565b7f000000000000000000000000000000000000000000000000000000000000000081565b6005546001600160a01b031633146112455760405162461bcd60e51b8152600401610a3a90614508565b600480546001600160a01b0319166001600160a01b0392909216919091179055565b60007f30644e72e131a029b85045b68181585d2833e84879b9709143e1f593f000000183106112a85760405162461bcd60e51b8152600401610a3a906143be565b7f30644e72e131a029b85045b68181585d2833e84879b9709143e1f593f000000182106112e75760405162461bcd60e51b8152600401610a3a90614497565b6040805180820182528481526020810184905290516314d2f97b60e11b8152849184916001600160a01b038816916329a5f2f6916113289190600401614170565b60206040518083038186803b15801561134057600080fd5b505afa158015611354573d6000803e3d6000fd5b505050506040513d601f19601f820116820180604052508101906113789190613e0f565b925050505b9392505050565b60025463ffffffff1681565b60009081526008602052604090205460ff1690565b6060816001600160401b038111156113cd57634e487b7160e01b600052604160045260246000fd5b6040519080825280602002602001820160405280156113f6578160200160208202803683370190505b50905060005b8281101561147d5761143384848381811061142757634e487b7160e01b600052603260045260246000fd5b90506020020135611cff565b1561146b57600182828151811061145a57634e487b7160e01b600052603260045260246000fd5b911515602092830291909101909101525b8061147581614ac6565b9150506113fc565b5092915050565b600260035414156114a75760405162461bcd60e51b8152600401610a3a9061479a565b60026003556000818152600d602052604090205460ff16156114db5760405162461bcd60e51b8152600401610a3a9061460b565b60006114e682612489565b6000838152600d60205260409020805460ff191660011790559050611509612672565b817fa945e51eec50ab98c161376f0db4cf2aeba3ec92755fe2fcd388bdbbb80ff196824260405161153b92919061482f565b60405180910390a250506001600355565b60025463ffffffff1660009081526001602052604090205490565b6004546001600160a01b031633146115915760405162461bcd60e51b8152600401610a3a90614387565b600680546001600160a01b0319166001600160a01b0392909216919091179055565b60016020526000908152604090205481565b6006546001600160a01b031681565b6000818152600d602052604090205460ff16156116035760405162461bcd60e51b8152600401610a3a9061460b565b604051633d97186b60e11b81526001600160a01b037f00000000000000000000000000000000000000000000000000000000000000001690637b2e30d690349061167790339087907f00000000000000000000000000000000000000000000000000000000000000009030906004016140c7565b6000604051808303818588803b15801561169057600080fd5b505af11580156116a4573d6000803e3d6000fd5b505050505060006116b482612489565b6000838152600d602052604090819020805460ff191660011790555190915082907fa945e51eec50ab98c161376f0db4cf2aeba3ec92755fe2fcd388bdbbb80ff19690611704908490429061482f565b60405180910390a2505050565b601e81565b600260035414156117395760405162461bcd60e51b8152600401610a3a9061479a565b60026003557f000000000000000000000000000000000000000000000000000000000000000060a082013511156117825760405162461bcd60e51b8152600401610a3a90614300565b6020808201356000908152600c909152604090205460ff16156117b75760405162461bcd60e51b8152600401610a3a906145d4565b6000806118346117c78480614853565b8080601f016020809104026020016040519081016040528093929190818152602001838380828437600092019190915250505050602085013560408601356118156080880160608901613864565b61182560a0890160808a01613864565b8860a001358960c00135612755565b9150915061184181610f3b565b61185d5760405162461bcd60e51b8152600401610a3a9061453f565b61189e85858080601f016020809104026020016040519081016040528093929190818152602001838380828437600092019190915250869250612fe0915050565b6118ba5760405162461bcd60e51b8152600401610a3a906144d8565b6020808401356000908152600c909152604090819020805460ff19166001179055830135611984576119146118f56080850160608601613864565b61190560a0860160808701613864565b8560a001358660c001356130fa565b61192460a0840160808501613864565b6001600160a01b03167fe9e508bad6d4c3227e881ca19068f099da81b5164dd6d62b2eaf1e8bc6c3493161195e6080860160608701613864565b85602001358660a0013560405161197793929190614069565b60405180910390a2611a28565b6040808401356000908152600d602052205460ff16156119b65760405162461bcd60e51b8152600401610a3a9061460b565b60006119c58460400135612489565b6040808601356000818152600d602090815290839020805460ff191660011790559151929350917f138604f043594af1377bf30140984eef19cad0fb0c801cbb9b879005eddc06f091611a1e919088013590859061420e565b60405180910390a2505b50506001600355505050565b60098181548110611a4457600080fd5b600091825260209091206003909102018054600182015460029092015490925083565b60026003541415611a8a5760405162461bcd60e51b8152600401610a3a9061479a565b600260035560a08201517f00000000000000000000000000000000000000000000000000000000000000001015611ad35760405162461bcd60e51b8152600401610a3a90614300565b6020808301516000908152600c909152604090205460ff1615611b085760405162461bcd60e51b8152600401610a3a906145d4565b600080611b36846000015185602001518660400151876060015188608001518960a001518a60c00151612755565b91509150611b4381610f3b565b611b5f5760405162461bcd60e51b8152600401610a3a9061453f565b611ba086868080601f016020809104026020016040519081016040528093929190818152602001838380828437600092019190915250869250612fe0915050565b611bbc5760405162461bcd60e51b8152600401610a3a906144d8565b6020808501516000908152600c90915260409020805460ff191660011790556060840151608085015160a086015160c0870151611bfb939291906130fa565b60405163130e405b60e11b81526001600160a01b037f0000000000000000000000000000000000000000000000000000000000000000169063261c80b690611c6b90339087907f0000000000000000000000000000000000000000000000000000000000000000906004016140a3565b600060405180830381600087803b158015611c8557600080fd5b505af1158015611c99573d6000803e3d6000fd5b5050505083608001516001600160a01b03167fe9e508bad6d4c3227e881ca19068f099da81b5164dd6d62b2eaf1e8bc6c34931856060015186602001518760a00151604051611cea93929190614069565b60405180910390a25050600160035550505050565b6000908152600c602052604090205460ff1690565b60076020526000908152604090205481565b6004546001600160a01b031681565b600081611d6357507f2fe54c60d3acabf3343a35b6eba15db4821b340f76e741e2249685ed4899af6c6110b6565b8160011415611d9357507f13e37f2d6cb86c78ccc1788607c2b199788c6bb0a615a21f2e7a8e88384222f86110b6565b8160021415611dc357507f217126fa352c326896e8c2803eec8fd63ad50cf65edfef27a41a9e32dc6227656110b6565b8160031415611df357507f0e28a61a9b3e91007d5a9e3ada18e1b24d6d230c618388ee5df34cacd7397eee6110b6565b8160041415611e2357507f27953447a6979839536badc5425ed15fadb0e292e9bc36f92f0aa5cfa50135876110b6565b8160051415611e5357507f194191edbfb91d10f6a7afd315f33095410c7801c47175c2df6dc2cce0e3affc6110b6565b8160061415611e8357507f1733dece17d71190516dbaf1927936fa643dc7079fc0cc731de9d6845a47741f6110b6565b8160071415611eb357507f267855a7dc75db39d81d17f95d0a7aa572bf5ae19f4db0e84221d2b2ef9992196110b6565b8160081415611ee357507f1184e11836b4c36ad8238a340ecc0985eeba665327e33e9b0e3641027c27620d6110b6565b8160091415611f1357507f0702ab83a135d7f55350ab1bfaa90babd8fc1d2b3e6a7215381a7b2213d6c5ce6110b6565b81600a1415611f4357507f2eecc0de814cfd8c57ce882babb2e30d1da56621aef7a47f3291cffeaec26ad76110b6565b81600b1415611f7357507f280bc02145c155d5833585b6c7b08501055157dd30ce005319621dc462d33b476110b6565b81600c1415611fa357507f045132221d1fa0a7f4aed8acd2cbec1e2189b7732ccb2ec272b9c60f0d5afc5b6110b6565b81600d1415611fd357507f27f427ccbf58a44b1270abbe4eda6ba53bd6ac4d88cf1e00a13c4371ce71d3666110b6565b81600e141561200357507f1617eaae5064f26e8f8a6493ae92bfded7fde71b65df1ca6d5dcec0df70b2cef6110b6565b81600f141561203357507f20c6b400d0ea1b15435703c31c31ee63ad7ba5c8da66cec2796feacea575abca6110b6565b816010141561206357507f09589ddb438723f53a8e57bdada7c5f8ed67e8fece3889a73618732965645eec6110b6565b816011141561209257507e64b6a738a5ff537db7b220f3394f0ecbd35bfd355c5425dc1166bf3236079b6110b6565b81601214156120c257507f095de56281b1d5055e897c3574ff790d5ee81dbc5df784ad2d67795e557c9e9f6110b6565b81601314156120f257507f11cf2e2887aa21963a6ec14289183efe4d4c60f14ecd3d6fe0beebdf855a9b636110b6565b816014141561212257507f2b0f6fc0179fa65b6f73627c0e1e84c7374d2eaec44c9a48f2571393ea77bcbb6110b6565b816015141561215257507f16fdb637c2abf9c0f988dbf2fd64258c46fb6a273d537b2cf1603ea460b132796110b6565b816016141561218257507f21bbd7e944f6124dad4c376df9cc12e7ca66e47dff703ff7cedb1a454edcf0ff6110b6565b81601714156121b257507f2784f8220b1c963e468f590f137baaa1625b3b92a27ad9b6e84eb0d3454d99626110b6565b81601814156121e257507f16ace1a65b7534142f8cc1aad810b3d6a7a74ca905d9c275cb98ba57e509fc106110b6565b816019141561221257507f2328068c6a8c24265124debd8fe10d3f29f0665ea725a65e3638f6192a96a0136110b6565b81601a141561224257507f2ddb991be1f028022411b4c4d2c22043e5e751c120736f00adf54acab1c9ac146110b6565b81601b141561227257507f0113798410eaeb95056a464f70521eb58377c0155f2fe518a5594d38cc209cc06110b6565b81601c14156122a257507f202d1ae61526f0d0d01ef80fb5d4055a7af45721024c2c24cffd6a3798f54d506110b6565b81601d14156122d257507f23ab323453748129f2765f79615022f5bebd6f4096a796300aab049a60b0f1876110b6565b81601e141561230257507f1f15585f8947e378bcf8bd918716799da909acdb944c57150b1eb4565fda8aa06110b6565b81601f141561233257507f1eb064b21055ac6a350cf41eb30e4ce2cb19680217df3a243617c2838185ad066110b6565b60405162461bcd60e51b8152600401610a3a906146d3565b7f2fe54c60d3acabf3343a35b6eba15db4821b340f76e741e2249685ed4899af6c81565b7f000000000000000000000000000000000000000000000000000000000000000081565b60006020819052908152604090205481565b6123ac61365b565b6123b4613679565b6123bc61365b565b50506040805180820182528351815260208085015181830152825160808082018552868501518286019081526060808901519084015282528451808601865290870151815260a08701518184015281830152835180850190945260c0860151845260e0909501519083015293909150565b6005546001600160a01b031681565b60086020526000908152604090205460ff1681565b7f000000000000000000000000000000000000000000000000000000000000000081565b600254640100000000900463ffffffff1681565b6002805460009164010000000090910463ffffffff16906124cb907f00000000000000000000000000000000000000000000000000000000000000009061498e565b63ffffffff168163ffffffff1614156124f65760405162461bcd60e51b8152600401610a3a9061474a565b8083600080805b7f000000000000000000000000000000000000000000000000000000000000000063ffffffff168163ffffffff1610156125df5761253c600286614b05565b63ffffffff16612577578392506125588163ffffffff16611d35565b63ffffffff821660009081526020819052604090208590559150612593565b63ffffffff811660009081526020819052604090205492508391505b6125be7f00000000000000000000000000000000000000000000000000000000000000008484611267565b93506125cb600286614925565b9450806125d781614ae1565b9150506124fd565b50600254600090601e906125fa9063ffffffff1660016148d8565b6126049190614b05565b6002805463ffffffff191663ffffffff8316908117909155600090815260016020819052604090912086905590915061263e9087906148d8565b6002805463ffffffff929092166401000000000267ffffffff00000000199092169190911790555093945050505050919050565b34156126905760405162461bcd60e51b8152600401610a3a9061464c565b6040516323b872dd60e01b81526001600160a01b037f000000000000000000000000000000000000000000000000000000000000000016906323b872dd9061270090339030907f0000000000000000000000000000000000000000000000000000000000000000906004016140a3565b602060405180830381600087803b15801561271a57600080fd5b505af115801561272e573d6000803e3d6000fd5b505050506040513d601f19601f820116820180604052508101906127529190613c48565b50565b6060806000612762610a0c565b905060006127917f00000000000000000000000000000000000000000000000000000000000000006001614900565b60ff166001600160401b038111156127b957634e487b7160e01b600052604160045260246000fd5b6040519080825280602002602001820160405280156127e2578160200160208202803683370190505b50905060607f000000000000000000000000000000000000000000000000000000000000000060ff166001141561290e5761281b6136a6565b60008d80602001905181019061283191906138bd565b905080600060200201518460008151811061285c57634e487b7160e01b600052603260045260246000fd5b602090810291909101015280600160200201518460018151811061289057634e487b7160e01b600052603260045260246000fd5b6020908102919091018101919091528d83526001600160a01b038c8116848301528b16604080850191909152606084018b9052608084018a905260a08401879052825160c08501528282015160e085015261010084018e9052516128f691849101614001565b60405160208183030381529060405292505050612fd0565b7f000000000000000000000000000000000000000000000000000000000000000060ff1660021415612a5b576129426136c5565b60008d8060200190518101906129589190613940565b905080600060200201518460008151811061298357634e487b7160e01b600052603260045260246000fd5b60209081029190910101528060016020020151846001815181106129b757634e487b7160e01b600052603260045260246000fd5b60209081029190910101528060026020020151846002815181106129eb57634e487b7160e01b600052603260045260246000fd5b6020908102919091018101919091528d83526001600160a01b038c8116848301528b16604080850191909152606084018b9052608084018a905260a08401879052825160c08501528282015160e08501528281015161010085015261012084018e9052516128f691849101613f2d565b7f000000000000000000000000000000000000000000000000000000000000000060ff1660031415612be657612a8f6136e4565b60008d806020019051810190612aa591906139b6565b9050806000602002015184600081518110612ad057634e487b7160e01b600052603260045260246000fd5b6020908102919091010152806001602002015184600181518110612b0457634e487b7160e01b600052603260045260246000fd5b6020908102919091010152806002602002015184600281518110612b3857634e487b7160e01b600052603260045260246000fd5b6020908102919091010152806003602002015184600381518110612b6c57634e487b7160e01b600052603260045260246000fd5b6020908102919091018101919091528d83526001600160a01b038c8116848301528b1660408085019190915260608085018c9052608085018b905260a08501889052835160c08601528383015160e08601528382015161010086015283015161012085015261014084018e9052516128f691849101613f62565b7f000000000000000000000000000000000000000000000000000000000000000060ff1660041415612db057612c1a613703565b60008d806020019051810190612c3091906139e1565b9050806000602002015184600081518110612c5b57634e487b7160e01b600052603260045260246000fd5b6020908102919091010152806001602002015184600181518110612c8f57634e487b7160e01b600052603260045260246000fd5b6020908102919091010152806002602002015184600281518110612cc357634e487b7160e01b600052603260045260246000fd5b6020908102919091010152806003602002015184600381518110612cf757634e487b7160e01b600052603260045260246000fd5b6020908102919091010152806004602002015184600481518110612d2b57634e487b7160e01b600052603260045260246000fd5b6020908102919091018101919091528d83526001600160a01b038c8116848301528b1660408085019190915260608085018c905260808086018c905260a08601899052845160c08701528484015160e0870152848301516101008701529084015161012086015283015161014085015261016084018e9052516128f691849101613f97565b7f000000000000000000000000000000000000000000000000000000000000000060ff1660051415612fb857612de4613722565b60008d806020019051810190612dfa9190613a0c565b9050806000602002015184600081518110612e2557634e487b7160e01b600052603260045260246000fd5b6020908102919091010152806001602002015184600181518110612e5957634e487b7160e01b600052603260045260246000fd5b6020908102919091010152806002602002015184600281518110612e8d57634e487b7160e01b600052603260045260246000fd5b6020908102919091010152806003602002015184600381518110612ec157634e487b7160e01b600052603260045260246000fd5b6020908102919091010152806004602002015184600481518110612ef557634e487b7160e01b600052603260045260246000fd5b6020908102919091010152806005602002015184600581518110612f2957634e487b7160e01b600052603260045260246000fd5b6020908102919091018101919091528d83526001600160a01b038c8116848301528b1660408085019190915260608085018c905260808086018c905260a08087018a9052855160c08801528585015160e0880152858401516101008801529185015161012087015284015161014086015283015161016085015261018084018e9052516128f691849101613fcc565b60405162461bcd60e51b8152600401610a3a90614439565b9b909a5098505050505050505050565b60008083806020019051810190612ff79190613bcf565b90506000806000613007846123a4565b9250925092507f00000000000000000000000000000000000000000000000000000000000000006001600160a01b031663b4b764f28484848a7f00000000000000000000000000000000000000000000000000000000000000006040518663ffffffff1660e01b81526004016130819594939291906141a7565b60206040518083038186803b15801561309957600080fd5b505afa1580156130ad573d6000803e3d6000fd5b505050506040513d601f19601f820116820180604052508101906130d19190613c48565b9450846130f05760405162461bcd60e51b8152600401610a3a906144d8565b5050505092915050565b8034146131195760405162461bcd60e51b8152600401610a3a90614337565b6040516370a0823160e01b81526000906001600160a01b037f000000000000000000000000000000000000000000000000000000000000000016906370a0823190613168903090600401614055565b60206040518083038186803b15801561318057600080fd5b505afa158015613194573d6000803e3d6000fd5b505050506040513d601f19601f820116820180604052508101906131b89190613e0f565b90507f0000000000000000000000000000000000000000000000000000000000000000811061327f576132408561320f857f0000000000000000000000000000000000000000000000000000000000000000614a63565b6001600160a01b037f000000000000000000000000000000000000000000000000000000000000000016919061345b565b821561327a5761327a6001600160a01b037f000000000000000000000000000000000000000000000000000000000000000016858561345b565b6133b2565b6001600160a01b037f0000000000000000000000000000000000000000000000000000000000000000166340c10f19866132d9867f0000000000000000000000000000000000000000000000000000000000000000614a63565b6040518363ffffffff1660e01b81526004016132f692919061408a565b600060405180830381600087803b15801561331057600080fd5b505af1158015613324573d6000803e3d6000fd5b5050505060008311156133b2576040516340c10f1960e01b81526001600160a01b037f000000000000000000000000000000000000000000000000000000000000000016906340c10f199061337f908790879060040161408a565b600060405180830381600087803b15801561339957600080fd5b505af11580156133ad573d6000803e3d6000fd5b505050505b811561113b576000856001600160a01b0316836040516133d190614052565b60006040518083038185875af1925050503d806000811461340e576040519150601f19603f3d011682016040523d82523d6000602084013e613413565b606091505b5050905080610ea7576040516001600160a01b0386169084156108fc029085906000818181858888f19350505050158015613452573d6000803e3d6000fd5b50505050505050565b6134b18363a9059cbb60e01b848460405160240161347a92919061408a565b60408051601f198184030181529190526020810180516001600160e01b03166001600160e01b0319909316929092179091526134b6565b505050565b600061350b826040518060400160405280602081526020017f5361666545524332303a206c6f772d6c6576656c2063616c6c206661696c6564815250856001600160a01b03166135459092919063ffffffff16565b8051909150156134b157808060200190518101906135299190613c48565b6134b15760405162461bcd60e51b8152600401610a3a90614700565b6060613554848460008561355c565b949350505050565b60608247101561357e5760405162461bcd60e51b8152600401610a3a906143f3565b6135878561361c565b6135a35760405162461bcd60e51b8152600401610a3a9061469c565b600080866001600160a01b031685876040516135bf9190614036565b60006040518083038185875af1925050503d80600081146135fc576040519150601f19603f3d011682016040523d82523d6000602084013e613601565b606091505b5091509150613611828286613622565b979650505050505050565b3b151590565b6060831561363157508161137d565b8251156136415782518084602001fd5b8160405162461bcd60e51b8152600401610a3a9190614222565b60405180604001604052806002906020820280368337509192915050565b60405180604001604052806002905b61369061365b565b8152602001906001900390816136885790505090565b6040518061012001604052806009906020820280368337509192915050565b604051806101400160405280600a906020820280368337509192915050565b604051806101600160405280600b906020820280368337509192915050565b604051806101800160405280600c906020820280368337509192915050565b604051806101a00160405280600d906020820280368337509192915050565b60006001600160401b0383111561375a5761375a614b54565b602080840261376881614897565b9250828487838701111561377b57600080fd5b600092505b8683101561379e578051825260019290920191908301908301613780565b505050509392505050565b80356110b681614b6a565b60008083601f8401126137c5578182fd5b5081356001600160401b038111156137db578182fd5b6020830191508360208285010111156137f357600080fd5b9250929050565b600082601f83011261380a578081fd5b81356001600160401b0381111561382357613823614b54565b613836601f8201601f1916602001614897565b81815284602083860101111561384a578283fd5b816020850160208301379081016020019190915292915050565b600060208284031215613875578081fd5b813561137d81614b6a565b60008060408385031215613892578081fd5b823561389d81614b6a565b946020939093013593505050565b60008060408385031215613892578182fd5b6000604082840312156138ce578081fd5b82601f8301126138dc578081fd5b604051604081018181106001600160401b03821117156138fe576138fe614b54565b8060405250808385604086011115613914578384fd5b835b6002811015613935578151835260209283019290910190600101613916565b509195945050505050565b600060608284031215613951578081fd5b82601f83011261395f578081fd5b604051606081018181106001600160401b038211171561398157613981614b54565b604052808360608101861015613995578384fd5b835b6003811015613935578151835260209283019290910190600101613997565b6000608082840312156139c7578081fd5b82601f8301126139d5578081fd5b61137d83600484613741565b600060a082840312156139f2578081fd5b82601f830112613a00578081fd5b61137d83600584613741565b600060c08284031215613a1d578081fd5b82601f830112613a2b578081fd5b61137d83600684613741565b60008060208385031215613a49578182fd5b82356001600160401b0380821115613a5f578384fd5b818501915085601f830112613a72578384fd5b813581811115613a80578485fd5b8660208083028501011115613a93578485fd5b60209290920196919550909350505050565b60006020808385031215613ab7578182fd5b82356001600160401b0380821115613acd578384fd5b818501915085601f830112613ae0578384fd5b813581811115613af257613af2614b54565b8381029150613b02848301614897565b8181528481019084860184860187018a1015613b1c578788fd5b8795505b83861015613b3e578035835260019590950194918601918601613b20565b5098975050505050505050565b6000610100808385031215613b5e578182fd5b83601f840112613b6c578182fd5b6040518181018181106001600160401b0382111715613b8d57613b8d614b54565b6040528084838101871015613ba0578485fd5b8493505b6008841015613bc457803582526001939093019260209182019101613ba4565b509095945050505050565b6000610100808385031215613be2578182fd5b83601f840112613bf0578182fd5b6040518181018181106001600160401b0382111715613c1157613c11614b54565b6040528084838101871015613c24578485fd5b8493505b6008841015613bc457805182526001939093019260209182019101613c28565b600060208284031215613c59578081fd5b8151801515811461137d578182fd5b600060208284031215613c79578081fd5b5035919050565b600080600060408486031215613c94578081fd5b83356001600160401b0380821115613caa578283fd5b613cb6878388016137b4565b90955093506020860135915080821115613cce578283fd5b50840160e08187031215613ce0578182fd5b809150509250925092565b60008060008060608587031215613d00578182fd5b84356001600160401b0380821115613d16578384fd5b613d22888389016137b4565b90965094506020870135915080821115613d3a578384fd5b9086019060e08289031215613d4d578384fd5b613d5760e0614897565b823582811115613d65578586fd5b613d718a8286016137fa565b8252506020830135602082015260408301356040820152613d94606084016137a9565b6060820152613da5608084016137a9565b608082015260a083013560a082015260c083013560c0820152809450505050613dd0604086016137a9565b905092959194509250565b600080600060608486031215613def578081fd5b8335613dfa81614b6a565b95602085013595506040909401359392505050565b600060208284031215613e20578081fd5b5051919050565b60008060408385031215613e39578182fd5b50508035926020909101359150565b600080600060608486031215613e5c578081fd5b505081359360208301359350604090920135919050565b60008060408385031215613e85578182fd5b82359150602083013563ffffffff81168114613e9f578182fd5b809150509250929050565b8060005b6002811015613ed857613ec2848351613ede565b6040939093019260209190910190600101613eae565b50505050565b8060005b6002811015613ed8578151845260209384019390910190600101613ee2565b60008151808452613f19816020860160208601614a7a565b601f01601f19169290920160200192915050565b60008183825b600a811015613f52578151835260209283019290910190600101613f33565b5050506101408201905092915050565b60008183825b600b811015613f87578151835260209283019290910190600101613f68565b5050506101608201905092915050565b60008183825b600c811015613fbc578151835260209283019290910190600101613f9d565b5050506101808201905092915050565b60008183825b600d811015613ff1578151835260209283019290910190600101613fd2565b5050506101a08201905092915050565b60008183825b6009811015614026578151835260209283019290910190600101614007565b5050506101208201905092915050565b60008251614048818460208701614a7a565b9190910192915050565b90565b6001600160a01b0391909116815260200190565b6001600160a01b039390931683526020830191909152604082015260600190565b6001600160a01b03929092168252602082015260400190565b6001600160a01b039384168152919092166020820152604081019190915260600190565b6001600160a01b03948516815292841660208401526040830191909152909116606082015260800190565b6020808252825182820181905260009190848201906040850190845b8181101561412c57835115158352928401929184019160010161410e565b50909695505050505050565b6020808252825182820181905260009190848201906040850190845b8181101561412c57835183529284019291840191600101614154565b6040810161083f8284613ede565b610100810161418d8286613ede565b61419a6040830185613eaa565b61355460c0830184613ede565b60006101406141b68389613ede565b6141c36040840188613eaa565b6141d060c0840187613ede565b806101008401526141e381840186613f01565b91505060ff83166101208301529695505050505050565b901515815260200190565b90815260200190565b91825263ffffffff16602082015260400190565b60006020825261137d6020830184613f01565b6020808252601a908201527f5468697320416e63686f72206973206174206361706163697479000000000000604082015260600190565b60208082526037908201527f436861696e206d75737420626520696e74656772617465642066726f6d20746860408201527f6520627269646765206265666f72652075706461746573000000000000000000606082015260800190565b6020808252601c908201527f43616e6e6f742066696e6420796f7572206d65726b6c6520726f6f7400000000604082015260600190565b6020808252601a908201527f4665652065786365656473207472616e736665722076616c7565000000000000604082015260600190565b60208082526030908201527f496e636f727265637420726566756e6420616d6f756e7420726563656976656460408201526f08189e481d1a194818dbdb9d1c9858dd60821b606082015260800190565b60208082526018908201527f73656e646572206973206e6f7420746865206272696467650000000000000000604082015260600190565b6020808252818101527f5f6c6566742073686f756c6420626520696e7369646520746865206669656c64604082015260600190565b60208082526026908201527f416464726573733a20696e73756666696369656e742062616c616e636520666f6040820152651c8818d85b1b60d21b606082015260800190565b6020808252600d908201526c496e76616c696420656467657360981b604082015260600190565b6020808252601e908201527f4e6577206c65616620696e646578206d75737420626520677265617465720000604082015260600190565b60208082526021908201527f5f72696768742073686f756c6420626520696e7369646520746865206669656c6040820152601960fa1b606082015260800190565b60208082526016908201527524b73b30b634b2103bb4ba34323930bb90383937b7b360511b604082015260600190565b60208082526017908201527f73656e646572206973206e6f74207468652061646d696e000000000000000000604082015260600190565b6020808252600d908201526c496e76616c696420726f6f747360981b604082015260600190565b6020808252601b908201527f496e636f727265637420726f6f74206172726179206c656e6774680000000000604082015260600190565b60208082526017908201527f4e65696768626f7220726f6f74206e6f7420666f756e64000000000000000000604082015260600190565b6020808252601f908201527f546865206e6f746520686173206265656e20616c7265616479207370656e7400604082015260600190565b60208082526021908201527f54686520636f6d6d69746d656e7420686173206265656e207375626d697474656040820152601960fa1b606082015260800190565b60208082526030908201527f4554482076616c756520697320737570706f73656420746f206265203020666f60408201526f7220455243323020696e7374616e636560801b606082015260800190565b6020808252601d908201527f416464726573733a2063616c6c20746f206e6f6e2d636f6e7472616374000000604082015260600190565b602080825260139082015272496e646578206f7574206f6620626f756e647360681b604082015260600190565b6020808252602a908201527f5361666545524332303a204552433230206f7065726174696f6e20646964206e6040820152691bdd081cdd58d8d9595960b21b606082015260800190565b60208082526030908201527f4d65726b6c6520747265652069732066756c6c2e204e6f206d6f7265206c656160408201526f1d995cc818d85b88189948185919195960821b606082015260800190565b6020808252601f908201527f5265656e7472616e637947756172643a207265656e7472616e742063616c6c00604082015260600190565b60208082526019908201527f73656e646572206973206e6f74207468652068616e646c657200000000000000604082015260600190565b9283526020830191909152604082015260600190565b63ffffffff91909116815260200190565b63ffffffff929092168252602082015260400190565b60ff91909116815260200190565b6000808335601e19843603018112614869578283fd5b8301803591506001600160401b03821115614882578283fd5b6020019150368190038213156137f357600080fd5b6040518181016001600160401b03811182821017156148b8576148b8614b54565b604052919050565b600082198211156148d3576148d3614b28565b500190565b600063ffffffff8083168185168083038211156148f7576148f7614b28565b01949350505050565b600060ff821660ff84168060ff0382111561491d5761491d614b28565b019392505050565b600063ffffffff8084168061493c5761493c614b3e565b92169190910492915050565b80825b600180861161495a5750614985565b81870482111561496c5761496c614b28565b8086161561497957918102915b9490941c93800261494b565b94509492505050565b600063ffffffff613554818286168386166000826149ae5750600161137d565b816149bb5750600061137d565b81600181146149d157600281146149db57614a08565b600191505061137d565b60ff8411156149ec576149ec614b28565b6001841b915084821115614a0257614a02614b28565b5061137d565b5060208310610133831016604e8410600b8410161715614a3b575081810a83811115614a3657614a36614b28565b61137d565b614a488484846001614948565b808604821115614a5a57614a5a614b28565b02949350505050565b600082821015614a7557614a75614b28565b500390565b60005b83811015614a95578181015183820152602001614a7d565b83811115613ed85750506000910152565b600063ffffffff821680614abc57614abc614b28565b6000190192915050565b6000600019821415614ada57614ada614b28565b5060010190565b600063ffffffff80831681811415614afb57614afb614b28565b6001019392505050565b600063ffffffff80841680614b1c57614b1c614b3e565b92169190910692915050565b634e487b7160e01b600052601160045260246000fd5b634e487b7160e01b600052601260045260246000fd5b634e487b7160e01b600052604160045260246000fd5b6001600160a01b038116811461275257600080fdfea2646970667358221220cd24a8eb5d246ec7f5e59d1bb12d9b4d64d6a33b7f891b33d87c972bd4dfbbf464736f6c63430008000033",
  "linkReferences": {},
  "deployedLinkReferences": {}
}