{
  "_format": "hh-sol-artifact-1",
  "contractName": "Anchor",
  "sourceName": "contracts/anchors/bridged/Anchor.sol",
  "abi": [
    {
      "inputs": [
        {
          "internalType": "contract IVerifier",
          "name": "_verifier",
          "type": "address"
        },
        {
          "internalType": "contract IPoseidonT3",
          "name": "_hasher",
          "type": "address"
        },
        {
          "internalType": "uint256",
          "name": "_denomination",
          "type": "uint256"
        },
        {
          "internalType": "uint32",
          "name": "_merkleTreeHeight",
          "type": "uint32"
        },
        {
          "internalType": "contract ITokenWrapper",
          "name": "_token",
          "type": "address"
        },
        {
          "internalType": "address",
          "name": "_bridge",
          "type": "address"
        },
        {
          "internalType": "address",
          "name": "_admin",
          "type": "address"
        },
        {
          "internalType": "address",
          "name": "_handler",
          "type": "address"
        },
        {
          "internalType": "uint8",
          "name": "_maxEdges",
          "type": "uint8"
        }
      ],
      "stateMutability": "nonpayable",
      "type": "constructor"
    },
    {
      "anonymous": false,
      "inputs": [
        {
          "indexed": true,
          "internalType": "bytes32",
          "name": "commitment",
          "type": "bytes32"
        },
        {
          "indexed": false,
          "internalType": "uint32",
          "name": "leafIndex",
          "type": "uint32"
        },
        {
          "indexed": false,
          "internalType": "uint256",
          "name": "timestamp",
          "type": "uint256"
        }
      ],
      "name": "Deposit",
      "type": "event"
    },
    {
      "anonymous": false,
      "inputs": [
        {
          "indexed": false,
          "internalType": "uint256",
          "name": "chainID",
          "type": "uint256"
        },
        {
          "indexed": false,
          "internalType": "uint256",
          "name": "latestLeafIndex",
          "type": "uint256"
        },
        {
          "indexed": false,
          "internalType": "bytes32",
          "name": "merkleRoot",
          "type": "bytes32"
        }
      ],
      "name": "EdgeAddition",
      "type": "event"
    },
    {
      "anonymous": false,
      "inputs": [
        {
          "indexed": false,
          "internalType": "uint256",
          "name": "chainID",
          "type": "uint256"
        },
        {
          "indexed": false,
          "internalType": "uint256",
          "name": "latestLeafIndex",
          "type": "uint256"
        },
        {
          "indexed": false,
          "internalType": "bytes32",
          "name": "merkleRoot",
          "type": "bytes32"
        }
      ],
      "name": "EdgeUpdate",
      "type": "event"
    },
    {
      "anonymous": false,
      "inputs": [
        {
          "indexed": true,
          "internalType": "bytes32",
          "name": "commitment",
          "type": "bytes32"
        },
        {
          "indexed": false,
          "internalType": "bytes32",
          "name": "nullifierHash",
          "type": "bytes32"
        },
        {
          "indexed": false,
          "internalType": "uint32",
          "name": "insertedIndex",
          "type": "uint32"
        }
      ],
      "name": "Refresh",
      "type": "event"
    },
    {
      "anonymous": false,
      "inputs": [
        {
          "indexed": false,
          "internalType": "address",
          "name": "to",
          "type": "address"
        },
        {
          "indexed": false,
          "internalType": "bytes32",
          "name": "nullifierHash",
          "type": "bytes32"
        },
        {
          "indexed": true,
          "internalType": "address",
          "name": "relayer",
          "type": "address"
        },
        {
          "indexed": false,
          "internalType": "uint256",
          "name": "fee",
          "type": "uint256"
        }
      ],
      "name": "Withdrawal",
      "type": "event"
    },
    {
      "inputs": [],
      "name": "FIELD_SIZE",
      "outputs": [
        {
          "internalType": "uint256",
          "name": "",
          "type": "uint256"
        }
      ],
      "stateMutability": "view",
      "type": "function"
    },
    {
      "inputs": [],
      "name": "ROOT_HISTORY_SIZE",
      "outputs": [
        {
          "internalType": "uint32",
          "name": "",
          "type": "uint32"
        }
      ],
      "stateMutability": "view",
      "type": "function"
    },
    {
      "inputs": [],
      "name": "ZERO_VALUE",
      "outputs": [
        {
          "internalType": "uint256",
          "name": "",
          "type": "uint256"
        }
      ],
      "stateMutability": "view",
      "type": "function"
    },
    {
      "inputs": [
        {
          "internalType": "uint256",
          "name": "sourceChainID",
          "type": "uint256"
        },
        {
          "internalType": "bytes32",
          "name": "root",
          "type": "bytes32"
        },
        {
          "internalType": "uint256",
          "name": "leafIndex",
          "type": "uint256"
        }
      ],
      "name": "addEdge",
      "outputs": [],
      "stateMutability": "payable",
      "type": "function"
    },
    {
      "inputs": [],
      "name": "admin",
      "outputs": [
        {
          "internalType": "address",
          "name": "",
          "type": "address"
        }
      ],
      "stateMutability": "view",
      "type": "function"
    },
    {
      "inputs": [],
      "name": "bridge",
      "outputs": [
        {
          "internalType": "address",
          "name": "",
          "type": "address"
        }
      ],
      "stateMutability": "view",
      "type": "function"
    },
    {
      "inputs": [
        {
          "internalType": "bytes32",
          "name": "",
          "type": "bytes32"
        }
      ],
      "name": "commitments",
      "outputs": [
        {
          "internalType": "bool",
          "name": "",
          "type": "bool"
        }
      ],
      "stateMutability": "view",
      "type": "function"
    },
    {
      "inputs": [
        {
          "internalType": "uint256",
          "name": "",
          "type": "uint256"
        }
      ],
      "name": "currentNeighborRootIndex",
      "outputs": [
        {
          "internalType": "uint32",
          "name": "",
          "type": "uint32"
        }
      ],
      "stateMutability": "view",
      "type": "function"
    },
    {
      "inputs": [],
      "name": "currentRootIndex",
      "outputs": [
        {
          "internalType": "uint32",
          "name": "",
          "type": "uint32"
        }
      ],
      "stateMutability": "view",
      "type": "function"
    },
    {
      "inputs": [],
      "name": "denomination",
      "outputs": [
        {
          "internalType": "uint256",
          "name": "",
          "type": "uint256"
        }
      ],
      "stateMutability": "view",
      "type": "function"
    },
    {
      "inputs": [
        {
          "internalType": "bytes32",
          "name": "_commitment",
          "type": "bytes32"
        }
      ],
      "name": "deposit",
      "outputs": [],
      "stateMutability": "payable",
      "type": "function"
    },
    {
      "inputs": [
        {
          "internalType": "uint256",
          "name": "",
          "type": "uint256"
        }
      ],
      "name": "edgeExistsForChain",
      "outputs": [
        {
          "internalType": "bool",
          "name": "",
          "type": "bool"
        }
      ],
      "stateMutability": "view",
      "type": "function"
    },
    {
      "inputs": [
        {
          "internalType": "uint256",
          "name": "",
          "type": "uint256"
        }
      ],
      "name": "edgeIndex",
      "outputs": [
        {
          "internalType": "uint256",
          "name": "",
          "type": "uint256"
        }
      ],
      "stateMutability": "view",
      "type": "function"
    },
    {
      "inputs": [
        {
          "internalType": "uint256",
          "name": "",
          "type": "uint256"
        }
      ],
      "name": "edgeList",
      "outputs": [
        {
          "internalType": "uint256",
          "name": "chainID",
          "type": "uint256"
        },
        {
          "internalType": "bytes32",
          "name": "root",
          "type": "bytes32"
        },
        {
          "internalType": "uint256",
          "name": "latestLeafIndex",
          "type": "uint256"
        }
      ],
      "stateMutability": "view",
      "type": "function"
    },
    {
      "inputs": [
        {
          "internalType": "uint256",
          "name": "",
          "type": "uint256"
        }
      ],
      "name": "filledSubtrees",
      "outputs": [
        {
          "internalType": "bytes32",
          "name": "",
          "type": "bytes32"
        }
      ],
      "stateMutability": "view",
      "type": "function"
    },
    {
      "inputs": [],
      "name": "getDenomination",
      "outputs": [
        {
          "internalType": "uint256",
          "name": "",
          "type": "uint256"
        }
      ],
      "stateMutability": "view",
      "type": "function"
    },
    {
      "inputs": [],
      "name": "getLastRoot",
      "outputs": [
        {
          "internalType": "bytes32",
          "name": "",
          "type": "bytes32"
        }
      ],
      "stateMutability": "view",
      "type": "function"
    },
    {
      "inputs": [],
      "name": "getLatestNeighborRoots",
      "outputs": [
        {
          "internalType": "bytes32[]",
          "name": "roots",
          "type": "bytes32[]"
        }
      ],
      "stateMutability": "view",
      "type": "function"
    },
    {
      "inputs": [],
      "name": "getToken",
      "outputs": [
        {
          "internalType": "address",
          "name": "",
          "type": "address"
        }
      ],
      "stateMutability": "view",
      "type": "function"
    },
    {
      "inputs": [],
      "name": "handler",
      "outputs": [
        {
          "internalType": "address",
          "name": "",
          "type": "address"
        }
      ],
      "stateMutability": "view",
      "type": "function"
    },
    {
      "inputs": [
        {
          "internalType": "uint256",
          "name": "_chainID",
          "type": "uint256"
        }
      ],
      "name": "hasEdge",
      "outputs": [
        {
          "internalType": "bool",
          "name": "",
          "type": "bool"
        }
      ],
      "stateMutability": "view",
      "type": "function"
    },
    {
      "inputs": [
        {
          "internalType": "contract IPoseidonT3",
          "name": "_hasher",
          "type": "address"
        },
        {
          "internalType": "bytes32",
          "name": "_left",
          "type": "bytes32"
        },
        {
          "internalType": "bytes32",
          "name": "_right",
          "type": "bytes32"
        }
      ],
      "name": "hashLeftRight",
      "outputs": [
        {
          "internalType": "bytes32",
          "name": "",
          "type": "bytes32"
        }
      ],
      "stateMutability": "pure",
      "type": "function"
    },
    {
      "inputs": [],
      "name": "hasher",
      "outputs": [
        {
          "internalType": "contract IPoseidonT3",
          "name": "",
          "type": "address"
        }
      ],
      "stateMutability": "view",
      "type": "function"
    },
    {
      "inputs": [
        {
          "internalType": "uint256",
          "name": "neighborChainID",
          "type": "uint256"
        },
        {
          "internalType": "bytes32",
          "name": "_root",
          "type": "bytes32"
        }
      ],
      "name": "isKnownNeighborRoot",
      "outputs": [
        {
          "internalType": "bool",
          "name": "",
          "type": "bool"
        }
      ],
      "stateMutability": "view",
      "type": "function"
    },
    {
      "inputs": [
        {
          "internalType": "bytes32",
          "name": "_root",
          "type": "bytes32"
        }
      ],
      "name": "isKnownRoot",
      "outputs": [
        {
          "internalType": "bool",
          "name": "",
          "type": "bool"
        }
      ],
      "stateMutability": "view",
      "type": "function"
    },
    {
      "inputs": [
        {
          "internalType": "bytes32",
          "name": "_nullifierHash",
          "type": "bytes32"
        }
      ],
      "name": "isSpent",
      "outputs": [
        {
          "internalType": "bool",
          "name": "",
          "type": "bool"
        }
      ],
      "stateMutability": "view",
      "type": "function"
    },
    {
      "inputs": [
        {
          "internalType": "bytes32[]",
          "name": "_nullifierHashes",
          "type": "bytes32[]"
        }
      ],
      "name": "isSpentArray",
      "outputs": [
        {
          "internalType": "bool[]",
          "name": "spent",
          "type": "bool[]"
        }
      ],
      "stateMutability": "view",
      "type": "function"
    },
    {
      "inputs": [
        {
          "internalType": "bytes32[]",
          "name": "roots",
          "type": "bytes32[]"
        }
      ],
      "name": "isValidRoots",
      "outputs": [
        {
          "internalType": "bool",
          "name": "",
          "type": "bool"
        }
      ],
      "stateMutability": "view",
      "type": "function"
    },
    {
      "inputs": [],
      "name": "levels",
      "outputs": [
        {
          "internalType": "uint32",
          "name": "",
          "type": "uint32"
        }
      ],
      "stateMutability": "view",
      "type": "function"
    },
    {
      "inputs": [],
      "name": "maxEdges",
      "outputs": [
        {
          "internalType": "uint8",
          "name": "",
          "type": "uint8"
        }
      ],
      "stateMutability": "view",
      "type": "function"
    },
    {
      "inputs": [
        {
          "internalType": "uint256",
          "name": "",
          "type": "uint256"
        },
        {
          "internalType": "uint32",
          "name": "",
          "type": "uint32"
        }
      ],
      "name": "neighborRoots",
      "outputs": [
        {
          "internalType": "bytes32",
          "name": "",
          "type": "bytes32"
        }
      ],
      "stateMutability": "view",
      "type": "function"
    },
    {
      "inputs": [],
      "name": "nextIndex",
      "outputs": [
        {
          "internalType": "uint32",
          "name": "",
          "type": "uint32"
        }
      ],
      "stateMutability": "view",
      "type": "function"
    },
    {
      "inputs": [
        {
          "internalType": "bytes32",
          "name": "",
          "type": "bytes32"
        }
      ],
      "name": "nullifierHashes",
      "outputs": [
        {
          "internalType": "bool",
          "name": "",
          "type": "bool"
        }
      ],
      "stateMutability": "view",
      "type": "function"
    },
    {
      "inputs": [
        {
          "internalType": "uint256",
          "name": "",
          "type": "uint256"
        }
      ],
      "name": "roots",
      "outputs": [
        {
          "internalType": "bytes32",
          "name": "",
          "type": "bytes32"
        }
      ],
      "stateMutability": "view",
      "type": "function"
    },
    {
      "inputs": [
        {
          "internalType": "address",
          "name": "_bridge",
          "type": "address"
        }
      ],
      "name": "setBridge",
      "outputs": [],
      "stateMutability": "nonpayable",
      "type": "function"
    },
    {
      "inputs": [
        {
          "internalType": "address",
          "name": "_handler",
          "type": "address"
        }
      ],
      "name": "setHandler",
      "outputs": [],
      "stateMutability": "nonpayable",
      "type": "function"
    },
    {
      "inputs": [],
      "name": "token",
      "outputs": [
        {
          "internalType": "address",
          "name": "",
          "type": "address"
        }
      ],
      "stateMutability": "view",
      "type": "function"
    },
    {
      "inputs": [
        {
          "internalType": "uint256[8]",
          "name": "_proof",
          "type": "uint256[8]"
        }
      ],
      "name": "unpackProof",
      "outputs": [
        {
          "internalType": "uint256[2]",
          "name": "",
          "type": "uint256[2]"
        },
        {
          "internalType": "uint256[2][2]",
          "name": "",
          "type": "uint256[2][2]"
        },
        {
          "internalType": "uint256[2]",
          "name": "",
          "type": "uint256[2]"
        }
      ],
      "stateMutability": "pure",
      "type": "function"
    },
    {
      "inputs": [
        {
          "internalType": "address",
          "name": "tokenAddress",
          "type": "address"
        },
        {
          "internalType": "uint256",
          "name": "amount",
          "type": "uint256"
        }
      ],
      "name": "unwrapIntoNative",
      "outputs": [],
      "stateMutability": "nonpayable",
      "type": "function"
    },
    {
      "inputs": [
        {
          "internalType": "address",
          "name": "tokenAddress",
          "type": "address"
        },
        {
          "internalType": "uint256",
          "name": "amount",
          "type": "uint256"
        }
      ],
      "name": "unwrapIntoToken",
      "outputs": [],
      "stateMutability": "nonpayable",
      "type": "function"
    },
    {
      "inputs": [
        {
          "internalType": "uint256",
          "name": "sourceChainID",
          "type": "uint256"
        },
        {
          "internalType": "bytes32",
          "name": "root",
          "type": "bytes32"
        },
        {
          "internalType": "uint256",
          "name": "leafIndex",
          "type": "uint256"
        }
      ],
      "name": "updateEdge",
      "outputs": [],
      "stateMutability": "payable",
      "type": "function"
    },
    {
      "inputs": [],
      "name": "verifier",
      "outputs": [
        {
          "internalType": "contract IVerifier",
          "name": "",
          "type": "address"
        }
      ],
      "stateMutability": "view",
      "type": "function"
    },
    {
      "inputs": [
        {
          "internalType": "bytes",
          "name": "_proof",
          "type": "bytes"
        },
        {
          "components": [
            {
              "internalType": "bytes",
              "name": "_roots",
              "type": "bytes"
            },
            {
              "internalType": "bytes32",
              "name": "_nullifierHash",
              "type": "bytes32"
            },
            {
              "internalType": "bytes32",
              "name": "_refreshCommitment",
              "type": "bytes32"
            },
            {
              "internalType": "address payable",
              "name": "_recipient",
              "type": "address"
            },
            {
              "internalType": "address payable",
              "name": "_relayer",
              "type": "address"
            },
            {
              "internalType": "uint256",
              "name": "_fee",
              "type": "uint256"
            },
            {
              "internalType": "uint256",
              "name": "_refund",
              "type": "uint256"
            }
          ],
          "internalType": "struct IAnchor.PublicInputs",
          "name": "_publicInputs",
          "type": "tuple"
        }
      ],
      "name": "withdraw",
      "outputs": [],
      "stateMutability": "payable",
      "type": "function"
    },
    {
      "inputs": [
        {
          "internalType": "bytes",
          "name": "_proof",
          "type": "bytes"
        },
        {
          "components": [
            {
              "internalType": "bytes",
              "name": "_roots",
              "type": "bytes"
            },
            {
              "internalType": "bytes32",
              "name": "_nullifierHash",
              "type": "bytes32"
            },
            {
              "internalType": "bytes32",
              "name": "_refreshCommitment",
              "type": "bytes32"
            },
            {
              "internalType": "address payable",
              "name": "_recipient",
              "type": "address"
            },
            {
              "internalType": "address payable",
              "name": "_relayer",
              "type": "address"
            },
            {
              "internalType": "uint256",
              "name": "_fee",
              "type": "uint256"
            },
            {
              "internalType": "uint256",
              "name": "_refund",
              "type": "uint256"
            }
          ],
          "internalType": "struct IAnchor.PublicInputs",
          "name": "_publicInputs",
          "type": "tuple"
        },
        {
          "internalType": "address",
          "name": "tokenAddress",
          "type": "address"
        }
      ],
      "name": "withdrawAndUnwrap",
      "outputs": [],
      "stateMutability": "payable",
      "type": "function"
    },
    {
      "inputs": [
        {
          "internalType": "address",
          "name": "tokenAddress",
          "type": "address"
        },
        {
          "internalType": "bytes32",
          "name": "_commitment",
          "type": "bytes32"
        }
      ],
      "name": "wrapAndDeposit",
      "outputs": [],
      "stateMutability": "payable",
      "type": "function"
    },
    {
      "inputs": [],
      "name": "wrapNative",
      "outputs": [],
      "stateMutability": "payable",
      "type": "function"
    },
    {
      "inputs": [
        {
          "internalType": "address",
          "name": "tokenAddress",
          "type": "address"
        },
        {
          "internalType": "uint256",
          "name": "amount",
          "type": "uint256"
        }
      ],
      "name": "wrapToken",
      "outputs": [],
      "stateMutability": "nonpayable",
      "type": "function"
    },
    {
      "inputs": [
        {
          "internalType": "uint256",
          "name": "i",
          "type": "uint256"
        }
      ],
      "name": "zeros",
      "outputs": [
        {
          "internalType": "bytes32",
          "name": "",
          "type": "bytes32"
        }
      ],
      "stateMutability": "pure",
      "type": "function"
    }
  ],
  "bytecode": "0x610140604052600280546001600160401b03191690553480156200002257600080fd5b506040516200592c3803806200592c8339810160408190526200004591620008c0565b888888888787878787878787848184818160008263ffffffff1611620000885760405162461bcd60e51b81526004016200007f9062000a05565b60405180910390fd5b60208263ffffffff1610620000b15760405162461bcd60e51b81526004016200007f90620009ce565b60e09190911b6001600160e01b03191660a05260601b6001600160601b03191660805260005b8263ffffffff168163ffffffff1610156200012857620000fd63ffffffff821662000245565b63ffffffff8216600090815260208190526040902055806200011f8162000aa7565b915050620000d7565b50620001466200013a60018462000a7f565b63ffffffff1662000245565b60008052600160208190527fa6eef7e35abe7026729641147f7915573c7e97b47efa546f5f6e3230263bcb49919091556003555050826200019b5760405162461bcd60e51b81526004016200007f9062000989565b606094851b6001600160601b031990811660c05260e0939093526000600e5560f81b7fff00000000000000000000000000000000000000000000000000000000000000166101005250600480546001600160a01b03199081166001600160a01b03998a16179091556005805482169789169790971790965560068054909616949096169390931790935550509990991b909816610120525062000afd9a5050505050505050505050565b6000816200027557507f2fe54c60d3acabf3343a35b6eba15db4821b340f76e741e2249685ed4899af6c6200089c565b8160011415620002a757507f13e37f2d6cb86c78ccc1788607c2b199788c6bb0a615a21f2e7a8e88384222f86200089c565b8160021415620002d957507f217126fa352c326896e8c2803eec8fd63ad50cf65edfef27a41a9e32dc6227656200089c565b81600314156200030b57507f0e28a61a9b3e91007d5a9e3ada18e1b24d6d230c618388ee5df34cacd7397eee6200089c565b81600414156200033d57507f27953447a6979839536badc5425ed15fadb0e292e9bc36f92f0aa5cfa50135876200089c565b81600514156200036f57507f194191edbfb91d10f6a7afd315f33095410c7801c47175c2df6dc2cce0e3affc6200089c565b8160061415620003a157507f1733dece17d71190516dbaf1927936fa643dc7079fc0cc731de9d6845a47741f6200089c565b8160071415620003d357507f267855a7dc75db39d81d17f95d0a7aa572bf5ae19f4db0e84221d2b2ef9992196200089c565b81600814156200040557507f1184e11836b4c36ad8238a340ecc0985eeba665327e33e9b0e3641027c27620d6200089c565b81600914156200043757507f0702ab83a135d7f55350ab1bfaa90babd8fc1d2b3e6a7215381a7b2213d6c5ce6200089c565b81600a14156200046957507f2eecc0de814cfd8c57ce882babb2e30d1da56621aef7a47f3291cffeaec26ad76200089c565b81600b14156200049b57507f280bc02145c155d5833585b6c7b08501055157dd30ce005319621dc462d33b476200089c565b81600c1415620004cd57507f045132221d1fa0a7f4aed8acd2cbec1e2189b7732ccb2ec272b9c60f0d5afc5b6200089c565b81600d1415620004ff57507f27f427ccbf58a44b1270abbe4eda6ba53bd6ac4d88cf1e00a13c4371ce71d3666200089c565b81600e14156200053157507f1617eaae5064f26e8f8a6493ae92bfded7fde71b65df1ca6d5dcec0df70b2cef6200089c565b81600f14156200056357507f20c6b400d0ea1b15435703c31c31ee63ad7ba5c8da66cec2796feacea575abca6200089c565b81601014156200059557507f09589ddb438723f53a8e57bdada7c5f8ed67e8fece3889a73618732965645eec6200089c565b8160111415620005c657507e64b6a738a5ff537db7b220f3394f0ecbd35bfd355c5425dc1166bf3236079b6200089c565b8160121415620005f857507f095de56281b1d5055e897c3574ff790d5ee81dbc5df784ad2d67795e557c9e9f6200089c565b81601314156200062a57507f11cf2e2887aa21963a6ec14289183efe4d4c60f14ecd3d6fe0beebdf855a9b636200089c565b81601414156200065c57507f2b0f6fc0179fa65b6f73627c0e1e84c7374d2eaec44c9a48f2571393ea77bcbb6200089c565b81601514156200068e57507f16fdb637c2abf9c0f988dbf2fd64258c46fb6a273d537b2cf1603ea460b132796200089c565b8160161415620006c057507f21bbd7e944f6124dad4c376df9cc12e7ca66e47dff703ff7cedb1a454edcf0ff6200089c565b8160171415620006f257507f2784f8220b1c963e468f590f137baaa1625b3b92a27ad9b6e84eb0d3454d99626200089c565b81601814156200072457507f16ace1a65b7534142f8cc1aad810b3d6a7a74ca905d9c275cb98ba57e509fc106200089c565b81601914156200075657507f2328068c6a8c24265124debd8fe10d3f29f0665ea725a65e3638f6192a96a0136200089c565b81601a14156200078857507f2ddb991be1f028022411b4c4d2c22043e5e751c120736f00adf54acab1c9ac146200089c565b81601b1415620007ba57507f0113798410eaeb95056a464f70521eb58377c0155f2fe518a5594d38cc209cc06200089c565b81601c1415620007ec57507f202d1ae61526f0d0d01ef80fb5d4055a7af45721024c2c24cffd6a3798f54d506200089c565b81601d14156200081e57507f23ab323453748129f2765f79615022f5bebd6f4096a796300aab049a60b0f1876200089c565b81601e14156200085057507f1f15585f8947e378bcf8bd918716799da909acdb944c57150b1eb4565fda8aa06200089c565b81601f14156200088257507f1eb064b21055ac6a350cf41eb30e4ce2cb19680217df3a243617c2838185ad066200089c565b60405162461bcd60e51b81526004016200007f9062000a48565b919050565b80516200089c8162000ae4565b805160ff811681146200089c57600080fd5b60008060008060008060008060006101208a8c031215620008df578485fd5b8951620008ec8162000ae4565b60208b0151909950620008ff8162000ae4565b60408b015160608c0151919950975063ffffffff8116811462000920578586fd5b60808b0151909650620009338162000ae4565b60a08b0151909550620009468162000ae4565b60c08b0151909450620009598162000ae4565b92506200096960e08b01620008a1565b91506200097a6101008b01620008ae565b90509295985092959850929598565b60208082526025908201527f64656e6f6d696e6174696f6e2073686f756c6420626520677265617465722074604082015264068616e20360dc1b606082015260800190565b6020808252601e908201527f5f6c6576656c732073686f756c64206265206c657373207468616e2033320000604082015260600190565b60208082526023908201527f5f6c6576656c732073686f756c642062652067726561746572207468616e207a60408201526265726f60e81b606082015260800190565b60208082526013908201527f496e646578206f7574206f6620626f756e647300000000000000000000000000604082015260600190565b600063ffffffff8381169083168181101562000a9f5762000a9f62000ace565b039392505050565b600063ffffffff8083168181141562000ac45762000ac462000ace565b6001019392505050565b634e487b7160e01b600052601160045260246000fd5b6001600160a01b038116811462000afa57600080fd5b50565b60805160601c60a05160e01c60c05160601c60e0516101005160f81c6101205160601c614ccd62000c5f60003960008181610a2e01528181610ea401528181610f4e015281816111360152818161167e01528181611c5d015281816124c60152818161271a015281816132240152818161330a015281816133440152818161337a015261343901526000818161087e015281816108f601528181610ad601528181610ff301528181611224015281816127de0152818161285c0152818161298301528181612ad001528181612c5b01528181612e610152613133015260008181610a0a0152818161125d015281816116b1015281816117a401528181611afa01528181611c920152818161274b015281816132ad015281816132dc01526133a6015260008181610a52015261310001526000818161099b01528181610f150152818161251901526125720152600081816123e3015261260b0152614ccd6000f3fe6080604052600436106102935760003560e01c80639fa12d0b1161015a578063e5285dcc116100c1578063f178e47c1161007a578063f178e47c14610722578063f5ab0dd614610742578063f851a44014610771578063fa73168714610786578063fc0c546a146107a6578063fc7e9c6f146107bb57610293565b8063e5285dcc14610683578063e70ea87c146106a3578063e78cea92146106c3578063e8295588146106d8578063ec732959146106f8578063ed33639f1461070d57610293565b8063c80916d411610113578063c80916d4146105f1578063cd3a955014610606578063cd87a3b414610619578063d0e8d34a1461062e578063dbc916b814610641578063df203aa71461067057610293565b80639fa12d0b1461055c5780639ff8006314610408578063b214faa514610589578063ba70f7571461059c578063bac426d0146105b1578063c2b40ae4146105d157610293565b80634f401241116101fe578063839df945116101b7578063839df945146104b25780638bca6d16146104d25780638dd14802146104e75780638ea3099e1461050757806390eeb02b14610527578063921563111461053c57610293565b80634f401241146104085780635d2d766c14610428578063616e0957146104485780636ad481f3146104685780636d9833e31461047057806371523c321461049057610293565b80633b9e44de116102505780633b9e44de14610369578063414a37ba1461037e57806343e7119f1461039357806344347ba9146103b3578063460b53e3146103c65780634ecf518b146103e657610293565b806311e4dcb91461029857806317cc915c146102ce5780631e627617146102ee5780631fc601c91461031057806321df0da7146103325780632b7ac3f314610354575b600080fd5b3480156102a457600080fd5b506102b86102b3366004613f1c565b6107d0565b6040516102c59190614312565b60405180910390f35b3480156102da57600080fd5b506102b86102e9366004613d5d565b610865565b3480156102fa57600080fd5b5061030361087a565b6040516102c59190614250565b34801561031c57600080fd5b50610325610a08565b6040516102c5919061431d565b34801561033e57600080fd5b50610347610a2c565b6040516102c5919061414a565b34801561036057600080fd5b50610347610a50565b61037c610377366004613f3d565b610a74565b005b34801561038a57600080fd5b50610325610c3e565b34801561039f57600080fd5b506103256103ae366004613f68565b610c62565b61037c6103c1366004613f3d565b610c7f565b3480156103d257600080fd5b5061037c6103e13660046139a0565b610e8d565b3480156103f257600080fd5b506103fb610f13565b6040516102c59190614936565b34801561041457600080fd5b5061037c6104233660046139a0565b610f37565b34801561043457600080fd5b506103fb610443366004613d5d565b610f87565b34801561045457600080fd5b506102b8610463366004613b9a565b610f9f565b61037c61111f565b34801561047c57600080fd5b506102b861048b366004613d5d565b6111a6565b34801561049c57600080fd5b506104a5611222565b6040516102c5919061495d565b3480156104be57600080fd5b506102b86104cd366004613d5d565b611246565b3480156104de57600080fd5b5061032561125b565b3480156104f357600080fd5b5061037c610502366004613959565b61127f565b34801561051357600080fd5b50610325610522366004613ed0565b6112cb565b34801561053357600080fd5b506103fb6113e8565b34801561054857600080fd5b506102b8610557366004613d5d565b6113f4565b34801561056857600080fd5b5061057c610577366004613b2c565b611409565b6040516102c5919061420a565b61037c610597366004613d5d565b6114e8565b3480156105a857600080fd5b506103256115b0565b3480156105bd57600080fd5b5061037c6105cc366004613959565b6115cb565b3480156105dd57600080fd5b506103256105ec366004613d5d565b611617565b3480156105fd57600080fd5b50610347611629565b61037c610614366004613975565b611638565b34801561062557600080fd5b506103fb611775565b61037c61063c366004613d75565b61177a565b34801561064d57600080fd5b5061066161065c366004613d5d565b611a98565b6040516102c593929190614920565b61037c61067e366004613de0565b611acb565b34801561068f57600080fd5b506102b861069e366004613d5d565b611d72565b3480156106af57600080fd5b506103256106be366004613d5d565b611d87565b3480156106cf57600080fd5b50610347611d99565b3480156106e457600080fd5b506103256106f3366004613d5d565b611da8565b34801561070457600080fd5b506103256123bd565b34801561071957600080fd5b506103476123e1565b34801561072e57600080fd5b5061032561073d366004613d5d565b612405565b34801561074e57600080fd5b5061076261075d366004613c40565b612417565b6040516102c593929190614296565b34801561077d57600080fd5b506103476124a0565b34801561079257600080fd5b506102b86107a1366004613d5d565b6124af565b3480156107b257600080fd5b506103476124c4565b3480156107c757600080fd5b506103fb6124e8565b6000816107df5750600061085f565b6000838152600b602052604090205463ffffffff16805b6000858152600a6020908152604080832063ffffffff851684529091529020548414156108285760019250505061085f565b63ffffffff81166108375750601e5b8061084181614bbe565b9150508163ffffffff168163ffffffff1614156107f6576000925050505b92915050565b600c6020526000908152604090205460ff1681565b60607f000000000000000000000000000000000000000000000000000000000000000060ff166001600160401b038111156108c557634e487b7160e01b600052604160045260246000fd5b6040519080825280602002602001820160405280156108ee578160200160208202803683370190505b50905060005b7f000000000000000000000000000000000000000000000000000000000000000060ff16811015610a045761092a8160016149d8565b60095410610996576009818154811061095357634e487b7160e01b600052603260045260246000fd5b90600052602060002090600302016001015482828151811061098557634e487b7160e01b600052603260045260246000fd5b6020026020010181815250506109f2565b6109c57f000000000000000000000000000000000000000000000000000000000000000063ffffffff16611da8565b8282815181106109e557634e487b7160e01b600052603260045260246000fd5b6020026020010181815250505b806109fc81614bde565b9150506108f4565b5090565b7f000000000000000000000000000000000000000000000000000000000000000090565b7f000000000000000000000000000000000000000000000000000000000000000090565b7f000000000000000000000000000000000000000000000000000000000000000081565b6006546001600160a01b03163314610aa75760405162461bcd60e51b8152600401610a9e906148e9565b60405180910390fd5b60026003541415610aca5760405162461bcd60e51b8152600401610a9e906148b2565b600260035560095460ff7f00000000000000000000000000000000000000000000000000000000000000001611610b135760405162461bcd60e51b8152600401610a9e9061434d565b6000838152600860209081526040808320805460ff1916600190811790915560098054835160608101855289815280860189815281860189815294830184559287528051600383027f6e1540171b6c0c960b71a7020d9f60077f6af931a8bbf590da0223dacf75c7af81019190915592517f6e1540171b6c0c960b71a7020d9f60077f6af931a8bbf590da0223dacf75c7b084015592517f6e1540171b6c0c960b71a7020d9f60077f6af931a8bbf590da0223dacf75c7b19092019190915587855260078452828520819055600a84528285208580529093528184208690559051919290917fcf4749969bace1552af6a97fe7e4affedf68875511f9746c6332eb40647b305490610c2990889087908990614920565b60405180910390a15050600160035550505050565b7f30644e72e131a029b85045b68181585d2833e84879b9709143e1f593f000000181565b600a60209081526000928352604080842090915290825290205481565b6006546001600160a01b03163314610ca95760405162461bcd60e51b8152600401610a9e906148e9565b60026003541415610ccc5760405162461bcd60e51b8152600401610a9e906148b2565b600260035560008381526008602052604090205460ff16610cff5760405162461bcd60e51b8152600401610a9e90614384565b600083815260076020526040902054600980548392908110610d3157634e487b7160e01b600052603260045260246000fd5b90600052602060002090600302016002015410610d605760405162461bcd60e51b8152600401610a9e90614578565b6000838152600760209081526040918290205482516060810184528681529182018590529181018390526009805483908110610dac57634e487b7160e01b600052603260045260246000fd5b60009182526020808320845160039093020191825583810151600180840191909155604094850151600290930192909255878352600b9052918120549091601e91610dff9163ffffffff909116906149f0565b610e099190614c1d565b6000868152600b60209081526040808320805463ffffffff191663ffffffff8616908117909155600a835281842090845290915290819020869055519091507f675e61f04bcf314a9c310a93f2346f417a03d704c1caf9c6af8a65ad8addfa3f90610e7990879086908890614920565b60405180910390a150506001600355505050565b604051630594d27160e31b81526001600160a01b037f00000000000000000000000000000000000000000000000000000000000000001690632ca6938890610edd90339086908690600401614198565b600060405180830381600087803b158015610ef757600080fd5b505af1158015610f0b573d6000803e3d6000fd5b505050505050565b7f000000000000000000000000000000000000000000000000000000000000000081565b60405163130e405b60e11b81526001600160a01b037f0000000000000000000000000000000000000000000000000000000000000000169063261c80b690610edd90339086908690600401614198565b600b6020526000908152604090205463ffffffff1681565b6000610fd282600081518110610fc557634e487b7160e01b600052603260045260246000fd5b60200260200101516111a6565b610fee5760405162461bcd60e51b8152600401610a9e906143e1565b6110197f00000000000000000000000000000000000000000000000000000000000000006001614a18565b60ff1682511461103b5760405162461bcd60e51b8152600401610a9e9061467e565b60005b6009548110156111145760006009828154811061106b57634e487b7160e01b600052603260045260246000fd5b9060005260206000209060030201604051806060016040529081600082015481526020016001820154815260200160028201548152505090506110e58160000151858460016110ba91906149d8565b815181106110d857634e487b7160e01b600052603260045260246000fd5b60200260200101516107d0565b6111015760405162461bcd60e51b8152600401610a9e906146b5565b508061110c81614bde565b91505061103e565b50600190505b919050565b604051630594d27160e31b81526001600160a01b037f00000000000000000000000000000000000000000000000000000000000000001690632ca693889034906111729033906000908190600401614198565b6000604051808303818588803b15801561118b57600080fd5b505af115801561119f573d6000803e3d6000fd5b5050505050565b6000816111b55750600061111a565b60025463ffffffff16805b63ffffffff81166000908152600160205260409020548414156111e85760019250505061111a565b63ffffffff81166111f75750601e5b8061120181614bbe565b9150508163ffffffff168163ffffffff1614156111c0575060009392505050565b7f000000000000000000000000000000000000000000000000000000000000000081565b600d6020526000908152604090205460ff1681565b7f000000000000000000000000000000000000000000000000000000000000000081565b6005546001600160a01b031633146112a95760405162461bcd60e51b8152600401610a9e90614620565b600480546001600160a01b0319166001600160a01b0392909216919091179055565b60007f30644e72e131a029b85045b68181585d2833e84879b9709143e1f593f0000001831061130c5760405162461bcd60e51b8152600401610a9e906144d6565b7f30644e72e131a029b85045b68181585d2833e84879b9709143e1f593f0000001821061134b5760405162461bcd60e51b8152600401610a9e906145af565b6040805180820182528481526020810184905290516314d2f97b60e11b8152849184916001600160a01b038816916329a5f2f69161138c9190600401614288565b60206040518083038186803b1580156113a457600080fd5b505afa1580156113b8573d6000803e3d6000fd5b505050506040513d601f19601f820116820180604052508101906113dc9190613f04565b925050505b9392505050565b60025463ffffffff1681565b60009081526008602052604090205460ff1690565b6060816001600160401b0381111561143157634e487b7160e01b600052604160045260246000fd5b60405190808252806020026020018201604052801561145a578160200160208202803683370190505b50905060005b828110156114e15761149784848381811061148b57634e487b7160e01b600052603260045260246000fd5b90506020020135611d72565b156114cf5760018282815181106114be57634e487b7160e01b600052603260045260246000fd5b911515602092830291909101909101525b806114d981614bde565b915050611460565b5092915050565b6002600354141561150b5760405162461bcd60e51b8152600401610a9e906148b2565b60026003556000818152600d602052604090205460ff161561153f5760405162461bcd60e51b8152600401610a9e90614723565b600061154a826124fc565b6000838152600d60205260409020805460ff19166001179055905061156d6126e5565b817fa945e51eec50ab98c161376f0db4cf2aeba3ec92755fe2fcd388bdbbb80ff196824260405161159f929190614947565b60405180910390a250506001600355565b60025463ffffffff1660009081526001602052604090205490565b6004546001600160a01b031633146115f55760405162461bcd60e51b8152600401610a9e9061449f565b600680546001600160a01b0319166001600160a01b0392909216919091179055565b60016020526000908152604090205481565b6006546001600160a01b031681565b6000818152600d602052604090205460ff16156116675760405162461bcd60e51b8152600401610a9e90614723565b604051633d97186b60e11b81526001600160a01b037f00000000000000000000000000000000000000000000000000000000000000001690637b2e30d69034906116db90339087907f00000000000000000000000000000000000000000000000000000000000000009030906004016141bc565b6000604051808303818588803b1580156116f457600080fd5b505af1158015611708573d6000803e3d6000fd5b50505050506000611718826124fc565b6000838152600d602052604090819020805460ff191660011790555190915082907fa945e51eec50ab98c161376f0db4cf2aeba3ec92755fe2fcd388bdbbb80ff196906117689084904290614947565b60405180910390a2505050565b601e81565b6002600354141561179d5760405162461bcd60e51b8152600401610a9e906148b2565b60026003557f000000000000000000000000000000000000000000000000000000000000000060a082013511156117e65760405162461bcd60e51b8152600401610a9e90614418565b6020808201356000908152600c909152604090205460ff161561181b5760405162461bcd60e51b8152600401610a9e906146ec565b60008061189861182b848061496b565b8080601f016020809104026020016040519081016040528093929190818152602001838380828437600092019190915250505050602085013560408601356118796080880160608901613959565b61188960a0890160808a01613959565b8860a001358960c001356127c8565b915091506118a581610f9f565b6118c15760405162461bcd60e51b8152600401610a9e90614657565b61190285858080601f0160208091040260200160405190810160405280939291908181526020018383808284376000920191909152508692506130d1915050565b61191e5760405162461bcd60e51b8152600401610a9e906145f0565b6020808401356000908152600c909152604090819020805460ff191660011790558301356119e8576119786119596080850160608601613959565b61196960a0860160808701613959565b8560a001358660c001356131eb565b61198860a0840160808501613959565b6001600160a01b03167fe9e508bad6d4c3227e881ca19068f099da81b5164dd6d62b2eaf1e8bc6c349316119c26080860160608701613959565b85602001358660a001356040516119db9392919061415e565b60405180910390a2611a8c565b6040808401356000908152600d602052205460ff1615611a1a5760405162461bcd60e51b8152600401610a9e90614723565b6000611a2984604001356124fc565b6040808601356000818152600d602090815290839020805460ff191660011790559151929350917f138604f043594af1377bf30140984eef19cad0fb0c801cbb9b879005eddc06f091611a829190880135908590614326565b60405180910390a2505b50506001600355505050565b60098181548110611aa857600080fd5b600091825260209091206003909102018054600182015460029092015490925083565b60026003541415611aee5760405162461bcd60e51b8152600401610a9e906148b2565b600260035560a08201517f00000000000000000000000000000000000000000000000000000000000000001015611b375760405162461bcd60e51b8152600401610a9e90614418565b6020808301516000908152600c909152604090205460ff1615611b6c5760405162461bcd60e51b8152600401610a9e906146ec565b600080611b9a846000015185602001518660400151876060015188608001518960a001518a60c001516127c8565b91509150611ba781610f9f565b611bc35760405162461bcd60e51b8152600401610a9e90614657565b611c0486868080601f0160208091040260200160405190810160405280939291908181526020018383808284376000920191909152508692506130d1915050565b611c205760405162461bcd60e51b8152600401610a9e906145f0565b6020808501516000908152600c90915260409020805460ff19166001179055608084015160a085015160c0860151611c5b92309290916131eb565b7f00000000000000000000000000000000000000000000000000000000000000006001600160a01b0316634808285e848660a001517f0000000000000000000000000000000000000000000000000000000000000000611cbb9190614b7b565b87606001516040518463ffffffff1660e01b8152600401611cde939291906141e7565b600060405180830381600087803b158015611cf857600080fd5b505af1158015611d0c573d6000803e3d6000fd5b5050505083608001516001600160a01b03167fe9e508bad6d4c3227e881ca19068f099da81b5164dd6d62b2eaf1e8bc6c34931856060015186602001518760a00151604051611d5d9392919061415e565b60405180910390a25050600160035550505050565b6000908152600c602052604090205460ff1690565b60076020526000908152604090205481565b6004546001600160a01b031681565b600081611dd657507f2fe54c60d3acabf3343a35b6eba15db4821b340f76e741e2249685ed4899af6c61111a565b8160011415611e0657507f13e37f2d6cb86c78ccc1788607c2b199788c6bb0a615a21f2e7a8e88384222f861111a565b8160021415611e3657507f217126fa352c326896e8c2803eec8fd63ad50cf65edfef27a41a9e32dc62276561111a565b8160031415611e6657507f0e28a61a9b3e91007d5a9e3ada18e1b24d6d230c618388ee5df34cacd7397eee61111a565b8160041415611e9657507f27953447a6979839536badc5425ed15fadb0e292e9bc36f92f0aa5cfa501358761111a565b8160051415611ec657507f194191edbfb91d10f6a7afd315f33095410c7801c47175c2df6dc2cce0e3affc61111a565b8160061415611ef657507f1733dece17d71190516dbaf1927936fa643dc7079fc0cc731de9d6845a47741f61111a565b8160071415611f2657507f267855a7dc75db39d81d17f95d0a7aa572bf5ae19f4db0e84221d2b2ef99921961111a565b8160081415611f5657507f1184e11836b4c36ad8238a340ecc0985eeba665327e33e9b0e3641027c27620d61111a565b8160091415611f8657507f0702ab83a135d7f55350ab1bfaa90babd8fc1d2b3e6a7215381a7b2213d6c5ce61111a565b81600a1415611fb657507f2eecc0de814cfd8c57ce882babb2e30d1da56621aef7a47f3291cffeaec26ad761111a565b81600b1415611fe657507f280bc02145c155d5833585b6c7b08501055157dd30ce005319621dc462d33b4761111a565b81600c141561201657507f045132221d1fa0a7f4aed8acd2cbec1e2189b7732ccb2ec272b9c60f0d5afc5b61111a565b81600d141561204657507f27f427ccbf58a44b1270abbe4eda6ba53bd6ac4d88cf1e00a13c4371ce71d36661111a565b81600e141561207657507f1617eaae5064f26e8f8a6493ae92bfded7fde71b65df1ca6d5dcec0df70b2cef61111a565b81600f14156120a657507f20c6b400d0ea1b15435703c31c31ee63ad7ba5c8da66cec2796feacea575abca61111a565b81601014156120d657507f09589ddb438723f53a8e57bdada7c5f8ed67e8fece3889a73618732965645eec61111a565b816011141561210557507e64b6a738a5ff537db7b220f3394f0ecbd35bfd355c5425dc1166bf3236079b61111a565b816012141561213557507f095de56281b1d5055e897c3574ff790d5ee81dbc5df784ad2d67795e557c9e9f61111a565b816013141561216557507f11cf2e2887aa21963a6ec14289183efe4d4c60f14ecd3d6fe0beebdf855a9b6361111a565b816014141561219557507f2b0f6fc0179fa65b6f73627c0e1e84c7374d2eaec44c9a48f2571393ea77bcbb61111a565b81601514156121c557507f16fdb637c2abf9c0f988dbf2fd64258c46fb6a273d537b2cf1603ea460b1327961111a565b81601614156121f557507f21bbd7e944f6124dad4c376df9cc12e7ca66e47dff703ff7cedb1a454edcf0ff61111a565b816017141561222557507f2784f8220b1c963e468f590f137baaa1625b3b92a27ad9b6e84eb0d3454d996261111a565b816018141561225557507f16ace1a65b7534142f8cc1aad810b3d6a7a74ca905d9c275cb98ba57e509fc1061111a565b816019141561228557507f2328068c6a8c24265124debd8fe10d3f29f0665ea725a65e3638f6192a96a01361111a565b81601a14156122b557507f2ddb991be1f028022411b4c4d2c22043e5e751c120736f00adf54acab1c9ac1461111a565b81601b14156122e557507f0113798410eaeb95056a464f70521eb58377c0155f2fe518a5594d38cc209cc061111a565b81601c141561231557507f202d1ae61526f0d0d01ef80fb5d4055a7af45721024c2c24cffd6a3798f54d5061111a565b81601d141561234557507f23ab323453748129f2765f79615022f5bebd6f4096a796300aab049a60b0f18761111a565b81601e141561237557507f1f15585f8947e378bcf8bd918716799da909acdb944c57150b1eb4565fda8aa061111a565b81601f14156123a557507f1eb064b21055ac6a350cf41eb30e4ce2cb19680217df3a243617c2838185ad0661111a565b60405162461bcd60e51b8152600401610a9e906147eb565b7f2fe54c60d3acabf3343a35b6eba15db4821b340f76e741e2249685ed4899af6c81565b7f000000000000000000000000000000000000000000000000000000000000000081565b60006020819052908152604090205481565b61241f613750565b61242761376e565b61242f613750565b50506040805180820182528351815260208085015181830152825160808082018552868501518286019081526060808901519084015282528451808601865290870151815260a08701518184015281830152835180850190945260c0860151845260e0909501519083015293909150565b6005546001600160a01b031681565b60086020526000908152604090205460ff1681565b7f000000000000000000000000000000000000000000000000000000000000000081565b600254640100000000900463ffffffff1681565b6002805460009164010000000090910463ffffffff169061253e907f000000000000000000000000000000000000000000000000000000000000000090614aa6565b63ffffffff168163ffffffff1614156125695760405162461bcd60e51b8152600401610a9e90614862565b8083600080805b7f000000000000000000000000000000000000000000000000000000000000000063ffffffff168163ffffffff161015612652576125af600286614c1d565b63ffffffff166125ea578392506125cb8163ffffffff16611da8565b63ffffffff821660009081526020819052604090208590559150612606565b63ffffffff811660009081526020819052604090205492508391505b6126317f000000000000000000000000000000000000000000000000000000000000000084846112cb565b935061263e600286614a3d565b94508061264a81614bf9565b915050612570565b50600254600090601e9061266d9063ffffffff1660016149f0565b6126779190614c1d565b6002805463ffffffff191663ffffffff831690811790915560009081526001602081905260409091208690559091506126b19087906149f0565b6002805463ffffffff929092166401000000000267ffffffff00000000199092169190911790555093945050505050919050565b34156127035760405162461bcd60e51b8152600401610a9e90614764565b6040516323b872dd60e01b81526001600160a01b037f000000000000000000000000000000000000000000000000000000000000000016906323b872dd9061277390339030907f000000000000000000000000000000000000000000000000000000000000000090600401614198565b602060405180830381600087803b15801561278d57600080fd5b505af11580156127a1573d6000803e3d6000fd5b505050506040513d601f19601f820116820180604052508101906127c59190613d3d565b50565b60608060006127d561354c565b905060006128047f00000000000000000000000000000000000000000000000000000000000000006001614a18565b60ff166001600160401b0381111561282c57634e487b7160e01b600052604160045260246000fd5b604051908082528060200260200182016040528015612855578160200160208202803683370190505b50905060607f000000000000000000000000000000000000000000000000000000000000000060ff16600114156129815761288e61379b565b60008d8060200190518101906128a491906139b2565b90508060006020020151846000815181106128cf57634e487b7160e01b600052603260045260246000fd5b602090810291909101015280600160200201518460018151811061290357634e487b7160e01b600052603260045260246000fd5b6020908102919091018101919091528d83526001600160a01b038c8116848301528b16604080850191909152606084018b9052608084018a905260a084018e905260c08401879052825160e08501528282015161010085015251612969918491016140f6565b604051602081830303815290604052925050506130c1565b7f000000000000000000000000000000000000000000000000000000000000000060ff1660021415612ace576129b56137ba565b60008d8060200190518101906129cb9190613a35565b90508060006020020151846000815181106129f657634e487b7160e01b600052603260045260246000fd5b6020908102919091010152806001602002015184600181518110612a2a57634e487b7160e01b600052603260045260246000fd5b6020908102919091010152806002602002015184600281518110612a5e57634e487b7160e01b600052603260045260246000fd5b6020908102919091018101919091528d83526001600160a01b038c8116848301528b16604080850191909152606084018b9052608084018a905260a084018e905260c08401879052825160e085015282820151610100850152828101516101208501525161296991849101614022565b7f000000000000000000000000000000000000000000000000000000000000000060ff1660031415612c5957612b026137d9565b60008d806020019051810190612b189190613aab565b9050806000602002015184600081518110612b4357634e487b7160e01b600052603260045260246000fd5b6020908102919091010152806001602002015184600181518110612b7757634e487b7160e01b600052603260045260246000fd5b6020908102919091010152806002602002015184600281518110612bab57634e487b7160e01b600052603260045260246000fd5b6020908102919091010152806003602002015184600381518110612bdf57634e487b7160e01b600052603260045260246000fd5b6020908102919091018101919091528d83526001600160a01b038c8116848301528b1660408085019190915260608085018c9052608085018b905260a085018f905260c08501889052835160e086015283830151610100860152838201516101208601528301516101408501525161296991849101614057565b7f000000000000000000000000000000000000000000000000000000000000000060ff1660041415612e5f57612c8d6137f8565b60008d806020019051810190612ca39190613ad6565b9050806000602002015184600081518110612cce57634e487b7160e01b600052603260045260246000fd5b6020908102919091010152806001602002015184600181518110612d0257634e487b7160e01b600052603260045260246000fd5b6020908102919091010152806002602002015184600281518110612d3657634e487b7160e01b600052603260045260246000fd5b6020908102919091010152806003602002015184600381518110612d6a57634e487b7160e01b600052603260045260246000fd5b6020908102919091010152806004602002015184600481518110612d9e57634e487b7160e01b600052603260045260246000fd5b60209081029190910101528c82600060200201526001600160a01b038b1682600160200201526001600160a01b038a1682600260200201528882600360200201528782600460200201528b8260056020020152848260066020020152806000602002015182600760200201528060016020020151826008602002015280600260200201518260096020020152806003602002015182600a6020020152806004602002015182600b60200201818152505081604051602001612969919061408c565b7f000000000000000000000000000000000000000000000000000000000000000060ff16600514156130a957612e93613817565b60008d806020019051810190612ea99190613b01565b9050806000602002015184600081518110612ed457634e487b7160e01b600052603260045260246000fd5b6020908102919091010152806001602002015184600181518110612f0857634e487b7160e01b600052603260045260246000fd5b6020908102919091010152806002602002015184600281518110612f3c57634e487b7160e01b600052603260045260246000fd5b6020908102919091010152806003602002015184600381518110612f7057634e487b7160e01b600052603260045260246000fd5b6020908102919091010152806004602002015184600481518110612fa457634e487b7160e01b600052603260045260246000fd5b6020908102919091010152806005602002015184600581518110612fd857634e487b7160e01b600052603260045260246000fd5b60209081029190910101528c82600060200201526001600160a01b038b1682600160200201526001600160a01b038a1682600260200201528882600360200201528782600460200201528b8260056020020152848260066020020152806000602002015182600760200201528060016020020151826008602002015280600260200201518260096020020152806003602002015182600a6020020152806004602002015182600b6020020152806005602002015182600c6020020181815250508160405160200161296991906140c1565b60405162461bcd60e51b8152600401610a9e90614551565b9b909a5098505050505050505050565b600080838060200190518101906130e89190613cc4565b905060008060006130f884612417565b9250925092507f00000000000000000000000000000000000000000000000000000000000000006001600160a01b031663b4b764f28484848a7f00000000000000000000000000000000000000000000000000000000000000006040518663ffffffff1660e01b81526004016131729594939291906142bf565b60206040518083038186803b15801561318a57600080fd5b505afa15801561319e573d6000803e3d6000fd5b505050506040513d601f19601f820116820180604052508101906131c29190613d3d565b9450846131e15760405162461bcd60e51b8152600401610a9e906145f0565b5050505092915050565b80341461320a5760405162461bcd60e51b8152600401610a9e9061444f565b6040516370a0823160e01b81526000906001600160a01b037f000000000000000000000000000000000000000000000000000000000000000016906370a082319061325990309060040161414a565b60206040518083038186803b15801561327157600080fd5b505afa158015613285573d6000803e3d6000fd5b505050506040513d601f19601f820116820180604052508101906132a99190613f04565b90507f000000000000000000000000000000000000000000000000000000000000000081106133705761333185613300857f0000000000000000000000000000000000000000000000000000000000000000614b7b565b6001600160a01b037f0000000000000000000000000000000000000000000000000000000000000000169190613550565b821561336b5761336b6001600160a01b037f0000000000000000000000000000000000000000000000000000000000000000168585613550565b6134a3565b6001600160a01b037f0000000000000000000000000000000000000000000000000000000000000000166340c10f19866133ca867f0000000000000000000000000000000000000000000000000000000000000000614b7b565b6040518363ffffffff1660e01b81526004016133e792919061417f565b600060405180830381600087803b15801561340157600080fd5b505af1158015613415573d6000803e3d6000fd5b5050505060008311156134a3576040516340c10f1960e01b81526001600160a01b037f000000000000000000000000000000000000000000000000000000000000000016906340c10f1990613470908790879060040161417f565b600060405180830381600087803b15801561348a57600080fd5b505af115801561349e573d6000803e3d6000fd5b505050505b811561119f576000856001600160a01b0316836040516134c290614147565b60006040518083038185875af1925050503d80600081146134ff576040519150601f19603f3d011682016040523d82523d6000602084013e613504565b606091505b5050905080610f0b576040516001600160a01b0386169084156108fc029085906000818181858888f19350505050158015613543573d6000803e3d6000fd5b50505050505050565b4690565b6135a68363a9059cbb60e01b848460405160240161356f92919061417f565b60408051601f198184030181529190526020810180516001600160e01b03166001600160e01b0319909316929092179091526135ab565b505050565b6000613600826040518060400160405280602081526020017f5361666545524332303a206c6f772d6c6576656c2063616c6c206661696c6564815250856001600160a01b031661363a9092919063ffffffff16565b8051909150156135a6578080602001905181019061361e9190613d3d565b6135a65760405162461bcd60e51b8152600401610a9e90614818565b60606136498484600085613651565b949350505050565b6060824710156136735760405162461bcd60e51b8152600401610a9e9061450b565b61367c85613711565b6136985760405162461bcd60e51b8152600401610a9e906147b4565b600080866001600160a01b031685876040516136b4919061412b565b60006040518083038185875af1925050503d80600081146136f1576040519150601f19603f3d011682016040523d82523d6000602084013e6136f6565b606091505b5091509150613706828286613717565b979650505050505050565b3b151590565b606083156137265750816113e1565b8251156137365782518084602001fd5b8160405162461bcd60e51b8152600401610a9e919061433a565b60405180604001604052806002906020820280368337509192915050565b60405180604001604052806002905b613785613750565b81526020019060019003908161377d5790505090565b6040518061012001604052806009906020820280368337509192915050565b604051806101400160405280600a906020820280368337509192915050565b604051806101600160405280600b906020820280368337509192915050565b604051806101800160405280600c906020820280368337509192915050565b604051806101a00160405280600d906020820280368337509192915050565b60006001600160401b0383111561384f5761384f614c6c565b602080840261385d816149af565b9250828487838701111561387057600080fd5b600092505b86831015613893578051825260019290920191908301908301613875565b505050509392505050565b803561111a81614c82565b60008083601f8401126138ba578182fd5b5081356001600160401b038111156138d0578182fd5b6020830191508360208285010111156138e857600080fd5b9250929050565b600082601f8301126138ff578081fd5b81356001600160401b0381111561391857613918614c6c565b61392b601f8201601f19166020016149af565b81815284602083860101111561393f578283fd5b816020850160208301379081016020019190915292915050565b60006020828403121561396a578081fd5b81356113e181614c82565b60008060408385031215613987578081fd5b823561399281614c82565b946020939093013593505050565b60008060408385031215613987578182fd5b6000604082840312156139c3578081fd5b82601f8301126139d1578081fd5b604051604081018181106001600160401b03821117156139f3576139f3614c6c565b8060405250808385604086011115613a09578384fd5b835b6002811015613a2a578151835260209283019290910190600101613a0b565b509195945050505050565b600060608284031215613a46578081fd5b82601f830112613a54578081fd5b604051606081018181106001600160401b0382111715613a7657613a76614c6c565b604052808360608101861015613a8a578384fd5b835b6003811015613a2a578151835260209283019290910190600101613a8c565b600060808284031215613abc578081fd5b82601f830112613aca578081fd5b6113e183600484613836565b600060a08284031215613ae7578081fd5b82601f830112613af5578081fd5b6113e183600584613836565b600060c08284031215613b12578081fd5b82601f830112613b20578081fd5b6113e183600684613836565b60008060208385031215613b3e578182fd5b82356001600160401b0380821115613b54578384fd5b818501915085601f830112613b67578384fd5b813581811115613b75578485fd5b8660208083028501011115613b88578485fd5b60209290920196919550909350505050565b60006020808385031215613bac578182fd5b82356001600160401b0380821115613bc2578384fd5b818501915085601f830112613bd5578384fd5b813581811115613be757613be7614c6c565b8381029150613bf78483016149af565b8181528481019084860184860187018a1015613c11578788fd5b8795505b83861015613c33578035835260019590950194918601918601613c15565b5098975050505050505050565b6000610100808385031215613c53578182fd5b83601f840112613c61578182fd5b6040518181018181106001600160401b0382111715613c8257613c82614c6c565b6040528084838101871015613c95578485fd5b8493505b6008841015613cb957803582526001939093019260209182019101613c99565b509095945050505050565b6000610100808385031215613cd7578182fd5b83601f840112613ce5578182fd5b6040518181018181106001600160401b0382111715613d0657613d06614c6c565b6040528084838101871015613d19578485fd5b8493505b6008841015613cb957805182526001939093019260209182019101613d1d565b600060208284031215613d4e578081fd5b815180151581146113e1578182fd5b600060208284031215613d6e578081fd5b5035919050565b600080600060408486031215613d89578081fd5b83356001600160401b0380821115613d9f578283fd5b613dab878388016138a9565b90955093506020860135915080821115613dc3578283fd5b50840160e08187031215613dd5578182fd5b809150509250925092565b60008060008060608587031215613df5578182fd5b84356001600160401b0380821115613e0b578384fd5b613e17888389016138a9565b90965094506020870135915080821115613e2f578384fd5b9086019060e08289031215613e42578384fd5b613e4c60e06149af565b823582811115613e5a578586fd5b613e668a8286016138ef565b8252506020830135602082015260408301356040820152613e896060840161389e565b6060820152613e9a6080840161389e565b608082015260a083013560a082015260c083013560c0820152809450505050613ec56040860161389e565b905092959194509250565b600080600060608486031215613ee4578081fd5b8335613eef81614c82565b95602085013595506040909401359392505050565b600060208284031215613f15578081fd5b5051919050565b60008060408385031215613f2e578182fd5b50508035926020909101359150565b600080600060608486031215613f51578081fd5b505081359360208301359350604090920135919050565b60008060408385031215613f7a578182fd5b82359150602083013563ffffffff81168114613f94578182fd5b809150509250929050565b8060005b6002811015613fcd57613fb7848351613fd3565b6040939093019260209190910190600101613fa3565b50505050565b8060005b6002811015613fcd578151845260209384019390910190600101613fd7565b6000815180845261400e816020860160208601614b92565b601f01601f19169290920160200192915050565b60008183825b600a811015614047578151835260209283019290910190600101614028565b5050506101408201905092915050565b60008183825b600b81101561407c57815183526020928301929091019060010161405d565b5050506101608201905092915050565b60008183825b600c8110156140b1578151835260209283019290910190600101614092565b5050506101808201905092915050565b60008183825b600d8110156140e65781518352602092830192909101906001016140c7565b5050506101a08201905092915050565b60008183825b600981101561411b5781518352602092830192909101906001016140fc565b5050506101208201905092915050565b6000825161413d818460208701614b92565b9190910192915050565b90565b6001600160a01b0391909116815260200190565b6001600160a01b039390931683526020830191909152604082015260600190565b6001600160a01b03929092168252602082015260400190565b6001600160a01b039384168152919092166020820152604081019190915260600190565b6001600160a01b03948516815292841660208401526040830191909152909116606082015260800190565b6001600160a01b0393841681526020810192909252909116604082015260600190565b6020808252825182820181905260009190848201906040850190845b81811015614244578351151583529284019291840191600101614226565b50909695505050505050565b6020808252825182820181905260009190848201906040850190845b818110156142445783518352928401929184019160010161426c565b6040810161085f8284613fd3565b61010081016142a58286613fd3565b6142b26040830185613f9f565b61364960c0830184613fd3565b60006101406142ce8389613fd3565b6142db6040840188613f9f565b6142e860c0840187613fd3565b806101008401526142fb81840186613ff6565b91505060ff83166101208301529695505050505050565b901515815260200190565b90815260200190565b91825263ffffffff16602082015260400190565b6000602082526113e16020830184613ff6565b6020808252601a908201527f5468697320416e63686f72206973206174206361706163697479000000000000604082015260600190565b60208082526037908201527f436861696e206d75737420626520696e74656772617465642066726f6d20746860408201527f6520627269646765206265666f72652075706461746573000000000000000000606082015260800190565b6020808252601c908201527f43616e6e6f742066696e6420796f7572206d65726b6c6520726f6f7400000000604082015260600190565b6020808252601a908201527f4665652065786365656473207472616e736665722076616c7565000000000000604082015260600190565b60208082526030908201527f496e636f727265637420726566756e6420616d6f756e7420726563656976656460408201526f08189e481d1a194818dbdb9d1c9858dd60821b606082015260800190565b60208082526018908201527f73656e646572206973206e6f7420746865206272696467650000000000000000604082015260600190565b6020808252818101527f5f6c6566742073686f756c6420626520696e7369646520746865206669656c64604082015260600190565b60208082526026908201527f416464726573733a20696e73756666696369656e742062616c616e636520666f6040820152651c8818d85b1b60d21b606082015260800190565b6020808252600d908201526c496e76616c696420656467657360981b604082015260600190565b6020808252601e908201527f4e6577206c65616620696e646578206d75737420626520677265617465720000604082015260600190565b60208082526021908201527f5f72696768742073686f756c6420626520696e7369646520746865206669656c6040820152601960fa1b606082015260800190565b60208082526016908201527524b73b30b634b2103bb4ba34323930bb90383937b7b360511b604082015260600190565b60208082526017908201527f73656e646572206973206e6f74207468652061646d696e000000000000000000604082015260600190565b6020808252600d908201526c496e76616c696420726f6f747360981b604082015260600190565b6020808252601b908201527f496e636f727265637420726f6f74206172726179206c656e6774680000000000604082015260600190565b60208082526017908201527f4e65696768626f7220726f6f74206e6f7420666f756e64000000000000000000604082015260600190565b6020808252601f908201527f546865206e6f746520686173206265656e20616c7265616479207370656e7400604082015260600190565b60208082526021908201527f54686520636f6d6d69746d656e7420686173206265656e207375626d697474656040820152601960fa1b606082015260800190565b60208082526030908201527f4554482076616c756520697320737570706f73656420746f206265203020666f60408201526f7220455243323020696e7374616e636560801b606082015260800190565b6020808252601d908201527f416464726573733a2063616c6c20746f206e6f6e2d636f6e7472616374000000604082015260600190565b602080825260139082015272496e646578206f7574206f6620626f756e647360681b604082015260600190565b6020808252602a908201527f5361666545524332303a204552433230206f7065726174696f6e20646964206e6040820152691bdd081cdd58d8d9595960b21b606082015260800190565b60208082526030908201527f4d65726b6c6520747265652069732066756c6c2e204e6f206d6f7265206c656160408201526f1d995cc818d85b88189948185919195960821b606082015260800190565b6020808252601f908201527f5265656e7472616e637947756172643a207265656e7472616e742063616c6c00604082015260600190565b60208082526019908201527f73656e646572206973206e6f74207468652068616e646c657200000000000000604082015260600190565b9283526020830191909152604082015260600190565b63ffffffff91909116815260200190565b63ffffffff929092168252602082015260400190565b60ff91909116815260200190565b6000808335601e19843603018112614981578283fd5b8301803591506001600160401b0382111561499a578283fd5b6020019150368190038213156138e857600080fd5b6040518181016001600160401b03811182821017156149d0576149d0614c6c565b604052919050565b600082198211156149eb576149eb614c40565b500190565b600063ffffffff808316818516808303821115614a0f57614a0f614c40565b01949350505050565b600060ff821660ff84168060ff03821115614a3557614a35614c40565b019392505050565b600063ffffffff80841680614a5457614a54614c56565b92169190910492915050565b80825b6001808611614a725750614a9d565b818704821115614a8457614a84614c40565b80861615614a9157918102915b9490941c938002614a63565b94509492505050565b600063ffffffff61364981828616838616600082614ac6575060016113e1565b81614ad3575060006113e1565b8160018114614ae95760028114614af357614b20565b60019150506113e1565b60ff841115614b0457614b04614c40565b6001841b915084821115614b1a57614b1a614c40565b506113e1565b5060208310610133831016604e8410600b8410161715614b53575081810a83811115614b4e57614b4e614c40565b6113e1565b614b608484846001614a60565b808604821115614b7257614b72614c40565b02949350505050565b600082821015614b8d57614b8d614c40565b500390565b60005b83811015614bad578181015183820152602001614b95565b83811115613fcd5750506000910152565b600063ffffffff821680614bd457614bd4614c40565b6000190192915050565b6000600019821415614bf257614bf2614c40565b5060010190565b600063ffffffff80831681811415614c1357614c13614c40565b6001019392505050565b600063ffffffff80841680614c3457614c34614c56565b92169190910692915050565b634e487b7160e01b600052601160045260246000fd5b634e487b7160e01b600052601260045260246000fd5b634e487b7160e01b600052604160045260246000fd5b6001600160a01b03811681146127c557600080fdfea2646970667358221220dd6393a40af8f2b82eb85232d5c96bc6a1095f4916d8daf973375e6c91ffc31964736f6c63430008000033",
  "deployedBytecode": "",
  "linkReferences": {},
  "deployedLinkReferences": {}
}