{
  "_format": "hh-sol-artifact-1",
  "contractName": "Anchor",
  "sourceName": "contracts/anchors/bridged/Anchor.sol",
  "abi": [
    {
      "inputs": [
        {
          "internalType": "contract IVerifier",
          "name": "_verifier",
          "type": "address"
        },
        {
          "internalType": "contract IPoseidonT3",
          "name": "_hasher",
          "type": "address"
        },
        {
          "internalType": "uint256",
          "name": "_denomination",
          "type": "uint256"
        },
        {
          "internalType": "uint32",
          "name": "_merkleTreeHeight",
          "type": "uint32"
        },
        {
          "internalType": "contract ITokenWrapper",
          "name": "_token",
          "type": "address"
        },
        {
          "internalType": "address",
          "name": "_bridge",
          "type": "address"
        },
        {
          "internalType": "address",
          "name": "_admin",
          "type": "address"
        },
        {
          "internalType": "address",
          "name": "_handler",
          "type": "address"
        },
        {
          "internalType": "uint8",
          "name": "_maxEdges",
          "type": "uint8"
        }
      ],
      "stateMutability": "nonpayable",
      "type": "constructor"
    },
    {
      "anonymous": false,
      "inputs": [
        {
          "indexed": true,
          "internalType": "bytes32",
          "name": "commitment",
          "type": "bytes32"
        },
        {
          "indexed": false,
          "internalType": "uint32",
          "name": "leafIndex",
          "type": "uint32"
        },
        {
          "indexed": false,
          "internalType": "uint256",
          "name": "timestamp",
          "type": "uint256"
        }
      ],
      "name": "Deposit",
      "type": "event"
    },
    {
      "anonymous": false,
      "inputs": [
        {
          "indexed": false,
          "internalType": "uint256",
          "name": "chainID",
          "type": "uint256"
        },
        {
          "indexed": false,
          "internalType": "uint256",
          "name": "latestLeafIndex",
          "type": "uint256"
        },
        {
          "indexed": false,
          "internalType": "bytes32",
          "name": "merkleRoot",
          "type": "bytes32"
        }
      ],
      "name": "EdgeAddition",
      "type": "event"
    },
    {
      "anonymous": false,
      "inputs": [
        {
          "indexed": false,
          "internalType": "uint256",
          "name": "chainID",
          "type": "uint256"
        },
        {
          "indexed": false,
          "internalType": "uint256",
          "name": "latestLeafIndex",
          "type": "uint256"
        },
        {
          "indexed": false,
          "internalType": "bytes32",
          "name": "merkleRoot",
          "type": "bytes32"
        }
      ],
      "name": "EdgeUpdate",
      "type": "event"
    },
    {
      "anonymous": false,
      "inputs": [
        {
          "indexed": true,
          "internalType": "bytes32",
          "name": "commitment",
          "type": "bytes32"
        },
        {
          "indexed": false,
          "internalType": "bytes32",
          "name": "nullifierHash",
          "type": "bytes32"
        },
        {
          "indexed": false,
          "internalType": "uint32",
          "name": "insertedIndex",
          "type": "uint32"
        }
      ],
      "name": "Refresh",
      "type": "event"
    },
    {
      "anonymous": false,
      "inputs": [
        {
          "indexed": false,
          "internalType": "address",
          "name": "to",
          "type": "address"
        },
        {
          "indexed": false,
          "internalType": "bytes32",
          "name": "nullifierHash",
          "type": "bytes32"
        },
        {
          "indexed": true,
          "internalType": "address",
          "name": "relayer",
          "type": "address"
        },
        {
          "indexed": false,
          "internalType": "uint256",
          "name": "fee",
          "type": "uint256"
        }
      ],
      "name": "Withdrawal",
      "type": "event"
    },
    {
      "inputs": [],
      "name": "FIELD_SIZE",
      "outputs": [
        {
          "internalType": "uint256",
          "name": "",
          "type": "uint256"
        }
      ],
      "stateMutability": "view",
      "type": "function"
    },
    {
      "inputs": [],
      "name": "ROOT_HISTORY_SIZE",
      "outputs": [
        {
          "internalType": "uint32",
          "name": "",
          "type": "uint32"
        }
      ],
      "stateMutability": "view",
      "type": "function"
    },
    {
      "inputs": [],
      "name": "ZERO_VALUE",
      "outputs": [
        {
          "internalType": "uint256",
          "name": "",
          "type": "uint256"
        }
      ],
      "stateMutability": "view",
      "type": "function"
    },
    {
      "inputs": [
        {
          "internalType": "uint256",
          "name": "sourceChainID",
          "type": "uint256"
        },
        {
          "internalType": "bytes32",
          "name": "root",
          "type": "bytes32"
        },
        {
          "internalType": "uint256",
          "name": "leafIndex",
          "type": "uint256"
        }
      ],
      "name": "addEdge",
      "outputs": [],
      "stateMutability": "payable",
      "type": "function"
    },
    {
      "inputs": [],
      "name": "admin",
      "outputs": [
        {
          "internalType": "address",
          "name": "",
          "type": "address"
        }
      ],
      "stateMutability": "view",
      "type": "function"
    },
    {
      "inputs": [],
      "name": "bridge",
      "outputs": [
        {
          "internalType": "address",
          "name": "",
          "type": "address"
        }
      ],
      "stateMutability": "view",
      "type": "function"
    },
    {
      "inputs": [
        {
          "internalType": "bytes32",
          "name": "",
          "type": "bytes32"
        }
      ],
      "name": "commitments",
      "outputs": [
        {
          "internalType": "bool",
          "name": "",
          "type": "bool"
        }
      ],
      "stateMutability": "view",
      "type": "function"
    },
    {
      "inputs": [
        {
          "internalType": "uint256",
          "name": "",
          "type": "uint256"
        }
      ],
      "name": "currentNeighborRootIndex",
      "outputs": [
        {
          "internalType": "uint32",
          "name": "",
          "type": "uint32"
        }
      ],
      "stateMutability": "view",
      "type": "function"
    },
    {
      "inputs": [],
      "name": "currentRootIndex",
      "outputs": [
        {
          "internalType": "uint32",
          "name": "",
          "type": "uint32"
        }
      ],
      "stateMutability": "view",
      "type": "function"
    },
    {
      "inputs": [],
      "name": "denomination",
      "outputs": [
        {
          "internalType": "uint256",
          "name": "",
          "type": "uint256"
        }
      ],
      "stateMutability": "view",
      "type": "function"
    },
    {
      "inputs": [
        {
          "internalType": "bytes32",
          "name": "_commitment",
          "type": "bytes32"
        }
      ],
      "name": "deposit",
      "outputs": [],
      "stateMutability": "payable",
      "type": "function"
    },
    {
      "inputs": [
        {
          "internalType": "uint256",
          "name": "",
          "type": "uint256"
        }
      ],
      "name": "edgeExistsForChain",
      "outputs": [
        {
          "internalType": "bool",
          "name": "",
          "type": "bool"
        }
      ],
      "stateMutability": "view",
      "type": "function"
    },
    {
      "inputs": [
        {
          "internalType": "uint256",
          "name": "",
          "type": "uint256"
        }
      ],
      "name": "edgeIndex",
      "outputs": [
        {
          "internalType": "uint256",
          "name": "",
          "type": "uint256"
        }
      ],
      "stateMutability": "view",
      "type": "function"
    },
    {
      "inputs": [
        {
          "internalType": "uint256",
          "name": "",
          "type": "uint256"
        }
      ],
      "name": "edgeList",
      "outputs": [
        {
          "internalType": "uint256",
          "name": "chainID",
          "type": "uint256"
        },
        {
          "internalType": "bytes32",
          "name": "root",
          "type": "bytes32"
        },
        {
          "internalType": "uint256",
          "name": "latestLeafIndex",
          "type": "uint256"
        }
      ],
      "stateMutability": "view",
      "type": "function"
    },
    {
      "inputs": [
        {
          "internalType": "uint256",
          "name": "",
          "type": "uint256"
        }
      ],
      "name": "filledSubtrees",
      "outputs": [
        {
          "internalType": "bytes32",
          "name": "",
          "type": "bytes32"
        }
      ],
      "stateMutability": "view",
      "type": "function"
    },
    {
      "inputs": [],
      "name": "getLastRoot",
      "outputs": [
        {
          "internalType": "bytes32",
          "name": "",
          "type": "bytes32"
        }
      ],
      "stateMutability": "view",
      "type": "function"
    },
    {
      "inputs": [],
      "name": "getLatestNeighborRoots",
      "outputs": [
        {
          "internalType": "bytes32[]",
          "name": "roots",
          "type": "bytes32[]"
        }
      ],
      "stateMutability": "view",
      "type": "function"
    },
    {
      "inputs": [],
      "name": "handler",
      "outputs": [
        {
          "internalType": "address",
          "name": "",
          "type": "address"
        }
      ],
      "stateMutability": "view",
      "type": "function"
    },
    {
      "inputs": [
        {
          "internalType": "uint256",
          "name": "_chainID",
          "type": "uint256"
        }
      ],
      "name": "hasEdge",
      "outputs": [
        {
          "internalType": "bool",
          "name": "",
          "type": "bool"
        }
      ],
      "stateMutability": "view",
      "type": "function"
    },
    {
      "inputs": [
        {
          "internalType": "contract IPoseidonT3",
          "name": "_hasher",
          "type": "address"
        },
        {
          "internalType": "bytes32",
          "name": "_left",
          "type": "bytes32"
        },
        {
          "internalType": "bytes32",
          "name": "_right",
          "type": "bytes32"
        }
      ],
      "name": "hashLeftRight",
      "outputs": [
        {
          "internalType": "bytes32",
          "name": "",
          "type": "bytes32"
        }
      ],
      "stateMutability": "pure",
      "type": "function"
    },
    {
      "inputs": [],
      "name": "hasher",
      "outputs": [
        {
          "internalType": "contract IPoseidonT3",
          "name": "",
          "type": "address"
        }
      ],
      "stateMutability": "view",
      "type": "function"
    },
    {
      "inputs": [
        {
          "internalType": "uint256",
          "name": "neighborChainID",
          "type": "uint256"
        },
        {
          "internalType": "bytes32",
          "name": "_root",
          "type": "bytes32"
        }
      ],
      "name": "isKnownNeighborRoot",
      "outputs": [
        {
          "internalType": "bool",
          "name": "",
          "type": "bool"
        }
      ],
      "stateMutability": "view",
      "type": "function"
    },
    {
      "inputs": [
        {
          "internalType": "bytes32",
          "name": "_root",
          "type": "bytes32"
        }
      ],
      "name": "isKnownRoot",
      "outputs": [
        {
          "internalType": "bool",
          "name": "",
          "type": "bool"
        }
      ],
      "stateMutability": "view",
      "type": "function"
    },
    {
      "inputs": [
        {
          "internalType": "bytes32",
          "name": "_nullifierHash",
          "type": "bytes32"
        }
      ],
      "name": "isSpent",
      "outputs": [
        {
          "internalType": "bool",
          "name": "",
          "type": "bool"
        }
      ],
      "stateMutability": "view",
      "type": "function"
    },
    {
      "inputs": [
        {
          "internalType": "bytes32[]",
          "name": "_nullifierHashes",
          "type": "bytes32[]"
        }
      ],
      "name": "isSpentArray",
      "outputs": [
        {
          "internalType": "bool[]",
          "name": "spent",
          "type": "bool[]"
        }
      ],
      "stateMutability": "view",
      "type": "function"
    },
    {
      "inputs": [
        {
          "internalType": "bytes32[]",
          "name": "roots",
          "type": "bytes32[]"
        }
      ],
      "name": "isValidRoots",
      "outputs": [
        {
          "internalType": "bool",
          "name": "",
          "type": "bool"
        }
      ],
      "stateMutability": "view",
      "type": "function"
    },
    {
      "inputs": [],
      "name": "levels",
      "outputs": [
        {
          "internalType": "uint32",
          "name": "",
          "type": "uint32"
        }
      ],
      "stateMutability": "view",
      "type": "function"
    },
    {
      "inputs": [],
      "name": "maxEdges",
      "outputs": [
        {
          "internalType": "uint8",
          "name": "",
          "type": "uint8"
        }
      ],
      "stateMutability": "view",
      "type": "function"
    },
    {
      "inputs": [
        {
          "internalType": "uint256",
          "name": "",
          "type": "uint256"
        },
        {
          "internalType": "uint32",
          "name": "",
          "type": "uint32"
        }
      ],
      "name": "neighborRoots",
      "outputs": [
        {
          "internalType": "bytes32",
          "name": "",
          "type": "bytes32"
        }
      ],
      "stateMutability": "view",
      "type": "function"
    },
    {
      "inputs": [],
      "name": "nextIndex",
      "outputs": [
        {
          "internalType": "uint32",
          "name": "",
          "type": "uint32"
        }
      ],
      "stateMutability": "view",
      "type": "function"
    },
    {
      "inputs": [
        {
          "internalType": "bytes32",
          "name": "",
          "type": "bytes32"
        }
      ],
      "name": "nullifierHashes",
      "outputs": [
        {
          "internalType": "bool",
          "name": "",
          "type": "bool"
        }
      ],
      "stateMutability": "view",
      "type": "function"
    },
    {
      "inputs": [
        {
          "internalType": "uint256",
          "name": "",
          "type": "uint256"
        }
      ],
      "name": "roots",
      "outputs": [
        {
          "internalType": "bytes32",
          "name": "",
          "type": "bytes32"
        }
      ],
      "stateMutability": "view",
      "type": "function"
    },
    {
      "inputs": [
        {
          "internalType": "address",
          "name": "_bridge",
          "type": "address"
        }
      ],
      "name": "setBridge",
      "outputs": [],
      "stateMutability": "nonpayable",
      "type": "function"
    },
    {
      "inputs": [
        {
          "internalType": "address",
          "name": "_handler",
          "type": "address"
        }
      ],
      "name": "setHandler",
      "outputs": [],
      "stateMutability": "nonpayable",
      "type": "function"
    },
    {
      "inputs": [],
      "name": "token",
      "outputs": [
        {
          "internalType": "address",
          "name": "",
          "type": "address"
        }
      ],
      "stateMutability": "view",
      "type": "function"
    },
    {
      "inputs": [
        {
          "internalType": "uint256[8]",
          "name": "_proof",
          "type": "uint256[8]"
        }
      ],
      "name": "unpackProof",
      "outputs": [
        {
          "internalType": "uint256[2]",
          "name": "",
          "type": "uint256[2]"
        },
        {
          "internalType": "uint256[2][2]",
          "name": "",
          "type": "uint256[2][2]"
        },
        {
          "internalType": "uint256[2]",
          "name": "",
          "type": "uint256[2]"
        }
      ],
      "stateMutability": "pure",
      "type": "function"
    },
    {
      "inputs": [
        {
          "internalType": "address",
          "name": "tokenAddress",
          "type": "address"
        },
        {
          "internalType": "uint256",
          "name": "amount",
          "type": "uint256"
        }
      ],
      "name": "unwrapIntoNative",
      "outputs": [],
      "stateMutability": "nonpayable",
      "type": "function"
    },
    {
      "inputs": [
        {
          "internalType": "address",
          "name": "tokenAddress",
          "type": "address"
        },
        {
          "internalType": "uint256",
          "name": "amount",
          "type": "uint256"
        }
      ],
      "name": "unwrapIntoToken",
      "outputs": [],
      "stateMutability": "nonpayable",
      "type": "function"
    },
    {
      "inputs": [
        {
          "internalType": "uint256",
          "name": "sourceChainID",
          "type": "uint256"
        },
        {
          "internalType": "bytes32",
          "name": "root",
          "type": "bytes32"
        },
        {
          "internalType": "uint256",
          "name": "leafIndex",
          "type": "uint256"
        }
      ],
      "name": "updateEdge",
      "outputs": [],
      "stateMutability": "payable",
      "type": "function"
    },
    {
      "inputs": [],
      "name": "verifier",
      "outputs": [
        {
          "internalType": "contract IVerifier",
          "name": "",
          "type": "address"
        }
      ],
      "stateMutability": "view",
      "type": "function"
    },
    {
      "inputs": [
        {
          "internalType": "bytes",
          "name": "_proof",
          "type": "bytes"
        },
        {
          "components": [
            {
              "internalType": "bytes",
              "name": "_roots",
              "type": "bytes"
            },
            {
              "internalType": "bytes32",
              "name": "_nullifierHash",
              "type": "bytes32"
            },
            {
              "internalType": "bytes32",
              "name": "_refreshCommitment",
              "type": "bytes32"
            },
            {
              "internalType": "address payable",
              "name": "_recipient",
              "type": "address"
            },
            {
              "internalType": "address payable",
              "name": "_relayer",
              "type": "address"
            },
            {
              "internalType": "uint256",
              "name": "_fee",
              "type": "uint256"
            },
            {
              "internalType": "uint256",
              "name": "_refund",
              "type": "uint256"
            }
          ],
          "internalType": "struct AnchorBase.PublicInputs",
          "name": "_publicInputs",
          "type": "tuple"
        }
      ],
      "name": "withdraw",
      "outputs": [],
      "stateMutability": "payable",
      "type": "function"
    },
    {
      "inputs": [
        {
          "internalType": "bytes",
          "name": "_proof",
          "type": "bytes"
        },
        {
          "components": [
            {
              "internalType": "bytes",
              "name": "_roots",
              "type": "bytes"
            },
            {
              "internalType": "bytes32",
              "name": "_nullifierHash",
              "type": "bytes32"
            },
            {
              "internalType": "bytes32",
              "name": "_refreshCommitment",
              "type": "bytes32"
            },
            {
              "internalType": "address payable",
              "name": "_recipient",
              "type": "address"
            },
            {
              "internalType": "address payable",
              "name": "_relayer",
              "type": "address"
            },
            {
              "internalType": "uint256",
              "name": "_fee",
              "type": "uint256"
            },
            {
              "internalType": "uint256",
              "name": "_refund",
              "type": "uint256"
            }
          ],
          "internalType": "struct AnchorBase.PublicInputs",
          "name": "_publicInputs",
          "type": "tuple"
        },
        {
          "internalType": "address",
          "name": "tokenAddress",
          "type": "address"
        }
      ],
      "name": "withdrawAndUnwrap",
      "outputs": [],
      "stateMutability": "payable",
      "type": "function"
    },
    {
      "inputs": [
        {
          "internalType": "address",
          "name": "tokenAddress",
          "type": "address"
        },
        {
          "internalType": "bytes32",
          "name": "_commitment",
          "type": "bytes32"
        }
      ],
      "name": "wrapAndDeposit",
      "outputs": [],
      "stateMutability": "payable",
      "type": "function"
    },
    {
      "inputs": [],
      "name": "wrapNative",
      "outputs": [],
      "stateMutability": "payable",
      "type": "function"
    },
    {
      "inputs": [
        {
          "internalType": "address",
          "name": "tokenAddress",
          "type": "address"
        },
        {
          "internalType": "uint256",
          "name": "amount",
          "type": "uint256"
        }
      ],
      "name": "wrapToken",
      "outputs": [],
      "stateMutability": "nonpayable",
      "type": "function"
    },
    {
      "inputs": [
        {
          "internalType": "uint256",
          "name": "i",
          "type": "uint256"
        }
      ],
      "name": "zeros",
      "outputs": [
        {
          "internalType": "bytes32",
          "name": "",
          "type": "bytes32"
        }
      ],
      "stateMutability": "pure",
      "type": "function"
    }
  ],
  "bytecode": "0x610140604052600280546001600160401b03191690553480156200002257600080fd5b50604051620057e6380380620057e68339810160408190526200004591620008c0565b888888888787878787878787848184818160008263ffffffff1611620000885760405162461bcd60e51b81526004016200007f9062000a05565b60405180910390fd5b60208263ffffffff1610620000b15760405162461bcd60e51b81526004016200007f90620009ce565b60e09190911b6001600160e01b03191660a05260601b6001600160601b03191660805260005b8263ffffffff168163ffffffff1610156200012857620000fd63ffffffff821662000245565b63ffffffff8216600090815260208190526040902055806200011f8162000aa7565b915050620000d7565b50620001466200013a60018462000a7f565b63ffffffff1662000245565b60008052600160208190527fa6eef7e35abe7026729641147f7915573c7e97b47efa546f5f6e3230263bcb49919091556003555050826200019b5760405162461bcd60e51b81526004016200007f9062000989565b606094851b6001600160601b031990811660c05260e0939093526000600e5560f81b7fff00000000000000000000000000000000000000000000000000000000000000166101005250600480546001600160a01b03199081166001600160a01b03998a16179091556005805482169789169790971790965560068054909616949096169390931790935550509990991b909816610120525062000afd9a5050505050505050505050565b6000816200027557507f2fe54c60d3acabf3343a35b6eba15db4821b340f76e741e2249685ed4899af6c6200089c565b8160011415620002a757507f13e37f2d6cb86c78ccc1788607c2b199788c6bb0a615a21f2e7a8e88384222f86200089c565b8160021415620002d957507f217126fa352c326896e8c2803eec8fd63ad50cf65edfef27a41a9e32dc6227656200089c565b81600314156200030b57507f0e28a61a9b3e91007d5a9e3ada18e1b24d6d230c618388ee5df34cacd7397eee6200089c565b81600414156200033d57507f27953447a6979839536badc5425ed15fadb0e292e9bc36f92f0aa5cfa50135876200089c565b81600514156200036f57507f194191edbfb91d10f6a7afd315f33095410c7801c47175c2df6dc2cce0e3affc6200089c565b8160061415620003a157507f1733dece17d71190516dbaf1927936fa643dc7079fc0cc731de9d6845a47741f6200089c565b8160071415620003d357507f267855a7dc75db39d81d17f95d0a7aa572bf5ae19f4db0e84221d2b2ef9992196200089c565b81600814156200040557507f1184e11836b4c36ad8238a340ecc0985eeba665327e33e9b0e3641027c27620d6200089c565b81600914156200043757507f0702ab83a135d7f55350ab1bfaa90babd8fc1d2b3e6a7215381a7b2213d6c5ce6200089c565b81600a14156200046957507f2eecc0de814cfd8c57ce882babb2e30d1da56621aef7a47f3291cffeaec26ad76200089c565b81600b14156200049b57507f280bc02145c155d5833585b6c7b08501055157dd30ce005319621dc462d33b476200089c565b81600c1415620004cd57507f045132221d1fa0a7f4aed8acd2cbec1e2189b7732ccb2ec272b9c60f0d5afc5b6200089c565b81600d1415620004ff57507f27f427ccbf58a44b1270abbe4eda6ba53bd6ac4d88cf1e00a13c4371ce71d3666200089c565b81600e14156200053157507f1617eaae5064f26e8f8a6493ae92bfded7fde71b65df1ca6d5dcec0df70b2cef6200089c565b81600f14156200056357507f20c6b400d0ea1b15435703c31c31ee63ad7ba5c8da66cec2796feacea575abca6200089c565b81601014156200059557507f09589ddb438723f53a8e57bdada7c5f8ed67e8fece3889a73618732965645eec6200089c565b8160111415620005c657507e64b6a738a5ff537db7b220f3394f0ecbd35bfd355c5425dc1166bf3236079b6200089c565b8160121415620005f857507f095de56281b1d5055e897c3574ff790d5ee81dbc5df784ad2d67795e557c9e9f6200089c565b81601314156200062a57507f11cf2e2887aa21963a6ec14289183efe4d4c60f14ecd3d6fe0beebdf855a9b636200089c565b81601414156200065c57507f2b0f6fc0179fa65b6f73627c0e1e84c7374d2eaec44c9a48f2571393ea77bcbb6200089c565b81601514156200068e57507f16fdb637c2abf9c0f988dbf2fd64258c46fb6a273d537b2cf1603ea460b132796200089c565b8160161415620006c057507f21bbd7e944f6124dad4c376df9cc12e7ca66e47dff703ff7cedb1a454edcf0ff6200089c565b8160171415620006f257507f2784f8220b1c963e468f590f137baaa1625b3b92a27ad9b6e84eb0d3454d99626200089c565b81601814156200072457507f16ace1a65b7534142f8cc1aad810b3d6a7a74ca905d9c275cb98ba57e509fc106200089c565b81601914156200075657507f2328068c6a8c24265124debd8fe10d3f29f0665ea725a65e3638f6192a96a0136200089c565b81601a14156200078857507f2ddb991be1f028022411b4c4d2c22043e5e751c120736f00adf54acab1c9ac146200089c565b81601b1415620007ba57507f0113798410eaeb95056a464f70521eb58377c0155f2fe518a5594d38cc209cc06200089c565b81601c1415620007ec57507f202d1ae61526f0d0d01ef80fb5d4055a7af45721024c2c24cffd6a3798f54d506200089c565b81601d14156200081e57507f23ab323453748129f2765f79615022f5bebd6f4096a796300aab049a60b0f1876200089c565b81601e14156200085057507f1f15585f8947e378bcf8bd918716799da909acdb944c57150b1eb4565fda8aa06200089c565b81601f14156200088257507f1eb064b21055ac6a350cf41eb30e4ce2cb19680217df3a243617c2838185ad066200089c565b60405162461bcd60e51b81526004016200007f9062000a48565b919050565b80516200089c8162000ae4565b805160ff811681146200089c57600080fd5b60008060008060008060008060006101208a8c031215620008df578485fd5b8951620008ec8162000ae4565b60208b0151909950620008ff8162000ae4565b60408b015160608c0151919950975063ffffffff8116811462000920578586fd5b60808b0151909650620009338162000ae4565b60a08b0151909550620009468162000ae4565b60c08b0151909450620009598162000ae4565b92506200096960e08b01620008a1565b91506200097a6101008b01620008ae565b90509295985092959850929598565b60208082526025908201527f64656e6f6d696e6174696f6e2073686f756c6420626520677265617465722074604082015264068616e20360dc1b606082015260800190565b6020808252601e908201527f5f6c6576656c732073686f756c64206265206c657373207468616e2033320000604082015260600190565b60208082526023908201527f5f6c6576656c732073686f756c642062652067726561746572207468616e207a60408201526265726f60e81b606082015260800190565b60208082526013908201527f496e646578206f7574206f6620626f756e647300000000000000000000000000604082015260600190565b600063ffffffff8381169083168181101562000a9f5762000a9f62000ace565b039392505050565b600063ffffffff8083168181141562000ac45762000ac462000ace565b6001019392505050565b634e487b7160e01b600052601160045260246000fd5b6001600160a01b038116811462000afa57600080fd5b50565b60805160601c60a05160e01c60c05160601c60e0516101005160f81c6101205160601c614b9562000c5160003960008181610e1c01528181610ec6015281816110ae015281816115f601528181611bee0152818161242f015281816126830152818161310f015281816131f50152818161322f01528181613265015261332401526000818161083e015281816108b601528181610a4e01528181610f6b0152818161119c01528181612747015281816127c5015281816128ec01528181612a3901528181612bc401528181612d8e015261301e0152600081816111d5015281816116290152818161171c01528181611a7201528181611c1f015281816126b401528181613198015281816131c701526132910152600081816109ca0152612feb01526000818161095b01528181610e8d0152818161248201526124db01526000818161234c01526125740152614b956000f3fe60806040526004361061027d5760003560e01c80639ff800631161014f578063e5285dcc116100c1578063f178e47c1161007a578063f178e47c146106e2578063f5ab0dd614610702578063f851a44014610731578063fa73168714610746578063fc0c546a14610766578063fc7e9c6f1461077b5761027d565b8063e5285dcc14610643578063e70ea87c14610663578063e78cea9214610683578063e829558814610698578063ec732959146106b8578063ed33639f146106cd5761027d565b8063c80916d411610113578063c80916d4146105b1578063cd3a9550146105c6578063cd87a3b4146105d9578063d0e8d34a146105ee578063dbc916b814610601578063df203aa7146106305761027d565b80639ff80063146103c8578063b214faa514610549578063ba70f7571461055c578063bac426d014610571578063c2b40ae4146105915761027d565b80635d2d766c116101f35780638bca6d16116101ac5780638bca6d16146104925780638dd14802146104a75780638ea3099e146104c757806390eeb02b146104e757806392156311146104fc5780639fa12d0b1461051c5761027d565b80635d2d766c146103e8578063616e0957146104085780636ad481f3146104285780636d9833e31461043057806371523c3214610450578063839df945146104725761027d565b8063414a37ba11610245578063414a37ba1461033157806343e7119f1461035357806344347ba914610373578063460b53e3146103865780634ecf518b146103a65780634f401241146103c85761027d565b806311e4dcb91461028257806317cc915c146102b85780631e627617146102d85780632b7ac3f3146102fa5780633b9e44de1461031c575b600080fd5b34801561028e57600080fd5b506102a261029d366004613e07565b610790565b6040516102af91906141da565b60405180910390f35b3480156102c457600080fd5b506102a26102d3366004613c48565b610825565b3480156102e457600080fd5b506102ed61083a565b6040516102af9190614118565b34801561030657600080fd5b5061030f6109c8565b6040516102af9190614035565b61032f61032a366004613e28565b6109ec565b005b34801561033d57600080fd5b50610346610bb6565b6040516102af91906141e5565b34801561035f57600080fd5b5061034661036e366004613e53565b610bda565b61032f610381366004613e28565b610bf7565b34801561039257600080fd5b5061032f6103a136600461388b565b610e05565b3480156103b257600080fd5b506103bb610e8b565b6040516102af91906147fe565b3480156103d457600080fd5b5061032f6103e336600461388b565b610eaf565b3480156103f457600080fd5b506103bb610403366004613c48565b610eff565b34801561041457600080fd5b506102a2610423366004613a85565b610f17565b61032f611097565b34801561043c57600080fd5b506102a261044b366004613c48565b61111e565b34801561045c57600080fd5b5061046561119a565b6040516102af9190614825565b34801561047e57600080fd5b506102a261048d366004613c48565b6111be565b34801561049e57600080fd5b506103466111d3565b3480156104b357600080fd5b5061032f6104c2366004613844565b6111f7565b3480156104d357600080fd5b506103466104e2366004613dbb565b611243565b3480156104f357600080fd5b506103bb611360565b34801561050857600080fd5b506102a2610517366004613c48565b61136c565b34801561052857600080fd5b5061053c610537366004613a17565b611381565b6040516102af91906140d2565b61032f610557366004613c48565b611460565b34801561056857600080fd5b50610346611528565b34801561057d57600080fd5b5061032f61058c366004613844565b611543565b34801561059d57600080fd5b506103466105ac366004613c48565b61158f565b3480156105bd57600080fd5b5061030f6115a1565b61032f6105d4366004613860565b6115b0565b3480156105e557600080fd5b506103bb6116ed565b61032f6105fc366004613c60565b6116f2565b34801561060d57600080fd5b5061062161061c366004613c48565b611a10565b6040516102af939291906147e8565b61032f61063e366004613ccb565b611a43565b34801561064f57600080fd5b506102a261065e366004613c48565b611cdb565b34801561066f57600080fd5b5061034661067e366004613c48565b611cf0565b34801561068f57600080fd5b5061030f611d02565b3480156106a457600080fd5b506103466106b3366004613c48565b611d11565b3480156106c457600080fd5b50610346612326565b3480156106d957600080fd5b5061030f61234a565b3480156106ee57600080fd5b506103466106fd366004613c48565b61236e565b34801561070e57600080fd5b5061072261071d366004613b2b565b612380565b6040516102af9392919061415e565b34801561073d57600080fd5b5061030f612409565b34801561075257600080fd5b506102a2610761366004613c48565b612418565b34801561077257600080fd5b5061030f61242d565b34801561078757600080fd5b506103bb612451565b60008161079f5750600061081f565b6000838152600b602052604090205463ffffffff16805b6000858152600a6020908152604080832063ffffffff851684529091529020548414156107e85760019250505061081f565b63ffffffff81166107f75750601e5b8061080181614a86565b9150508163ffffffff168163ffffffff1614156107b6576000925050505b92915050565b600c6020526000908152604090205460ff1681565b60607f000000000000000000000000000000000000000000000000000000000000000060ff166001600160401b0381111561088557634e487b7160e01b600052604160045260246000fd5b6040519080825280602002602001820160405280156108ae578160200160208202803683370190505b50905060005b7f000000000000000000000000000000000000000000000000000000000000000060ff168110156109c4576108ea8160016148a0565b60095410610956576009818154811061091357634e487b7160e01b600052603260045260246000fd5b90600052602060002090600302016001015482828151811061094557634e487b7160e01b600052603260045260246000fd5b6020026020010181815250506109b2565b6109857f000000000000000000000000000000000000000000000000000000000000000063ffffffff16611d11565b8282815181106109a557634e487b7160e01b600052603260045260246000fd5b6020026020010181815250505b806109bc81614aa6565b9150506108b4565b5090565b7f000000000000000000000000000000000000000000000000000000000000000081565b6006546001600160a01b03163314610a1f5760405162461bcd60e51b8152600401610a16906147b1565b60405180910390fd5b60026003541415610a425760405162461bcd60e51b8152600401610a169061477a565b600260035560095460ff7f00000000000000000000000000000000000000000000000000000000000000001611610a8b5760405162461bcd60e51b8152600401610a1690614215565b6000838152600860209081526040808320805460ff1916600190811790915560098054835160608101855289815280860189815281860189815294830184559287528051600383027f6e1540171b6c0c960b71a7020d9f60077f6af931a8bbf590da0223dacf75c7af81019190915592517f6e1540171b6c0c960b71a7020d9f60077f6af931a8bbf590da0223dacf75c7b084015592517f6e1540171b6c0c960b71a7020d9f60077f6af931a8bbf590da0223dacf75c7b19092019190915587855260078452828520819055600a84528285208580529093528184208690559051919290917fcf4749969bace1552af6a97fe7e4affedf68875511f9746c6332eb40647b305490610ba1908890879089906147e8565b60405180910390a15050600160035550505050565b7f30644e72e131a029b85045b68181585d2833e84879b9709143e1f593f000000181565b600a60209081526000928352604080842090915290825290205481565b6006546001600160a01b03163314610c215760405162461bcd60e51b8152600401610a16906147b1565b60026003541415610c445760405162461bcd60e51b8152600401610a169061477a565b600260035560008381526008602052604090205460ff16610c775760405162461bcd60e51b8152600401610a169061424c565b600083815260076020526040902054600980548392908110610ca957634e487b7160e01b600052603260045260246000fd5b90600052602060002090600302016002015410610cd85760405162461bcd60e51b8152600401610a1690614440565b6000838152600760209081526040918290205482516060810184528681529182018590529181018390526009805483908110610d2457634e487b7160e01b600052603260045260246000fd5b60009182526020808320845160039093020191825583810151600180840191909155604094850151600290930192909255878352600b9052918120549091601e91610d779163ffffffff909116906148b8565b610d819190614ae5565b6000868152600b60209081526040808320805463ffffffff191663ffffffff8616908117909155600a835281842090845290915290819020869055519091507f675e61f04bcf314a9c310a93f2346f417a03d704c1caf9c6af8a65ad8addfa3f90610df1908790869088906147e8565b60405180910390a150506001600355505050565b604051630594d27160e31b81526001600160a01b037f00000000000000000000000000000000000000000000000000000000000000001690632ca6938890610e5590339086908690600401614083565b600060405180830381600087803b158015610e6f57600080fd5b505af1158015610e83573d6000803e3d6000fd5b505050505050565b7f000000000000000000000000000000000000000000000000000000000000000081565b60405163130e405b60e11b81526001600160a01b037f0000000000000000000000000000000000000000000000000000000000000000169063261c80b690610e5590339086908690600401614083565b600b6020526000908152604090205463ffffffff1681565b6000610f4a82600081518110610f3d57634e487b7160e01b600052603260045260246000fd5b602002602001015161111e565b610f665760405162461bcd60e51b8152600401610a16906142a9565b610f917f000000000000000000000000000000000000000000000000000000000000000060016148e0565b60ff16825114610fb35760405162461bcd60e51b8152600401610a1690614546565b60005b60095481101561108c57600060098281548110610fe357634e487b7160e01b600052603260045260246000fd5b90600052602060002090600302016040518060600160405290816000820154815260200160018201548152602001600282015481525050905061105d81600001518584600161103291906148a0565b8151811061105057634e487b7160e01b600052603260045260246000fd5b6020026020010151610790565b6110795760405162461bcd60e51b8152600401610a169061457d565b508061108481614aa6565b915050610fb6565b50600190505b919050565b604051630594d27160e31b81526001600160a01b037f00000000000000000000000000000000000000000000000000000000000000001690632ca693889034906110ea9033906000908190600401614083565b6000604051808303818588803b15801561110357600080fd5b505af1158015611117573d6000803e3d6000fd5b5050505050565b60008161112d57506000611092565b60025463ffffffff16805b63ffffffff811660009081526001602052604090205484141561116057600192505050611092565b63ffffffff811661116f5750601e5b8061117981614a86565b9150508163ffffffff168163ffffffff161415611138575060009392505050565b7f000000000000000000000000000000000000000000000000000000000000000081565b600d6020526000908152604090205460ff1681565b7f000000000000000000000000000000000000000000000000000000000000000081565b6005546001600160a01b031633146112215760405162461bcd60e51b8152600401610a16906144e8565b600480546001600160a01b0319166001600160a01b0392909216919091179055565b60007f30644e72e131a029b85045b68181585d2833e84879b9709143e1f593f000000183106112845760405162461bcd60e51b8152600401610a169061439e565b7f30644e72e131a029b85045b68181585d2833e84879b9709143e1f593f000000182106112c35760405162461bcd60e51b8152600401610a1690614477565b6040805180820182528481526020810184905290516314d2f97b60e11b8152849184916001600160a01b038816916329a5f2f6916113049190600401614150565b60206040518083038186803b15801561131c57600080fd5b505afa158015611330573d6000803e3d6000fd5b505050506040513d601f19601f820116820180604052508101906113549190613def565b925050505b9392505050565b60025463ffffffff1681565b60009081526008602052604090205460ff1690565b6060816001600160401b038111156113a957634e487b7160e01b600052604160045260246000fd5b6040519080825280602002602001820160405280156113d2578160200160208202803683370190505b50905060005b828110156114595761140f84848381811061140357634e487b7160e01b600052603260045260246000fd5b90506020020135611cdb565b1561144757600182828151811061143657634e487b7160e01b600052603260045260246000fd5b911515602092830291909101909101525b8061145181614aa6565b9150506113d8565b5092915050565b600260035414156114835760405162461bcd60e51b8152600401610a169061477a565b60026003556000818152600d602052604090205460ff16156114b75760405162461bcd60e51b8152600401610a16906145eb565b60006114c282612465565b6000838152600d60205260409020805460ff1916600117905590506114e561264e565b817fa945e51eec50ab98c161376f0db4cf2aeba3ec92755fe2fcd388bdbbb80ff196824260405161151792919061480f565b60405180910390a250506001600355565b60025463ffffffff1660009081526001602052604090205490565b6004546001600160a01b0316331461156d5760405162461bcd60e51b8152600401610a1690614367565b600680546001600160a01b0319166001600160a01b0392909216919091179055565b60016020526000908152604090205481565b6006546001600160a01b031681565b6000818152600d602052604090205460ff16156115df5760405162461bcd60e51b8152600401610a16906145eb565b604051633d97186b60e11b81526001600160a01b037f00000000000000000000000000000000000000000000000000000000000000001690637b2e30d690349061165390339087907f00000000000000000000000000000000000000000000000000000000000000009030906004016140a7565b6000604051808303818588803b15801561166c57600080fd5b505af1158015611680573d6000803e3d6000fd5b5050505050600061169082612465565b6000838152600d602052604090819020805460ff191660011790555190915082907fa945e51eec50ab98c161376f0db4cf2aeba3ec92755fe2fcd388bdbbb80ff196906116e0908490429061480f565b60405180910390a2505050565b601e81565b600260035414156117155760405162461bcd60e51b8152600401610a169061477a565b60026003557f000000000000000000000000000000000000000000000000000000000000000060a0820135111561175e5760405162461bcd60e51b8152600401610a16906142e0565b6020808201356000908152600c909152604090205460ff16156117935760405162461bcd60e51b8152600401610a16906145b4565b6000806118106117a38480614833565b8080601f016020809104026020016040519081016040528093929190818152602001838380828437600092019190915250505050602085013560408601356117f16080880160608901613844565b61180160a0890160808a01613844565b8860a001358960c00135612731565b9150915061181d81610f17565b6118395760405162461bcd60e51b8152600401610a169061451f565b61187a85858080601f016020809104026020016040519081016040528093929190818152602001838380828437600092019190915250869250612fbc915050565b6118965760405162461bcd60e51b8152600401610a16906144b8565b6020808401356000908152600c909152604090819020805460ff19166001179055830135611960576118f06118d16080850160608601613844565b6118e160a0860160808701613844565b8560a001358660c001356130d6565b61190060a0840160808501613844565b6001600160a01b03167fe9e508bad6d4c3227e881ca19068f099da81b5164dd6d62b2eaf1e8bc6c3493161193a6080860160608701613844565b85602001358660a0013560405161195393929190614049565b60405180910390a2611a04565b6040808401356000908152600d602052205460ff16156119925760405162461bcd60e51b8152600401610a16906145eb565b60006119a18460400135612465565b6040808601356000818152600d602090815290839020805460ff191660011790559151929350917f138604f043594af1377bf30140984eef19cad0fb0c801cbb9b879005eddc06f0916119fa91908801359085906141ee565b60405180910390a2505b50506001600355505050565b60098181548110611a2057600080fd5b600091825260209091206003909102018054600182015460029092015490925083565b60026003541415611a665760405162461bcd60e51b8152600401610a169061477a565b600260035560a08201517f00000000000000000000000000000000000000000000000000000000000000001015611aaf5760405162461bcd60e51b8152600401610a16906142e0565b6020808301516000908152600c909152604090205460ff1615611ae45760405162461bcd60e51b8152600401610a16906145b4565b600080611b12846000015185602001518660400151876060015188608001518960a001518a60c00151612731565b91509150611b1f81610f17565b611b3b5760405162461bcd60e51b8152600401610a169061451f565b611b7c86868080601f016020809104026020016040519081016040528093929190818152602001838380828437600092019190915250869250612fbc915050565b611b985760405162461bcd60e51b8152600401610a16906144b8565b6020808501516000908152600c90915260409020805460ff191660011790556060840151608085015160a086015160c0870151611bd7939291906130d6565b60405163130e405b60e11b81526001600160a01b037f0000000000000000000000000000000000000000000000000000000000000000169063261c80b690611c4790339087907f000000000000000000000000000000000000000000000000000000000000000090600401614083565b600060405180830381600087803b158015611c6157600080fd5b505af1158015611c75573d6000803e3d6000fd5b5050505083608001516001600160a01b03167fe9e508bad6d4c3227e881ca19068f099da81b5164dd6d62b2eaf1e8bc6c34931856060015186602001518760a00151604051611cc693929190614049565b60405180910390a25050600160035550505050565b6000908152600c602052604090205460ff1690565b60076020526000908152604090205481565b6004546001600160a01b031681565b600081611d3f57507f2fe54c60d3acabf3343a35b6eba15db4821b340f76e741e2249685ed4899af6c611092565b8160011415611d6f57507f13e37f2d6cb86c78ccc1788607c2b199788c6bb0a615a21f2e7a8e88384222f8611092565b8160021415611d9f57507f217126fa352c326896e8c2803eec8fd63ad50cf65edfef27a41a9e32dc622765611092565b8160031415611dcf57507f0e28a61a9b3e91007d5a9e3ada18e1b24d6d230c618388ee5df34cacd7397eee611092565b8160041415611dff57507f27953447a6979839536badc5425ed15fadb0e292e9bc36f92f0aa5cfa5013587611092565b8160051415611e2f57507f194191edbfb91d10f6a7afd315f33095410c7801c47175c2df6dc2cce0e3affc611092565b8160061415611e5f57507f1733dece17d71190516dbaf1927936fa643dc7079fc0cc731de9d6845a47741f611092565b8160071415611e8f57507f267855a7dc75db39d81d17f95d0a7aa572bf5ae19f4db0e84221d2b2ef999219611092565b8160081415611ebf57507f1184e11836b4c36ad8238a340ecc0985eeba665327e33e9b0e3641027c27620d611092565b8160091415611eef57507f0702ab83a135d7f55350ab1bfaa90babd8fc1d2b3e6a7215381a7b2213d6c5ce611092565b81600a1415611f1f57507f2eecc0de814cfd8c57ce882babb2e30d1da56621aef7a47f3291cffeaec26ad7611092565b81600b1415611f4f57507f280bc02145c155d5833585b6c7b08501055157dd30ce005319621dc462d33b47611092565b81600c1415611f7f57507f045132221d1fa0a7f4aed8acd2cbec1e2189b7732ccb2ec272b9c60f0d5afc5b611092565b81600d1415611faf57507f27f427ccbf58a44b1270abbe4eda6ba53bd6ac4d88cf1e00a13c4371ce71d366611092565b81600e1415611fdf57507f1617eaae5064f26e8f8a6493ae92bfded7fde71b65df1ca6d5dcec0df70b2cef611092565b81600f141561200f57507f20c6b400d0ea1b15435703c31c31ee63ad7ba5c8da66cec2796feacea575abca611092565b816010141561203f57507f09589ddb438723f53a8e57bdada7c5f8ed67e8fece3889a73618732965645eec611092565b816011141561206e57507e64b6a738a5ff537db7b220f3394f0ecbd35bfd355c5425dc1166bf3236079b611092565b816012141561209e57507f095de56281b1d5055e897c3574ff790d5ee81dbc5df784ad2d67795e557c9e9f611092565b81601314156120ce57507f11cf2e2887aa21963a6ec14289183efe4d4c60f14ecd3d6fe0beebdf855a9b63611092565b81601414156120fe57507f2b0f6fc0179fa65b6f73627c0e1e84c7374d2eaec44c9a48f2571393ea77bcbb611092565b816015141561212e57507f16fdb637c2abf9c0f988dbf2fd64258c46fb6a273d537b2cf1603ea460b13279611092565b816016141561215e57507f21bbd7e944f6124dad4c376df9cc12e7ca66e47dff703ff7cedb1a454edcf0ff611092565b816017141561218e57507f2784f8220b1c963e468f590f137baaa1625b3b92a27ad9b6e84eb0d3454d9962611092565b81601814156121be57507f16ace1a65b7534142f8cc1aad810b3d6a7a74ca905d9c275cb98ba57e509fc10611092565b81601914156121ee57507f2328068c6a8c24265124debd8fe10d3f29f0665ea725a65e3638f6192a96a013611092565b81601a141561221e57507f2ddb991be1f028022411b4c4d2c22043e5e751c120736f00adf54acab1c9ac14611092565b81601b141561224e57507f0113798410eaeb95056a464f70521eb58377c0155f2fe518a5594d38cc209cc0611092565b81601c141561227e57507f202d1ae61526f0d0d01ef80fb5d4055a7af45721024c2c24cffd6a3798f54d50611092565b81601d14156122ae57507f23ab323453748129f2765f79615022f5bebd6f4096a796300aab049a60b0f187611092565b81601e14156122de57507f1f15585f8947e378bcf8bd918716799da909acdb944c57150b1eb4565fda8aa0611092565b81601f141561230e57507f1eb064b21055ac6a350cf41eb30e4ce2cb19680217df3a243617c2838185ad06611092565b60405162461bcd60e51b8152600401610a16906146b3565b7f2fe54c60d3acabf3343a35b6eba15db4821b340f76e741e2249685ed4899af6c81565b7f000000000000000000000000000000000000000000000000000000000000000081565b60006020819052908152604090205481565b61238861363b565b612390613659565b61239861363b565b50506040805180820182528351815260208085015181830152825160808082018552868501518286019081526060808901519084015282528451808601865290870151815260a08701518184015281830152835180850190945260c0860151845260e0909501519083015293909150565b6005546001600160a01b031681565b60086020526000908152604090205460ff1681565b7f000000000000000000000000000000000000000000000000000000000000000081565b600254640100000000900463ffffffff1681565b6002805460009164010000000090910463ffffffff16906124a7907f00000000000000000000000000000000000000000000000000000000000000009061496e565b63ffffffff168163ffffffff1614156124d25760405162461bcd60e51b8152600401610a169061472a565b8083600080805b7f000000000000000000000000000000000000000000000000000000000000000063ffffffff168163ffffffff1610156125bb57612518600286614ae5565b63ffffffff16612553578392506125348163ffffffff16611d11565b63ffffffff82166000908152602081905260409020859055915061256f565b63ffffffff811660009081526020819052604090205492508391505b61259a7f00000000000000000000000000000000000000000000000000000000000000008484611243565b93506125a7600286614905565b9450806125b381614ac1565b9150506124d9565b50600254600090601e906125d69063ffffffff1660016148b8565b6125e09190614ae5565b6002805463ffffffff191663ffffffff8316908117909155600090815260016020819052604090912086905590915061261a9087906148b8565b6002805463ffffffff929092166401000000000267ffffffff00000000199092169190911790555093945050505050919050565b341561266c5760405162461bcd60e51b8152600401610a169061462c565b6040516323b872dd60e01b81526001600160a01b037f000000000000000000000000000000000000000000000000000000000000000016906323b872dd906126dc90339030907f000000000000000000000000000000000000000000000000000000000000000090600401614083565b602060405180830381600087803b1580156126f657600080fd5b505af115801561270a573d6000803e3d6000fd5b505050506040513d601f19601f8201168201806040525081019061272e9190613c28565b50565b606080600061273e613437565b9050600061276d7f000000000000000000000000000000000000000000000000000000000000000060016148e0565b60ff166001600160401b0381111561279557634e487b7160e01b600052604160045260246000fd5b6040519080825280602002602001820160405280156127be578160200160208202803683370190505b50905060607f000000000000000000000000000000000000000000000000000000000000000060ff16600114156128ea576127f7613686565b60008d80602001905181019061280d919061389d565b905080600060200201518460008151811061283857634e487b7160e01b600052603260045260246000fd5b602090810291909101015280600160200201518460018151811061286c57634e487b7160e01b600052603260045260246000fd5b6020908102919091018101919091528d83526001600160a01b038c8116848301528b16604080850191909152606084018b9052608084018a905260a08401879052825160c08501528282015160e085015261010084018e9052516128d291849101613fe1565b60405160208183030381529060405292505050612fac565b7f000000000000000000000000000000000000000000000000000000000000000060ff1660021415612a375761291e6136a5565b60008d8060200190518101906129349190613920565b905080600060200201518460008151811061295f57634e487b7160e01b600052603260045260246000fd5b602090810291909101015280600160200201518460018151811061299357634e487b7160e01b600052603260045260246000fd5b60209081029190910101528060026020020151846002815181106129c757634e487b7160e01b600052603260045260246000fd5b6020908102919091018101919091528d83526001600160a01b038c8116848301528b16604080850191909152606084018b9052608084018a905260a08401879052825160c08501528282015160e08501528281015161010085015261012084018e9052516128d291849101613f0d565b7f000000000000000000000000000000000000000000000000000000000000000060ff1660031415612bc257612a6b6136c4565b60008d806020019051810190612a819190613996565b9050806000602002015184600081518110612aac57634e487b7160e01b600052603260045260246000fd5b6020908102919091010152806001602002015184600181518110612ae057634e487b7160e01b600052603260045260246000fd5b6020908102919091010152806002602002015184600281518110612b1457634e487b7160e01b600052603260045260246000fd5b6020908102919091010152806003602002015184600381518110612b4857634e487b7160e01b600052603260045260246000fd5b6020908102919091018101919091528d83526001600160a01b038c8116848301528b1660408085019190915260608085018c9052608085018b905260a08501889052835160c08601528383015160e08601528382015161010086015283015161012085015261014084018e9052516128d291849101613f42565b7f000000000000000000000000000000000000000000000000000000000000000060ff1660041415612d8c57612bf66136e3565b60008d806020019051810190612c0c91906139c1565b9050806000602002015184600081518110612c3757634e487b7160e01b600052603260045260246000fd5b6020908102919091010152806001602002015184600181518110612c6b57634e487b7160e01b600052603260045260246000fd5b6020908102919091010152806002602002015184600281518110612c9f57634e487b7160e01b600052603260045260246000fd5b6020908102919091010152806003602002015184600381518110612cd357634e487b7160e01b600052603260045260246000fd5b6020908102919091010152806004602002015184600481518110612d0757634e487b7160e01b600052603260045260246000fd5b6020908102919091018101919091528d83526001600160a01b038c8116848301528b1660408085019190915260608085018c905260808086018c905260a08601899052845160c08701528484015160e0870152848301516101008701529084015161012086015283015161014085015261016084018e9052516128d291849101613f77565b7f000000000000000000000000000000000000000000000000000000000000000060ff1660051415612f9457612dc0613702565b60008d806020019051810190612dd691906139ec565b9050806000602002015184600081518110612e0157634e487b7160e01b600052603260045260246000fd5b6020908102919091010152806001602002015184600181518110612e3557634e487b7160e01b600052603260045260246000fd5b6020908102919091010152806002602002015184600281518110612e6957634e487b7160e01b600052603260045260246000fd5b6020908102919091010152806003602002015184600381518110612e9d57634e487b7160e01b600052603260045260246000fd5b6020908102919091010152806004602002015184600481518110612ed157634e487b7160e01b600052603260045260246000fd5b6020908102919091010152806005602002015184600581518110612f0557634e487b7160e01b600052603260045260246000fd5b6020908102919091018101919091528d83526001600160a01b038c8116848301528b1660408085019190915260608085018c905260808086018c905260a08087018a9052855160c08801528585015160e0880152858401516101008801529185015161012087015284015161014086015283015161016085015261018084018e9052516128d291849101613fac565b60405162461bcd60e51b8152600401610a1690614419565b9b909a5098505050505050505050565b60008083806020019051810190612fd39190613baf565b90506000806000612fe384612380565b9250925092507f00000000000000000000000000000000000000000000000000000000000000006001600160a01b031663b4b764f28484848a7f00000000000000000000000000000000000000000000000000000000000000006040518663ffffffff1660e01b815260040161305d959493929190614187565b60206040518083038186803b15801561307557600080fd5b505afa158015613089573d6000803e3d6000fd5b505050506040513d601f19601f820116820180604052508101906130ad9190613c28565b9450846130cc5760405162461bcd60e51b8152600401610a16906144b8565b5050505092915050565b8034146130f55760405162461bcd60e51b8152600401610a1690614317565b6040516370a0823160e01b81526000906001600160a01b037f000000000000000000000000000000000000000000000000000000000000000016906370a0823190613144903090600401614035565b60206040518083038186803b15801561315c57600080fd5b505afa158015613170573d6000803e3d6000fd5b505050506040513d601f19601f820116820180604052508101906131949190613def565b90507f0000000000000000000000000000000000000000000000000000000000000000811061325b5761321c856131eb857f0000000000000000000000000000000000000000000000000000000000000000614a43565b6001600160a01b037f000000000000000000000000000000000000000000000000000000000000000016919061343b565b8215613256576132566001600160a01b037f000000000000000000000000000000000000000000000000000000000000000016858561343b565b61338e565b6001600160a01b037f0000000000000000000000000000000000000000000000000000000000000000166340c10f19866132b5867f0000000000000000000000000000000000000000000000000000000000000000614a43565b6040518363ffffffff1660e01b81526004016132d292919061406a565b600060405180830381600087803b1580156132ec57600080fd5b505af1158015613300573d6000803e3d6000fd5b50505050600083111561338e576040516340c10f1960e01b81526001600160a01b037f000000000000000000000000000000000000000000000000000000000000000016906340c10f199061335b908790879060040161406a565b600060405180830381600087803b15801561337557600080fd5b505af1158015613389573d6000803e3d6000fd5b505050505b8115611117576000856001600160a01b0316836040516133ad90614032565b60006040518083038185875af1925050503d80600081146133ea576040519150601f19603f3d011682016040523d82523d6000602084013e6133ef565b606091505b5050905080610e83576040516001600160a01b0386169084156108fc029085906000818181858888f1935050505015801561342e573d6000803e3d6000fd5b50505050505050565b4690565b6134918363a9059cbb60e01b848460405160240161345a92919061406a565b60408051601f198184030181529190526020810180516001600160e01b03166001600160e01b031990931692909217909152613496565b505050565b60006134eb826040518060400160405280602081526020017f5361666545524332303a206c6f772d6c6576656c2063616c6c206661696c6564815250856001600160a01b03166135259092919063ffffffff16565b80519091501561349157808060200190518101906135099190613c28565b6134915760405162461bcd60e51b8152600401610a16906146e0565b6060613534848460008561353c565b949350505050565b60608247101561355e5760405162461bcd60e51b8152600401610a16906143d3565b613567856135fc565b6135835760405162461bcd60e51b8152600401610a169061467c565b600080866001600160a01b0316858760405161359f9190614016565b60006040518083038185875af1925050503d80600081146135dc576040519150601f19603f3d011682016040523d82523d6000602084013e6135e1565b606091505b50915091506135f1828286613602565b979650505050505050565b3b151590565b60608315613611575081611359565b8251156136215782518084602001fd5b8160405162461bcd60e51b8152600401610a169190614202565b60405180604001604052806002906020820280368337509192915050565b60405180604001604052806002905b61367061363b565b8152602001906001900390816136685790505090565b6040518061012001604052806009906020820280368337509192915050565b604051806101400160405280600a906020820280368337509192915050565b604051806101600160405280600b906020820280368337509192915050565b604051806101800160405280600c906020820280368337509192915050565b604051806101a00160405280600d906020820280368337509192915050565b60006001600160401b0383111561373a5761373a614b34565b602080840261374881614877565b9250828487838701111561375b57600080fd5b600092505b8683101561377e578051825260019290920191908301908301613760565b505050509392505050565b803561109281614b4a565b60008083601f8401126137a5578182fd5b5081356001600160401b038111156137bb578182fd5b6020830191508360208285010111156137d357600080fd5b9250929050565b600082601f8301126137ea578081fd5b81356001600160401b0381111561380357613803614b34565b613816601f8201601f1916602001614877565b81815284602083860101111561382a578283fd5b816020850160208301379081016020019190915292915050565b600060208284031215613855578081fd5b813561135981614b4a565b60008060408385031215613872578081fd5b823561387d81614b4a565b946020939093013593505050565b60008060408385031215613872578182fd5b6000604082840312156138ae578081fd5b82601f8301126138bc578081fd5b604051604081018181106001600160401b03821117156138de576138de614b34565b80604052508083856040860111156138f4578384fd5b835b60028110156139155781518352602092830192909101906001016138f6565b509195945050505050565b600060608284031215613931578081fd5b82601f83011261393f578081fd5b604051606081018181106001600160401b038211171561396157613961614b34565b604052808360608101861015613975578384fd5b835b6003811015613915578151835260209283019290910190600101613977565b6000608082840312156139a7578081fd5b82601f8301126139b5578081fd5b61135983600484613721565b600060a082840312156139d2578081fd5b82601f8301126139e0578081fd5b61135983600584613721565b600060c082840312156139fd578081fd5b82601f830112613a0b578081fd5b61135983600684613721565b60008060208385031215613a29578182fd5b82356001600160401b0380821115613a3f578384fd5b818501915085601f830112613a52578384fd5b813581811115613a60578485fd5b8660208083028501011115613a73578485fd5b60209290920196919550909350505050565b60006020808385031215613a97578182fd5b82356001600160401b0380821115613aad578384fd5b818501915085601f830112613ac0578384fd5b813581811115613ad257613ad2614b34565b8381029150613ae2848301614877565b8181528481019084860184860187018a1015613afc578788fd5b8795505b83861015613b1e578035835260019590950194918601918601613b00565b5098975050505050505050565b6000610100808385031215613b3e578182fd5b83601f840112613b4c578182fd5b6040518181018181106001600160401b0382111715613b6d57613b6d614b34565b6040528084838101871015613b80578485fd5b8493505b6008841015613ba457803582526001939093019260209182019101613b84565b509095945050505050565b6000610100808385031215613bc2578182fd5b83601f840112613bd0578182fd5b6040518181018181106001600160401b0382111715613bf157613bf1614b34565b6040528084838101871015613c04578485fd5b8493505b6008841015613ba457805182526001939093019260209182019101613c08565b600060208284031215613c39578081fd5b81518015158114611359578182fd5b600060208284031215613c59578081fd5b5035919050565b600080600060408486031215613c74578081fd5b83356001600160401b0380821115613c8a578283fd5b613c9687838801613794565b90955093506020860135915080821115613cae578283fd5b50840160e08187031215613cc0578182fd5b809150509250925092565b60008060008060608587031215613ce0578182fd5b84356001600160401b0380821115613cf6578384fd5b613d0288838901613794565b90965094506020870135915080821115613d1a578384fd5b9086019060e08289031215613d2d578384fd5b613d3760e0614877565b823582811115613d45578586fd5b613d518a8286016137da565b8252506020830135602082015260408301356040820152613d7460608401613789565b6060820152613d8560808401613789565b608082015260a083013560a082015260c083013560c0820152809450505050613db060408601613789565b905092959194509250565b600080600060608486031215613dcf578081fd5b8335613dda81614b4a565b95602085013595506040909401359392505050565b600060208284031215613e00578081fd5b5051919050565b60008060408385031215613e19578182fd5b50508035926020909101359150565b600080600060608486031215613e3c578081fd5b505081359360208301359350604090920135919050565b60008060408385031215613e65578182fd5b82359150602083013563ffffffff81168114613e7f578182fd5b809150509250929050565b8060005b6002811015613eb857613ea2848351613ebe565b6040939093019260209190910190600101613e8e565b50505050565b8060005b6002811015613eb8578151845260209384019390910190600101613ec2565b60008151808452613ef9816020860160208601614a5a565b601f01601f19169290920160200192915050565b60008183825b600a811015613f32578151835260209283019290910190600101613f13565b5050506101408201905092915050565b60008183825b600b811015613f67578151835260209283019290910190600101613f48565b5050506101608201905092915050565b60008183825b600c811015613f9c578151835260209283019290910190600101613f7d565b5050506101808201905092915050565b60008183825b600d811015613fd1578151835260209283019290910190600101613fb2565b5050506101a08201905092915050565b60008183825b6009811015614006578151835260209283019290910190600101613fe7565b5050506101208201905092915050565b60008251614028818460208701614a5a565b9190910192915050565b90565b6001600160a01b0391909116815260200190565b6001600160a01b039390931683526020830191909152604082015260600190565b6001600160a01b03929092168252602082015260400190565b6001600160a01b039384168152919092166020820152604081019190915260600190565b6001600160a01b03948516815292841660208401526040830191909152909116606082015260800190565b6020808252825182820181905260009190848201906040850190845b8181101561410c5783511515835292840192918401916001016140ee565b50909695505050505050565b6020808252825182820181905260009190848201906040850190845b8181101561410c57835183529284019291840191600101614134565b6040810161081f8284613ebe565b610100810161416d8286613ebe565b61417a6040830185613e8a565b61353460c0830184613ebe565b60006101406141968389613ebe565b6141a36040840188613e8a565b6141b060c0840187613ebe565b806101008401526141c381840186613ee1565b91505060ff83166101208301529695505050505050565b901515815260200190565b90815260200190565b91825263ffffffff16602082015260400190565b6000602082526113596020830184613ee1565b6020808252601a908201527f5468697320416e63686f72206973206174206361706163697479000000000000604082015260600190565b60208082526037908201527f436861696e206d75737420626520696e74656772617465642066726f6d20746860408201527f6520627269646765206265666f72652075706461746573000000000000000000606082015260800190565b6020808252601c908201527f43616e6e6f742066696e6420796f7572206d65726b6c6520726f6f7400000000604082015260600190565b6020808252601a908201527f4665652065786365656473207472616e736665722076616c7565000000000000604082015260600190565b60208082526030908201527f496e636f727265637420726566756e6420616d6f756e7420726563656976656460408201526f08189e481d1a194818dbdb9d1c9858dd60821b606082015260800190565b60208082526018908201527f73656e646572206973206e6f7420746865206272696467650000000000000000604082015260600190565b6020808252818101527f5f6c6566742073686f756c6420626520696e7369646520746865206669656c64604082015260600190565b60208082526026908201527f416464726573733a20696e73756666696369656e742062616c616e636520666f6040820152651c8818d85b1b60d21b606082015260800190565b6020808252600d908201526c496e76616c696420656467657360981b604082015260600190565b6020808252601e908201527f4e6577206c65616620696e646578206d75737420626520677265617465720000604082015260600190565b60208082526021908201527f5f72696768742073686f756c6420626520696e7369646520746865206669656c6040820152601960fa1b606082015260800190565b60208082526016908201527524b73b30b634b2103bb4ba34323930bb90383937b7b360511b604082015260600190565b60208082526017908201527f73656e646572206973206e6f74207468652061646d696e000000000000000000604082015260600190565b6020808252600d908201526c496e76616c696420726f6f747360981b604082015260600190565b6020808252601b908201527f496e636f727265637420726f6f74206172726179206c656e6774680000000000604082015260600190565b60208082526017908201527f4e65696768626f7220726f6f74206e6f7420666f756e64000000000000000000604082015260600190565b6020808252601f908201527f546865206e6f746520686173206265656e20616c7265616479207370656e7400604082015260600190565b60208082526021908201527f54686520636f6d6d69746d656e7420686173206265656e207375626d697474656040820152601960fa1b606082015260800190565b60208082526030908201527f4554482076616c756520697320737570706f73656420746f206265203020666f60408201526f7220455243323020696e7374616e636560801b606082015260800190565b6020808252601d908201527f416464726573733a2063616c6c20746f206e6f6e2d636f6e7472616374000000604082015260600190565b602080825260139082015272496e646578206f7574206f6620626f756e647360681b604082015260600190565b6020808252602a908201527f5361666545524332303a204552433230206f7065726174696f6e20646964206e6040820152691bdd081cdd58d8d9595960b21b606082015260800190565b60208082526030908201527f4d65726b6c6520747265652069732066756c6c2e204e6f206d6f7265206c656160408201526f1d995cc818d85b88189948185919195960821b606082015260800190565b6020808252601f908201527f5265656e7472616e637947756172643a207265656e7472616e742063616c6c00604082015260600190565b60208082526019908201527f73656e646572206973206e6f74207468652068616e646c657200000000000000604082015260600190565b9283526020830191909152604082015260600190565b63ffffffff91909116815260200190565b63ffffffff929092168252602082015260400190565b60ff91909116815260200190565b6000808335601e19843603018112614849578283fd5b8301803591506001600160401b03821115614862578283fd5b6020019150368190038213156137d357600080fd5b6040518181016001600160401b038111828210171561489857614898614b34565b604052919050565b600082198211156148b3576148b3614b08565b500190565b600063ffffffff8083168185168083038211156148d7576148d7614b08565b01949350505050565b600060ff821660ff84168060ff038211156148fd576148fd614b08565b019392505050565b600063ffffffff8084168061491c5761491c614b1e565b92169190910492915050565b80825b600180861161493a5750614965565b81870482111561494c5761494c614b08565b8086161561495957918102915b9490941c93800261492b565b94509492505050565b600063ffffffff6135348182861683861660008261498e57506001611359565b8161499b57506000611359565b81600181146149b157600281146149bb576149e8565b6001915050611359565b60ff8411156149cc576149cc614b08565b6001841b9150848211156149e2576149e2614b08565b50611359565b5060208310610133831016604e8410600b8410161715614a1b575081810a83811115614a1657614a16614b08565b611359565b614a288484846001614928565b808604821115614a3a57614a3a614b08565b02949350505050565b600082821015614a5557614a55614b08565b500390565b60005b83811015614a75578181015183820152602001614a5d565b83811115613eb85750506000910152565b600063ffffffff821680614a9c57614a9c614b08565b6000190192915050565b6000600019821415614aba57614aba614b08565b5060010190565b600063ffffffff80831681811415614adb57614adb614b08565b6001019392505050565b600063ffffffff80841680614afc57614afc614b1e565b92169190910692915050565b634e487b7160e01b600052601160045260246000fd5b634e487b7160e01b600052601260045260246000fd5b634e487b7160e01b600052604160045260246000fd5b6001600160a01b038116811461272e57600080fdfea2646970667358221220d7e774e69148749c276ce01c074b9e71a4f0ff2edf74e0890d91319b67ee627464736f6c63430008000033",
  "linkReferences": {},
  "deployedLinkReferences": {}
}