{
  "_format": "hh-sol-artifact-1",
  "contractName": "Bridge",
  "sourceName": "contracts/Bridge.sol",
  "abi": [
    {
      "inputs": [
        {
          "internalType": "uint256",
          "name": "chainID",
          "type": "uint256"
        },
        {
          "internalType": "address[]",
          "name": "initialRelayers",
          "type": "address[]"
        },
        {
          "internalType": "uint256",
          "name": "initialRelayerThreshold",
          "type": "uint256"
        },
        {
          "internalType": "uint256",
          "name": "fee",
          "type": "uint256"
        },
        {
          "internalType": "uint256",
          "name": "expiry",
          "type": "uint256"
        }
      ],
      "stateMutability": "nonpayable",
      "type": "constructor"
    },
    {
      "anonymous": false,
      "inputs": [
        {
          "indexed": false,
          "internalType": "address",
          "name": "account",
          "type": "address"
        }
      ],
      "name": "Paused",
      "type": "event"
    },
    {
      "anonymous": false,
      "inputs": [
        {
          "indexed": false,
          "internalType": "uint256",
          "name": "originChainID",
          "type": "uint256"
        },
        {
          "indexed": false,
          "internalType": "uint64",
          "name": "nonce",
          "type": "uint64"
        },
        {
          "indexed": false,
          "internalType": "enum Bridge.ProposalStatus",
          "name": "status",
          "type": "uint8"
        },
        {
          "indexed": false,
          "internalType": "bytes32",
          "name": "dataHash",
          "type": "bytes32"
        }
      ],
      "name": "ProposalEvent",
      "type": "event"
    },
    {
      "anonymous": false,
      "inputs": [
        {
          "indexed": false,
          "internalType": "uint256",
          "name": "originChainID",
          "type": "uint256"
        },
        {
          "indexed": false,
          "internalType": "uint64",
          "name": "nonce",
          "type": "uint64"
        },
        {
          "indexed": false,
          "internalType": "enum Bridge.ProposalStatus",
          "name": "status",
          "type": "uint8"
        },
        {
          "indexed": false,
          "internalType": "bytes32",
          "name": "dataHash",
          "type": "bytes32"
        }
      ],
      "name": "ProposalVote",
      "type": "event"
    },
    {
      "anonymous": false,
      "inputs": [
        {
          "indexed": false,
          "internalType": "address",
          "name": "relayer",
          "type": "address"
        }
      ],
      "name": "RelayerAdded",
      "type": "event"
    },
    {
      "anonymous": false,
      "inputs": [
        {
          "indexed": false,
          "internalType": "address",
          "name": "relayer",
          "type": "address"
        }
      ],
      "name": "RelayerRemoved",
      "type": "event"
    },
    {
      "anonymous": false,
      "inputs": [
        {
          "indexed": false,
          "internalType": "uint256",
          "name": "newThreshold",
          "type": "uint256"
        }
      ],
      "name": "RelayerThresholdChanged",
      "type": "event"
    },
    {
      "anonymous": false,
      "inputs": [
        {
          "indexed": true,
          "internalType": "bytes32",
          "name": "role",
          "type": "bytes32"
        },
        {
          "indexed": true,
          "internalType": "address",
          "name": "account",
          "type": "address"
        },
        {
          "indexed": true,
          "internalType": "address",
          "name": "sender",
          "type": "address"
        }
      ],
      "name": "RoleGranted",
      "type": "event"
    },
    {
      "anonymous": false,
      "inputs": [
        {
          "indexed": true,
          "internalType": "bytes32",
          "name": "role",
          "type": "bytes32"
        },
        {
          "indexed": true,
          "internalType": "address",
          "name": "account",
          "type": "address"
        },
        {
          "indexed": true,
          "internalType": "address",
          "name": "sender",
          "type": "address"
        }
      ],
      "name": "RoleRevoked",
      "type": "event"
    },
    {
      "anonymous": false,
      "inputs": [
        {
          "indexed": false,
          "internalType": "address",
          "name": "account",
          "type": "address"
        }
      ],
      "name": "Unpaused",
      "type": "event"
    },
    {
      "inputs": [],
      "name": "DEFAULT_ADMIN_ROLE",
      "outputs": [
        {
          "internalType": "bytes32",
          "name": "",
          "type": "bytes32"
        }
      ],
      "stateMutability": "view",
      "type": "function"
    },
    {
      "inputs": [],
      "name": "MAX_RELAYERS",
      "outputs": [
        {
          "internalType": "uint256",
          "name": "",
          "type": "uint256"
        }
      ],
      "stateMutability": "view",
      "type": "function"
    },
    {
      "inputs": [],
      "name": "RELAYER_ROLE",
      "outputs": [
        {
          "internalType": "bytes32",
          "name": "",
          "type": "bytes32"
        }
      ],
      "stateMutability": "view",
      "type": "function"
    },
    {
      "inputs": [],
      "name": "_chainID",
      "outputs": [
        {
          "internalType": "uint256",
          "name": "",
          "type": "uint256"
        }
      ],
      "stateMutability": "view",
      "type": "function"
    },
    {
      "inputs": [
        {
          "internalType": "uint256",
          "name": "",
          "type": "uint256"
        }
      ],
      "name": "_counts",
      "outputs": [
        {
          "internalType": "uint64",
          "name": "",
          "type": "uint64"
        }
      ],
      "stateMutability": "view",
      "type": "function"
    },
    {
      "inputs": [],
      "name": "_expiry",
      "outputs": [
        {
          "internalType": "uint40",
          "name": "",
          "type": "uint40"
        }
      ],
      "stateMutability": "view",
      "type": "function"
    },
    {
      "inputs": [],
      "name": "_fee",
      "outputs": [
        {
          "internalType": "uint128",
          "name": "",
          "type": "uint128"
        }
      ],
      "stateMutability": "view",
      "type": "function"
    },
    {
      "inputs": [
        {
          "internalType": "uint72",
          "name": "destNonce",
          "type": "uint72"
        },
        {
          "internalType": "bytes32",
          "name": "dataHash",
          "type": "bytes32"
        },
        {
          "internalType": "address",
          "name": "relayer",
          "type": "address"
        }
      ],
      "name": "_hasVotedOnProposal",
      "outputs": [
        {
          "internalType": "bool",
          "name": "",
          "type": "bool"
        }
      ],
      "stateMutability": "view",
      "type": "function"
    },
    {
      "inputs": [],
      "name": "_relayerThreshold",
      "outputs": [
        {
          "internalType": "uint8",
          "name": "",
          "type": "uint8"
        }
      ],
      "stateMutability": "view",
      "type": "function"
    },
    {
      "inputs": [
        {
          "internalType": "bytes32",
          "name": "",
          "type": "bytes32"
        }
      ],
      "name": "_resourceIDToHandlerAddress",
      "outputs": [
        {
          "internalType": "address",
          "name": "",
          "type": "address"
        }
      ],
      "stateMutability": "view",
      "type": "function"
    },
    {
      "inputs": [],
      "name": "_totalRelayers",
      "outputs": [
        {
          "internalType": "uint256",
          "name": "",
          "type": "uint256"
        }
      ],
      "stateMutability": "view",
      "type": "function"
    },
    {
      "inputs": [
        {
          "internalType": "address",
          "name": "relayerAddress",
          "type": "address"
        }
      ],
      "name": "adminAddRelayer",
      "outputs": [],
      "stateMutability": "nonpayable",
      "type": "function"
    },
    {
      "inputs": [
        {
          "internalType": "uint256",
          "name": "newThreshold",
          "type": "uint256"
        }
      ],
      "name": "adminChangeRelayerThreshold",
      "outputs": [],
      "stateMutability": "nonpayable",
      "type": "function"
    },
    {
      "inputs": [],
      "name": "adminPauseTransfers",
      "outputs": [],
      "stateMutability": "nonpayable",
      "type": "function"
    },
    {
      "inputs": [
        {
          "internalType": "address",
          "name": "relayerAddress",
          "type": "address"
        }
      ],
      "name": "adminRemoveRelayer",
      "outputs": [],
      "stateMutability": "nonpayable",
      "type": "function"
    },
    {
      "inputs": [
        {
          "internalType": "address",
          "name": "handlerAddress",
          "type": "address"
        },
        {
          "internalType": "bytes32",
          "name": "resourceID",
          "type": "bytes32"
        },
        {
          "internalType": "address",
          "name": "executionContextAddress",
          "type": "address"
        }
      ],
      "name": "adminSetResource",
      "outputs": [],
      "stateMutability": "nonpayable",
      "type": "function"
    },
    {
      "inputs": [],
      "name": "adminUnpauseTransfers",
      "outputs": [],
      "stateMutability": "nonpayable",
      "type": "function"
    },
    {
      "inputs": [
        {
          "internalType": "uint256",
          "name": "chainID",
          "type": "uint256"
        },
        {
          "internalType": "uint64",
          "name": "nonce",
          "type": "uint64"
        },
        {
          "internalType": "bytes32",
          "name": "dataHash",
          "type": "bytes32"
        }
      ],
      "name": "cancelProposal",
      "outputs": [],
      "stateMutability": "nonpayable",
      "type": "function"
    },
    {
      "inputs": [
        {
          "internalType": "uint256",
          "name": "chainID",
          "type": "uint256"
        },
        {
          "internalType": "uint64",
          "name": "nonce",
          "type": "uint64"
        },
        {
          "internalType": "bytes",
          "name": "data",
          "type": "bytes"
        },
        {
          "internalType": "bytes32",
          "name": "resourceID",
          "type": "bytes32"
        }
      ],
      "name": "executeProposal",
      "outputs": [],
      "stateMutability": "nonpayable",
      "type": "function"
    },
    {
      "inputs": [
        {
          "internalType": "uint256",
          "name": "originChainID",
          "type": "uint256"
        },
        {
          "internalType": "uint64",
          "name": "nonce",
          "type": "uint64"
        },
        {
          "internalType": "bytes32",
          "name": "dataHash",
          "type": "bytes32"
        }
      ],
      "name": "getProposal",
      "outputs": [
        {
          "components": [
            {
              "internalType": "enum Bridge.ProposalStatus",
              "name": "_status",
              "type": "uint8"
            },
            {
              "internalType": "uint200",
              "name": "_yesVotes",
              "type": "uint200"
            },
            {
              "internalType": "uint8",
              "name": "_yesVotesTotal",
              "type": "uint8"
            },
            {
              "internalType": "uint40",
              "name": "_proposedBlock",
              "type": "uint40"
            }
          ],
          "internalType": "struct Bridge.Proposal",
          "name": "",
          "type": "tuple"
        }
      ],
      "stateMutability": "view",
      "type": "function"
    },
    {
      "inputs": [
        {
          "internalType": "bytes32",
          "name": "role",
          "type": "bytes32"
        }
      ],
      "name": "getRoleAdmin",
      "outputs": [
        {
          "internalType": "bytes32",
          "name": "",
          "type": "bytes32"
        }
      ],
      "stateMutability": "view",
      "type": "function"
    },
    {
      "inputs": [
        {
          "internalType": "bytes32",
          "name": "role",
          "type": "bytes32"
        },
        {
          "internalType": "uint256",
          "name": "index",
          "type": "uint256"
        }
      ],
      "name": "getRoleMember",
      "outputs": [
        {
          "internalType": "address",
          "name": "",
          "type": "address"
        }
      ],
      "stateMutability": "view",
      "type": "function"
    },
    {
      "inputs": [
        {
          "internalType": "bytes32",
          "name": "role",
          "type": "bytes32"
        }
      ],
      "name": "getRoleMemberCount",
      "outputs": [
        {
          "internalType": "uint256",
          "name": "",
          "type": "uint256"
        }
      ],
      "stateMutability": "view",
      "type": "function"
    },
    {
      "inputs": [
        {
          "internalType": "bytes32",
          "name": "role",
          "type": "bytes32"
        },
        {
          "internalType": "address",
          "name": "account",
          "type": "address"
        }
      ],
      "name": "getRoleMemberIndex",
      "outputs": [
        {
          "internalType": "uint256",
          "name": "",
          "type": "uint256"
        }
      ],
      "stateMutability": "view",
      "type": "function"
    },
    {
      "inputs": [
        {
          "internalType": "bytes32",
          "name": "role",
          "type": "bytes32"
        },
        {
          "internalType": "address",
          "name": "account",
          "type": "address"
        }
      ],
      "name": "grantRole",
      "outputs": [],
      "stateMutability": "nonpayable",
      "type": "function"
    },
    {
      "inputs": [
        {
          "internalType": "bytes32",
          "name": "role",
          "type": "bytes32"
        },
        {
          "internalType": "address",
          "name": "account",
          "type": "address"
        }
      ],
      "name": "hasRole",
      "outputs": [
        {
          "internalType": "bool",
          "name": "",
          "type": "bool"
        }
      ],
      "stateMutability": "view",
      "type": "function"
    },
    {
      "inputs": [
        {
          "internalType": "address",
          "name": "relayer",
          "type": "address"
        }
      ],
      "name": "isRelayer",
      "outputs": [
        {
          "internalType": "bool",
          "name": "",
          "type": "bool"
        }
      ],
      "stateMutability": "view",
      "type": "function"
    },
    {
      "inputs": [],
      "name": "paused",
      "outputs": [
        {
          "internalType": "bool",
          "name": "",
          "type": "bool"
        }
      ],
      "stateMutability": "view",
      "type": "function"
    },
    {
      "inputs": [
        {
          "internalType": "address",
          "name": "newAdmin",
          "type": "address"
        }
      ],
      "name": "renounceAdmin",
      "outputs": [],
      "stateMutability": "nonpayable",
      "type": "function"
    },
    {
      "inputs": [
        {
          "internalType": "bytes32",
          "name": "role",
          "type": "bytes32"
        },
        {
          "internalType": "address",
          "name": "account",
          "type": "address"
        }
      ],
      "name": "renounceRole",
      "outputs": [],
      "stateMutability": "nonpayable",
      "type": "function"
    },
    {
      "inputs": [
        {
          "internalType": "bytes32",
          "name": "role",
          "type": "bytes32"
        },
        {
          "internalType": "address",
          "name": "account",
          "type": "address"
        }
      ],
      "name": "revokeRole",
      "outputs": [],
      "stateMutability": "nonpayable",
      "type": "function"
    },
    {
      "inputs": [
        {
          "internalType": "uint256",
          "name": "chainID",
          "type": "uint256"
        },
        {
          "internalType": "uint64",
          "name": "nonce",
          "type": "uint64"
        },
        {
          "internalType": "bytes32",
          "name": "resourceID",
          "type": "bytes32"
        },
        {
          "internalType": "bytes32",
          "name": "dataHash",
          "type": "bytes32"
        }
      ],
      "name": "voteProposal",
      "outputs": [],
      "stateMutability": "nonpayable",
      "type": "function"
    }
  ],
  "bytecode": "0x60806040523480156200001157600080fd5b50604051620027f4380380620027f48339810160408190526200003491620003bc565b6000805460ff1916905560028590556200005a8362000182602090811b6200128317901c565b600360006101000a81548160ff021916908360ff1602179055506200008a82620001b960201b620012aa1760201c565b600360016101000a8154816001600160801b0302191690836001600160801b03160217905550620000c681620001e160201b620012cf1760201c565b6003805464ffffffffff92909216600160881b0264ffffffffff60881b19909216919091179055620000fa6000336200020b565b60005b84518110156200017657620001617fe2b7fb3b832174769106daebcfd6d1970523240dda11281102db9363b83b0dc48683815181106200014d57634e487b7160e01b600052603260045260246000fd5b60200260200101516200021b60201b60201c565b806200016d81620005a5565b915050620000fd565b505050505050620005e3565b60006101008210620001b15760405162461bcd60e51b8152600401620001a8906200056e565b60405180910390fd5b50805b919050565b6000600160801b8210620001b15760405162461bcd60e51b8152600401620001a89062000500565b6000650100000000008210620001b15760405162461bcd60e51b8152600401620001a89062000537565b62000217828262000261565b5050565b60008281526001602052604090206002015462000242906200023c620002dc565b620002e0565b6200020b5760405162461bcd60e51b8152600401620001a890620004b1565b600082815260016020908152604090912062000288918390620012f66200030f821b17901c565b15620002175762000298620002dc565b6001600160a01b0316816001600160a01b0316837f2f8788117e7eff1d82e926ec794901d17c78024a50270940304540a733656f0d60405160405180910390a45050565b3390565b60008281526001602090815260408220620003069184906200130b62000326821b17901c565b90505b92915050565b600062000306836001600160a01b0384166200033d565b600062000306836001600160a01b0384166200038c565b60006200034b83836200038c565b620003835750815460018181018455600084815260208082209093018490558454848252828601909352604090209190915562000309565b50600062000309565b60009081526001919091016020526040902054151590565b80516001600160a01b0381168114620001b457600080fd5b600080600080600060a08688031215620003d4578081fd5b8551602080880151919650906001600160401b0380821115620003f5578384fd5b818901915089601f83011262000409578384fd5b8151818111156200041e576200041e620005cd565b83810260405185828201018181108582111715620004405762000440620005cd565b604052828152858101935084860182860187018e10156200045f578788fd5b8795505b838610156200048c576200047781620003a4565b85526001959095019493860193860162000463565b5060408c015160608d01516080909d01519b9e919d509b9a9950975050505050505050565b6020808252602f908201527f416363657373436f6e74726f6c3a2073656e646572206d75737420626520616e60408201526e0818591b5a5b881d1bc819dc985b9d608a1b606082015260800190565b6020808252601e908201527f76616c756520646f6573206e6f742066697420696e2031323820626974730000604082015260600190565b6020808252601d908201527f76616c756520646f6573206e6f742066697420696e2034302062697473000000604082015260600190565b6020808252601c908201527f76616c756520646f6573206e6f742066697420696e2038206269747300000000604082015260600190565b6000600019821415620005c657634e487b7160e01b81526011600452602481fd5b5060010190565b634e487b7160e01b600052604160045260246000fd5b61220180620005f36000396000f3fe608060405234801561001057600080fd5b50600436106101f05760003560e01c80639b303d7a1161010f578063ca15c873116100a2578063d75a068311610071578063d75a0683146103ff578063d7a9cd791461041f578063dfef9a5314610434578063ffaac0eb14610447576101f0565b8063ca15c873146103b3578063cb10f215146103c6578063cdb0f73a146103d9578063d547741f146103ec576101f0565b8063a217fddf116100de578063a217fddf14610379578063beab713114610381578063c5b37c2214610389578063c5ec89701461039e576101f0565b80639b303d7a1461032b5780639d82dd631461034b5780639debb3bd1461035e578063a06fa09b14610366576101f0565b8063709940e61161018757806384db809f1161015657806384db809f146102dd5780639010d07c146102fd57806391d1485414610310578063926d7d7f14610323576101f0565b8063709940e6146102a75780637febe63f146102ba578063802aabe8146102cd57806380ae1c28146102d5576101f0565b80634e0df3f6116101c35780634e0df3f614610259578063541d55481461026c5780635c975abb1461028c5780635e1fab0f14610294576101f0565b8063248a9ca3146101f55780632f2ff15d1461021e57806336568abe146102335780634e05600514610246575b600080fd5b6102086102033660046118f2565b61044f565b6040516102159190611ae5565b60405180910390f35b61023161022c36600461190a565b610467565b005b61023161024136600461190a565b6104b8565b6102316102543660046118f2565b6104fa565b61020861026736600461190a565b61055a565b61027f61027a36600461189d565b610586565b6040516102159190611ada565b61027f6105a0565b6102316102a236600461189d565b6105a9565b6102316102b5366004611956565b6105f3565b61027f6102c8366004611a4e565b610867565b610208610927565b610231610945565b6102f06102eb3660046118f2565b610957565b6040516102159190611ac6565b6102f061030b366004611935565b610972565b61027f61031e36600461190a565b610991565b6102086109a9565b61033e610339366004611956565b6109bb565b6040516102159190612079565b61023161035936600461189d565b610a8b565b610208610b06565b61023161037436600461198a565b610b0b565b610208610f1e565b610208610f23565b610391610f29565b60405161021591906120c2565b6103a6610f3d565b6040516102159190612109565b6102086103c13660046118f2565b610f51565b6102316103d43660046118b7565b610f68565b6102316103e736600461189d565b610ff9565b6102316103fa36600461190a565b61109c565b61041261040d3660046118f2565b6110d6565b604051610215919061211b565b6104276110f2565b6040516102159190612130565b6102316104423660046119c4565b6110fb565b610231611273565b6000818152600160205260409020600201545b919050565b6000828152600160205260409020600201546104859061031e611320565b6104aa5760405162461bcd60e51b81526004016104a190611bc5565b60405180910390fd5b6104b48282611324565b5050565b6104c0611320565b6001600160a01b0316816001600160a01b0316146104f05760405162461bcd60e51b81526004016104a19061202a565b6104b4828261138d565b6105026113f6565b61050b81611283565b6003805460ff191660ff929092169190911790556040517fa20d6b84cd798a24038be305eff8a45ca82ef54a2aa2082005d8e14c0a4746c89061054f908390611ae5565b60405180910390a150565b60008281526001602081815260408084206001600160a01b038616855290920190529020545b92915050565b600061058060008051602061218c83398151915283610991565b60005460ff1690565b6105b16113f6565b336001600160a01b03821614156105da5760405162461bcd60e51b81526004016104a190611f06565b6105e5600082610467565b6105f06000336104b8565b50565b6105fb61141d565b68ffffffffffffffff00600883901b1683176001600160481b03811660009081526006602090815260408083208584529091528082208151608081019092528054829060ff16600481111561066057634e487b7160e01b600052602160045260246000fd5b600481111561067f57634e487b7160e01b600052602160045260246000fd5b8152905461010081046001600160c81b03166020830152600160d01b810460ff166040830152600160d81b900464ffffffffff16606090910152805190915060018160048111156106e057634e487b7160e01b600052602160045260246000fd5b148061070b5750600281600481111561070957634e487b7160e01b600052602160045260246000fd5b145b6107275760405162461bcd60e51b81526004016104a190611d46565b600354606083015164ffffffffff600160881b90920482169161074c91439116611462565b64ffffffffff16116107705760405162461bcd60e51b81526004016104a190611e70565b60048083526001600160481b03841660009081526006602090815260408083208884529091529020835181548593839160ff19169060019084908111156107c757634e487b7160e01b600052602160045260246000fd5b02179055506020820151815460408085015160609095015164ffffffffff16600160d81b026001600160d81b0360ff909616600160d01b0260ff60d01b196001600160c81b0390951661010002610100600160d01b031990941693909317939093169190911793909316179055516000805160206121ac83398151915290610857908890889060049089906120d6565b60405180910390a1505050505050565b6001600160481b0383166000908152600660209081526040808320858452909152808220815160808101909252805461091f929190829060ff1660048111156108c057634e487b7160e01b600052602160045260246000fd5b60048111156108df57634e487b7160e01b600052602160045260246000fd5b8152905461010081046001600160c81b03166020830152600160d01b810460ff166040830152600160d81b900464ffffffffff16606090910152836114a4565b949350505050565b600061094060008051602061218c833981519152610f51565b905090565b61094d6113f6565b6109556114c7565b565b6005602052600090815260409020546001600160a01b031681565b600082815260016020526040812061098a9083611516565b9392505050565b600082815260016020526040812061098a908361130b565b60008051602061218c83398151915281565b6109c3611845565b68ffffffffffffffff00600884901b1684176001600160481b0381166000908152600660209081526040808320868452909152908190208151608081019092528054829060ff166004811115610a2957634e487b7160e01b600052602160045260246000fd5b6004811115610a4857634e487b7160e01b600052602160045260246000fd5b8152905461010081046001600160c81b03166020830152600160d01b810460ff166040830152600160d81b900464ffffffffff1660609091015295945050505050565b610aa360008051602061218c83398151915282610991565b610abf5760405162461bcd60e51b81526004016104a190611c71565b610ad760008051602061218c8339815191528261109c565b7f10e1f7ce9fd7d1b90a66d13a2ab3cb8dd7f29f3f8d520b143b063ccfbab6906b8160405161054f9190611ac6565b60c881565b610b13611522565b610b1b611556565b68ffffffffffffffff00600884901b1684176001600160481b03811660009081526006602090815260408083208584529091528082208151608081019092528054829060ff166004811115610b8057634e487b7160e01b600052602160045260246000fd5b6004811115610b9f57634e487b7160e01b600052602160045260246000fd5b8152905461010081046001600160c81b0316602080840191909152600160d01b820460ff16604080850191909152600160d81b90920464ffffffffff16606090930192909252600087815260059092529020549091506001600160a01b0316610c1a5760405162461bcd60e51b81526004016104a190611ff3565b80516001906004811115610c3e57634e487b7160e01b600052602160045260246000fd5b1115610c5c5760405162461bcd60e51b81526004016104a190611f3d565b610c6681336114a4565b15610c835760405162461bcd60e51b81526004016104a190611c14565b600081516004811115610ca657634e487b7160e01b600052602160045260246000fd5b1415610d0757506040805160808101825260018082526000602083018190528284015264ffffffffff43166060830152915190916000805160206121ac83398151915291610cfa91899189919088906120d6565b60405180910390a1610d69565b600354606082015164ffffffffff600160881b909204821691610d2c91439116611462565b64ffffffffff161115610d695760048082526040516000805160206121ac83398151915291610d60918991899188906120d6565b60405180910390a15b600481516004811115610d8c57634e487b7160e01b600052602160045260246000fd5b14610e5757610db1610d9d33611579565b82602001516001600160c81b0316176115a7565b6001600160c81b0316602082015260408101805190610dcf82612155565b60ff1690525080516040517f9bce7387b7d9942d29cffae8898ffe045a4b66dc7b0a6fa81606e41772ed12a991610e0b918991899188906120d6565b60405180910390a1600354604082015160ff918216911610610e575760028082526040516000805160206121ac83398151915291610e4e918991899188906120d6565b60405180910390a15b6001600160481b038216600090815260066020908152604080832086845290915290208151815483929190829060ff19166001836004811115610eaa57634e487b7160e01b600052602160045260246000fd5b021790555060208201518154604084015160609094015164ffffffffff16600160d81b026001600160d81b0360ff909516600160d01b0260ff60d01b196001600160c81b0390941661010002610100600160d01b031990931692909217929092161792909216919091179055505050505050565b600081565b60025481565b60035461010090046001600160801b031681565b600354600160881b900464ffffffffff1681565b6000818152600160205260408120610580906115cc565b610f706113f6565b6000828152600560205260409081902080546001600160a01b0319166001600160a01b0386169081179091559051635c7d1b9b60e11b815284919063b8fa373690610fc19086908690600401611aee565b600060405180830381600087803b158015610fdb57600080fd5b505af1158015610fef573d6000803e3d6000fd5b5050505050505050565b61101160008051602061218c83398151915282610991565b1561102e5760405162461bcd60e51b81526004016104a190611ecf565b60c8611038610927565b106110555760405162461bcd60e51b81526004016104a190611d16565b61106d60008051602061218c83398151915282610467565b7f03580ee9f53a62b7cb409a2cb56f9be87747dd15017afc5cef6eef321e4fb2c58160405161054f9190611ac6565b6000828152600160205260409020600201546110ba9061031e611320565b6104f05760405162461bcd60e51b81526004016104a190611deb565b60046020526000908152604090205467ffffffffffffffff1681565b60035460ff1681565b611103611522565b61110b611556565b60008181526005602090815260408083205490516001600160a01b039091169268ffffffffffffffff00600889901b1689179290916111509185918991899101611a9a565b60408051601f1981840301815291815281516020928301206001600160481b03851660009081526006845282812082825290935291209091506002815460ff1660048111156111af57634e487b7160e01b600052602160045260246000fd5b146111cc5760405162461bcd60e51b81526004016104a190611e3b565b805460ff1916600317815560405163712467f960e11b815284906001600160a01b0382169063e248cff2906112099089908c908c90600401611b05565b600060405180830381600087803b15801561122357600080fd5b505af1158015611237573d6000803e3d6000fd5b505050506000805160206121ac8339815191528a8a60038660405161125f94939291906120d6565b60405180910390a150505050505050505050565b61127b6113f6565b6109556115d7565b600061010082106112a65760405162461bcd60e51b81526004016104a190611d7d565b5090565b6000600160801b82106112a65760405162461bcd60e51b81526004016104a190611ca8565b60006501000000000082106112a65760405162461bcd60e51b81526004016104a190611cdf565b600061098a836001600160a01b038416611619565b600061098a836001600160a01b038416611663565b3390565b600082815260016020526040902061133c90826112f6565b156104b457611349611320565b6001600160a01b0316816001600160a01b0316837f2f8788117e7eff1d82e926ec794901d17c78024a50270940304540a733656f0d60405160405180910390a45050565b60008281526001602052604090206113a5908261167b565b156104b4576113b2611320565b6001600160a01b0316816001600160a01b0316837ff6391f5c32d9c69d2a47ea670b442974b53935d1edc7fd64eb21e047a839171b60405160405180910390a45050565b611401600033610991565b6109555760405162461bcd60e51b81526004016104a190611fbc565b611428600033610991565b80611446575061144660008051602061218c83398151915233610991565b6109555760405162461bcd60e51b81526004016104a190611b8e565b600061098a83836040518060400160405280601e81526020017f536166654d6174683a207375627472616374696f6e206f766572666c6f770000815250611690565b60008083602001516001600160c81b03166114be84611579565b16119392505050565b6114cf611556565b6000805460ff191660011790556040517f62e78cea01bee320cd4e420270b5ea74000d11b0c9f74754ebdbfc544b05a2589061150c903390611ac6565b60405180910390a1565b600061098a83836116ca565b61153a60008051602061218c83398151915233610991565b6109555760405162461bcd60e51b81526004016104a190611f87565b60005460ff16156109555760405162461bcd60e51b81526004016104a190611ea5565b600061159d61159660008051602061218c8339815191528461055a565b6001611462565b6001901b92915050565b6000600160c81b82106112a65760405162461bcd60e51b81526004016104a190611db4565b600061058082611702565b6115df611706565b6000805460ff191690556040517f5db9ee0a495bf2e6ff9c91a7834c1ba4fdd244a5e8aa4e537bd38aeae4b073aa9061150c903390611ac6565b60006116258383611663565b61165b57508154600181810184556000848152602080822090930184905584548482528286019093526040902091909155610580565b506000610580565b60009081526001919091016020526040902054151590565b600061098a836001600160a01b038416611728565b600081848411156116b45760405162461bcd60e51b81526004016104a19190611b3b565b5060006116c1848661213e565b95945050505050565b60008260000182815481106116ef57634e487b7160e01b600052603260045260246000fd5b9060005260206000200154905092915050565b5490565b60005460ff166109555760405162461bcd60e51b81526004016104a190611c43565b6000818152600183016020526040812054801561183b57600061174c60018361213e565b85549091506000906117609060019061213e565b90508181146117e157600086600001828154811061178e57634e487b7160e01b600052603260045260246000fd5b90600052602060002001549050808760000184815481106117bf57634e487b7160e01b600052603260045260246000fd5b6000918252602080832090910192909255918252600188019052604090208390555b855486908061180057634e487b7160e01b600052603160045260246000fd5b600190038181906000526020600020016000905590558560010160008681526020019081526020016000206000905560019350505050610580565b6000915050610580565b604080516080810190915280600081526000602082018190526040820181905260609091015290565b80356001600160a01b038116811461046257600080fd5b803567ffffffffffffffff8116811461046257600080fd5b6000602082840312156118ae578081fd5b61098a8261186e565b6000806000606084860312156118cb578182fd5b6118d48461186e565b9250602084013591506118e96040850161186e565b90509250925092565b600060208284031215611903578081fd5b5035919050565b6000806040838503121561191c578182fd5b8235915061192c6020840161186e565b90509250929050565b60008060408385031215611947578182fd5b50508035926020909101359150565b60008060006060848603121561196a578283fd5b8335925061197a60208501611885565b9150604084013590509250925092565b6000806000806080858703121561199f578081fd5b843593506119af60208601611885565b93969395505050506040820135916060013590565b6000806000806000608086880312156119db578081fd5b853594506119eb60208701611885565b9350604086013567ffffffffffffffff80821115611a07578283fd5b818801915088601f830112611a1a578283fd5b813581811115611a28578384fd5b896020828501011115611a39578384fd5b96999598505060200195606001359392505050565b600080600060608486031215611a62578283fd5b83356001600160481b03811681146118d4578384fd5b60058110611a9657634e487b7160e01b600052602160045260246000fd5b9052565b60006bffffffffffffffffffffffff198560601b16825282846014840137910160140190815292915050565b6001600160a01b0391909116815260200190565b901515815260200190565b90815260200190565b9182526001600160a01b0316602082015260400190565b60008482526040602083015282604083015282846060840137818301606090810191909152601f909201601f1916010192915050565b6000602080835283518082850152825b81811015611b6757858101830151858201604001528201611b4b565b81811115611b785783604083870101525b50601f01601f1916929092016040019392505050565b6020808252601e908201527f73656e646572206973206e6f742072656c61796572206f722061646d696e0000604082015260600190565b6020808252602f908201527f416363657373436f6e74726f6c3a2073656e646572206d75737420626520616e60408201526e0818591b5a5b881d1bc819dc985b9d608a1b606082015260800190565b6020808252601590820152741c995b185e595c88185b1c9958591e481d9bdd1959605a1b604082015260600190565b60208082526014908201527314185d5cd8589b194e881b9bdd081c185d5cd95960621b604082015260600190565b6020808252601f908201527f6164647220646f65736e277420686176652072656c6179657220726f6c652100604082015260600190565b6020808252601e908201527f76616c756520646f6573206e6f742066697420696e2031323820626974730000604082015260600190565b6020808252601d908201527f76616c756520646f6573206e6f742066697420696e2034302062697473000000604082015260600190565b6020808252601690820152751c995b185e595c9cc81b1a5b5a5d081c995858da195960521b604082015260600190565b6020808252601c908201527f50726f706f73616c2063616e6e6f742062652063616e63656c6c656400000000604082015260600190565b6020808252601c908201527f76616c756520646f6573206e6f742066697420696e2038206269747300000000604082015260600190565b6020808252601e908201527f76616c756520646f6573206e6f742066697420696e2032303020626974730000604082015260600190565b60208082526030908201527f416363657373436f6e74726f6c3a2073656e646572206d75737420626520616e60408201526f2061646d696e20746f207265766f6b6560801b606082015260800190565b6020808252818101527f50726f706f73616c206d75737420686176652050617373656420737461747573604082015260600190565b6020808252818101527f50726f706f73616c206e6f7420617420657870697279207468726573686f6c64604082015260600190565b60208082526010908201526f14185d5cd8589b194e881c185d5cd95960821b604082015260600190565b6020808252601e908201527f6164647220616c7265616479206861732072656c6179657220726f6c65210000604082015260600190565b60208082526017908201527f43616e6e6f742072656e6f756e6365206f6e6573656c66000000000000000000604082015260600190565b6020808252602a908201527f70726f706f73616c20616c7265616479207061737365642f65786563757465646040820152690bd8d85b98d95b1b195960b21b606082015260800190565b6020808252818101527f73656e64657220646f65736e277420686176652072656c6179657220726f6c65604082015260600190565b6020808252601e908201527f73656e64657220646f65736e277420686176652061646d696e20726f6c650000604082015260600190565b60208082526019908201527f6e6f2068616e646c657220666f72207265736f75726365494400000000000000604082015260600190565b6020808252602f908201527f416363657373436f6e74726f6c3a2063616e206f6e6c792072656e6f756e636560408201526e103937b632b9903337b91039b2b63360891b606082015260800190565b600060808201905061208c828451611a78565b60018060c81b03602084015116602083015260ff604084015116604083015264ffffffffff606084015116606083015292915050565b6001600160801b0391909116815260200190565b84815267ffffffffffffffff84166020820152608081016120fa6040830185611a78565b82606083015295945050505050565b64ffffffffff91909116815260200190565b67ffffffffffffffff91909116815260200190565b60ff91909116815260200190565b60008282101561215057612150612175565b500390565b600060ff821660ff81141561216c5761216c612175565b60010192915050565b634e487b7160e01b600052601160045260246000fdfee2b7fb3b832174769106daebcfd6d1970523240dda11281102db9363b83b0dc44cb7956f27653ed00ab0902269b3f51178752f9eb2b4ec82146afdddc5a0d41ca2646970667358221220a4a76395b475bbe7b91858d03d0ed709d672f394f972167378b4beb1ac3b25c564736f6c63430008000033",
  "linkReferences": {},
  "deployedLinkReferences": {}
}