{
  "_format": "hh-sol-artifact-1",
  "contractName": "FungibleTokenWrapper",
  "sourceName": "contracts/tokens/FungibleTokenWrapper.sol",
  "abi": [
    {
      "inputs": [
        {
          "internalType": "string",
          "name": "_name",
          "type": "string"
        },
        {
          "internalType": "string",
          "name": "_symbol",
          "type": "string"
        }
      ],
      "stateMutability": "nonpayable",
      "type": "constructor"
    },
    {
      "anonymous": false,
      "inputs": [
        {
          "indexed": true,
          "internalType": "address",
          "name": "owner",
          "type": "address"
        },
        {
          "indexed": true,
          "internalType": "address",
          "name": "spender",
          "type": "address"
        },
        {
          "indexed": false,
          "internalType": "uint256",
          "name": "value",
          "type": "uint256"
        }
      ],
      "name": "Approval",
      "type": "event"
    },
    {
      "anonymous": false,
      "inputs": [
        {
          "indexed": false,
          "internalType": "address",
          "name": "account",
          "type": "address"
        }
      ],
      "name": "Paused",
      "type": "event"
    },
    {
      "anonymous": false,
      "inputs": [
        {
          "indexed": true,
          "internalType": "bytes32",
          "name": "role",
          "type": "bytes32"
        },
        {
          "indexed": true,
          "internalType": "bytes32",
          "name": "previousAdminRole",
          "type": "bytes32"
        },
        {
          "indexed": true,
          "internalType": "bytes32",
          "name": "newAdminRole",
          "type": "bytes32"
        }
      ],
      "name": "RoleAdminChanged",
      "type": "event"
    },
    {
      "anonymous": false,
      "inputs": [
        {
          "indexed": true,
          "internalType": "bytes32",
          "name": "role",
          "type": "bytes32"
        },
        {
          "indexed": true,
          "internalType": "address",
          "name": "account",
          "type": "address"
        },
        {
          "indexed": true,
          "internalType": "address",
          "name": "sender",
          "type": "address"
        }
      ],
      "name": "RoleGranted",
      "type": "event"
    },
    {
      "anonymous": false,
      "inputs": [
        {
          "indexed": true,
          "internalType": "bytes32",
          "name": "role",
          "type": "bytes32"
        },
        {
          "indexed": true,
          "internalType": "address",
          "name": "account",
          "type": "address"
        },
        {
          "indexed": true,
          "internalType": "address",
          "name": "sender",
          "type": "address"
        }
      ],
      "name": "RoleRevoked",
      "type": "event"
    },
    {
      "anonymous": false,
      "inputs": [
        {
          "indexed": true,
          "internalType": "address",
          "name": "from",
          "type": "address"
        },
        {
          "indexed": true,
          "internalType": "address",
          "name": "to",
          "type": "address"
        },
        {
          "indexed": false,
          "internalType": "uint256",
          "name": "value",
          "type": "uint256"
        }
      ],
      "name": "Transfer",
      "type": "event"
    },
    {
      "anonymous": false,
      "inputs": [
        {
          "indexed": false,
          "internalType": "address",
          "name": "account",
          "type": "address"
        }
      ],
      "name": "Unpaused",
      "type": "event"
    },
    {
      "inputs": [],
      "name": "DEFAULT_ADMIN_ROLE",
      "outputs": [
        {
          "internalType": "bytes32",
          "name": "",
          "type": "bytes32"
        }
      ],
      "stateMutability": "view",
      "type": "function"
    },
    {
      "inputs": [],
      "name": "MINTER_ROLE",
      "outputs": [
        {
          "internalType": "bytes32",
          "name": "",
          "type": "bytes32"
        }
      ],
      "stateMutability": "view",
      "type": "function"
    },
    {
      "inputs": [],
      "name": "PAUSER_ROLE",
      "outputs": [
        {
          "internalType": "bytes32",
          "name": "",
          "type": "bytes32"
        }
      ],
      "stateMutability": "view",
      "type": "function"
    },
    {
      "inputs": [
        {
          "internalType": "address",
          "name": "_tokenAddress",
          "type": "address"
        },
        {
          "internalType": "uint32",
          "name": "_nonce",
          "type": "uint32"
        }
      ],
      "name": "add",
      "outputs": [],
      "stateMutability": "nonpayable",
      "type": "function"
    },
    {
      "inputs": [
        {
          "internalType": "address",
          "name": "owner",
          "type": "address"
        },
        {
          "internalType": "address",
          "name": "spender",
          "type": "address"
        }
      ],
      "name": "allowance",
      "outputs": [
        {
          "internalType": "uint256",
          "name": "",
          "type": "uint256"
        }
      ],
      "stateMutability": "view",
      "type": "function"
    },
    {
      "inputs": [
        {
          "internalType": "address",
          "name": "spender",
          "type": "address"
        },
        {
          "internalType": "uint256",
          "name": "amount",
          "type": "uint256"
        }
      ],
      "name": "approve",
      "outputs": [
        {
          "internalType": "bool",
          "name": "",
          "type": "bool"
        }
      ],
      "stateMutability": "nonpayable",
      "type": "function"
    },
    {
      "inputs": [
        {
          "internalType": "address",
          "name": "account",
          "type": "address"
        }
      ],
      "name": "balanceOf",
      "outputs": [
        {
          "internalType": "uint256",
          "name": "",
          "type": "uint256"
        }
      ],
      "stateMutability": "view",
      "type": "function"
    },
    {
      "inputs": [
        {
          "internalType": "uint256",
          "name": "amount",
          "type": "uint256"
        }
      ],
      "name": "burn",
      "outputs": [],
      "stateMutability": "nonpayable",
      "type": "function"
    },
    {
      "inputs": [
        {
          "internalType": "address",
          "name": "account",
          "type": "address"
        },
        {
          "internalType": "uint256",
          "name": "amount",
          "type": "uint256"
        }
      ],
      "name": "burnFrom",
      "outputs": [],
      "stateMutability": "nonpayable",
      "type": "function"
    },
    {
      "inputs": [],
      "name": "decimals",
      "outputs": [
        {
          "internalType": "uint8",
          "name": "",
          "type": "uint8"
        }
      ],
      "stateMutability": "view",
      "type": "function"
    },
    {
      "inputs": [
        {
          "internalType": "address",
          "name": "spender",
          "type": "address"
        },
        {
          "internalType": "uint256",
          "name": "subtractedValue",
          "type": "uint256"
        }
      ],
      "name": "decreaseAllowance",
      "outputs": [
        {
          "internalType": "bool",
          "name": "",
          "type": "bool"
        }
      ],
      "stateMutability": "nonpayable",
      "type": "function"
    },
    {
      "inputs": [],
      "name": "feePercentage",
      "outputs": [
        {
          "internalType": "uint16",
          "name": "",
          "type": "uint16"
        }
      ],
      "stateMutability": "view",
      "type": "function"
    },
    {
      "inputs": [],
      "name": "feeRecipient",
      "outputs": [
        {
          "internalType": "address payable",
          "name": "",
          "type": "address"
        }
      ],
      "stateMutability": "view",
      "type": "function"
    },
    {
      "inputs": [
        {
          "internalType": "uint256",
          "name": "_deposit",
          "type": "uint256"
        }
      ],
      "name": "getAmountToWrap",
      "outputs": [
        {
          "internalType": "uint256",
          "name": "",
          "type": "uint256"
        }
      ],
      "stateMutability": "view",
      "type": "function"
    },
    {
      "inputs": [],
      "name": "getFee",
      "outputs": [
        {
          "internalType": "uint16",
          "name": "",
          "type": "uint16"
        }
      ],
      "stateMutability": "view",
      "type": "function"
    },
    {
      "inputs": [
        {
          "internalType": "uint256",
          "name": "_amountToWrap",
          "type": "uint256"
        }
      ],
      "name": "getFeeFromAmount",
      "outputs": [
        {
          "internalType": "uint256",
          "name": "",
          "type": "uint256"
        }
      ],
      "stateMutability": "view",
      "type": "function"
    },
    {
      "inputs": [],
      "name": "getProposalNonce",
      "outputs": [
        {
          "internalType": "uint256",
          "name": "",
          "type": "uint256"
        }
      ],
      "stateMutability": "view",
      "type": "function"
    },
    {
      "inputs": [
        {
          "internalType": "bytes32",
          "name": "role",
          "type": "bytes32"
        }
      ],
      "name": "getRoleAdmin",
      "outputs": [
        {
          "internalType": "bytes32",
          "name": "",
          "type": "bytes32"
        }
      ],
      "stateMutability": "view",
      "type": "function"
    },
    {
      "inputs": [
        {
          "internalType": "bytes32",
          "name": "role",
          "type": "bytes32"
        },
        {
          "internalType": "uint256",
          "name": "index",
          "type": "uint256"
        }
      ],
      "name": "getRoleMember",
      "outputs": [
        {
          "internalType": "address",
          "name": "",
          "type": "address"
        }
      ],
      "stateMutability": "view",
      "type": "function"
    },
    {
      "inputs": [
        {
          "internalType": "bytes32",
          "name": "role",
          "type": "bytes32"
        }
      ],
      "name": "getRoleMemberCount",
      "outputs": [
        {
          "internalType": "uint256",
          "name": "",
          "type": "uint256"
        }
      ],
      "stateMutability": "view",
      "type": "function"
    },
    {
      "inputs": [],
      "name": "getTokens",
      "outputs": [
        {
          "internalType": "address[]",
          "name": "",
          "type": "address[]"
        }
      ],
      "stateMutability": "view",
      "type": "function"
    },
    {
      "inputs": [
        {
          "internalType": "bytes32",
          "name": "role",
          "type": "bytes32"
        },
        {
          "internalType": "address",
          "name": "account",
          "type": "address"
        }
      ],
      "name": "grantRole",
      "outputs": [],
      "stateMutability": "nonpayable",
      "type": "function"
    },
    {
      "inputs": [],
      "name": "handler",
      "outputs": [
        {
          "internalType": "address",
          "name": "",
          "type": "address"
        }
      ],
      "stateMutability": "view",
      "type": "function"
    },
    {
      "inputs": [
        {
          "internalType": "bytes32",
          "name": "role",
          "type": "bytes32"
        },
        {
          "internalType": "address",
          "name": "account",
          "type": "address"
        }
      ],
      "name": "hasRole",
      "outputs": [
        {
          "internalType": "bool",
          "name": "",
          "type": "bool"
        }
      ],
      "stateMutability": "view",
      "type": "function"
    },
    {
      "inputs": [
        {
          "internalType": "uint256",
          "name": "",
          "type": "uint256"
        }
      ],
      "name": "historicalTokens",
      "outputs": [
        {
          "internalType": "address",
          "name": "",
          "type": "address"
        }
      ],
      "stateMutability": "view",
      "type": "function"
    },
    {
      "inputs": [
        {
          "internalType": "address",
          "name": "spender",
          "type": "address"
        },
        {
          "internalType": "uint256",
          "name": "addedValue",
          "type": "uint256"
        }
      ],
      "name": "increaseAllowance",
      "outputs": [
        {
          "internalType": "bool",
          "name": "",
          "type": "bool"
        }
      ],
      "stateMutability": "nonpayable",
      "type": "function"
    },
    {
      "inputs": [
        {
          "internalType": "uint16",
          "name": "_feePercentage",
          "type": "uint16"
        },
        {
          "internalType": "address",
          "name": "_feeRecipient",
          "type": "address"
        },
        {
          "internalType": "address",
          "name": "_handler",
          "type": "address"
        },
        {
          "internalType": "uint256",
          "name": "_limit",
          "type": "uint256"
        },
        {
          "internalType": "bool",
          "name": "_isNativeAllowed",
          "type": "bool"
        }
      ],
      "name": "initialize",
      "outputs": [],
      "stateMutability": "nonpayable",
      "type": "function"
    },
    {
      "inputs": [],
      "name": "initialized",
      "outputs": [
        {
          "internalType": "bool",
          "name": "",
          "type": "bool"
        }
      ],
      "stateMutability": "view",
      "type": "function"
    },
    {
      "inputs": [],
      "name": "isNativeAllowed",
      "outputs": [
        {
          "internalType": "bool",
          "name": "",
          "type": "bool"
        }
      ],
      "stateMutability": "view",
      "type": "function"
    },
    {
      "inputs": [
        {
          "internalType": "address",
          "name": "tokenAddress",
          "type": "address"
        }
      ],
      "name": "isValidToken",
      "outputs": [
        {
          "internalType": "bool",
          "name": "",
          "type": "bool"
        }
      ],
      "stateMutability": "view",
      "type": "function"
    },
    {
      "inputs": [
        {
          "internalType": "address",
          "name": "to",
          "type": "address"
        },
        {
          "internalType": "uint256",
          "name": "amount",
          "type": "uint256"
        }
      ],
      "name": "mint",
      "outputs": [],
      "stateMutability": "nonpayable",
      "type": "function"
    },
    {
      "inputs": [],
      "name": "name",
      "outputs": [
        {
          "internalType": "string",
          "name": "",
          "type": "string"
        }
      ],
      "stateMutability": "view",
      "type": "function"
    },
    {
      "inputs": [],
      "name": "pause",
      "outputs": [],
      "stateMutability": "nonpayable",
      "type": "function"
    },
    {
      "inputs": [],
      "name": "paused",
      "outputs": [
        {
          "internalType": "bool",
          "name": "",
          "type": "bool"
        }
      ],
      "stateMutability": "view",
      "type": "function"
    },
    {
      "inputs": [],
      "name": "proposalNonce",
      "outputs": [
        {
          "internalType": "uint256",
          "name": "",
          "type": "uint256"
        }
      ],
      "stateMutability": "view",
      "type": "function"
    },
    {
      "inputs": [
        {
          "internalType": "address",
          "name": "_tokenAddress",
          "type": "address"
        },
        {
          "internalType": "uint32",
          "name": "_nonce",
          "type": "uint32"
        }
      ],
      "name": "remove",
      "outputs": [],
      "stateMutability": "nonpayable",
      "type": "function"
    },
    {
      "inputs": [
        {
          "internalType": "bytes32",
          "name": "role",
          "type": "bytes32"
        },
        {
          "internalType": "address",
          "name": "account",
          "type": "address"
        }
      ],
      "name": "renounceRole",
      "outputs": [],
      "stateMutability": "nonpayable",
      "type": "function"
    },
    {
      "inputs": [
        {
          "internalType": "bytes32",
          "name": "role",
          "type": "bytes32"
        },
        {
          "internalType": "address",
          "name": "account",
          "type": "address"
        }
      ],
      "name": "revokeRole",
      "outputs": [],
      "stateMutability": "nonpayable",
      "type": "function"
    },
    {
      "inputs": [
        {
          "internalType": "uint16",
          "name": "_feePercentage",
          "type": "uint16"
        },
        {
          "internalType": "uint32",
          "name": "_nonce",
          "type": "uint32"
        }
      ],
      "name": "setFee",
      "outputs": [],
      "stateMutability": "nonpayable",
      "type": "function"
    },
    {
      "inputs": [
        {
          "internalType": "address payable",
          "name": "_feeRecipient",
          "type": "address"
        },
        {
          "internalType": "uint32",
          "name": "_nonce",
          "type": "uint32"
        }
      ],
      "name": "setFeeRecipient",
      "outputs": [],
      "stateMutability": "nonpayable",
      "type": "function"
    },
    {
      "inputs": [
        {
          "internalType": "address",
          "name": "_handler",
          "type": "address"
        }
      ],
      "name": "setHandler",
      "outputs": [],
      "stateMutability": "nonpayable",
      "type": "function"
    },
    {
      "inputs": [
        {
          "internalType": "bool",
          "name": "_isNativeAllowed",
          "type": "bool"
        }
      ],
      "name": "setNativeAllowed",
      "outputs": [],
      "stateMutability": "nonpayable",
      "type": "function"
    },
    {
      "inputs": [
        {
          "internalType": "bytes4",
          "name": "interfaceId",
          "type": "bytes4"
        }
      ],
      "name": "supportsInterface",
      "outputs": [
        {
          "internalType": "bool",
          "name": "",
          "type": "bool"
        }
      ],
      "stateMutability": "view",
      "type": "function"
    },
    {
      "inputs": [],
      "name": "symbol",
      "outputs": [
        {
          "internalType": "string",
          "name": "",
          "type": "string"
        }
      ],
      "stateMutability": "view",
      "type": "function"
    },
    {
      "inputs": [
        {
          "internalType": "uint256",
          "name": "",
          "type": "uint256"
        }
      ],
      "name": "tokens",
      "outputs": [
        {
          "internalType": "address",
          "name": "",
          "type": "address"
        }
      ],
      "stateMutability": "view",
      "type": "function"
    },
    {
      "inputs": [],
      "name": "totalSupply",
      "outputs": [
        {
          "internalType": "uint256",
          "name": "",
          "type": "uint256"
        }
      ],
      "stateMutability": "view",
      "type": "function"
    },
    {
      "inputs": [
        {
          "internalType": "address",
          "name": "to",
          "type": "address"
        },
        {
          "internalType": "uint256",
          "name": "amount",
          "type": "uint256"
        }
      ],
      "name": "transfer",
      "outputs": [
        {
          "internalType": "bool",
          "name": "",
          "type": "bool"
        }
      ],
      "stateMutability": "nonpayable",
      "type": "function"
    },
    {
      "inputs": [
        {
          "internalType": "address",
          "name": "from",
          "type": "address"
        },
        {
          "internalType": "address",
          "name": "to",
          "type": "address"
        },
        {
          "internalType": "uint256",
          "name": "amount",
          "type": "uint256"
        }
      ],
      "name": "transferFrom",
      "outputs": [
        {
          "internalType": "bool",
          "name": "",
          "type": "bool"
        }
      ],
      "stateMutability": "nonpayable",
      "type": "function"
    },
    {
      "inputs": [],
      "name": "unpause",
      "outputs": [],
      "stateMutability": "nonpayable",
      "type": "function"
    },
    {
      "inputs": [
        {
          "internalType": "address",
          "name": "tokenAddress",
          "type": "address"
        },
        {
          "internalType": "uint256",
          "name": "amount",
          "type": "uint256"
        }
      ],
      "name": "unwrap",
      "outputs": [],
      "stateMutability": "nonpayable",
      "type": "function"
    },
    {
      "inputs": [
        {
          "internalType": "address",
          "name": "tokenAddress",
          "type": "address"
        },
        {
          "internalType": "uint256",
          "name": "amount",
          "type": "uint256"
        },
        {
          "internalType": "address",
          "name": "recipient",
          "type": "address"
        }
      ],
      "name": "unwrapAndSendTo",
      "outputs": [],
      "stateMutability": "nonpayable",
      "type": "function"
    },
    {
      "inputs": [
        {
          "internalType": "address",
          "name": "sender",
          "type": "address"
        },
        {
          "internalType": "address",
          "name": "tokenAddress",
          "type": "address"
        },
        {
          "internalType": "uint256",
          "name": "amount",
          "type": "uint256"
        }
      ],
      "name": "unwrapFor",
      "outputs": [],
      "stateMutability": "nonpayable",
      "type": "function"
    },
    {
      "inputs": [
        {
          "internalType": "uint256",
          "name": "_limit",
          "type": "uint256"
        }
      ],
      "name": "updateLimit",
      "outputs": [],
      "stateMutability": "nonpayable",
      "type": "function"
    },
    {
      "inputs": [
        {
          "internalType": "address",
          "name": "tokenAddress",
          "type": "address"
        },
        {
          "internalType": "uint256",
          "name": "amount",
          "type": "uint256"
        }
      ],
      "name": "wrap",
      "outputs": [],
      "stateMutability": "payable",
      "type": "function"
    },
    {
      "inputs": [
        {
          "internalType": "address",
          "name": "sender",
          "type": "address"
        },
        {
          "internalType": "address",
          "name": "tokenAddress",
          "type": "address"
        },
        {
          "internalType": "uint256",
          "name": "amount",
          "type": "uint256"
        }
      ],
      "name": "wrapFor",
      "outputs": [],
      "stateMutability": "payable",
      "type": "function"
    },
    {
      "inputs": [
        {
          "internalType": "address",
          "name": "sender",
          "type": "address"
        },
        {
          "internalType": "address",
          "name": "tokenAddress",
          "type": "address"
        },
        {
          "internalType": "uint256",
          "name": "amount",
          "type": "uint256"
        },
        {
          "internalType": "address",
          "name": "recipient",
          "type": "address"
        }
      ],
      "name": "wrapForAndSendTo",
      "outputs": [],
      "stateMutability": "payable",
      "type": "function"
    },
    {
      "inputs": [],
      "name": "wrappingLimit",
      "outputs": [
        {
          "internalType": "uint256",
          "name": "",
          "type": "uint256"
        }
      ],
      "stateMutability": "view",
      "type": "function"
    }
  ],
  "bytecode": "0x60806040523480156200001157600080fd5b506040516200432b3803806200432b8339810160408190526200003491620003a8565b8181818181818160059080519060200190620000529291906200024b565b508051620000689060069060208401906200024b565b50506007805460ff191690555062000082600033620000e6565b620000ae7f9f2df0fed2c77648de5860a4cc508cd0818c85b8b8a1ab4ceeef8d981c8956a633620000e6565b620000da7f65d7a28e3265b37a6474929f336521b332c1681b933f6cb9f3376673440d862a33620000e6565b50505050505062000465565b620000f28282620000f6565b5050565b6200010d82826200013960201b620027041760201c565b60008281526001602090815260409091206200013491839062002788620001d9821b17901c565b505050565b6000828152602081815260408083206001600160a01b038516845290915290205460ff16620000f2576000828152602081815260408083206001600160a01b03851684529091529020805460ff19166001179055620001953390565b6001600160a01b0316816001600160a01b0316837f2f8788117e7eff1d82e926ec794901d17c78024a50270940304540a733656f0d60405160405180910390a45050565b6000620001f0836001600160a01b038416620001f9565b90505b92915050565b60008181526001830160205260408120546200024257508154600181810184556000848152602080822090930184905584548482528286019093526040902091909155620001f3565b506000620001f3565b828054620002599062000412565b90600052602060002090601f0160209004810192826200027d5760008555620002c8565b82601f106200029857805160ff1916838001178555620002c8565b82800160010185558215620002c8579182015b82811115620002c8578251825591602001919060010190620002ab565b50620002d6929150620002da565b5090565b5b80821115620002d65760008155600101620002db565b600082601f8301126200030357600080fd5b81516001600160401b03808211156200032057620003206200044f565b604051601f8301601f19908116603f011681019082821181831017156200034b576200034b6200044f565b816040528381526020925086838588010111156200036857600080fd5b600091505b838210156200038c57858201830151818301840152908201906200036d565b838211156200039e5760008385830101525b9695505050505050565b60008060408385031215620003bc57600080fd5b82516001600160401b0380821115620003d457600080fd5b620003e286838701620002f1565b93506020850151915080821115620003f957600080fd5b506200040885828601620002f1565b9150509250929050565b600181811c908216806200042757607f821691505b602082108114156200044957634e487b7160e01b600052602260045260246000fd5b50919050565b634e487b7160e01b600052604160045260246000fd5b613eb680620004756000396000f3fe6080604052600436106103765760003560e01c80637b2e30d6116101d1578063b3e4083f11610102578063cc3c74a1116100a0578063dd62ed3e1161006f578063dd62ed3e14610a0a578063e63ab1e914610a2a578063fae0959a14610a5e578063fc97a65214610a7e57600080fd5b8063cc3c74a114610994578063ced72f87146109aa578063d5391393146109c8578063d547741f146109ea57600080fd5b8063c1876453116100dc578063c187645314610914578063c2ae472014610934578063c80916d414610954578063ca15c8731461097457600080fd5b8063b3e4083f146108c7578063bac426d0146108e1578063bf376c7a1461090157600080fd5b806395d89b411161016f578063a217fddf11610149578063a217fddf14610850578063a457c2d714610865578063a9059cbb14610885578063aa6ca808146108a557600080fd5b806395d89b41146107e857806396cd4dfe146107fd578063a001ecdd1461081d57600080fd5b806385d14834116101ab57806385d14834146107685780638b5478b9146107885780639010d07c146107a857806391d14854146107c857600080fd5b80637b2e30d6146107205780638456cb591461073357806385c00ae81461074857600080fd5b8063313ce567116102ab57806346904840116102495780634f64b2be116102235780634f64b2be146106925780635c975abb146106b257806370a08231146106ca57806379cc67901461070057600080fd5b806346904840146106135780634808285e146106525780634c5599241461067257600080fd5b806339f476931161028557806339f476931461059e5780633f4ba83a146105be57806340c10f19146105d357806342966c68146105f357600080fd5b8063313ce5671461054257806336568abe1461055e578063395093511461057e57600080fd5b80631c4a143611610318578063248a9ca3116102f2578063248a9ca3146104bf578063261c80b6146104ef5780632ca693881461050f5780632f2ff15d1461052257600080fd5b80631c4a1436146104695780631f9143821461048957806323b872dd1461049f57600080fd5b8063095ea7b311610354578063095ea7b3146103f45780630b27fb9a14610414578063158ef93e1461043357806318160ddd1461045457600080fd5b806301ffc9a71461037b57806306fdde03146103b057806307184f1c146103d2575b600080fd5b34801561038757600080fd5b5061039b61039636600461370a565b610a9e565b60405190151581526020015b60405180910390f35b3480156103bc57600080fd5b506103c5610ac9565b6040516103a791906138b5565b3480156103de57600080fd5b506103f26103ed366004613500565b610b5b565b005b34801561040057600080fd5b5061039b61040f366004613602565b610c92565b34801561042057600080fd5b506008545b6040519081526020016103a7565b34801561043f57600080fd5b5060075461039b90600160b81b900460ff1681565b34801561046057600080fd5b50600454610425565b34801561047557600080fd5b506103f2610484366004613500565b610caa565b34801561049557600080fd5b50610425600f5481565b3480156104ab57600080fd5b5061039b6104ba36600461356e565b610e99565b3480156104cb57600080fd5b506104256104da3660046136aa565b60009081526020819052604090206001015490565b3480156104fb57600080fd5b506103f261050a36600461356e565b610ebd565b6103f261051d36600461356e565b6110f7565b34801561052e57600080fd5b506103f261053d3660046136c3565b6113f9565b34801561054e57600080fd5b50604051601281526020016103a7565b34801561056a57600080fd5b506103f26105793660046136c3565b611423565b34801561058a57600080fd5b5061039b610599366004613602565b6114a1565b3480156105aa57600080fd5b506103f26105b9366004613602565b6114c3565b3480156105ca57600080fd5b506103f26116c4565b3480156105df57600080fd5b506103f26105ee366004613602565b611758565b3480156105ff57600080fd5b506103f261060e3660046136aa565b6117d3565b34801561061f57600080fd5b5060075461063a90630100000090046001600160a01b031681565b6040516001600160a01b0390911681526020016103a7565b34801561065e57600080fd5b506103f261066d36600461362e565b6117e0565b34801561067e57600080fd5b506103f261068d366004613734565b611989565b34801561069e57600080fd5b5061063a6106ad3660046136aa565b611a61565b3480156106be57600080fd5b5060075460ff1661039b565b3480156106d657600080fd5b506104256106e53660046134e3565b6001600160a01b031660009081526002602052604090205490565b34801561070c57600080fd5b506103f261071b366004613602565b611a8b565b6103f261072e3660046135af565b611aa0565b34801561073f57600080fd5b506103f2611d9d565b34801561075457600080fd5b506104256107633660046136aa565b611e2f565b34801561077457600080fd5b5061063a6107833660046136aa565b611e57565b34801561079457600080fd5b506103f26107a3366004613670565b611e67565b3480156107b457600080fd5b5061063a6107c33660046136e8565b611ea4565b3480156107d457600080fd5b5061039b6107e33660046136c3565b611ec3565b3480156107f457600080fd5b506103c5611eec565b34801561080957600080fd5b506104256108183660046136aa565b611efb565b34801561082957600080fd5b5060075461083d90610100900461ffff1681565b60405161ffff90911681526020016103a7565b34801561085c57600080fd5b50610425600081565b34801561087157600080fd5b5061039b610880366004613602565b611f2a565b34801561089157600080fd5b5061039b6108a0366004613602565b611fa5565b3480156108b157600080fd5b506108ba611fb3565b6040516103a79190613868565b3480156108d357600080fd5b50600e5461039b9060ff1681565b3480156108ed57600080fd5b506103f26108fc3660046134e3565b612014565b6103f261090f366004613602565b612060565b34801561092057600080fd5b5061039b61092f3660046134e3565b612330565b34801561094057600080fd5b506103f261094f36600461379a565b612371565b34801561096057600080fd5b5060095461063a906001600160a01b031681565b34801561098057600080fd5b5061042561098f3660046136aa565b612480565b3480156109a057600080fd5b5061042560085481565b3480156109b657600080fd5b50600754610100900461ffff1661083d565b3480156109d457600080fd5b50610425600080516020613e6183398151915281565b3480156109f657600080fd5b506103f2610a053660046136c3565b612497565b348015610a1657600080fd5b50610425610a25366004613535565b6124bc565b348015610a3657600080fd5b506104257f65d7a28e3265b37a6474929f336521b332c1681b933f6cb9f3376673440d862a81565b348015610a6a57600080fd5b506103f2610a793660046136aa565b6124e7565b348015610a8a57600080fd5b506103f2610a99366004613500565b612516565b60006001600160e01b03198216635a05180f60e01b1480610ac35750610ac38261279d565b92915050565b606060058054610ad890613d6f565b80601f0160208091040260200160405190810160405280929190818152602001828054610b0490613d6f565b8015610b515780601f10610b2657610100808354040283529160200191610b51565b820191906000526020600020905b815481529060010190602001808311610b3457829003601f168201915b5050505050905090565b6009546001600160a01b03163314610b8e5760405162461bcd60e51b8152600401610b8590613b63565b60405180910390fd5b8063ffffffff168060085410610bb65760405162461bcd60e51b8152600401610b8590613933565b600854610bc4906001613c99565b811115610be35760405162461bcd60e51b8152600401610b85906139e2565b60088190556001600160a01b038316610c645760405162461bcd60e51b815260206004820152603a60248201527f46756e6769626c65546f6b656e577261707065723a204665652052656369706960448201527f656e742063616e6e6f74206265207a65726f20616464726573730000000000006064820152608401610b85565b5050600780546001600160a01b039092166301000000026301000000600160b81b0319909216919091179055565b600033610ca08185856127d2565b5060019392505050565b6009546001600160a01b03163314610cd45760405162461bcd60e51b8152600401610b8590613b63565b8063ffffffff168060085410610cfc5760405162461bcd60e51b8152600401610b8590613933565b600854610d0a906001613c99565b811115610d295760405162461bcd60e51b8152600401610b85906139e2565b60088190556001600160a01b0383166000908152600c602052604090205460ff16610daa5760405162461bcd60e51b815260206004820152602b60248201527f46756e6769626c65546f6b656e577261707065723a20546f6b656e2073686f7560448201526a1b19081899481d985b1a5960aa1b6064820152608401610b85565b6000805b600a54811015610e0a57846001600160a01b0316600a8281548110610dd557610dd5613df1565b6000918252602090912001546001600160a01b03161415610df857809150610e0a565b80610e0281613daa565b915050610dae565b50600a548110610e6a5760405162461bcd60e51b815260206004820152602560248201527f46756e6769626c65546f6b656e577261707065723a20546f6b656e206e6f7420604482015264199bdd5b9960da1b6064820152608401610b85565b6001600160a01b0384166000908152600c60205260409020805460ff19169055610e93816128f6565b50505050565b600033610ea78582856129a6565b610eb2858585612a1a565b506001949350505050565b610ed5600080516020613e6183398151915233611ec3565b610ef15760405162461bcd60e51b8152600401610b8590613c5d565b81816001600160a01b038216610f485780471015610f215760405162461bcd60e51b8152600401610b8590613976565b600e5460ff16610f435760405162461bcd60e51b8152600401610b8590613ac2565b611017565b6040516370a0823160e01b815230600482015281906001600160a01b038416906370a082319060240160206040518083038186803b158015610f8957600080fd5b505afa158015610f9d573d6000803e3d6000fd5b505050506040513d601f19601f82011682018060405250810190610fc191906137b6565b1015610fdf5760405162461bcd60e51b8152600401610b8590613bef565b6001600160a01b0382166000908152600d602052604090205460ff166110175760405162461bcd60e51b8152600401610b85906139ad565b6110218584612bf3565b6001600160a01b03841661106b576040516001600160a01b0386169084156108fc029085906000818181858888f19350505050158015611065573d6000803e3d6000fd5b506110f0565b60405163a9059cbb60e01b81526001600160a01b0386811660048301526024820185905285169063a9059cbb906044015b602060405180830381600087803b1580156110b657600080fd5b505af11580156110ca573d6000803e3d6000fd5b505050506040513d601f19601f820116820180604052508101906110ee919061368d565b505b5050505050565b61110f600080516020613e6183398151915233611ec3565b61112b5760405162461bcd60e51b8152600401610b8590613c5d565b60075482906001600160a01b036301000000909104811690839083166111905780156111695760405162461bcd60e51b8152600401610b85906138e8565b600e5460ff1661118b5760405162461bcd60e51b8152600401610b8590613a6d565b6111e6565b34156111ae5760405162461bcd60e51b8152600401610b8590613c26565b6001600160a01b0383166000908152600c602052604090205460ff166111e65760405162461bcd60e51b8152600401610b8590613bc0565b6001600160a01b03821661120c5760405162461bcd60e51b8152600401610b8590613b1f565b61121581612d4d565b6112315760405162461bcd60e51b8152600401610b8590613a3f565b60006112516001600160a01b0387161561124b5785611e2f565b34611e2f565b905060006001600160a01b038716156112735761126e8683612dd5565b61127d565b61127d3483612dd5565b90506001600160a01b0387166112d35760075460405163010000009091046001600160a01b0316906108fc8415029084906000818181858888f193505050501580156112cd573d6000803e3d6000fd5b506113e5565b6040516323b872dd60e01b81526001600160a01b038816906323b872dd90611303908b9030908690600401613844565b602060405180830381600087803b15801561131d57600080fd5b505af1158015611331573d6000803e3d6000fd5b505050506040513d601f19601f82011682018060405250810190611355919061368d565b506007546040516323b872dd60e01b81526001600160a01b03808a16926323b872dd92611391928d926301000000900416908790600401613844565b602060405180830381600087803b1580156113ab57600080fd5b505af11580156113bf573d6000803e3d6000fd5b505050506040513d601f19601f820116820180604052508101906113e3919061368d565b505b6113ef8882612de1565b5050505050505050565b60008281526020819052604090206001015461141481612ecc565b61141e8383612ed6565b505050565b6001600160a01b03811633146114935760405162461bcd60e51b815260206004820152602f60248201527f416363657373436f6e74726f6c3a2063616e206f6e6c792072656e6f756e636560448201526e103937b632b9903337b91039b2b63360891b6064820152608401610b85565b61149d8282612ef8565b5050565b600033610ca08185856114b483836124bc565b6114be9190613c99565b6127d2565b81816001600160a01b03821661151a57804710156114f35760405162461bcd60e51b8152600401610b8590613976565b600e5460ff166115155760405162461bcd60e51b8152600401610b8590613ac2565b6115e9565b6040516370a0823160e01b815230600482015281906001600160a01b038416906370a082319060240160206040518083038186803b15801561155b57600080fd5b505afa15801561156f573d6000803e3d6000fd5b505050506040513d601f19601f8201168201806040525081019061159391906137b6565b10156115b15760405162461bcd60e51b8152600401610b8590613bef565b6001600160a01b0382166000908152600d602052604090205460ff166115e95760405162461bcd60e51b8152600401610b85906139ad565b6115f33384612bf3565b6001600160a01b03841661163457604051339084156108fc029085906000818181858888f1935050505015801561162e573d6000803e3d6000fd5b50610e93565b6001600160a01b03841663a9059cbb336040516001600160e01b031960e084901b1681526001600160a01b03909116600482015260248101869052604401602060405180830381600087803b15801561168c57600080fd5b505af11580156116a0573d6000803e3d6000fd5b505050506040513d601f19601f820116820180604052508101906110f0919061368d565b6116ee7f65d7a28e3265b37a6474929f336521b332c1681b933f6cb9f3376673440d862a33611ec3565b61174e5760405162461bcd60e51b81526020600482015260396024820152600080516020613e4183398151915260448201527f76652070617573657220726f6c6520746f20756e7061757365000000000000006064820152608401610b85565b611756612f1a565b565b611770600080516020613e6183398151915233611ec3565b6117c95760405162461bcd60e51b81526020600482015260366024820152600080516020613e418339815191526044820152751d99481b5a5b9d195c881c9bdb19481d1bc81b5a5b9d60521b6064820152608401610b85565b61149d8282612de1565b6117dd3382612bf3565b50565b82826001600160a01b03821661183757804710156118105760405162461bcd60e51b8152600401610b8590613976565b600e5460ff166118325760405162461bcd60e51b8152600401610b8590613ac2565b611906565b6040516370a0823160e01b815230600482015281906001600160a01b038416906370a082319060240160206040518083038186803b15801561187857600080fd5b505afa15801561188c573d6000803e3d6000fd5b505050506040513d601f19601f820116820180604052508101906118b091906137b6565b10156118ce5760405162461bcd60e51b8152600401610b8590613bef565b6001600160a01b0382166000908152600d602052604090205460ff166119065760405162461bcd60e51b8152600401610b85906139ad565b6119103385612bf3565b6001600160a01b038516611954576040516001600160a01b0384169085156108fc029086906000818181858888f19350505050158015611065573d6000803e3d6000fd5b60405163a9059cbb60e01b81526001600160a01b0384811660048301526024820186905286169063a9059cbb9060440161109c565b600754600160b81b900460ff16156119e35760405162461bcd60e51b815260206004820181905260248201527f496e697469616c697a65643a20416c726561647920696e697469616c697a65646044820152606401610b85565b60078054600160b81b62ffff0060ff60b81b011990911661010061ffff989098169790970296909617959095176301000000600160b81b03191663010000006001600160a01b039586160217909455600980546001600160a01b0319169290931691909117909155600f55600e805460ff1916911515919091179055565b600a8181548110611a7157600080fd5b6000918252602090912001546001600160a01b0316905081565b611a968233836129a6565b61149d8282612bf3565b611ab8600080516020613e6183398151915233611ec3565b611ad45760405162461bcd60e51b8152600401610b8590613c5d565b60075483906001600160a01b03630100000090910481169084908316611b39578015611b125760405162461bcd60e51b8152600401610b85906138e8565b600e5460ff16611b345760405162461bcd60e51b8152600401610b8590613a6d565b611b8f565b3415611b575760405162461bcd60e51b8152600401610b8590613c26565b6001600160a01b0383166000908152600c602052604090205460ff16611b8f5760405162461bcd60e51b8152600401610b8590613bc0565b6001600160a01b038216611bb55760405162461bcd60e51b8152600401610b8590613b1f565b611bbe81612d4d565b611bda5760405162461bcd60e51b8152600401610b8590613a3f565b6000611bf46001600160a01b0388161561124b5786611e2f565b905060006001600160a01b03881615611c1657611c118783612dd5565b611c20565b611c203483612dd5565b90506001600160a01b038816611c765760075460405163010000009091046001600160a01b0316906108fc8415029084906000818181858888f19350505050158015611c70573d6000803e3d6000fd5b50611d88565b6040516323b872dd60e01b81526001600160a01b038916906323b872dd90611ca6908c9030908690600401613844565b602060405180830381600087803b158015611cc057600080fd5b505af1158015611cd4573d6000803e3d6000fd5b505050506040513d601f19601f82011682018060405250810190611cf8919061368d565b506007546040516323b872dd60e01b81526001600160a01b03808b16926323b872dd92611d34928e926301000000900416908790600401613844565b602060405180830381600087803b158015611d4e57600080fd5b505af1158015611d62573d6000803e3d6000fd5b505050506040513d601f19601f82011682018060405250810190611d86919061368d565b505b611d928682612de1565b505050505050505050565b611dc77f65d7a28e3265b37a6474929f336521b332c1681b933f6cb9f3376673440d862a33611ec3565b611e275760405162461bcd60e51b81526020600482015260376024820152600080516020613e4183398151915260448201527f76652070617573657220726f6c6520746f2070617573650000000000000000006064820152608401610b85565b611756612f6c565b600754600090610ac39061271090611e51908590610100900461ffff16612fa9565b90612fb5565b600b8181548110611a7157600080fd5b6009546001600160a01b03163314611e915760405162461bcd60e51b8152600401610b8590613b63565b600e805460ff1916911515919091179055565b6000828152600160205260408120611ebc9083612fc1565b9392505050565b6000918252602082815260408084206001600160a01b0393909316845291905290205460ff1690565b606060068054610ad890613d6f565b600754600090610ac390611f1a90610100900461ffff16612710613cf2565b61ffff16611e5184612710612fa9565b60003381611f3882866124bc565b905083811015611f985760405162461bcd60e51b815260206004820152602560248201527f45524332303a2064656372656173656420616c6c6f77616e63652062656c6f77604482015264207a65726f60d81b6064820152608401610b85565b610eb282868684036127d2565b600033610ca0818585612a1a565b6060600a805480602002602001604051908101604052809291908181526020018280548015610b5157602002820191906000526020600020905b81546001600160a01b03168152600190910190602001808311611fed575050505050905090565b6009546001600160a01b0316331461203e5760405162461bcd60e51b8152600401610b8590613b63565b600980546001600160a01b0319166001600160a01b0392909216919091179055565b60075482906001600160a01b036301000000909104811690839083166120c557801561209e5760405162461bcd60e51b8152600401610b85906138e8565b600e5460ff166120c05760405162461bcd60e51b8152600401610b8590613a6d565b61211b565b34156120e35760405162461bcd60e51b8152600401610b8590613c26565b6001600160a01b0383166000908152600c602052604090205460ff1661211b5760405162461bcd60e51b8152600401610b8590613bc0565b6001600160a01b0382166121415760405162461bcd60e51b8152600401610b8590613b1f565b61214a81612d4d565b6121665760405162461bcd60e51b8152600401610b8590613a3f565b60006121806001600160a01b0387161561124b5785611e2f565b905060006001600160a01b038716156121a25761219d8683612dd5565b6121ac565b6121ac3483612dd5565b90506001600160a01b03871661220d576121c7335b82612de1565b60075460405163010000009091046001600160a01b0316906108fc8415029084906000818181858888f19350505050158015612207573d6000803e3d6000fd5b50612327565b6040516323b872dd60e01b81526001600160a01b038816906323b872dd9061223d90339030908690600401613844565b602060405180830381600087803b15801561225757600080fd5b505af115801561226b573d6000803e3d6000fd5b505050506040513d601f19601f8201168201806040525081019061228f919061368d565b506007546040516323b872dd60e01b81526001600160a01b03898116926323b872dd926122cb9233926301000000900416908790600401613844565b602060405180830381600087803b1580156122e557600080fd5b505af11580156122f9573d6000803e3d6000fd5b505050506040513d601f19601f8201168201806040525081019061231d919061368d565b50612327336121c1565b50505050505050565b60006001600160a01b03821661234b57600e5460ff16610ac3565b6001600160a01b0382166000908152600c602052604090205460ff16610ac3565b919050565b6009546001600160a01b0316331461239b5760405162461bcd60e51b8152600401610b8590613b63565b8063ffffffff1680600854106123c35760405162461bcd60e51b8152600401610b8590613933565b6008546123d1906001613c99565b8111156123f05760405162461bcd60e51b8152600401610b85906139e2565b60088190556127108361ffff1611156124605760405162461bcd60e51b815260206004820152602c60248201527f46756e6769626c65546f6b656e577261707065723a20496e76616c696420666560448201526b652070657263656e7461676560a01b6064820152608401610b85565b50506007805461ffff9092166101000262ffff0019909216919091179055565b6000818152600160205260408120610ac390612fcd565b6000828152602081905260409020600101546124b281612ecc565b61141e8383612ef8565b6001600160a01b03918216600090815260036020908152604080832093909416825291909152205490565b6009546001600160a01b031633146125115760405162461bcd60e51b8152600401610b8590613b63565b600f55565b6009546001600160a01b031633146125405760405162461bcd60e51b8152600401610b8590613b63565b8063ffffffff1680600854106125685760405162461bcd60e51b8152600401610b8590613933565b600854612576906001613c99565b8111156125955760405162461bcd60e51b8152600401610b85906139e2565b60088190556001600160a01b0383166000908152600c602052604090205460ff161561261b5760405162461bcd60e51b815260206004820152602f60248201527f46756e6769626c65546f6b656e577261707065723a20546f6b656e2073686f7560448201526e1b19081b9bdd081899481d985b1a59608a1b6064820152608401610b85565b600a8054600181019091557fc65a7bb8d6351c1cf70c95a316cc6a92839c986682d98bc35f958f4883f9d2a80180546001600160a01b0319166001600160a01b0385169081179091556000908152600d602052604090205460ff166126de57600b805460018082019092557f0175b7a638427703f0dbe7bb9bbf987a2551717b34e79f33b5b1008d1fa01db90180546001600160a01b0319166001600160a01b0386169081179091556000908152600d60205260409020805460ff191690911790555b50506001600160a01b03166000908152600c60205260409020805460ff19166001179055565b61270e8282611ec3565b61149d576000828152602081815260408083206001600160a01b03851684529091529020805460ff191660011790556127443390565b6001600160a01b0316816001600160a01b0316837f2f8788117e7eff1d82e926ec794901d17c78024a50270940304540a733656f0d60405160405180910390a45050565b6000611ebc836001600160a01b038416612fd7565b60006001600160e01b03198216637965db0b60e01b1480610ac357506301ffc9a760e01b6001600160e01b0319831614610ac3565b6001600160a01b0383166128345760405162461bcd60e51b8152602060048201526024808201527f45524332303a20617070726f76652066726f6d20746865207a65726f206164646044820152637265737360e01b6064820152608401610b85565b6001600160a01b0382166128955760405162461bcd60e51b815260206004820152602260248201527f45524332303a20617070726f766520746f20746865207a65726f206164647265604482015261737360f01b6064820152608401610b85565b6001600160a01b0383811660008181526003602090815260408083209487168084529482529182902085905590518481527f8c5be1e5ebec7d5bd14f71427d1e84f3dd0314c0f7b2291e5b200ac8c7c3b925910160405180910390a3505050565b600a805461290690600190613d15565b8154811061291657612916613df1565b600091825260209091200154600a80546001600160a01b03909216918390811061294257612942613df1565b9060005260206000200160006101000a8154816001600160a01b0302191690836001600160a01b03160217905550600a80548061298157612981613ddb565b600082815260209020810160001990810180546001600160a01b031916905501905550565b60006129b284846124bc565b90506000198114610e935781811015612a0d5760405162461bcd60e51b815260206004820152601d60248201527f45524332303a20696e73756666696369656e7420616c6c6f77616e63650000006044820152606401610b85565b610e9384848484036127d2565b6001600160a01b038316612a7e5760405162461bcd60e51b815260206004820152602560248201527f45524332303a207472616e736665722066726f6d20746865207a65726f206164604482015264647265737360d81b6064820152608401610b85565b6001600160a01b038216612ae05760405162461bcd60e51b815260206004820152602360248201527f45524332303a207472616e7366657220746f20746865207a65726f206164647260448201526265737360e81b6064820152608401610b85565b612aeb838383613026565b6001600160a01b03831660009081526002602052604090205481811015612b635760405162461bcd60e51b815260206004820152602660248201527f45524332303a207472616e7366657220616d6f756e7420657863656564732062604482015265616c616e636560d01b6064820152608401610b85565b6001600160a01b03808516600090815260026020526040808220858503905591851681529081208054849290612b9a908490613c99565b92505081905550826001600160a01b0316846001600160a01b03167fddf252ad1be2c89b69c2b068fc378daa952ba7f163c4a11628f55a4df523b3ef84604051612be691815260200190565b60405180910390a3610e93565b6001600160a01b038216612c535760405162461bcd60e51b815260206004820152602160248201527f45524332303a206275726e2066726f6d20746865207a65726f206164647265736044820152607360f81b6064820152608401610b85565b612c5f82600083613026565b6001600160a01b03821660009081526002602052604090205481811015612cd35760405162461bcd60e51b815260206004820152602260248201527f45524332303a206275726e20616d6f756e7420657863656564732062616c616e604482015261636560f01b6064820152608401610b85565b6001600160a01b0383166000908152600260205260408120838303905560048054849290612d02908490613d15565b90915550506040518281526000906001600160a01b038516907fddf252ad1be2c89b69c2b068fc378daa952ba7f163c4a11628f55a4df523b3ef9060200160405180910390a3505050565b6000600f54306001600160a01b03166318160ddd6040518163ffffffff1660e01b815260040160206040518083038186803b158015612d8b57600080fd5b505afa158015612d9f573d6000803e3d6000fd5b505050506040513d601f19601f82011682018060405250810190612dc391906137b6565b612dcd9084613c99565b111592915050565b6000611ebc8284613d15565b6001600160a01b038216612e375760405162461bcd60e51b815260206004820152601f60248201527f45524332303a206d696e7420746f20746865207a65726f2061646472657373006044820152606401610b85565b612e4360008383613026565b8060046000828254612e559190613c99565b90915550506001600160a01b03821660009081526002602052604081208054839290612e82908490613c99565b90915550506040518181526001600160a01b038316906000907fddf252ad1be2c89b69c2b068fc378daa952ba7f163c4a11628f55a4df523b3ef9060200160405180910390a35050565b6117dd8133613031565b612ee08282612704565b600082815260016020526040902061141e9082612788565b612f028282613095565b600082815260016020526040902061141e90826130fa565b612f2261310f565b6007805460ff191690557f5db9ee0a495bf2e6ff9c91a7834c1ba4fdd244a5e8aa4e537bd38aeae4b073aa335b6040516001600160a01b03909116815260200160405180910390a1565b612f74613158565b6007805460ff191660011790557f62e78cea01bee320cd4e420270b5ea74000d11b0c9f74754ebdbfc544b05a258612f4f3390565b6000611ebc8284613cd3565b6000611ebc8284613cb1565b6000611ebc838361319e565b6000610ac3825490565b600081815260018301602052604081205461301e57508154600181810184556000848152602080822090930184905584548482528286019093526040902091909155610ac3565b506000610ac3565b61141e8383836131c8565b61303b8282611ec3565b61149d57613053816001600160a01b0316601461322e565b61305e83602061322e565b60405160200161306f9291906137cf565b60408051601f198184030181529082905262461bcd60e51b8252610b85916004016138b5565b61309f8282611ec3565b1561149d576000828152602081815260408083206001600160a01b0385168085529252808320805460ff1916905551339285917ff6391f5c32d9c69d2a47ea670b442974b53935d1edc7fd64eb21e047a839171b9190a45050565b6000611ebc836001600160a01b0384166133ca565b60075460ff166117565760405162461bcd60e51b815260206004820152601460248201527314185d5cd8589b194e881b9bdd081c185d5cd95960621b6044820152606401610b85565b60075460ff16156117565760405162461bcd60e51b815260206004820152601060248201526f14185d5cd8589b194e881c185d5cd95960821b6044820152606401610b85565b60008260000182815481106131b5576131b5613df1565b9060005260206000200154905092915050565b60075460ff161561141e5760405162461bcd60e51b815260206004820152602a60248201527f45524332305061757361626c653a20746f6b656e207472616e736665722077686044820152691a5b19481c185d5cd95960b21b6064820152608401610b85565b6060600061323d836002613cd3565b613248906002613c99565b67ffffffffffffffff81111561326057613260613e07565b6040519080825280601f01601f19166020018201604052801561328a576020820181803683370190505b509050600360fc1b816000815181106132a5576132a5613df1565b60200101906001600160f81b031916908160001a905350600f60fb1b816001815181106132d4576132d4613df1565b60200101906001600160f81b031916908160001a90535060006132f8846002613cd3565b613303906001613c99565b90505b600181111561337b576f181899199a1a9b1b9c1cb0b131b232b360811b85600f166010811061333757613337613df1565b1a60f81b82828151811061334d5761334d613df1565b60200101906001600160f81b031916908160001a90535060049490941c9361337481613d58565b9050613306565b508315611ebc5760405162461bcd60e51b815260206004820181905260248201527f537472696e67733a20686578206c656e67746820696e73756666696369656e746044820152606401610b85565b600081815260018301602052604081205480156134b35760006133ee600183613d15565b855490915060009061340290600190613d15565b905081811461346757600086600001828154811061342257613422613df1565b906000526020600020015490508087600001848154811061344557613445613df1565b6000918252602080832090910192909255918252600188019052604090208390555b855486908061347857613478613ddb565b600190038181906000526020600020016000905590558560010160008681526020019081526020016000206000905560019350505050610ac3565b6000915050610ac3565b803561ffff8116811461236c57600080fd5b803563ffffffff8116811461236c57600080fd5b6000602082840312156134f557600080fd5b8135611ebc81613e1d565b6000806040838503121561351357600080fd5b823561351e81613e1d565b915061352c602084016134cf565b90509250929050565b6000806040838503121561354857600080fd5b823561355381613e1d565b9150602083013561356381613e1d565b809150509250929050565b60008060006060848603121561358357600080fd5b833561358e81613e1d565b9250602084013561359e81613e1d565b929592945050506040919091013590565b600080600080608085870312156135c557600080fd5b84356135d081613e1d565b935060208501356135e081613e1d565b92506040850135915060608501356135f781613e1d565b939692955090935050565b6000806040838503121561361557600080fd5b823561362081613e1d565b946020939093013593505050565b60008060006060848603121561364357600080fd5b833561364e81613e1d565b925060208401359150604084013561366581613e1d565b809150509250925092565b60006020828403121561368257600080fd5b8135611ebc81613e32565b60006020828403121561369f57600080fd5b8151611ebc81613e32565b6000602082840312156136bc57600080fd5b5035919050565b600080604083850312156136d657600080fd5b82359150602083013561356381613e1d565b600080604083850312156136fb57600080fd5b50508035926020909101359150565b60006020828403121561371c57600080fd5b81356001600160e01b031981168114611ebc57600080fd5b600080600080600060a0868803121561374c57600080fd5b613755866134bd565b9450602086013561376581613e1d565b9350604086013561377581613e1d565b925060608601359150608086013561378c81613e32565b809150509295509295909350565b600080604083850312156137ad57600080fd5b61351e836134bd565b6000602082840312156137c857600080fd5b5051919050565b7f416363657373436f6e74726f6c3a206163636f756e7420000000000000000000815260008351613807816017850160208801613d2c565b7001034b99036b4b9b9b4b733903937b6329607d1b6017918401918201528351613838816028840160208801613d2c565b01602801949350505050565b6001600160a01b039384168152919092166020820152604081019190915260600190565b6020808252825182820181905260009190848201906040850190845b818110156138a95783516001600160a01b031683529284019291840191600101613884565b50909695505050505050565b60208152600082518060208401526138d4816040850160208701613d2c565b601f01601f19169190910160400192915050565b6020808252602b908201527f496e76616c696420616d6f756e742070726f766964656420666f72206e61746960408201526a7665207772617070696e6760a81b606082015260800190565b60208082526023908201527f50726f706f73616c4e6f6e6365547261636b65723a20496e76616c6964206e6f6040820152626e636560e81b606082015260800190565b6020808252601b908201527f496e73756666696369656e74206e61746976652062616c616e63650000000000604082015260600190565b6020808252818101527f496e76616c696420686973746f726963616c20746f6b656e2061646472657373604082015260600190565b6020808252603a908201527f50726f706f73616c4e6f6e6365547261636b65723a204e6f6e6365206d75737460408201527f206e6f7420696e6372656d656e74206d6f7265207468616e2031000000000000606082015260800190565b602080825260149082015273125b9d985b1a59081d1bdad95b88185b5bdd5b9d60621b604082015260600190565b60208082526035908201527f4e6174697665207772617070696e67206973206e6f7420616c6c6f776564206660408201527437b9103a3434b9903a37b5b2b7103bb930b83832b960591b606082015260800190565b60208082526037908201527f4e617469766520756e7772617070696e67206973206e6f7420616c6c6f77656460408201527f20666f72207468697320746f6b656e2077726170706572000000000000000000606082015260800190565b60208082526024908201527f46656520526563697069656e742063616e6e6f74206265207a65726f206164646040820152637265737360e01b606082015260800190565b60208082526039908201527f46756e6769626c65546f6b656e577261707065723a204f6e6c792068616e646c60408201527f65722063616e2063616c6c20746869732066756e6374696f6e00000000000000606082015260800190565b602080825260159082015274496e76616c696420746f6b656e206164647265737360581b604082015260600190565b6020808252601a908201527f496e73756666696369656e742045524332302062616c616e6365000000000000604082015260600190565b6020808252601f908201527f496e76616c69642076616c75652073656e7420666f72207772617070696e6700604082015260600190565b6020808252602e90820152600080516020613e4183398151915260408201526d7665206d696e74657220726f6c6560901b606082015260800190565b60008219821115613cac57613cac613dc5565b500190565b600082613cce57634e487b7160e01b600052601260045260246000fd5b500490565b6000816000190483118215151615613ced57613ced613dc5565b500290565b600061ffff83811690831681811015613d0d57613d0d613dc5565b039392505050565b600082821015613d2757613d27613dc5565b500390565b60005b83811015613d47578181015183820152602001613d2f565b83811115610e935750506000910152565b600081613d6757613d67613dc5565b506000190190565b600181811c90821680613d8357607f821691505b60208210811415613da457634e487b7160e01b600052602260045260246000fd5b50919050565b6000600019821415613dbe57613dbe613dc5565b5060010190565b634e487b7160e01b600052601160045260246000fd5b634e487b7160e01b600052603160045260246000fd5b634e487b7160e01b600052603260045260246000fd5b634e487b7160e01b600052604160045260246000fd5b6001600160a01b03811681146117dd57600080fd5b80151581146117dd57600080fdfe45524332305072657365744d696e7465725061757365723a206d7573742068619f2df0fed2c77648de5860a4cc508cd0818c85b8b8a1ab4ceeef8d981c8956a6a2646970667358221220dafe9dfddca2e560a91ac852fde172e8c7ea834bb5a1f5723355de1269b5daca64736f6c63430008050033",
  "linkReferences": {},
  "deployedLinkReferences": {}
}