{
  "_format": "hh-sol-artifact-1",
  "contractName": "FungibleTokenWrapper",
  "sourceName": "contracts/tokens/FungibleTokenWrapper.sol",
  "abi": [
    {
      "inputs": [
        {
          "internalType": "string",
          "name": "_name",
          "type": "string"
        },
        {
          "internalType": "string",
          "name": "_symbol",
          "type": "string"
        }
      ],
      "stateMutability": "nonpayable",
      "type": "constructor"
    },
    {
      "anonymous": false,
      "inputs": [
        {
          "indexed": true,
          "internalType": "address",
          "name": "owner",
          "type": "address"
        },
        {
          "indexed": true,
          "internalType": "address",
          "name": "spender",
          "type": "address"
        },
        {
          "indexed": false,
          "internalType": "uint256",
          "name": "value",
          "type": "uint256"
        }
      ],
      "name": "Approval",
      "type": "event"
    },
    {
      "anonymous": false,
      "inputs": [
        {
          "indexed": false,
          "internalType": "address",
          "name": "_handler",
          "type": "address"
        }
      ],
      "name": "HandlerUpdated",
      "type": "event"
    },
    {
      "anonymous": false,
      "inputs": [
        {
          "indexed": false,
          "internalType": "address",
          "name": "account",
          "type": "address"
        }
      ],
      "name": "Paused",
      "type": "event"
    },
    {
      "anonymous": false,
      "inputs": [
        {
          "indexed": true,
          "internalType": "bytes32",
          "name": "role",
          "type": "bytes32"
        },
        {
          "indexed": true,
          "internalType": "bytes32",
          "name": "previousAdminRole",
          "type": "bytes32"
        },
        {
          "indexed": true,
          "internalType": "bytes32",
          "name": "newAdminRole",
          "type": "bytes32"
        }
      ],
      "name": "RoleAdminChanged",
      "type": "event"
    },
    {
      "anonymous": false,
      "inputs": [
        {
          "indexed": true,
          "internalType": "bytes32",
          "name": "role",
          "type": "bytes32"
        },
        {
          "indexed": true,
          "internalType": "address",
          "name": "account",
          "type": "address"
        },
        {
          "indexed": true,
          "internalType": "address",
          "name": "sender",
          "type": "address"
        }
      ],
      "name": "RoleGranted",
      "type": "event"
    },
    {
      "anonymous": false,
      "inputs": [
        {
          "indexed": true,
          "internalType": "bytes32",
          "name": "role",
          "type": "bytes32"
        },
        {
          "indexed": true,
          "internalType": "address",
          "name": "account",
          "type": "address"
        },
        {
          "indexed": true,
          "internalType": "address",
          "name": "sender",
          "type": "address"
        }
      ],
      "name": "RoleRevoked",
      "type": "event"
    },
    {
      "anonymous": false,
      "inputs": [
        {
          "indexed": true,
          "internalType": "address",
          "name": "from",
          "type": "address"
        },
        {
          "indexed": true,
          "internalType": "address",
          "name": "to",
          "type": "address"
        },
        {
          "indexed": false,
          "internalType": "uint256",
          "name": "value",
          "type": "uint256"
        }
      ],
      "name": "Transfer",
      "type": "event"
    },
    {
      "anonymous": false,
      "inputs": [
        {
          "indexed": false,
          "internalType": "address",
          "name": "account",
          "type": "address"
        }
      ],
      "name": "Unpaused",
      "type": "event"
    },
    {
      "inputs": [],
      "name": "DEFAULT_ADMIN_ROLE",
      "outputs": [
        {
          "internalType": "bytes32",
          "name": "",
          "type": "bytes32"
        }
      ],
      "stateMutability": "view",
      "type": "function"
    },
    {
      "inputs": [],
      "name": "MINTER_ROLE",
      "outputs": [
        {
          "internalType": "bytes32",
          "name": "",
          "type": "bytes32"
        }
      ],
      "stateMutability": "view",
      "type": "function"
    },
    {
      "inputs": [],
      "name": "PAUSER_ROLE",
      "outputs": [
        {
          "internalType": "bytes32",
          "name": "",
          "type": "bytes32"
        }
      ],
      "stateMutability": "view",
      "type": "function"
    },
    {
      "inputs": [
        {
          "internalType": "address",
          "name": "_tokenAddress",
          "type": "address"
        },
        {
          "internalType": "uint32",
          "name": "_nonce",
          "type": "uint32"
        }
      ],
      "name": "add",
      "outputs": [],
      "stateMutability": "nonpayable",
      "type": "function"
    },
    {
      "inputs": [
        {
          "internalType": "address",
          "name": "owner",
          "type": "address"
        },
        {
          "internalType": "address",
          "name": "spender",
          "type": "address"
        }
      ],
      "name": "allowance",
      "outputs": [
        {
          "internalType": "uint256",
          "name": "",
          "type": "uint256"
        }
      ],
      "stateMutability": "view",
      "type": "function"
    },
    {
      "inputs": [
        {
          "internalType": "address",
          "name": "spender",
          "type": "address"
        },
        {
          "internalType": "uint256",
          "name": "amount",
          "type": "uint256"
        }
      ],
      "name": "approve",
      "outputs": [
        {
          "internalType": "bool",
          "name": "",
          "type": "bool"
        }
      ],
      "stateMutability": "nonpayable",
      "type": "function"
    },
    {
      "inputs": [
        {
          "internalType": "address",
          "name": "account",
          "type": "address"
        }
      ],
      "name": "balanceOf",
      "outputs": [
        {
          "internalType": "uint256",
          "name": "",
          "type": "uint256"
        }
      ],
      "stateMutability": "view",
      "type": "function"
    },
    {
      "inputs": [
        {
          "internalType": "uint256",
          "name": "amount",
          "type": "uint256"
        }
      ],
      "name": "burn",
      "outputs": [],
      "stateMutability": "nonpayable",
      "type": "function"
    },
    {
      "inputs": [
        {
          "internalType": "address",
          "name": "account",
          "type": "address"
        },
        {
          "internalType": "uint256",
          "name": "amount",
          "type": "uint256"
        }
      ],
      "name": "burnFrom",
      "outputs": [],
      "stateMutability": "nonpayable",
      "type": "function"
    },
    {
      "inputs": [],
      "name": "decimals",
      "outputs": [
        {
          "internalType": "uint8",
          "name": "",
          "type": "uint8"
        }
      ],
      "stateMutability": "view",
      "type": "function"
    },
    {
      "inputs": [
        {
          "internalType": "address",
          "name": "spender",
          "type": "address"
        },
        {
          "internalType": "uint256",
          "name": "subtractedValue",
          "type": "uint256"
        }
      ],
      "name": "decreaseAllowance",
      "outputs": [
        {
          "internalType": "bool",
          "name": "",
          "type": "bool"
        }
      ],
      "stateMutability": "nonpayable",
      "type": "function"
    },
    {
      "inputs": [],
      "name": "feePercentage",
      "outputs": [
        {
          "internalType": "uint16",
          "name": "",
          "type": "uint16"
        }
      ],
      "stateMutability": "view",
      "type": "function"
    },
    {
      "inputs": [],
      "name": "feeRecipient",
      "outputs": [
        {
          "internalType": "address payable",
          "name": "",
          "type": "address"
        }
      ],
      "stateMutability": "view",
      "type": "function"
    },
    {
      "inputs": [
        {
          "internalType": "uint256",
          "name": "_deposit",
          "type": "uint256"
        }
      ],
      "name": "getAmountToWrap",
      "outputs": [
        {
          "internalType": "uint256",
          "name": "",
          "type": "uint256"
        }
      ],
      "stateMutability": "view",
      "type": "function"
    },
    {
      "inputs": [],
      "name": "getFee",
      "outputs": [
        {
          "internalType": "uint16",
          "name": "",
          "type": "uint16"
        }
      ],
      "stateMutability": "view",
      "type": "function"
    },
    {
      "inputs": [
        {
          "internalType": "uint256",
          "name": "_amountToWrap",
          "type": "uint256"
        }
      ],
      "name": "getFeeFromAmount",
      "outputs": [
        {
          "internalType": "uint256",
          "name": "",
          "type": "uint256"
        }
      ],
      "stateMutability": "view",
      "type": "function"
    },
    {
      "inputs": [],
      "name": "getProposalNonce",
      "outputs": [
        {
          "internalType": "uint256",
          "name": "",
          "type": "uint256"
        }
      ],
      "stateMutability": "view",
      "type": "function"
    },
    {
      "inputs": [
        {
          "internalType": "bytes32",
          "name": "role",
          "type": "bytes32"
        }
      ],
      "name": "getRoleAdmin",
      "outputs": [
        {
          "internalType": "bytes32",
          "name": "",
          "type": "bytes32"
        }
      ],
      "stateMutability": "view",
      "type": "function"
    },
    {
      "inputs": [
        {
          "internalType": "bytes32",
          "name": "role",
          "type": "bytes32"
        },
        {
          "internalType": "uint256",
          "name": "index",
          "type": "uint256"
        }
      ],
      "name": "getRoleMember",
      "outputs": [
        {
          "internalType": "address",
          "name": "",
          "type": "address"
        }
      ],
      "stateMutability": "view",
      "type": "function"
    },
    {
      "inputs": [
        {
          "internalType": "bytes32",
          "name": "role",
          "type": "bytes32"
        }
      ],
      "name": "getRoleMemberCount",
      "outputs": [
        {
          "internalType": "uint256",
          "name": "",
          "type": "uint256"
        }
      ],
      "stateMutability": "view",
      "type": "function"
    },
    {
      "inputs": [],
      "name": "getTokens",
      "outputs": [
        {
          "internalType": "address[]",
          "name": "",
          "type": "address[]"
        }
      ],
      "stateMutability": "view",
      "type": "function"
    },
    {
      "inputs": [
        {
          "internalType": "bytes32",
          "name": "role",
          "type": "bytes32"
        },
        {
          "internalType": "address",
          "name": "account",
          "type": "address"
        }
      ],
      "name": "grantRole",
      "outputs": [],
      "stateMutability": "nonpayable",
      "type": "function"
    },
    {
      "inputs": [],
      "name": "handler",
      "outputs": [
        {
          "internalType": "address",
          "name": "",
          "type": "address"
        }
      ],
      "stateMutability": "view",
      "type": "function"
    },
    {
      "inputs": [
        {
          "internalType": "bytes32",
          "name": "role",
          "type": "bytes32"
        },
        {
          "internalType": "address",
          "name": "account",
          "type": "address"
        }
      ],
      "name": "hasRole",
      "outputs": [
        {
          "internalType": "bool",
          "name": "",
          "type": "bool"
        }
      ],
      "stateMutability": "view",
      "type": "function"
    },
    {
      "inputs": [
        {
          "internalType": "uint256",
          "name": "",
          "type": "uint256"
        }
      ],
      "name": "historicalTokens",
      "outputs": [
        {
          "internalType": "address",
          "name": "",
          "type": "address"
        }
      ],
      "stateMutability": "view",
      "type": "function"
    },
    {
      "inputs": [
        {
          "internalType": "address",
          "name": "",
          "type": "address"
        }
      ],
      "name": "historicallyValid",
      "outputs": [
        {
          "internalType": "bool",
          "name": "",
          "type": "bool"
        }
      ],
      "stateMutability": "view",
      "type": "function"
    },
    {
      "inputs": [
        {
          "internalType": "address",
          "name": "spender",
          "type": "address"
        },
        {
          "internalType": "uint256",
          "name": "addedValue",
          "type": "uint256"
        }
      ],
      "name": "increaseAllowance",
      "outputs": [
        {
          "internalType": "bool",
          "name": "",
          "type": "bool"
        }
      ],
      "stateMutability": "nonpayable",
      "type": "function"
    },
    {
      "inputs": [
        {
          "internalType": "uint16",
          "name": "_feePercentage",
          "type": "uint16"
        },
        {
          "internalType": "address",
          "name": "_feeRecipient",
          "type": "address"
        },
        {
          "internalType": "address",
          "name": "_handler",
          "type": "address"
        },
        {
          "internalType": "uint256",
          "name": "_limit",
          "type": "uint256"
        },
        {
          "internalType": "bool",
          "name": "_isNativeAllowed",
          "type": "bool"
        },
        {
          "internalType": "address",
          "name": "_admin",
          "type": "address"
        }
      ],
      "name": "initialize",
      "outputs": [],
      "stateMutability": "nonpayable",
      "type": "function"
    },
    {
      "inputs": [],
      "name": "initialized",
      "outputs": [
        {
          "internalType": "bool",
          "name": "",
          "type": "bool"
        }
      ],
      "stateMutability": "view",
      "type": "function"
    },
    {
      "inputs": [],
      "name": "isNativeAllowed",
      "outputs": [
        {
          "internalType": "bool",
          "name": "",
          "type": "bool"
        }
      ],
      "stateMutability": "view",
      "type": "function"
    },
    {
      "inputs": [
        {
          "internalType": "address",
          "name": "tokenAddress",
          "type": "address"
        }
      ],
      "name": "isValidToken",
      "outputs": [
        {
          "internalType": "bool",
          "name": "",
          "type": "bool"
        }
      ],
      "stateMutability": "view",
      "type": "function"
    },
    {
      "inputs": [
        {
          "internalType": "address",
          "name": "to",
          "type": "address"
        },
        {
          "internalType": "uint256",
          "name": "amount",
          "type": "uint256"
        }
      ],
      "name": "mint",
      "outputs": [],
      "stateMutability": "nonpayable",
      "type": "function"
    },
    {
      "inputs": [],
      "name": "name",
      "outputs": [
        {
          "internalType": "string",
          "name": "",
          "type": "string"
        }
      ],
      "stateMutability": "view",
      "type": "function"
    },
    {
      "inputs": [],
      "name": "pause",
      "outputs": [],
      "stateMutability": "nonpayable",
      "type": "function"
    },
    {
      "inputs": [],
      "name": "paused",
      "outputs": [
        {
          "internalType": "bool",
          "name": "",
          "type": "bool"
        }
      ],
      "stateMutability": "view",
      "type": "function"
    },
    {
      "inputs": [],
      "name": "proposalNonce",
      "outputs": [
        {
          "internalType": "uint256",
          "name": "",
          "type": "uint256"
        }
      ],
      "stateMutability": "view",
      "type": "function"
    },
    {
      "inputs": [
        {
          "internalType": "address",
          "name": "_tokenAddress",
          "type": "address"
        },
        {
          "internalType": "uint32",
          "name": "_nonce",
          "type": "uint32"
        }
      ],
      "name": "remove",
      "outputs": [],
      "stateMutability": "nonpayable",
      "type": "function"
    },
    {
      "inputs": [
        {
          "internalType": "bytes32",
          "name": "role",
          "type": "bytes32"
        },
        {
          "internalType": "address",
          "name": "account",
          "type": "address"
        }
      ],
      "name": "renounceRole",
      "outputs": [],
      "stateMutability": "nonpayable",
      "type": "function"
    },
    {
      "inputs": [
        {
          "internalType": "bytes32",
          "name": "role",
          "type": "bytes32"
        },
        {
          "internalType": "address",
          "name": "account",
          "type": "address"
        }
      ],
      "name": "revokeRole",
      "outputs": [],
      "stateMutability": "nonpayable",
      "type": "function"
    },
    {
      "inputs": [
        {
          "internalType": "uint16",
          "name": "_feePercentage",
          "type": "uint16"
        },
        {
          "internalType": "uint32",
          "name": "_nonce",
          "type": "uint32"
        }
      ],
      "name": "setFee",
      "outputs": [],
      "stateMutability": "nonpayable",
      "type": "function"
    },
    {
      "inputs": [
        {
          "internalType": "address payable",
          "name": "_feeRecipient",
          "type": "address"
        },
        {
          "internalType": "uint32",
          "name": "_nonce",
          "type": "uint32"
        }
      ],
      "name": "setFeeRecipient",
      "outputs": [],
      "stateMutability": "nonpayable",
      "type": "function"
    },
    {
      "inputs": [
        {
          "internalType": "address",
          "name": "_handler",
          "type": "address"
        }
      ],
      "name": "setHandler",
      "outputs": [],
      "stateMutability": "nonpayable",
      "type": "function"
    },
    {
      "inputs": [
        {
          "internalType": "bool",
          "name": "_isNativeAllowed",
          "type": "bool"
        }
      ],
      "name": "setNativeAllowed",
      "outputs": [],
      "stateMutability": "nonpayable",
      "type": "function"
    },
    {
      "inputs": [
        {
          "internalType": "bytes4",
          "name": "interfaceId",
          "type": "bytes4"
        }
      ],
      "name": "supportsInterface",
      "outputs": [
        {
          "internalType": "bool",
          "name": "",
          "type": "bool"
        }
      ],
      "stateMutability": "view",
      "type": "function"
    },
    {
      "inputs": [],
      "name": "symbol",
      "outputs": [
        {
          "internalType": "string",
          "name": "",
          "type": "string"
        }
      ],
      "stateMutability": "view",
      "type": "function"
    },
    {
      "inputs": [
        {
          "internalType": "uint256",
          "name": "",
          "type": "uint256"
        }
      ],
      "name": "tokens",
      "outputs": [
        {
          "internalType": "address",
          "name": "",
          "type": "address"
        }
      ],
      "stateMutability": "view",
      "type": "function"
    },
    {
      "inputs": [],
      "name": "totalSupply",
      "outputs": [
        {
          "internalType": "uint256",
          "name": "",
          "type": "uint256"
        }
      ],
      "stateMutability": "view",
      "type": "function"
    },
    {
      "inputs": [
        {
          "internalType": "address",
          "name": "to",
          "type": "address"
        },
        {
          "internalType": "uint256",
          "name": "amount",
          "type": "uint256"
        }
      ],
      "name": "transfer",
      "outputs": [
        {
          "internalType": "bool",
          "name": "",
          "type": "bool"
        }
      ],
      "stateMutability": "nonpayable",
      "type": "function"
    },
    {
      "inputs": [
        {
          "internalType": "address",
          "name": "from",
          "type": "address"
        },
        {
          "internalType": "address",
          "name": "to",
          "type": "address"
        },
        {
          "internalType": "uint256",
          "name": "amount",
          "type": "uint256"
        }
      ],
      "name": "transferFrom",
      "outputs": [
        {
          "internalType": "bool",
          "name": "",
          "type": "bool"
        }
      ],
      "stateMutability": "nonpayable",
      "type": "function"
    },
    {
      "inputs": [],
      "name": "unpause",
      "outputs": [],
      "stateMutability": "nonpayable",
      "type": "function"
    },
    {
      "inputs": [
        {
          "internalType": "address",
          "name": "tokenAddress",
          "type": "address"
        },
        {
          "internalType": "uint256",
          "name": "amount",
          "type": "uint256"
        }
      ],
      "name": "unwrap",
      "outputs": [],
      "stateMutability": "nonpayable",
      "type": "function"
    },
    {
      "inputs": [
        {
          "internalType": "address",
          "name": "tokenAddress",
          "type": "address"
        },
        {
          "internalType": "uint256",
          "name": "amount",
          "type": "uint256"
        },
        {
          "internalType": "address",
          "name": "recipient",
          "type": "address"
        }
      ],
      "name": "unwrapAndSendTo",
      "outputs": [],
      "stateMutability": "nonpayable",
      "type": "function"
    },
    {
      "inputs": [
        {
          "internalType": "address",
          "name": "sender",
          "type": "address"
        },
        {
          "internalType": "address",
          "name": "tokenAddress",
          "type": "address"
        },
        {
          "internalType": "uint256",
          "name": "amount",
          "type": "uint256"
        }
      ],
      "name": "unwrapFor",
      "outputs": [],
      "stateMutability": "nonpayable",
      "type": "function"
    },
    {
      "inputs": [
        {
          "internalType": "uint256",
          "name": "_limit",
          "type": "uint256"
        }
      ],
      "name": "updateLimit",
      "outputs": [],
      "stateMutability": "nonpayable",
      "type": "function"
    },
    {
      "inputs": [
        {
          "internalType": "address",
          "name": "",
          "type": "address"
        }
      ],
      "name": "valid",
      "outputs": [
        {
          "internalType": "bool",
          "name": "",
          "type": "bool"
        }
      ],
      "stateMutability": "view",
      "type": "function"
    },
    {
      "inputs": [
        {
          "internalType": "address",
          "name": "tokenAddress",
          "type": "address"
        },
        {
          "internalType": "uint256",
          "name": "amount",
          "type": "uint256"
        }
      ],
      "name": "wrap",
      "outputs": [],
      "stateMutability": "payable",
      "type": "function"
    },
    {
      "inputs": [
        {
          "internalType": "address",
          "name": "sender",
          "type": "address"
        },
        {
          "internalType": "address",
          "name": "tokenAddress",
          "type": "address"
        },
        {
          "internalType": "uint256",
          "name": "amount",
          "type": "uint256"
        }
      ],
      "name": "wrapFor",
      "outputs": [],
      "stateMutability": "payable",
      "type": "function"
    },
    {
      "inputs": [
        {
          "internalType": "address",
          "name": "sender",
          "type": "address"
        },
        {
          "internalType": "address",
          "name": "tokenAddress",
          "type": "address"
        },
        {
          "internalType": "uint256",
          "name": "amount",
          "type": "uint256"
        },
        {
          "internalType": "address",
          "name": "recipient",
          "type": "address"
        }
      ],
      "name": "wrapForAndSendTo",
      "outputs": [],
      "stateMutability": "payable",
      "type": "function"
    },
    {
      "inputs": [],
      "name": "wrappingLimit",
      "outputs": [
        {
          "internalType": "uint256",
          "name": "",
          "type": "uint256"
        }
      ],
      "stateMutability": "view",
      "type": "function"
    }
  ],
  "bytecode": "0x60806040523480156200001157600080fd5b506040516200435c3803806200435c8339810160408190526200003491620002ed565b8181818181816006620000488382620003e5565b506007620000578282620003e5565b50506008805460ff191690555062000071600033620000db565b6200009d7f9f2df0fed2c77648de5860a4cc508cd0818c85b8b8a1ab4ceeef8d981c8956a633620000db565b620000c97f65d7a28e3265b37a6474929f336521b332c1681b933f6cb9f3376673440d862a33620000db565b5050600160095550620004b192505050565b620000e78282620000eb565b5050565b6200010282826200012e60201b6200219a1760201c565b60008281526002602090815260409091206200012991839062002205620001b6821b17901c565b505050565b60008281526001602090815260408083206001600160a01b038516845290915290205460ff16620000e75760008281526001602081815260408084206001600160a01b0386168086529252808420805460ff19169093179092559051339285917f2f8788117e7eff1d82e926ec794901d17c78024a50270940304540a733656f0d9190a45050565b6000620001cd836001600160a01b038416620001d6565b90505b92915050565b60008181526001830160205260408120546200021f57508154600181810184556000848152602080822090930184905584548482528286019093526040902091909155620001d0565b506000620001d0565b634e487b7160e01b600052604160045260246000fd5b600082601f8301126200025057600080fd5b81516001600160401b03808211156200026d576200026d62000228565b604051601f8301601f19908116603f0116810190828211818310171562000298576200029862000228565b81604052838152602092508683858801011115620002b557600080fd5b600091505b83821015620002d95785820183015181830184015290820190620002ba565b600093810190920192909252949350505050565b600080604083850312156200030157600080fd5b82516001600160401b03808211156200031957600080fd5b62000327868387016200023e565b935060208501519150808211156200033e57600080fd5b506200034d858286016200023e565b9150509250929050565b600181811c908216806200036c57607f821691505b6020821081036200038d57634e487b7160e01b600052602260045260246000fd5b50919050565b601f8211156200012957600081815260208120601f850160051c81016020861015620003bc5750805b601f850160051c820191505b81811015620003dd57828155600101620003c8565b505050505050565b81516001600160401b0381111562000401576200040162000228565b620004198162000412845462000357565b8462000393565b602080601f831160018114620004515760008415620004385750858301515b600019600386901b1c1916600185901b178555620003dd565b600085815260208120601f198616915b82811015620004825788860151825594840194600190910190840162000461565b5085821015620004a15787850151600019600388901b60f8161c191681555b5050505050600190811b01905550565b613e9b80620004c16000396000f3fe60806040526004361061038c5760003560e01c806385c00ae8116101dc578063bac426d011610102578063ced72f87116100a0578063e63ab1e91161006f578063e63ab1e914610a6f578063f63ebb4514610a91578063fae0959a14610ab1578063fc97a65214610ad157600080fd5b8063ced72f87146109f4578063d539139314610a0d578063d547741f14610a2f578063dd62ed3e14610a4f57600080fd5b8063c2ae4720116100dc578063c2ae47201461097e578063c80916d41461099e578063ca15c873146109be578063cc3c74a1146109de57600080fd5b8063bac426d01461092b578063bf376c7a1461094b578063c18764531461095e57600080fd5b8063a001ecdd1161017a578063aa6ca80811610149578063aa6ca8081461088f578063ac8a260c146108b1578063b1cba258146108e1578063b3e4083f1461091157600080fd5b8063a001ecdd1461080c578063a217fddf1461083a578063a457c2d71461084f578063a9059cbb1461086f57600080fd5b80639010d07c116101b65780639010d07c1461079757806391d14854146107b757806395d89b41146107d757806396cd4dfe146107ec57600080fd5b806385c00ae81461073757806385d14834146107575780638b5478b91461077757600080fd5b8063313ce567116102c1578063469048401161025f57806370a082311161022e57806370a08231146106b957806379cc6790146106ef5780637b2e30d61461070f5780638456cb591461072257600080fd5b806346904840146106235780634808285e146106615780634f64b2be146106815780635c975abb146106a157600080fd5b806339f476931161029b57806339f47693146105ae5780633f4ba83a146105ce57806340c10f19146105e357806342966c681461060357600080fd5b8063313ce5671461055257806336568abe1461056e578063395093511461058e57600080fd5b80631c4a14361161032e578063248a9ca311610308578063248a9ca3146104ce578063261c80b6146104ff5780632ca693881461051f5780632f2ff15d1461053257600080fd5b80631c4a1436146104785780631f9143821461049857806323b872dd146104ae57600080fd5b8063095ea7b31161036a578063095ea7b31461040a5780630b27fb9a1461042a578063158ef93e1461044957806318160ddd1461046357600080fd5b806301ffc9a71461039157806306fdde03146103c657806307184f1c146103e8575b600080fd5b34801561039d57600080fd5b506103b16103ac3660046133aa565b610af1565b60405190151581526020015b60405180910390f35b3480156103d257600080fd5b506103db610b1c565b6040516103bd91906133f8565b3480156103f457600080fd5b50610408610403366004613454565b610bae565b005b34801561041657600080fd5b506103b1610425366004613489565b610ce3565b34801561043657600080fd5b50600b545b6040519081526020016103bd565b34801561045557600080fd5b506000546103b19060ff1681565b34801561046f57600080fd5b5060055461043b565b34801561048457600080fd5b50610408610493366004613454565b610cfb565b3480156104a457600080fd5b5061043b60125481565b3480156104ba57600080fd5b506103b16104c93660046134b5565b610ee9565b3480156104da57600080fd5b5061043b6104e93660046134f6565b6000908152600160208190526040909120015490565b34801561050b57600080fd5b5061040861051a3660046134b5565b610f0d565b61040861052d3660046134b5565b61107d565b34801561053e57600080fd5b5061040861054d36600461350f565b6111d7565b34801561055e57600080fd5b50604051601281526020016103bd565b34801561057a57600080fd5b5061040861058936600461350f565b6111fd565b34801561059a57600080fd5b506103b16105a9366004613489565b61127b565b3480156105ba57600080fd5b506104086105c9366004613489565b61129d565b3480156105da57600080fd5b506104086113d4565b3480156105ef57600080fd5b506104086105fe366004613489565b611468565b34801561060f57600080fd5b5061040861061e3660046134f6565b6114f5565b34801561062f57600080fd5b50600a54610649906201000090046001600160a01b031681565b6040516001600160a01b0390911681526020016103bd565b34801561066d57600080fd5b5061040861067c36600461353f565b611502565b34801561068d57600080fd5b5061064961069c3660046134f6565b61162d565b3480156106ad57600080fd5b5060085460ff166103b1565b3480156106c557600080fd5b5061043b6106d4366004613581565b6001600160a01b031660009081526003602052604090205490565b3480156106fb57600080fd5b5061040861070a366004613489565b611657565b61040861071d36600461359e565b61166c565b34801561072e57600080fd5b506104086117c6565b34801561074357600080fd5b5061043b6107523660046134f6565b611858565b34801561076357600080fd5b506106496107723660046134f6565b61187a565b34801561078357600080fd5b506104086107923660046135ff565b61188a565b3480156107a357600080fd5b506106496107b236600461361c565b6118c7565b3480156107c357600080fd5b506103b16107d236600461350f565b6118e6565b3480156107e357600080fd5b506103db611911565b3480156107f857600080fd5b5061043b6108073660046134f6565b611920565b34801561081857600080fd5b50600a546108279061ffff1681565b60405161ffff90911681526020016103bd565b34801561084657600080fd5b5061043b600081565b34801561085b57600080fd5b506103b161086a366004613489565b611946565b34801561087b57600080fd5b506103b161088a366004613489565b6119c1565b34801561089b57600080fd5b506108a46119cf565b6040516103bd919061363e565b3480156108bd57600080fd5b506103b16108cc366004613581565b600f6020526000908152604090205460ff1681565b3480156108ed57600080fd5b506103b16108fc366004613581565b60106020526000908152604090205460ff1681565b34801561091d57600080fd5b506011546103b19060ff1681565b34801561093757600080fd5b50610408610946366004613581565b611a30565b610408610959366004613489565b611ad4565b34801561096a57600080fd5b506103b1610979366004613581565b611bfa565b34801561098a57600080fd5b5061040861099936600461369d565b611c3b565b3480156109aa57600080fd5b50600c54610649906001600160a01b031681565b3480156109ca57600080fd5b5061043b6109d93660046134f6565b611d43565b3480156109ea57600080fd5b5061043b600b5481565b348015610a0057600080fd5b50600a5461ffff16610827565b348015610a1957600080fd5b5061043b600080516020613e4683398151915281565b348015610a3b57600080fd5b50610408610a4a36600461350f565b611d5a565b348015610a5b57600080fd5b5061043b610a6a3660046136b9565b611d80565b348015610a7b57600080fd5b5061043b600080516020613e2683398151915281565b348015610a9d57600080fd5b50610408610aac3660046136e7565b611dab565b348015610abd57600080fd5b50610408610acc3660046134f6565b611f7d565b348015610add57600080fd5b50610408610aec366004613454565b611fac565b60006001600160e01b03198216635a05180f60e01b1480610b165750610b168261221a565b92915050565b606060068054610b2b9061375e565b80601f0160208091040260200160405190810160405280929190818152602001828054610b579061375e565b8015610ba45780601f10610b7957610100808354040283529160200191610ba4565b820191906000526020600020905b815481529060010190602001808311610b8757829003601f168201915b5050505050905090565b600c546001600160a01b03163314610be15760405162461bcd60e51b8152600401610bd890613798565b60405180910390fd5b8063ffffffff1680600b5410610c095760405162461bcd60e51b8152600401610bd8906137f5565b600b54610c1790600161384e565b811115610c365760405162461bcd60e51b8152600401610bd890613861565b600b8190556001600160a01b038316610cb75760405162461bcd60e51b815260206004820152603a60248201527f46756e6769626c65546f6b656e577261707065723a204665652052656369706960448201527f656e742063616e6e6f74206265207a65726f20616464726573730000000000006064820152608401610bd8565b5050600a80546001600160a01b03909216620100000262010000600160b01b0319909216919091179055565b600033610cf181858561224f565b5060019392505050565b600c546001600160a01b03163314610d255760405162461bcd60e51b8152600401610bd890613798565b8063ffffffff1680600b5410610d4d5760405162461bcd60e51b8152600401610bd8906137f5565b600b54610d5b90600161384e565b811115610d7a5760405162461bcd60e51b8152600401610bd890613861565b600b8190556001600160a01b0383166000908152600f602052604090205460ff16610dfb5760405162461bcd60e51b815260206004820152602b60248201527f46756e6769626c65546f6b656e577261707065723a20546f6b656e2073686f7560448201526a1b19081899481d985b1a5960aa1b6064820152608401610bd8565b6000805b600d54811015610e5a57846001600160a01b0316600d8281548110610e2657610e266138be565b6000918252602090912001546001600160a01b031603610e4857809150610e5a565b80610e52816138d4565b915050610dff565b50600d548110610eba5760405162461bcd60e51b815260206004820152602560248201527f46756e6769626c65546f6b656e577261707065723a20546f6b656e206e6f7420604482015264199bdd5b9960da1b6064820152608401610bd8565b6001600160a01b0384166000908152600f60205260409020805460ff19169055610ee381612373565b50505050565b600033610ef7858285612423565b610f02858585612497565b506001949350505050565b610f1561264d565b610f2d600080516020613e46833981519152336118e6565b610f495760405162461bcd60e51b8152600401610bd8906138ed565b81816001600160a01b038216610fa05780471015610f795760405162461bcd60e51b8152600401610bd890613930565b60115460ff16610f9b5760405162461bcd60e51b8152600401610bd890613979565b611060565b6040516370a0823160e01b815230600482015281906001600160a01b038416906370a0823190602401602060405180830381865afa158015610fe6573d6000803e3d6000fd5b505050506040513d601f19601f8201168201806040525081019061100a91906139e4565b10156110285760405162461bcd60e51b8152600401610bd8906139fd565b6001600160a01b03821660009081526010602052604090205460ff166110605760405162461bcd60e51b8152600401610bd890613a45565b61106c858585886126a6565b50506110786001600955565b505050565b61108561264d565b61109d600080516020613e46833981519152336118e6565b6110b95760405162461bcd60e51b8152600401610bd8906138ed565b600a5482906001600160a01b03620100009091048116908390831661111d5780156110f65760405162461bcd60e51b8152600401610bd890613a93565b60115460ff166111185760405162461bcd60e51b8152600401610bd890613af0565b611173565b341561113b5760405162461bcd60e51b8152600401610bd890613b59565b6001600160a01b0383166000908152600f602052604090205460ff166111735760405162461bcd60e51b8152600401610bd890613ba6565b6001600160a01b0382166111995760405162461bcd60e51b8152600401610bd890613be9565b6111a28161270e565b6111be5760405162461bcd60e51b8152600401610bd890613c3b565b6111ca86868689612787565b5050506110786001600955565b600082815260016020819052604090912001546111f381612872565b611078838361287c565b6001600160a01b038116331461126d5760405162461bcd60e51b815260206004820152602f60248201527f416363657373436f6e74726f6c3a2063616e206f6e6c792072656e6f756e636560448201526e103937b632b9903337b91039b2b63360891b6064820152608401610bd8565b611277828261289e565b5050565b600033610cf181858561128e8383611d80565b611298919061384e565b61224f565b6112a561264d565b81816001600160a01b0382166112fc57804710156112d55760405162461bcd60e51b8152600401610bd890613930565b60115460ff166112f75760405162461bcd60e51b8152600401610bd890613979565b6113bc565b6040516370a0823160e01b815230600482015281906001600160a01b038416906370a0823190602401602060405180830381865afa158015611342573d6000803e3d6000fd5b505050506040513d601f19601f8201168201806040525081019061136691906139e4565b10156113845760405162461bcd60e51b8152600401610bd8906139fd565b6001600160a01b03821660009081526010602052604090205460ff166113bc5760405162461bcd60e51b8152600401610bd890613a45565b6113c8338585336126a6565b50506112776001600955565b6113ec600080516020613e26833981519152336118e6565b61145e5760405162461bcd60e51b815260206004820152603960248201527f45524332305072657365744d696e7465725061757365723a206d75737420686160448201527f76652070617573657220726f6c6520746f20756e7061757365000000000000006064820152608401610bd8565b6114666128c0565b565b611480600080516020613e46833981519152336118e6565b6114eb5760405162461bcd60e51b815260206004820152603660248201527f45524332305072657365744d696e7465725061757365723a206d7573742068616044820152751d99481b5a5b9d195c881c9bdb19481d1bc81b5a5b9d60521b6064820152608401610bd8565b6112778282612912565b6114ff33826129df565b50565b61150a61264d565b82826001600160a01b038216611561578047101561153a5760405162461bcd60e51b8152600401610bd890613930565b60115460ff1661155c5760405162461bcd60e51b8152600401610bd890613979565b611621565b6040516370a0823160e01b815230600482015281906001600160a01b038416906370a0823190602401602060405180830381865afa1580156115a7573d6000803e3d6000fd5b505050506040513d601f19601f820116820180604052508101906115cb91906139e4565b10156115e95760405162461bcd60e51b8152600401610bd8906139fd565b6001600160a01b03821660009081526010602052604090205460ff166116215760405162461bcd60e51b8152600401610bd890613a45565b61106c338686866126a6565b600d818154811061163d57600080fd5b6000918252602090912001546001600160a01b0316905081565b611662823383612423565b61127782826129df565b61167461264d565b61168c600080516020613e46833981519152336118e6565b6116a85760405162461bcd60e51b8152600401610bd8906138ed565b600a5483906001600160a01b03620100009091048116908490831661170c5780156116e55760405162461bcd60e51b8152600401610bd890613a93565b60115460ff166117075760405162461bcd60e51b8152600401610bd890613af0565b611762565b341561172a5760405162461bcd60e51b8152600401610bd890613b59565b6001600160a01b0383166000908152600f602052604090205460ff166117625760405162461bcd60e51b8152600401610bd890613ba6565b6001600160a01b0382166117885760405162461bcd60e51b8152600401610bd890613be9565b6117918161270e565b6117ad5760405162461bcd60e51b8152600401610bd890613c3b565b6117b987878787612787565b505050610ee36001600955565b6117de600080516020613e26833981519152336118e6565b6118505760405162461bcd60e51b815260206004820152603760248201527f45524332305072657365744d696e7465725061757365723a206d75737420686160448201527f76652070617573657220726f6c6520746f2070617573650000000000000000006064820152608401610bd8565b611466612b1f565b600a54600090612710906118709061ffff1684613c7d565b610b169190613c94565b600e818154811061163d57600080fd5b600c546001600160a01b031633146118b45760405162461bcd60e51b8152600401610bd890613798565b6011805460ff1916911515919091179055565b60008281526002602052604081206118df9083612b5c565b9392505050565b60009182526001602090815260408084206001600160a01b0393909316845291905290205460ff1690565b606060078054610b2b9061375e565b600a546000906119369061ffff16612710613cb6565b61ffff1661187083612710613c7d565b600033816119548286611d80565b9050838110156119b45760405162461bcd60e51b815260206004820152602560248201527f45524332303a2064656372656173656420616c6c6f77616e63652062656c6f77604482015264207a65726f60d81b6064820152608401610bd8565b610f02828686840361224f565b600033610cf1818585612497565b6060600d805480602002602001604051908101604052809291908181526020018280548015610ba457602002820191906000526020600020905b81546001600160a01b03168152600190910190602001808311611a09575050505050905090565b600c546001600160a01b03163314611a5a5760405162461bcd60e51b8152600401610bd890613798565b6001600160a01b038116611a805760405162461bcd60e51b8152600401610bd890613cd1565b600c80546001600160a01b0319166001600160a01b0383169081179091556040519081527ffe149843a4404b43699d446c99c9be2d7a5bfc8bd66e15ca4cfad5ca2811dd9b9060200160405180910390a150565b611adc61264d565b600a5482906001600160a01b036201000090910481169083908316611b40578015611b195760405162461bcd60e51b8152600401610bd890613a93565b60115460ff16611b3b5760405162461bcd60e51b8152600401610bd890613af0565b611b96565b3415611b5e5760405162461bcd60e51b8152600401610bd890613b59565b6001600160a01b0383166000908152600f602052604090205460ff16611b965760405162461bcd60e51b8152600401610bd890613ba6565b6001600160a01b038216611bbc5760405162461bcd60e51b8152600401610bd890613be9565b611bc58161270e565b611be15760405162461bcd60e51b8152600401610bd890613c3b565b611bed33868633612787565b5050506112776001600955565b60006001600160a01b038216611c155760115460ff16610b16565b6001600160a01b0382166000908152600f602052604090205460ff16610b16565b919050565b600c546001600160a01b03163314611c655760405162461bcd60e51b8152600401610bd890613798565b8063ffffffff1680600b5410611c8d5760405162461bcd60e51b8152600401610bd8906137f5565b600b54611c9b90600161384e565b811115611cba5760405162461bcd60e51b8152600401610bd890613861565b600b81905561271061ffff841610611d295760405162461bcd60e51b815260206004820152602c60248201527f46756e6769626c65546f6b656e577261707065723a20496e76616c696420666560448201526b652070657263656e7461676560a01b6064820152608401610bd8565b5050600a805461ffff191661ffff92909216919091179055565b6000818152600260205260408120610b1690612b68565b60008281526001602081905260409091200154611d7681612872565b611078838361289e565b6001600160a01b03918216600090815260046020908152604080832093909416825291909152205490565b60005460ff1615611dfe5760405162461bcd60e51b815260206004820181905260248201527f496e697469616c697a65643a20416c726561647920696e697469616c697a65646044820152606401610bd8565b6001600160a01b038516611e735760405162461bcd60e51b815260206004820152603660248201527f46756e6769626c65546f6b656e577261707065723a20466565205265636970696044820152750656e7420416464726573732063616e277420626520360541b6064820152608401610bd8565b6001600160a01b038416611e995760405162461bcd60e51b8152600401610bd890613cd1565b6001600160a01b038116611f065760405162461bcd60e51b815260206004820152602e60248201527f46756e6769626c65546f6b656e577261707065723a2041646d696e204164647260448201526d06573732063616e277420626520360941b6064820152608401610bd8565b611f0f81612b72565b5060008054600160ff1991821617909155600a805461ffff979097166001600160b01b031990971696909617620100006001600160a01b039687160217909555600c80546001600160a01b031916939094169290921790925560129190915560118054909216901515179055565b600c546001600160a01b03163314611fa75760405162461bcd60e51b8152600401610bd890613798565b601255565b600c546001600160a01b03163314611fd65760405162461bcd60e51b8152600401610bd890613798565b8063ffffffff1680600b5410611ffe5760405162461bcd60e51b8152600401610bd8906137f5565b600b5461200c90600161384e565b81111561202b5760405162461bcd60e51b8152600401610bd890613861565b600b8190556001600160a01b0383166000908152600f602052604090205460ff16156120b15760405162461bcd60e51b815260206004820152602f60248201527f46756e6769626c65546f6b656e577261707065723a20546f6b656e2073686f7560448201526e1b19081b9bdd081899481d985b1a59608a1b6064820152608401610bd8565b600d8054600181019091557fd7b6990105719101dabeb77144f2a3385c8033acd3af97e9423a695e81ad1eb50180546001600160a01b0319166001600160a01b03851690811790915560009081526010602052604090205460ff1661217457600e805460018082019092557fbb7b4a454dc3493923482f07822329ed19e8244eff582cc204f8554c3620c3fd0180546001600160a01b0319166001600160a01b0386169081179091556000908152601060205260409020805460ff191690911790555b50506001600160a01b03166000908152600f60205260409020805460ff19166001179055565b6121a482826118e6565b6112775760008281526001602081815260408084206001600160a01b0386168086529252808420805460ff19169093179092559051339285917f2f8788117e7eff1d82e926ec794901d17c78024a50270940304540a733656f0d9190a45050565b60006118df836001600160a01b038416612bad565b60006001600160e01b03198216637965db0b60e01b1480610b1657506301ffc9a760e01b6001600160e01b0319831614610b16565b6001600160a01b0383166122b15760405162461bcd60e51b8152602060048201526024808201527f45524332303a20617070726f76652066726f6d20746865207a65726f206164646044820152637265737360e01b6064820152608401610bd8565b6001600160a01b0382166123125760405162461bcd60e51b815260206004820152602260248201527f45524332303a20617070726f766520746f20746865207a65726f206164647265604482015261737360f01b6064820152608401610bd8565b6001600160a01b0383811660008181526004602090815260408083209487168084529482529182902085905590518481527f8c5be1e5ebec7d5bd14f71427d1e84f3dd0314c0f7b2291e5b200ac8c7c3b925910160405180910390a3505050565b600d805461238390600190613d21565b81548110612393576123936138be565b600091825260209091200154600d80546001600160a01b0390921691839081106123bf576123bf6138be565b9060005260206000200160006101000a8154816001600160a01b0302191690836001600160a01b03160217905550600d8054806123fe576123fe613d34565b600082815260209020810160001990810180546001600160a01b031916905501905550565b600061242f8484611d80565b90506000198114610ee3578181101561248a5760405162461bcd60e51b815260206004820152601d60248201527f45524332303a20696e73756666696369656e7420616c6c6f77616e63650000006044820152606401610bd8565b610ee3848484840361224f565b6001600160a01b0383166124fb5760405162461bcd60e51b815260206004820152602560248201527f45524332303a207472616e736665722066726f6d20746865207a65726f206164604482015264647265737360d81b6064820152608401610bd8565b6001600160a01b03821661255d5760405162461bcd60e51b815260206004820152602360248201527f45524332303a207472616e7366657220746f20746865207a65726f206164647260448201526265737360e81b6064820152608401610bd8565b612568838383612bfc565b6001600160a01b038316600090815260036020526040902054818110156125e05760405162461bcd60e51b815260206004820152602660248201527f45524332303a207472616e7366657220616d6f756e7420657863656564732062604482015265616c616e636560d01b6064820152608401610bd8565b6001600160a01b0380851660008181526003602052604080822086860390559286168082529083902080548601905591517fddf252ad1be2c89b69c2b068fc378daa952ba7f163c4a11628f55a4df523b3ef906126409086815260200190565b60405180910390a3610ee3565b60026009540361269f5760405162461bcd60e51b815260206004820152601f60248201527f5265656e7472616e637947756172643a207265656e7472616e742063616c6c006044820152606401610bd8565b6002600955565b6126b084836129df565b6001600160a01b0383166126fa576040516001600160a01b0382169083156108fc029084906000818181858888f193505050501580156126f4573d6000803e3d6000fd5b50610ee3565b610ee36001600160a01b0384168284612c07565b6000601254306001600160a01b03166318160ddd6040518163ffffffff1660e01b8152600401602060405180830381865afa158015612751573d6000803e3d6000fd5b505050506040513d601f19601f8201168201806040525081019061277591906139e4565b61277f908461384e565b111592915050565b60006127a76001600160a01b038516156127a15783611858565b34611858565b905060006001600160a01b038516156127c9576127c48285613d21565b6127d3565b6127d38234613d21565b90506001600160a01b03851661282857600a54604051620100009091046001600160a01b0316906108fc8415029084906000818181858888f19350505050158015612822573d6000803e3d6000fd5b50612860565b61283d6001600160a01b038616873084612c6a565b600a54612860906001600160a01b03878116918991620100009091041685612c6a565b61286a8382612912565b505050505050565b6114ff8133612ca2565b612886828261219a565b60008281526002602052604090206110789082612205565b6128a88282612cfb565b60008281526002602052604090206110789082612d62565b6128c8612d77565b6008805460ff191690557f5db9ee0a495bf2e6ff9c91a7834c1ba4fdd244a5e8aa4e537bd38aeae4b073aa335b6040516001600160a01b03909116815260200160405180910390a1565b6001600160a01b0382166129685760405162461bcd60e51b815260206004820152601f60248201527f45524332303a206d696e7420746f20746865207a65726f2061646472657373006044820152606401610bd8565b61297460008383612bfc565b8060056000828254612986919061384e565b90915550506001600160a01b0382166000818152600360209081526040808320805486019055518481527fddf252ad1be2c89b69c2b068fc378daa952ba7f163c4a11628f55a4df523b3ef910160405180910390a35050565b6001600160a01b038216612a3f5760405162461bcd60e51b815260206004820152602160248201527f45524332303a206275726e2066726f6d20746865207a65726f206164647265736044820152607360f81b6064820152608401610bd8565b612a4b82600083612bfc565b6001600160a01b03821660009081526003602052604090205481811015612abf5760405162461bcd60e51b815260206004820152602260248201527f45524332303a206275726e20616d6f756e7420657863656564732062616c616e604482015261636560f01b6064820152608401610bd8565b6001600160a01b03831660008181526003602090815260408083208686039055600580548790039055518581529192917fddf252ad1be2c89b69c2b068fc378daa952ba7f163c4a11628f55a4df523b3ef910160405180910390a3505050565b612b27612dc0565b6008805460ff191660011790557f62e78cea01bee320cd4e420270b5ea74000d11b0c9f74754ebdbfc544b05a2586128f53390565b60006118df8383612e06565b6000610b16825490565b612b8a600080516020613e4683398151915282612e30565b612b95600082612e30565b6114ff600080516020613e2683398151915282612e30565b6000818152600183016020526040812054612bf457508154600181810184556000848152602080822090930184905584548482528286019093526040902091909155610b16565b506000610b16565b611078838383612e3a565b6040516001600160a01b03831660248201526044810182905261107890849063a9059cbb60e01b906064015b60408051601f198184030181529190526020810180516001600160e01b03166001600160e01b031990931692909217909152612ea0565b6040516001600160a01b0380851660248301528316604482015260648101829052610ee39085906323b872dd60e01b90608401612c33565b612cac82826118e6565b61127757612cb981612f72565b612cc4836020612f84565b604051602001612cd5929190613d4a565b60408051601f198184030181529082905262461bcd60e51b8252610bd8916004016133f8565b612d0582826118e6565b156112775760008281526001602090815260408083206001600160a01b0385168085529252808320805460ff1916905551339285917ff6391f5c32d9c69d2a47ea670b442974b53935d1edc7fd64eb21e047a839171b9190a45050565b60006118df836001600160a01b038416613120565b60085460ff166114665760405162461bcd60e51b815260206004820152601460248201527314185d5cd8589b194e881b9bdd081c185d5cd95960621b6044820152606401610bd8565b60085460ff16156114665760405162461bcd60e51b815260206004820152601060248201526f14185d5cd8589b194e881c185d5cd95960821b6044820152606401610bd8565b6000826000018281548110612e1d57612e1d6138be565b9060005260206000200154905092915050565b611277828261287c565b60085460ff16156110785760405162461bcd60e51b815260206004820152602a60248201527f45524332305061757361626c653a20746f6b656e207472616e736665722077686044820152691a5b19481c185d5cd95960b21b6064820152608401610bd8565b6000612ef5826040518060400160405280602081526020017f5361666545524332303a206c6f772d6c6576656c2063616c6c206661696c6564815250856001600160a01b031661321a9092919063ffffffff16565b8051909150156110785780806020019051810190612f139190613dbf565b6110785760405162461bcd60e51b815260206004820152602a60248201527f5361666545524332303a204552433230206f7065726174696f6e20646964206e6044820152691bdd081cdd58d8d9595960b21b6064820152608401610bd8565b6060610b166001600160a01b03831660145b60606000612f93836002613c7d565b612f9e90600261384e565b67ffffffffffffffff811115612fb657612fb6613ddc565b6040519080825280601f01601f191660200182016040528015612fe0576020820181803683370190505b509050600360fc1b81600081518110612ffb57612ffb6138be565b60200101906001600160f81b031916908160001a905350600f60fb1b8160018151811061302a5761302a6138be565b60200101906001600160f81b031916908160001a905350600061304e846002613c7d565b61305990600161384e565b90505b60018111156130d1576f181899199a1a9b1b9c1cb0b131b232b360811b85600f166010811061308d5761308d6138be565b1a60f81b8282815181106130a3576130a36138be565b60200101906001600160f81b031916908160001a90535060049490941c936130ca81613df2565b905061305c565b5083156118df5760405162461bcd60e51b815260206004820181905260248201527f537472696e67733a20686578206c656e67746820696e73756666696369656e746044820152606401610bd8565b60008181526001830160205260408120548015613209576000613144600183613d21565b855490915060009061315890600190613d21565b90508181146131bd576000866000018281548110613178576131786138be565b906000526020600020015490508087600001848154811061319b5761319b6138be565b6000918252602080832090910192909255918252600188019052604090208390555b85548690806131ce576131ce613d34565b600190038181906000526020600020016000905590558560010160008681526020019081526020016000206000905560019350505050610b16565b6000915050610b16565b5092915050565b60606132298484600085613231565b949350505050565b6060824710156132925760405162461bcd60e51b815260206004820152602660248201527f416464726573733a20696e73756666696369656e742062616c616e636520666f6044820152651c8818d85b1b60d21b6064820152608401610bd8565b600080866001600160a01b031685876040516132ae9190613e09565b60006040518083038185875af1925050503d80600081146132eb576040519150601f19603f3d011682016040523d82523d6000602084013e6132f0565b606091505b50915091506133018783838761330c565b979650505050505050565b6060831561337b578251600003613374576001600160a01b0385163b6133745760405162461bcd60e51b815260206004820152601d60248201527f416464726573733a2063616c6c20746f206e6f6e2d636f6e74726163740000006044820152606401610bd8565b5081613229565b61322983838151156133905781518083602001fd5b8060405162461bcd60e51b8152600401610bd891906133f8565b6000602082840312156133bc57600080fd5b81356001600160e01b0319811681146118df57600080fd5b60005b838110156133ef5781810151838201526020016133d7565b50506000910152565b60208152600082518060208401526134178160408501602087016133d4565b601f01601f19169190910160400192915050565b6001600160a01b03811681146114ff57600080fd5b803563ffffffff81168114611c3657600080fd5b6000806040838503121561346757600080fd5b82356134728161342b565b915061348060208401613440565b90509250929050565b6000806040838503121561349c57600080fd5b82356134a78161342b565b946020939093013593505050565b6000806000606084860312156134ca57600080fd5b83356134d58161342b565b925060208401356134e58161342b565b929592945050506040919091013590565b60006020828403121561350857600080fd5b5035919050565b6000806040838503121561352257600080fd5b8235915060208301356135348161342b565b809150509250929050565b60008060006060848603121561355457600080fd5b833561355f8161342b565b92506020840135915060408401356135768161342b565b809150509250925092565b60006020828403121561359357600080fd5b81356118df8161342b565b600080600080608085870312156135b457600080fd5b84356135bf8161342b565b935060208501356135cf8161342b565b92506040850135915060608501356135e68161342b565b939692955090935050565b80151581146114ff57600080fd5b60006020828403121561361157600080fd5b81356118df816135f1565b6000806040838503121561362f57600080fd5b50508035926020909101359150565b6020808252825182820181905260009190848201906040850190845b8181101561367f5783516001600160a01b03168352928401929184019160010161365a565b50909695505050505050565b803561ffff81168114611c3657600080fd5b600080604083850312156136b057600080fd5b6134728361368b565b600080604083850312156136cc57600080fd5b82356136d78161342b565b915060208301356135348161342b565b60008060008060008060c0878903121561370057600080fd5b6137098761368b565b955060208701356137198161342b565b945060408701356137298161342b565b9350606087013592506080870135613740816135f1565b915060a08701356137508161342b565b809150509295509295509295565b600181811c9082168061377257607f821691505b60208210810361379257634e487b7160e01b600052602260045260246000fd5b50919050565b60208082526039908201527f46756e6769626c65546f6b656e577261707065723a204f6e6c792068616e646c60408201527f65722063616e2063616c6c20746869732066756e6374696f6e00000000000000606082015260800190565b60208082526023908201527f50726f706f73616c4e6f6e6365547261636b65723a20496e76616c6964206e6f6040820152626e636560e81b606082015260800190565b634e487b7160e01b600052601160045260246000fd5b80820180821115610b1657610b16613838565b6020808252603a908201527f50726f706f73616c4e6f6e6365547261636b65723a204e6f6e6365206d75737460408201527f206e6f7420696e6372656d656e74206d6f7265207468616e2031000000000000606082015260800190565b634e487b7160e01b600052603260045260246000fd5b6000600182016138e6576138e6613838565b5060010190565b60208082526023908201527f546f6b656e577261707065723a206d7573742068617665206d696e74657220726040820152626f6c6560e81b606082015260800190565b60208082526029908201527f546f6b656e577261707065723a20496e73756666696369656e74206e61746976604082015268652062616c616e636560b81b606082015260800190565b60208082526045908201527f546f6b656e577261707065723a204e617469766520756e7772617070696e672060408201527f6973206e6f7420616c6c6f77656420666f72207468697320746f6b656e20777260608201526430b83832b960d91b608082015260a00190565b6000602082840312156139f657600080fd5b5051919050565b60208082526028908201527f546f6b656e577261707065723a20496e73756666696369656e742045524332306040820152672062616c616e636560c01b606082015260800190565b6020808252602e908201527f546f6b656e577261707065723a20496e76616c696420686973746f726963616c60408201526d20746f6b656e206164647265737360901b606082015260800190565b60208082526039908201527f546f6b656e577261707065723a20496e76616c696420616d6f756e742070726f60408201527f766964656420666f72206e6174697665207772617070696e6700000000000000606082015260800190565b60208082526043908201527f546f6b656e577261707065723a204e6174697665207772617070696e6720697360408201527f206e6f7420616c6c6f77656420666f72207468697320746f6b656e20777261706060820152623832b960e91b608082015260a00190565b6020808252602d908201527f546f6b656e577261707065723a20496e76616c69642076616c75652073656e7460408201526c20666f72207772617070696e6760981b606082015260800190565b60208082526023908201527f546f6b656e577261707065723a20496e76616c696420746f6b656e206164647260408201526265737360e81b606082015260800190565b60208082526032908201527f546f6b656e577261707065723a2046656520526563697069656e742063616e6e6040820152716f74206265207a65726f206164647265737360701b606082015260800190565b60208082526022908201527f546f6b656e577261707065723a20496e76616c696420746f6b656e20616d6f756040820152611b9d60f21b606082015260800190565b8082028115828204841417610b1657610b16613838565b600082613cb157634e487b7160e01b600052601260045260246000fd5b500490565b61ffff82811682821603908082111561321357613213613838565b60208082526030908201527f46756e6769626c65546f6b656e577261707065723a2048616e646c657220416460408201526f064726573732063616e277420626520360841b606082015260800190565b81810381811115610b1657610b16613838565b634e487b7160e01b600052603160045260246000fd5b7f416363657373436f6e74726f6c3a206163636f756e7420000000000000000000815260008351613d828160178501602088016133d4565b7001034b99036b4b9b9b4b733903937b6329607d1b6017918401918201528351613db38160288401602088016133d4565b01602801949350505050565b600060208284031215613dd157600080fd5b81516118df816135f1565b634e487b7160e01b600052604160045260246000fd5b600081613e0157613e01613838565b506000190190565b60008251613e1b8184602087016133d4565b919091019291505056fe65d7a28e3265b37a6474929f336521b332c1681b933f6cb9f3376673440d862a9f2df0fed2c77648de5860a4cc508cd0818c85b8b8a1ab4ceeef8d981c8956a6a2646970667358221220b292d58f68b3339259868fc38562b55b9f58198f61493e743805876727917cc764736f6c63430008120033",
  "linkReferences": {},
  "deployedLinkReferences": {}
}