{
  "_format": "hh-sol-artifact-1",
  "contractName": "OpenVAnchor",
  "sourceName": "contracts/vanchors/extensions/OpenVAnchor.sol",
  "abi": [
    {
      "inputs": [
        {
          "internalType": "contract IHasher",
          "name": "_hasher",
          "type": "address"
        },
        {
          "internalType": "uint32",
          "name": "_levels",
          "type": "uint32"
        },
        {
          "internalType": "address",
          "name": "_handler",
          "type": "address"
        },
        {
          "internalType": "address",
          "name": "_token",
          "type": "address"
        }
      ],
      "stateMutability": "nonpayable",
      "type": "constructor"
    },
    {
      "anonymous": false,
      "inputs": [
        {
          "indexed": false,
          "internalType": "uint256",
          "name": "chainID",
          "type": "uint256"
        },
        {
          "indexed": false,
          "internalType": "uint256",
          "name": "latestLeafIndex",
          "type": "uint256"
        },
        {
          "indexed": false,
          "internalType": "uint256",
          "name": "merkleRoot",
          "type": "uint256"
        }
      ],
      "name": "EdgeAddition",
      "type": "event"
    },
    {
      "anonymous": false,
      "inputs": [
        {
          "indexed": false,
          "internalType": "uint256",
          "name": "chainID",
          "type": "uint256"
        },
        {
          "indexed": false,
          "internalType": "uint256",
          "name": "latestLeafIndex",
          "type": "uint256"
        },
        {
          "indexed": false,
          "internalType": "uint256",
          "name": "merkleRoot",
          "type": "uint256"
        }
      ],
      "name": "EdgeUpdate",
      "type": "event"
    },
    {
      "anonymous": false,
      "inputs": [
        {
          "indexed": true,
          "internalType": "uint256",
          "name": "commitment",
          "type": "uint256"
        },
        {
          "indexed": false,
          "internalType": "uint32",
          "name": "leafIndex",
          "type": "uint32"
        },
        {
          "indexed": false,
          "internalType": "uint256",
          "name": "timestamp",
          "type": "uint256"
        }
      ],
      "name": "Insertion",
      "type": "event"
    },
    {
      "anonymous": false,
      "inputs": [
        {
          "indexed": false,
          "internalType": "uint256",
          "name": "commitment",
          "type": "uint256"
        },
        {
          "indexed": false,
          "internalType": "uint256",
          "name": "subTreeIndex",
          "type": "uint256"
        },
        {
          "indexed": false,
          "internalType": "uint256",
          "name": "leafIndex",
          "type": "uint256"
        },
        {
          "indexed": false,
          "internalType": "bytes",
          "name": "encryptedOutput",
          "type": "bytes"
        }
      ],
      "name": "NewCommitment",
      "type": "event"
    },
    {
      "anonymous": false,
      "inputs": [
        {
          "indexed": false,
          "internalType": "uint256",
          "name": "nullifier",
          "type": "uint256"
        }
      ],
      "name": "NewNullifier",
      "type": "event"
    },
    {
      "anonymous": false,
      "inputs": [
        {
          "indexed": true,
          "internalType": "address",
          "name": "owner",
          "type": "address"
        },
        {
          "indexed": false,
          "internalType": "bytes",
          "name": "key",
          "type": "bytes"
        }
      ],
      "name": "PublicKey",
      "type": "event"
    },
    {
      "inputs": [],
      "name": "EVM_CHAIN_ID_TYPE",
      "outputs": [
        {
          "internalType": "bytes2",
          "name": "",
          "type": "bytes2"
        }
      ],
      "stateMutability": "view",
      "type": "function"
    },
    {
      "inputs": [],
      "name": "FIELD_SIZE",
      "outputs": [
        {
          "internalType": "uint256",
          "name": "",
          "type": "uint256"
        }
      ],
      "stateMutability": "view",
      "type": "function"
    },
    {
      "inputs": [],
      "name": "MAX_EXT_AMOUNT",
      "outputs": [
        {
          "internalType": "int256",
          "name": "",
          "type": "int256"
        }
      ],
      "stateMutability": "view",
      "type": "function"
    },
    {
      "inputs": [],
      "name": "MAX_FEE",
      "outputs": [
        {
          "internalType": "uint256",
          "name": "",
          "type": "uint256"
        }
      ],
      "stateMutability": "view",
      "type": "function"
    },
    {
      "inputs": [],
      "name": "ROOT_HISTORY_SIZE",
      "outputs": [
        {
          "internalType": "uint32",
          "name": "",
          "type": "uint32"
        }
      ],
      "stateMutability": "view",
      "type": "function"
    },
    {
      "inputs": [],
      "name": "ZERO_VALUE",
      "outputs": [
        {
          "internalType": "uint256",
          "name": "",
          "type": "uint256"
        }
      ],
      "stateMutability": "view",
      "type": "function"
    },
    {
      "inputs": [
        {
          "internalType": "address",
          "name": "_fromTokenAddress",
          "type": "address"
        },
        {
          "internalType": "address",
          "name": "_toTokenAddress",
          "type": "address"
        },
        {
          "internalType": "uint256",
          "name": "_extAmount",
          "type": "uint256"
        }
      ],
      "name": "_executeWrapping",
      "outputs": [
        {
          "internalType": "uint256",
          "name": "",
          "type": "uint256"
        }
      ],
      "stateMutability": "payable",
      "type": "function"
    },
    {
      "inputs": [
        {
          "internalType": "address",
          "name": "_fromTokenAddress",
          "type": "address"
        },
        {
          "internalType": "address",
          "name": "_toTokenAddress",
          "type": "address"
        },
        {
          "internalType": "address",
          "name": "_recipient",
          "type": "address"
        },
        {
          "internalType": "uint256",
          "name": "_minusExtAmount",
          "type": "uint256"
        }
      ],
      "name": "_withdrawAndUnwrap",
      "outputs": [],
      "stateMutability": "payable",
      "type": "function"
    },
    {
      "inputs": [
        {
          "internalType": "int256",
          "name": "_extAmount",
          "type": "int256"
        },
        {
          "internalType": "uint256",
          "name": "_fee",
          "type": "uint256"
        }
      ],
      "name": "calculatePublicAmount",
      "outputs": [
        {
          "internalType": "uint256",
          "name": "",
          "type": "uint256"
        }
      ],
      "stateMutability": "pure",
      "type": "function"
    },
    {
      "inputs": [
        {
          "internalType": "uint256",
          "name": "",
          "type": "uint256"
        }
      ],
      "name": "commitments",
      "outputs": [
        {
          "internalType": "bool",
          "name": "",
          "type": "bool"
        }
      ],
      "stateMutability": "view",
      "type": "function"
    },
    {
      "inputs": [
        {
          "internalType": "uint256",
          "name": "_maximumDepositAmount",
          "type": "uint256"
        },
        {
          "internalType": "uint32",
          "name": "_nonce",
          "type": "uint32"
        }
      ],
      "name": "configureMaximumDepositLimit",
      "outputs": [],
      "stateMutability": "nonpayable",
      "type": "function"
    },
    {
      "inputs": [
        {
          "internalType": "uint256",
          "name": "_minimalWithdrawalAmount",
          "type": "uint256"
        },
        {
          "internalType": "uint32",
          "name": "_nonce",
          "type": "uint32"
        }
      ],
      "name": "configureMinimalWithdrawalLimit",
      "outputs": [],
      "stateMutability": "nonpayable",
      "type": "function"
    },
    {
      "inputs": [
        {
          "internalType": "uint256",
          "name": "",
          "type": "uint256"
        }
      ],
      "name": "currentNeighborRootIndex",
      "outputs": [
        {
          "internalType": "uint32",
          "name": "",
          "type": "uint32"
        }
      ],
      "stateMutability": "view",
      "type": "function"
    },
    {
      "inputs": [],
      "name": "currentRootIndex",
      "outputs": [
        {
          "internalType": "uint32",
          "name": "",
          "type": "uint32"
        }
      ],
      "stateMutability": "view",
      "type": "function"
    },
    {
      "inputs": [
        {
          "internalType": "uint48",
          "name": "destinationChainId",
          "type": "uint48"
        },
        {
          "internalType": "uint256",
          "name": "depositAmount",
          "type": "uint256"
        },
        {
          "internalType": "address",
          "name": "recipient",
          "type": "address"
        },
        {
          "internalType": "bytes",
          "name": "delegatedCalldata",
          "type": "bytes"
        },
        {
          "internalType": "uint256",
          "name": "blinding",
          "type": "uint256"
        },
        {
          "internalType": "uint256",
          "name": "relayingFee",
          "type": "uint256"
        }
      ],
      "name": "deposit",
      "outputs": [],
      "stateMutability": "nonpayable",
      "type": "function"
    },
    {
      "inputs": [
        {
          "internalType": "uint256",
          "name": "",
          "type": "uint256"
        }
      ],
      "name": "edgeExistsForChain",
      "outputs": [
        {
          "internalType": "bool",
          "name": "",
          "type": "bool"
        }
      ],
      "stateMutability": "view",
      "type": "function"
    },
    {
      "inputs": [
        {
          "internalType": "uint256",
          "name": "",
          "type": "uint256"
        }
      ],
      "name": "edgeIndex",
      "outputs": [
        {
          "internalType": "uint256",
          "name": "",
          "type": "uint256"
        }
      ],
      "stateMutability": "view",
      "type": "function"
    },
    {
      "inputs": [
        {
          "internalType": "uint256",
          "name": "",
          "type": "uint256"
        }
      ],
      "name": "edgeList",
      "outputs": [
        {
          "internalType": "uint256",
          "name": "chainID",
          "type": "uint256"
        },
        {
          "internalType": "uint256",
          "name": "root",
          "type": "uint256"
        },
        {
          "internalType": "uint256",
          "name": "latestLeafIndex",
          "type": "uint256"
        },
        {
          "internalType": "bytes32",
          "name": "srcResourceID",
          "type": "bytes32"
        }
      ],
      "stateMutability": "view",
      "type": "function"
    },
    {
      "inputs": [
        {
          "internalType": "uint256",
          "name": "",
          "type": "uint256"
        }
      ],
      "name": "filledSubtrees",
      "outputs": [
        {
          "internalType": "uint256",
          "name": "",
          "type": "uint256"
        }
      ],
      "stateMutability": "view",
      "type": "function"
    },
    {
      "inputs": [],
      "name": "getChainId",
      "outputs": [
        {
          "internalType": "uint256",
          "name": "",
          "type": "uint256"
        }
      ],
      "stateMutability": "view",
      "type": "function"
    },
    {
      "inputs": [],
      "name": "getChainIdType",
      "outputs": [
        {
          "internalType": "uint48",
          "name": "",
          "type": "uint48"
        }
      ],
      "stateMutability": "view",
      "type": "function"
    },
    {
      "inputs": [],
      "name": "getHasher",
      "outputs": [
        {
          "internalType": "contract IHasher",
          "name": "",
          "type": "address"
        }
      ],
      "stateMutability": "view",
      "type": "function"
    },
    {
      "inputs": [],
      "name": "getLastRoot",
      "outputs": [
        {
          "internalType": "uint256",
          "name": "",
          "type": "uint256"
        }
      ],
      "stateMutability": "view",
      "type": "function"
    },
    {
      "inputs": [],
      "name": "getLatestNeighborEdges",
      "outputs": [
        {
          "components": [
            {
              "internalType": "uint256",
              "name": "chainID",
              "type": "uint256"
            },
            {
              "internalType": "uint256",
              "name": "root",
              "type": "uint256"
            },
            {
              "internalType": "uint256",
              "name": "latestLeafIndex",
              "type": "uint256"
            },
            {
              "internalType": "bytes32",
              "name": "srcResourceID",
              "type": "bytes32"
            }
          ],
          "internalType": "struct Edge[]",
          "name": "",
          "type": "tuple[]"
        }
      ],
      "stateMutability": "view",
      "type": "function"
    },
    {
      "inputs": [],
      "name": "getLatestNeighborRoots",
      "outputs": [
        {
          "internalType": "uint256[]",
          "name": "",
          "type": "uint256[]"
        }
      ],
      "stateMutability": "view",
      "type": "function"
    },
    {
      "inputs": [],
      "name": "getLevels",
      "outputs": [
        {
          "internalType": "uint32",
          "name": "",
          "type": "uint32"
        }
      ],
      "stateMutability": "view",
      "type": "function"
    },
    {
      "inputs": [],
      "name": "getNextIndex",
      "outputs": [
        {
          "internalType": "uint32",
          "name": "",
          "type": "uint32"
        }
      ],
      "stateMutability": "view",
      "type": "function"
    },
    {
      "inputs": [],
      "name": "getProposalNonce",
      "outputs": [
        {
          "internalType": "uint256",
          "name": "",
          "type": "uint256"
        }
      ],
      "stateMutability": "view",
      "type": "function"
    },
    {
      "inputs": [
        {
          "internalType": "uint32",
          "name": "index",
          "type": "uint32"
        }
      ],
      "name": "getZeroHash",
      "outputs": [
        {
          "internalType": "uint256",
          "name": "",
          "type": "uint256"
        }
      ],
      "stateMutability": "view",
      "type": "function"
    },
    {
      "inputs": [],
      "name": "handler",
      "outputs": [
        {
          "internalType": "address",
          "name": "",
          "type": "address"
        }
      ],
      "stateMutability": "view",
      "type": "function"
    },
    {
      "inputs": [
        {
          "internalType": "uint256",
          "name": "_chainID",
          "type": "uint256"
        }
      ],
      "name": "hasEdge",
      "outputs": [
        {
          "internalType": "bool",
          "name": "",
          "type": "bool"
        }
      ],
      "stateMutability": "view",
      "type": "function"
    },
    {
      "inputs": [
        {
          "internalType": "uint256",
          "name": "_left",
          "type": "uint256"
        },
        {
          "internalType": "uint256",
          "name": "_right",
          "type": "uint256"
        }
      ],
      "name": "hashLeftRight",
      "outputs": [
        {
          "internalType": "uint256",
          "name": "",
          "type": "uint256"
        }
      ],
      "stateMutability": "view",
      "type": "function"
    },
    {
      "inputs": [],
      "name": "hasher",
      "outputs": [
        {
          "internalType": "contract IHasher",
          "name": "",
          "type": "address"
        }
      ],
      "stateMutability": "view",
      "type": "function"
    },
    {
      "inputs": [
        {
          "internalType": "uint256",
          "name": "_minimalWithdrawalAmount",
          "type": "uint256"
        },
        {
          "internalType": "uint256",
          "name": "_maximumDepositAmount",
          "type": "uint256"
        }
      ],
      "name": "initialize",
      "outputs": [],
      "stateMutability": "nonpayable",
      "type": "function"
    },
    {
      "inputs": [],
      "name": "initialized",
      "outputs": [
        {
          "internalType": "bool",
          "name": "",
          "type": "bool"
        }
      ],
      "stateMutability": "view",
      "type": "function"
    },
    {
      "inputs": [
        {
          "internalType": "uint256",
          "name": "_neighborChainID",
          "type": "uint256"
        },
        {
          "internalType": "uint256",
          "name": "_root",
          "type": "uint256"
        }
      ],
      "name": "isKnownNeighborRoot",
      "outputs": [
        {
          "internalType": "bool",
          "name": "",
          "type": "bool"
        }
      ],
      "stateMutability": "view",
      "type": "function"
    },
    {
      "inputs": [
        {
          "internalType": "uint256",
          "name": "_root",
          "type": "uint256"
        }
      ],
      "name": "isKnownRoot",
      "outputs": [
        {
          "internalType": "bool",
          "name": "",
          "type": "bool"
        }
      ],
      "stateMutability": "view",
      "type": "function"
    },
    {
      "inputs": [
        {
          "internalType": "uint256",
          "name": "_nullifierHash",
          "type": "uint256"
        }
      ],
      "name": "isSpent",
      "outputs": [
        {
          "internalType": "bool",
          "name": "",
          "type": "bool"
        }
      ],
      "stateMutability": "view",
      "type": "function"
    },
    {
      "inputs": [
        {
          "internalType": "uint256[]",
          "name": "_nullifierHashes",
          "type": "uint256[]"
        }
      ],
      "name": "isSpentArray",
      "outputs": [
        {
          "internalType": "bool[]",
          "name": "",
          "type": "bool[]"
        }
      ],
      "stateMutability": "view",
      "type": "function"
    },
    {
      "inputs": [
        {
          "internalType": "uint256[]",
          "name": "_roots",
          "type": "uint256[]"
        }
      ],
      "name": "isValidRoots",
      "outputs": [
        {
          "internalType": "bool",
          "name": "",
          "type": "bool"
        }
      ],
      "stateMutability": "view",
      "type": "function"
    },
    {
      "inputs": [],
      "name": "lastBalance",
      "outputs": [
        {
          "internalType": "uint256",
          "name": "",
          "type": "uint256"
        }
      ],
      "stateMutability": "view",
      "type": "function"
    },
    {
      "inputs": [],
      "name": "levels",
      "outputs": [
        {
          "internalType": "uint32",
          "name": "",
          "type": "uint32"
        }
      ],
      "stateMutability": "view",
      "type": "function"
    },
    {
      "inputs": [],
      "name": "maxEdges",
      "outputs": [
        {
          "internalType": "uint8",
          "name": "",
          "type": "uint8"
        }
      ],
      "stateMutability": "view",
      "type": "function"
    },
    {
      "inputs": [],
      "name": "maximumDepositAmount",
      "outputs": [
        {
          "internalType": "uint256",
          "name": "",
          "type": "uint256"
        }
      ],
      "stateMutability": "view",
      "type": "function"
    },
    {
      "inputs": [],
      "name": "minimalWithdrawalAmount",
      "outputs": [
        {
          "internalType": "uint256",
          "name": "",
          "type": "uint256"
        }
      ],
      "stateMutability": "view",
      "type": "function"
    },
    {
      "inputs": [
        {
          "internalType": "uint256",
          "name": "",
          "type": "uint256"
        },
        {
          "internalType": "uint32",
          "name": "",
          "type": "uint32"
        }
      ],
      "name": "neighborRoots",
      "outputs": [
        {
          "internalType": "uint256",
          "name": "",
          "type": "uint256"
        }
      ],
      "stateMutability": "view",
      "type": "function"
    },
    {
      "inputs": [],
      "name": "nextIndex",
      "outputs": [
        {
          "internalType": "uint32",
          "name": "",
          "type": "uint32"
        }
      ],
      "stateMutability": "view",
      "type": "function"
    },
    {
      "inputs": [
        {
          "internalType": "uint256",
          "name": "",
          "type": "uint256"
        }
      ],
      "name": "nullifierHashes",
      "outputs": [
        {
          "internalType": "bool",
          "name": "",
          "type": "bool"
        }
      ],
      "stateMutability": "view",
      "type": "function"
    },
    {
      "inputs": [],
      "name": "outerLevels",
      "outputs": [
        {
          "internalType": "uint32",
          "name": "",
          "type": "uint32"
        }
      ],
      "stateMutability": "view",
      "type": "function"
    },
    {
      "inputs": [
        {
          "internalType": "bytes32",
          "name": "_resourceId",
          "type": "bytes32"
        }
      ],
      "name": "parseChainIdFromResourceId",
      "outputs": [
        {
          "internalType": "uint64",
          "name": "",
          "type": "uint64"
        }
      ],
      "stateMutability": "pure",
      "type": "function"
    },
    {
      "inputs": [],
      "name": "proposalNonce",
      "outputs": [
        {
          "internalType": "uint256",
          "name": "",
          "type": "uint256"
        }
      ],
      "stateMutability": "view",
      "type": "function"
    },
    {
      "inputs": [
        {
          "components": [
            {
              "internalType": "address",
              "name": "owner",
              "type": "address"
            },
            {
              "internalType": "bytes",
              "name": "keyData",
              "type": "bytes"
            }
          ],
          "internalType": "struct VAnchorBase.Account",
          "name": "_account",
          "type": "tuple"
        }
      ],
      "name": "register",
      "outputs": [],
      "stateMutability": "nonpayable",
      "type": "function"
    },
    {
      "inputs": [
        {
          "internalType": "uint256",
          "name": "",
          "type": "uint256"
        }
      ],
      "name": "roots",
      "outputs": [
        {
          "internalType": "uint256",
          "name": "root",
          "type": "uint256"
        },
        {
          "internalType": "uint32",
          "name": "latestLeafindex",
          "type": "uint32"
        }
      ],
      "stateMutability": "view",
      "type": "function"
    },
    {
      "inputs": [
        {
          "internalType": "address",
          "name": "_handler",
          "type": "address"
        },
        {
          "internalType": "uint32",
          "name": "_nonce",
          "type": "uint32"
        }
      ],
      "name": "setHandler",
      "outputs": [],
      "stateMutability": "nonpayable",
      "type": "function"
    },
    {
      "inputs": [],
      "name": "token",
      "outputs": [
        {
          "internalType": "address",
          "name": "",
          "type": "address"
        }
      ],
      "stateMutability": "view",
      "type": "function"
    },
    {
      "inputs": [
        {
          "internalType": "uint256",
          "name": "_root",
          "type": "uint256"
        },
        {
          "internalType": "uint32",
          "name": "_leafIndex",
          "type": "uint32"
        },
        {
          "internalType": "bytes32",
          "name": "_srcResourceID",
          "type": "bytes32"
        }
      ],
      "name": "updateEdge",
      "outputs": [],
      "stateMutability": "payable",
      "type": "function"
    },
    {
      "inputs": [
        {
          "internalType": "uint256",
          "name": "withdrawAmount",
          "type": "uint256"
        },
        {
          "internalType": "address",
          "name": "recipient",
          "type": "address"
        },
        {
          "internalType": "bytes",
          "name": "delegatedCalldata",
          "type": "bytes"
        },
        {
          "internalType": "uint256",
          "name": "blinding",
          "type": "uint256"
        },
        {
          "internalType": "uint256",
          "name": "relayingFee",
          "type": "uint256"
        },
        {
          "internalType": "uint256[]",
          "name": "merkleProof",
          "type": "uint256[]"
        },
        {
          "internalType": "uint32",
          "name": "commitmentIndex",
          "type": "uint32"
        },
        {
          "internalType": "uint256",
          "name": "root",
          "type": "uint256"
        }
      ],
      "name": "withdraw",
      "outputs": [],
      "stateMutability": "nonpayable",
      "type": "function"
    },
    {
      "inputs": [
        {
          "internalType": "uint256",
          "name": "withdrawAmount",
          "type": "uint256"
        },
        {
          "internalType": "address",
          "name": "recipient",
          "type": "address"
        },
        {
          "internalType": "bytes",
          "name": "delegatedCalldata",
          "type": "bytes"
        },
        {
          "internalType": "uint256",
          "name": "blinding",
          "type": "uint256"
        },
        {
          "internalType": "uint256",
          "name": "relayingFee",
          "type": "uint256"
        },
        {
          "internalType": "uint256[]",
          "name": "merkleProof",
          "type": "uint256[]"
        },
        {
          "internalType": "uint32",
          "name": "commitmentIndex",
          "type": "uint32"
        },
        {
          "internalType": "uint256",
          "name": "root",
          "type": "uint256"
        },
        {
          "internalType": "address",
          "name": "tokenAddress",
          "type": "address"
        }
      ],
      "name": "withdrawAndUnwrap",
      "outputs": [],
      "stateMutability": "payable",
      "type": "function"
    },
    {
      "inputs": [
        {
          "internalType": "uint48",
          "name": "destinationChainId",
          "type": "uint48"
        },
        {
          "internalType": "uint256",
          "name": "depositAmount",
          "type": "uint256"
        },
        {
          "internalType": "address",
          "name": "recipient",
          "type": "address"
        },
        {
          "internalType": "bytes",
          "name": "delegatedCalldata",
          "type": "bytes"
        },
        {
          "internalType": "uint256",
          "name": "blinding",
          "type": "uint256"
        },
        {
          "internalType": "uint256",
          "name": "relayingFee",
          "type": "uint256"
        },
        {
          "internalType": "address",
          "name": "tokenAddress",
          "type": "address"
        }
      ],
      "name": "wrapAndDeposit",
      "outputs": [],
      "stateMutability": "payable",
      "type": "function"
    }
  ],
  "bytecode": "0x60e0604052601080546001600160401b03191690553480156200002157600080fd5b5060405162004643380380620046438339810160408190526200004491620003cf565b6001600555600780546001600160a01b0319166001600160a01b03841617905560e083901b6001600160e01b03191660a0527fff00000000000000000000000000000000000000000000000000000000000000608052828463ffffffff8216620001015760405162461bcd60e51b815260206004820152602360248201527f5f6c6576656c732073686f756c642062652067726561746572207468616e207a60448201526265726f60e81b60648201526084015b60405180910390fd5b60208263ffffffff1610620001595760405162461bcd60e51b815260206004820152601e60248201527f5f6c6576656c732073686f756c64206265206c657373207468616e20333200006044820152606401620000f8565b601080546001600160401b03166801000000000000000063ffffffff8516026001600160601b0316176c010000000000000000000000006001600160a01b0384160217905560005b8263ffffffff168163ffffffff1610156200027557601054604051631d052ab160e31b815263ffffffff831660048201526c010000000000000000000000009091046001600160a01b03169063e82955889060240160206040518083038186803b1580156200020f57600080fd5b505afa15801562000224573d6000803e3d6000fd5b505050506040513d601f19601f820116820180604052508101906200024a9190620003b5565b63ffffffff8216600090815260026020526040902055806200026c8162000467565b915050620001a1565b506040805180820190915260105481906c0100000000000000000000000090046001600160a01b031663e8295588620002b06001876200043f565b6040516001600160e01b031960e084901b16815263ffffffff91909116600482015260240160206040518083038186803b158015620002ee57600080fd5b505afa15801562000303573d6000803e3d6000fd5b505050506040513d601f19601f82011682018060405250810190620003299190620003b5565b81526000602091820181905280526001815281517fa6eef7e35abe7026729641147f7915573c7e97b47efa546f5f6e3230263bcb495501517fa6eef7e35abe7026729641147f7915573c7e97b47efa546f5f6e3230263bcb4a805463ffffffff191663ffffffff909216919091179055505060601b6001600160601b03191660c05250620004bd915050565b600060208284031215620003c857600080fd5b5051919050565b60008060008060808587031215620003e657600080fd5b8451620003f381620004a4565b602086015190945063ffffffff811681146200040e57600080fd5b60408601519093506200042181620004a4565b60608601519092506200043481620004a4565b939692955090935050565b600063ffffffff838116908316818110156200045f576200045f6200048e565b039392505050565b600063ffffffff808316818114156200048457620004846200048e565b6001019392505050565b634e487b7160e01b600052601160045260246000fd5b6001600160a01b0381168114620004ba57600080fd5b50565b60805160f81c60a05160e01c60c05160601c6140dd6200056660003960008181610c060152818161136d0152818161139d015281816116380152818161166c01528181611b8b015261284d01526000818161091301528181610d4e0152818161190e0152611ecc0152600081816106f601528181610c5301528181610cbd0152818161179c0152818161183c01528181611d0a01528181611e90015261244501526140dd6000f3fe60806040526004361061038c5760003560e01c80638c0d34d8116101dc578063c80916d411610102578063ea65ba49116100a0578063f178e47c1161006f578063f178e47c14610b97578063fa73168714610bc4578063fc0c546a14610bf4578063fc7e9c6f14610c2857600080fd5b8063ea65ba4914610aef578063ec680c5014610b1c578063ec73295914610b3c578063ed33639f14610b7057600080fd5b8063dbc916b8116100dc578063dbc916b814610a3d578063e4a3011614610a7d578063e70ea87c14610a9d578063ea495db014610aca57600080fd5b8063c80916d4146109da578063cc3c74a114610a12578063cd87a3b414610a2857600080fd5b8063b2bc6e0f1161017a578063bfbc0a3911610149578063bfbc0a3914610901578063c1922f9e14610935578063c2230d6e14610948578063c2b40ae41461098657600080fd5b8063b2bc6e0f14610897578063b75e6798146108b7578063ba70f757146108d7578063bc063e1a1461076057600080fd5b806390eeb02b116101b657806390eeb02b146108175780639215631114610834578063a6232a9314610864578063af46d4d51461088457600080fd5b80638c0d34d8146107bf5780638c832b13146107e15780638f1c56bd1461080157600080fd5b80634c830cbd116102c15780636338bcbc1161025f57806378abb49b1161022e57806378abb49b1461074a5780637fe24ffe14610760578063840b2791146107785780638b7e87821461078e57600080fd5b80636338bcbc146106b157806368ce8312146106c457806371523c32146106e457806372c1ad031461072a57600080fd5b80635a129efe1161029b5780635a129efe1461061b5780635bb939951461064b5780635d2d766c1461066b5780635dc3544e1461069e57600080fd5b80634c830cbd146105b85780634ecf518b146105e4578063509cd41e1461060857600080fd5b80632570b7b41161032e5780633bfa8d7a116103085780633bfa8d7a146104fc578063414a37ba1461051c57806343e7119f1461055057806349ce89971461058857600080fd5b80632570b7b4146104a9578063305e9eac146104c95780633408e470146104e957600080fd5b8063158ef93e1161036a578063158ef93e1461040b5780631e627617146104355780631f79a1e9146104575780631f7f99f71461048757600080fd5b80630b27fb9a146103915780630c394a60146103b55780630eb7606f146103e8575b600080fd5b34801561039d57600080fd5b506006545b6040519081526020015b60405180910390f35b3480156103c157600080fd5b50601054600160401b900463ffffffff165b60405163ffffffff90911681526020016103ac565b3480156103f457600080fd5b50601054640100000000900463ffffffff166103d3565b34801561041757600080fd5b506000546104259060ff1681565b60405190151581526020016103ac565b34801561044157600080fd5b5061044a610c4d565b6040516103ac9190613b0f565b34801561046357600080fd5b506104256104723660046135b2565b60036020526000908152604090205460ff1681565b34801561049357600080fd5b506104a76104a2366004613829565b610e1e565b005b3480156104b557600080fd5b506103a26104c4366004613601565b610eb9565b3480156104d557600080fd5b506103a26104e4366004613875565b610fb6565b3480156104f557600080fd5b50466103a2565b34801561050857600080fd5b50610425610517366004613601565b61103f565b34801561052857600080fd5b506103a27f30644e72e131a029b85045b68181585d2833e84879b9709143e1f593f000000181565b34801561055c57600080fd5b506103a261056b366004613829565b600b60209081526000928352604080842090915290825290205481565b34801561059457600080fd5b506104256105a33660046135b2565b60046020526000908152604090205460ff1681565b3480156105c457600080fd5b506105cd6110d2565b60405165ffffffffffff90911681526020016103ac565b3480156105f057600080fd5b506010546103d390600160401b900463ffffffff1681565b6104a761061636600461341d565b611120565b34801561062757600080fd5b506104256106363660046135b2565b60009081526003602052604090205460ff1690565b34801561065757600080fd5b506103a2610666366004613601565b61119c565b34801561067757600080fd5b506103d36106863660046135b2565b600c6020526000908152604090205463ffffffff1681565b6104a76106ac366004613769565b611292565b6103a26106bf36600461346e565b6113d4565b3480156106d057600080fd5b506104a76106df3660046136b8565b61155d565b3480156106f057600080fd5b506107187f000000000000000000000000000000000000000000000000000000000000000081565b60405160ff90911681526020016103ac565b34801561073657600080fd5b506104a76107453660046134af565b6116a2565b34801561075657600080fd5b506103a2600f5481565b34801561076c57600080fd5b506103a2600160f81b81565b34801561078457600080fd5b506103a2600e5481565b34801561079a57600080fd5b506107a6600160f81b81565b6040516001600160f01b031990911681526020016103ac565b3480156107cb57600080fd5b506107d4611796565b6040516103ac9190613aab565b3480156107ed57600080fd5b506104a76107fc366004613829565b6119ea565b34801561080d57600080fd5b506103a2600d5481565b34801561082357600080fd5b506010546103d39063ffffffff1681565b34801561084057600080fd5b5061042561084f3660046135b2565b60009081526009602052604090205460ff1690565b34801561087057600080fd5b5061042561087f3660046135b2565b611a77565b6104a761089236600461392e565b611af2565b3480156108a357600080fd5b506104a76108b2366004613623565b611bba565b3480156108c357600080fd5b506104256108d236600461355c565b611c1f565b3480156108e357600080fd5b5060105463ffffffff166000908152600160205260409020546103a2565b34801561090d57600080fd5b506103d37f000000000000000000000000000000000000000000000000000000000000000081565b6104a761094336600461384e565b612000565b34801561095457600080fd5b5061096e6109633660046135b2565b65ffffffffffff1690565b6040516001600160401b0390911681526020016103ac565b34801561099257600080fd5b506109c06109a13660046135b2565b6001602081905260009182526040909120805491015463ffffffff1682565b6040805192835263ffffffff9091166020830152016103ac565b3480156109e657600080fd5b506007546109fa906001600160a01b031681565b6040516001600160a01b0390911681526020016103ac565b348015610a1e57600080fd5b506103a260065481565b348015610a3457600080fd5b506103d3601e81565b348015610a4957600080fd5b50610a5d610a583660046135b2565b61261b565b6040805194855260208501939093529183015260608201526080016103ac565b348015610a8957600080fd5b506104a7610a98366004613601565b612655565b348015610aa957600080fd5b506103a2610ab83660046135b2565b60086020526000908152604090205481565b348015610ad657600080fd5b50601054600160601b90046001600160a01b03166109fa565b348015610afb57600080fd5b50610b0f610b0a3660046134e8565b6126d0565b6040516103ac9190613a65565b348015610b2857600080fd5b506104a7610b373660046138af565b612798565b348015610b4857600080fd5b506103a27f2fe54c60d3acabf3343a35b6eba15db4821b340f76e741e2249685ed4899af6c81565b348015610b7c57600080fd5b506010546109fa90600160601b90046001600160a01b031681565b348015610ba357600080fd5b506103a2610bb23660046135b2565b60026020526000908152604090205481565b348015610bd057600080fd5b50610425610bdf3660046135b2565b60096020526000908152604090205460ff1681565b348015610c0057600080fd5b506109fa7f000000000000000000000000000000000000000000000000000000000000000081565b348015610c3457600080fd5b506010546103d390640100000000900463ffffffff1681565b606060007f000000000000000000000000000000000000000000000000000000000000000060ff166001600160401b03811115610c8c57610c8c61406a565b604051908082528060200260200182016040528015610cb5578160200160208202803683370190505b50905060005b7f000000000000000000000000000000000000000000000000000000000000000060ff16811015610e1857610cf1816001613ce2565b600a5410610d4157600a8181548110610d0c57610d0c614054565b906000526020600020906004020160010154828281518110610d3057610d30614054565b602002602001018181525050610e06565b3063305e9eac610d7260017f0000000000000000000000000000000000000000000000000000000000000000613ee1565b6040516001600160e01b031960e084901b16815263ffffffff91909116600482015260240160206040518083038186803b158015610daf57600080fd5b505afa158015610dc3573d6000803e3d6000fd5b505050506040513d601f19601f82011682018060405250810190610de791906135cb565b828281518110610df957610df9614054565b6020026020010181815250505b80610e1081613f89565b915050610cbb565b50919050565b6007546001600160a01b03163314610e515760405162461bcd60e51b8152600401610e4890613c7b565b60405180910390fd5b8063ffffffff168060065410610e795760405162461bcd60e51b8152600401610e4890613b5a565b600654610e87906001613ce2565b811115610ea65760405162461bcd60e51b8152600401610e4890613b9d565b6006819055610eb483600e55565b505050565b6000600160f81b8210610efc5760405162461bcd60e51b815260206004820152600b60248201526a496e76616c69642066656560a81b6044820152606401610e48565b610f09600160f81b61400b565b83138015610f1a5750600160f81b83125b610f5b5760405162461bcd60e51b8152602060048201526012602482015271125b9d985b1a5908195e1d08185b5bdd5b9d60721b6044820152606401610e48565b6000610f678385613e8b565b90506000811215610faa57610f7b8161400b565b610fa5907f30644e72e131a029b85045b68181585d2833e84879b9709143e1f593f0000001613eca565b610fac565b805b9150505b92915050565b601054604051631d052ab160e31b815263ffffffff83166004820152600091600160601b90046001600160a01b03169063e82955889060240160206040518083038186803b15801561100757600080fd5b505afa15801561101b573d6000803e3d6000fd5b505050506040513d601f19601f82011682018060405250810190610fb091906135cb565b60008161104e57506000610fb0565b6000838152600c602052604090205463ffffffff16805b6000858152600b6020908152604080832063ffffffff8516845290915290205484141561109757600192505050610fb0565b63ffffffff81166110a65750601e5b806110b081613f69565b9150508163ffffffff168163ffffffff16141561106557506000949350505050565b60408051600160f81b602082018190524660e01b6001600160e01b0319811660228401528351808403600601815260269093019093526000929161111581613f06565b60d01c935050505090565b61112b8430836128ea565b604051632404142f60e11b81526001600160a01b038481166004830152602482018390528381166044830152851690634808285e906064015b600060405180830381600087803b15801561117e57600080fd5b505af1158015611192573d6000803e3d6000fd5b5050505050505050565b600080306001600160a01b031663ea495db06040518163ffffffff1660e01b815260040160206040518083038186803b1580156111d857600080fd5b505afa1580156111ec573d6000803e3d6000fd5b505050506040513d601f19601f8201168201806040525081019061121091906135e4565b604051635bb9399560e01b815260048101869052602481018590529091506001600160a01b03821690635bb939959060440160206040518083038186803b15801561125a57600080fd5b505afa15801561126e573d6000803e3d6000fd5b505050506040513d601f19601f82011682018060405250810190610fac91906135cb565b600260055414156112b55760405162461bcd60e51b8152600401610e4890613bfa565b600260055560006112c46110d2565b8a8a8a805190602001208a8a6040516020016112e596959493929190613a1c565b60405160208183030381529060405280519060200120905061130c858260001c86866129c1565b61134f5760405162461bcd60e51b815260206004820152601460248201527324b73b30b634b21026b2b935b63290283937b7b360611b6044820152606401610e48565b6000818152600360205260409020805460ff191660011790556113987f0000000000000000000000000000000000000000000000000000000000000000838b6106168e8b612b46565b6113c37f00000000000000000000000000000000000000000000000000000000000000003388612b52565b505060016005555050505050505050565b604051634b66a6ff60e11b81526004810182905260009081906001600160a01b038516906396cd4dfe9060240160206040518083038186803b15801561141957600080fd5b505afa15801561142d573d6000803e3d6000fd5b505050506040513d601f19601f8201168201806040525081019061145191906135cb565b90506001600160a01b0385166114e25780341461146d57600080fd5b604051633d97186b60e11b81523360048201526001600160a01b03868116602483015260006044830152306064830152851690637b2e30d69034906084016000604051808303818588803b1580156114c457600080fd5b505af11580156114d8573d6000803e3d6000fd5b5050505050611553565b604051633d97186b60e11b81523360048201526001600160a01b03868116602483015260448201839052306064830152851690637b2e30d69034906084016000604051808303818588803b15801561153957600080fd5b505af115801561154d573d6000803e3d6000fd5b50505050505b90505b9392505050565b600260055414156115805760405162461bcd60e51b8152600401610e4890613bfa565b6002600555600061158f6110d2565b8989898051906020012089896040516020016115b096959493929190613a1c565b6040516020818303038152906040528051906020012090506115d7848260001c85856129c1565b61161a5760405162461bcd60e51b815260206004820152601460248201527324b73b30b634b21026b2b935b63290283937b7b360611b6044820152606401610e48565b6000818152600360205260409020805460ff191660011790556116677f0000000000000000000000000000000000000000000000000000000000000000896116628c89612b46565b6128ea565b6116927f00000000000000000000000000000000000000000000000000000000000000003387612b52565b5050600160055550505050505050565b6007546001600160a01b031633146116cc5760405162461bcd60e51b8152600401610e4890613c7b565b8063ffffffff1680600654106116f45760405162461bcd60e51b8152600401610e4890613b5a565b600654611702906001613ce2565b8111156117215760405162461bcd60e51b8152600401610e4890613b9d565b60068190556001600160a01b0383166117725760405162461bcd60e51b8152602060048201526013602482015272048616e646c65722063616e6e6f74206265203606c1b6044820152606401610e48565b5050600780546001600160a01b0319166001600160a01b0392909216919091179055565b606060007f000000000000000000000000000000000000000000000000000000000000000060ff166001600160401b038111156117d5576117d561406a565b60405190808252806020026020018201604052801561183457816020015b6118216040518060800160405280600081526020016000815260200160008152602001600080191681525090565b8152602001906001900390816117f35790505b50905060005b7f000000000000000000000000000000000000000000000000000000000000000060ff16811015610e1857611870816001613ce2565b600a54106118ee57600a818154811061188b5761188b614054565b90600052602060002090600402016040518060800160405290816000820154815260200160018201548152602001600282015481526020016003820154815250508282815181106118de576118de614054565b60200260200101819052506119d8565b604080516080810190915260008152602081013063305e9eac61193260017f0000000000000000000000000000000000000000000000000000000000000000613ee1565b6040516001600160e01b031960e084901b16815263ffffffff91909116600482015260240160206040518083038186803b15801561196f57600080fd5b505afa158015611983573d6000803e3d6000fd5b505050506040513d601f19601f820116820180604052508101906119a791906135cb565b8152602001600081526020016000801b8152508282815181106119cc576119cc614054565b60200260200101819052505b806119e281613f89565b91505061183a565b6007546001600160a01b03163314611a145760405162461bcd60e51b8152600401610e4890613c7b565b8063ffffffff168060065410611a3c5760405162461bcd60e51b8152600401610e4890613b5a565b600654611a4a906001613ce2565b811115611a695760405162461bcd60e51b8152600401610e4890613b9d565b6006819055610eb483600f55565b600081611a8657506000919050565b60105463ffffffff16805b63ffffffff8116600090815260016020526040902054841415611ab8575060019392505050565b63ffffffff8116611ac75750601e5b80611ad181613f69565b9150508163ffffffff168163ffffffff161415611a91575060009392505050565b60026005541415611b155760405162461bcd60e51b8152600401610e4890613bfa565b6002600555600f54871115611b3c5760405162461bcd60e51b8152600401610e4890613c31565b60008888888888604051611b519291906139f0565b604051908190038120611b6d9493929189908990602001613a1c565b604051602081830303815290604052805190602001209050611bb0827f00000000000000000000000000000000000000000000000000000000000000008a6113d4565b5061169281612bef565b80516001600160a01b03163314611c135760405162461bcd60e51b815260206004820152601c60248201527f6f6e6c79206f776e65722063616e2062652072656769737465726564000000006044820152606401610e48565b611c1c81612cd0565b50565b6000306001600160a01b031663a6232a9383600081518110611c4357611c43614054565b60200260200101516040518263ffffffff1660e01b8152600401611c6991815260200190565b60206040518083038186803b158015611c8157600080fd5b505afa158015611c95573d6000803e3d6000fd5b505050506040513d601f19601f82011682018060405250810190611cb99190613590565b611d055760405162461bcd60e51b815260206004820152601c60248201527f43616e6e6f742066696e6420796f7572206d65726b6c6520726f6f74000000006044820152606401610e48565b611d307f00000000000000000000000000000000000000000000000000000000000000006001613d22565b60ff16825114611d825760405162461bcd60e51b815260206004820152601b60248201527f496e636f727265637420726f6f74206172726179206c656e67746800000000006044820152606401610e48565b600160005b600a54811015611e89576000600a8281548110611da657611da6614054565b90600052602060002090600402016040518060800160405290816000820154815260200160018201548152602001600282015481526020016003820154815250509050611e1c816000015186846001611dff9190613ce2565b81518110611e0f57611e0f614054565b602002602001015161103f565b611e685760405162461bcd60e51b815260206004820152601760248201527f4e65696768626f7220726f6f74206e6f7420666f756e640000000000000000006044820152606401610e48565b82611e7281613f89565b935050508080611e8190613f89565b915050611d87565b505b611eb67f00000000000000000000000000000000000000000000000000000000000000006001613d22565b60ff168114611ff7573063305e9eac611ef060017f0000000000000000000000000000000000000000000000000000000000000000613ee1565b6040516001600160e01b031960e084901b16815263ffffffff91909116600482015260240160206040518083038186803b158015611f2d57600080fd5b505afa158015611f41573d6000803e3d6000fd5b505050506040513d601f19601f82011682018060405250810190611f6591906135cb565b838281518110611f7757611f77614054565b602002602001015114611fe55760405162461bcd60e51b815260206004820152603060248201527f6e6f6e2d6578697374656e742065646765206973206e6f742073657420746f2060448201526f1d1a1948191959985d5b1d081c9bdbdd60821b6064820152608401610e48565b80611fef81613f89565b915050611e8b565b50600192915050565b6007546001600160a01b0316331461202a5760405162461bcd60e51b8152600401610e4890613c7b565b60005460ff1661207c5760405162461bcd60e51b815260206004820152601c60248201527f496e697469616c697a65643a204e6f7420696e697469616c697a6564000000006044820152606401610e48565b6002600554141561209f5760405162461bcd60e51b8152600401610e4890613bfa565b6002600555600065ffffffffffff8216604051639215631160e01b81526001600160401b0382166004820152909150309063921563119060240160206040518083038186803b1580156120f157600080fd5b505afa158015612105573d6000803e3d6000fd5b505050506040513d601f19601f820116820180604052508101906121299190613590565b1561243e576001600160401b038116600090815260086020526040902054600a805463ffffffff86169290811061216257612162614054565b906000526020600020906004020160020154106121c15760405162461bcd60e51b815260206004820152601e60248201527f4e6577206c65616620696e646578206d757374206265206772656174657200006044820152606401610e48565b600a60086000836001600160401b0316815260200190815260200160002054815481106121f0576121f0614054565b906000526020600020906004020160020154620100006122109190613ce2565b8363ffffffff16106122745760405162461bcd60e51b815260206004820152602760248201527f4e6577206c65616620696e646578206d7573742077697468696e20325e3136206044820152667570646174657360c81b6064820152608401610e48565b600a60086000836001600160401b0316815260200190815260200160002054815481106122a3576122a3614054565b90600052602060002090600402016003015482146123035760405162461bcd60e51b815260206004820152601e60248201527f7372635265736f757263654944206d757374206265207468652073616d6500006044820152606401610e48565b6001600160401b038116600090815260086020526040902054600a805463ffffffff861691908390811061233957612339614054565b90600052602060002090600402016002018190555084600a828154811061236257612362614054565b6000918252602080832060016004909302018201939093556001600160401b0385168252600c90925260408120549091601e916123a79163ffffffff90911690613cfa565b6123b19190613fe8565b6001600160401b0384166000818152600c60209081526040808320805463ffffffff191663ffffffff878116918217909255600b84528285209085528352928190208b905580519384529189169083015281018890529091507f918597b0fdca66b353a1b90d2287c2b06307c4d35c824dfcffeb4b675c961ce49060600160405180910390a15050612610565b600a5460ff7f000000000000000000000000000000000000000000000000000000000000000016116124b25760405162461bcd60e51b815260206004820152601a60248201527f5468697320416e63686f722069732061742063617061636974790000000000006044820152606401610e48565b6001600160401b0381166000818152600960209081526040808320805460ff19166001908117909155600a805483516080810185528781528086018c815263ffffffff8c1682870181815260608085018e81529786018755958a528351600486027fc65a7bb8d6351c1cf70c95a316cc6a92839c986682d98bc35f958f4883f9d2a881019190915592517fc65a7bb8d6351c1cf70c95a316cc6a92839c986682d98bc35f958f4883f9d2a9840155517fc65a7bb8d6351c1cf70c95a316cc6a92839c986682d98bc35f958f4883f9d2aa83015594517fc65a7bb8d6351c1cf70c95a316cc6a92839c986682d98bc35f958f4883f9d2ab9091015587875260088652848720829055600b865284872087805286528487208c9055845197885294870192909252918501899052939192917f5fe2c40955fb42111954fb4f898e4db4998d64ebaae1c872141ff1943990418a910160405180910390a15050505b505060016005555050565b600a818154811061262b57600080fd5b60009182526020909120600490910201805460018201546002830154600390930154919350919084565b60005460ff16156126a85760405162461bcd60e51b815260206004820181905260248201527f496e697469616c697a65643a20416c726561647920696e697469616c697a65646044820152606401610e48565b6126ba6000805460ff19166001179055565b6126c382600e55565b6126cc81600f55565b5050565b60606000826001600160401b038111156126ec576126ec61406a565b604051908082528060200260200182016040528015612715578160200160208202803683370190505b50905060005b838110156127905761275485858381811061273857612738614054565b9050602002013560009081526003602052604090205460ff1690565b1561277e57600182828151811061276d5761276d614054565b911515602092830291909101909101525b8061278881613f89565b91505061271b565b509392505050565b600260055414156127bb5760405162461bcd60e51b8152600401610e4890613bfa565b6002600555600f548611156127e25760405162461bcd60e51b8152600401610e4890613c31565b600087878787876040516127f79291906139f0565b6040519081900381206128139493929188908890602001613a1c565b60408051808303601f190181529082905280516020909101206323b872dd60e01b82523360048301523060248301526044820189905291507f00000000000000000000000000000000000000000000000000000000000000006001600160a01b0316906323b872dd90606401602060405180830381600087803b15801561289957600080fd5b505af11580156128ad573d6000803e3d6000fd5b505050506040513d601f19601f820116820180604052508101906128d19190613590565b506128db81612bef565b50506001600555505050505050565b6040516370a0823160e01b81523060048201526000906001600160a01b038516906370a082319060240160206040518083038186803b15801561292c57600080fd5b505afa158015612940573d6000803e3d6000fd5b505050506040513d601f19601f8201168201806040525081019061296491906135cb565b9050818110612986576129816001600160a01b0385168484612d1c565b6129bb565b6040516340c10f1960e01b81526001600160a01b038481166004830152602482018490528516906340c10f1990604401611164565b50505050565b60008383825b87518160ff161015612a5d576129de600283613fe8565b63ffffffff16612a1557612a0e83898360ff1681518110612a0157612a01614054565b602002602001015161119c565b9250612a3e565b612a3b888260ff1681518110612a2d57612a2d614054565b60200260200101518461119c565b92505b612a49600283613d47565b915080612a5581613fc8565b9150506129c7565b506000805b600a54811015612ab5578180612aa15750612aa1600a8281548110612a8957612a89614054565b9060005260206000209060040201600001548761103f565b915080612aad81613f89565b915050612a62565b508080612b2c575060405163a6232a9360e01b815260048101869052309063a6232a939060240160206040518083038186803b158015612af457600080fd5b505afa158015612b08573d6000803e3d6000fd5b505050506040513d601f19601f82011682018060405250810190612b2c9190613590565b90508285148015612b3a5750805b98975050505050505050565b60006115568284613eca565b6040516370a0823160e01b81523060048201526000906001600160a01b038516906370a082319060240160206040518083038186803b158015612b9457600080fd5b505afa158015612ba8573d6000803e3d6000fd5b505050506040513d601f19601f82011682018060405250810190612bcc91906135cb565b905081156129bb57818110612986576129816001600160a01b0385168484612d1c565b612bf881612d6e565b507f8646243b1f3099f7f0c30af0d00cb712e1cc160b88e861c647f19d2f38eef5738160006001306001600160a01b0316630eb7606f6040518163ffffffff1660e01b815260040160206040518083038186803b158015612c5857600080fd5b505afa158015612c6c573d6000803e3d6000fd5b505050506040513d601f19601f82011682018060405250810190612c909190613892565b612c9a9190613ee1565b60408051938452602084019290925263ffffffff169082015260806060820181905260009082015260a00160405180910390a150565b80600001516001600160a01b03167f2c1ca5c14df2aba59d26842c5ff53f6817052ef34f6f7537f8b4c9e3805a5e508260200151604051612d119190613b47565b60405180910390a250565b604080516001600160a01b038416602482015260448082018490528251808303909101815260649091019091526020810180516001600160e01b031663a9059cbb60e01b179052610eb4908490612e51565b60008181526004602052604081205460ff1615612dd75760405162461bcd60e51b815260206004820152602160248201527f54686520636f6d6d69746d656e7420686173206265656e207375626d697474656044820152601960fa1b6064820152608401610e48565b6000612de283612f23565b60008481526004602052604090819020805460ff191660011790555190915083907f541f8d374fa22cc2e7ca05e4507d5110c7ccb3977be348f5e73bbc8e67989a7390612e43908490429063ffffffff929092168252602082015260400190565b60405180910390a292915050565b6000612ea6826040518060400160405280602081526020017f5361666545524332303a206c6f772d6c6576656c2063616c6c206661696c6564815250856001600160a01b03166131a79092919063ffffffff16565b805190915015610eb45780806020019051810190612ec49190613590565b610eb45760405162461bcd60e51b815260206004820152602a60248201527f5361666545524332303a204552433230206f7065726174696f6e20646964206e6044820152691bdd081cdd58d8d9595960b21b6064820152608401610e48565b60105460009063ffffffff6401000000008204811691612f4d91600160401b909104166002613daf565b63ffffffff168163ffffffff161415612fc15760405162461bcd60e51b815260206004820152603060248201527f4d65726b6c6520747265652069732066756c6c2e204e6f206d6f7265206c656160448201526f1d995cc818d85b88189948185919195960821b6064820152608401610e48565b8083600080805b60105463ffffffff600160401b909104811690821610156130e857612fee600286613fe8565b63ffffffff166130a157601054604051631d052ab160e31b815263ffffffff83166004820152859450600160601b9091046001600160a01b03169063e82955889060240160206040518083038186803b15801561304a57600080fd5b505afa15801561305e573d6000803e3d6000fd5b505050506040513d601f19601f8201168201806040525081019061308291906135cb565b63ffffffff8216600090815260026020526040902085905591506130bd565b63ffffffff811660009081526002602052604090205492508391505b6130c7838361119c565b93506130d4600286613d47565b9450806130e081613fa4565b915050612fc8565b50601054600090601e906131039063ffffffff166001613cfa565b61310d9190613fe8565b6010805463ffffffff191663ffffffff8316179055905061312f866001613cfa565b6010805467ffffffff00000000191664010000000063ffffffff93841681029190911791829055604080518082018252978852910482166020808801918252938316600090815260019485905291909120955186555194909101805463ffffffff191694909116939093179092555091949350505050565b60606115538484600085856001600160a01b0385163b6132095760405162461bcd60e51b815260206004820152601d60248201527f416464726573733a2063616c6c20746f206e6f6e2d636f6e74726163740000006044820152606401610e48565b600080866001600160a01b031685876040516132259190613a00565b60006040518083038185875af1925050503d8060008114613262576040519150601f19603f3d011682016040523d82523d6000602084013e613267565b606091505b5091509150613277828286613282565b979650505050505050565b60608315613291575081611556565b8251156132a15782518084602001fd5b8160405162461bcd60e51b8152600401610e489190613b47565b80356132c681614080565b919050565b600082601f8301126132dc57600080fd5b813560206001600160401b038211156132f7576132f761406a565b8160051b613306828201613cb2565b83815282810190868401838801850189101561332157600080fd5b600093505b85841015613344578035835260019390930192918401918401613326565b50979650505050505050565b60008083601f84011261336257600080fd5b5081356001600160401b0381111561337957600080fd5b60208301915083602082850101111561339157600080fd5b9250929050565b600082601f8301126133a957600080fd5b81356001600160401b038111156133c2576133c261406a565b6133d5601f8201601f1916602001613cb2565b8181528460208386010111156133ea57600080fd5b816020850160208301376000918101602001919091529392505050565b803565ffffffffffff811681146132c657600080fd5b6000806000806080858703121561343357600080fd5b843561343e81614080565b9350602085013561344e81614080565b9250604085013561345e81614080565b9396929550929360600135925050565b60008060006060848603121561348357600080fd5b833561348e81614080565b9250602084013561349e81614080565b929592945050506040919091013590565b600080604083850312156134c257600080fd5b82356134cd81614080565b915060208301356134dd81614095565b809150509250929050565b600080602083850312156134fb57600080fd5b82356001600160401b038082111561351257600080fd5b818501915085601f83011261352657600080fd5b81358181111561353557600080fd5b8660208260051b850101111561354a57600080fd5b60209290920196919550909350505050565b60006020828403121561356e57600080fd5b81356001600160401b0381111561358457600080fd5b610fac848285016132cb565b6000602082840312156135a257600080fd5b81518015158114610faa57600080fd5b6000602082840312156135c457600080fd5b5035919050565b6000602082840312156135dd57600080fd5b5051919050565b6000602082840312156135f657600080fd5b8151610faa81614080565b6000806040838503121561361457600080fd5b50508035926020909101359150565b60006020828403121561363557600080fd5b81356001600160401b038082111561364c57600080fd5b908301906040828603121561366057600080fd5b60405160408101818110838211171561367b5761367b61406a565b604052823561368981614080565b815260208301358281111561369d57600080fd5b6136a987828601613398565b60208301525095945050505050565b600080600080600080600080610100898b0312156136d557600080fd5b8835975060208901356136e781614080565b965060408901356001600160401b038082111561370357600080fd5b61370f8c838d01613398565b975060608b0135965060808b0135955060a08b013591508082111561373357600080fd5b506137408b828c016132cb565b93505060c089013561375181614095565b8092505060e089013590509295985092959890939650565b60008060008060008060008060006101208a8c03121561378857600080fd5b8935985060208a013561379a81614080565b975060408a01356001600160401b03808211156137b657600080fd5b6137c28d838e01613398565b985060608c0135975060808c0135965060a08c01359150808211156137e657600080fd5b506137f38c828d016132cb565b94505060c08a013561380481614095565b925060e08a0135915061381a6101008b016132bb565b90509295985092959850929598565b6000806040838503121561383c57600080fd5b8235915060208301356134dd81614095565b60008060006060848603121561386357600080fd5b83359250602084013561349e81614095565b60006020828403121561388757600080fd5b8135610faa81614095565b6000602082840312156138a457600080fd5b8151610faa81614095565b600080600080600080600060c0888a0312156138ca57600080fd5b6138d388613407565b96506020880135955060408801356138ea81614080565b945060608801356001600160401b0381111561390557600080fd5b6139118a828b01613350565b989b979a50959895979660808701359660a0013595509350505050565b60008060008060008060008060e0898b03121561394a57600080fd5b61395389613407565b975060208901359650604089013561396a81614080565b955060608901356001600160401b0381111561398557600080fd5b6139918b828c01613350565b9096509450506080890135925060a0890135915060c08901356139b381614080565b809150509295985092959890939650565b600081518084526139dc816020860160208601613f3d565b601f01601f19169290920160200192915050565b8183823760009101908152919050565b60008251613a12818460208701613f3d565b9190910192915050565b60d09690961b6001600160d01b0319168652600686019490945260609290921b6bffffffffffffffffffffffff19166026850152603a840152605a830152607a820152609a0190565b6020808252825182820181905260009190848201906040850190845b81811015613a9f578351151583529284019291840191600101613a81565b50909695505050505050565b602080825282518282018190526000919060409081850190868401855b82811015613b0257815180518552868101518786015285810151868601526060908101519085015260809093019290850190600101613ac8565b5091979650505050505050565b6020808252825182820181905260009190848201906040850190845b81811015613a9f57835183529284019291840191600101613b2b565b60208152600061155660208301846139c4565b60208082526023908201527f50726f706f73616c4e6f6e6365547261636b65723a20496e76616c6964206e6f6040820152626e636560e81b606082015260800190565b6020808252603a908201527f50726f706f73616c4e6f6e6365547261636b65723a204e6f6e6365206d75737460408201527f206e6f7420696e6372656d656e74206d6f7265207468616e2031000000000000606082015260800190565b6020808252601f908201527f5265656e7472616e637947756172643a207265656e7472616e742063616c6c00604082015260600190565b6020808252602a908201527f616d6f756e74206973206c6172676572207468616e206d6178696d756d4465706040820152691bdcda5d105b5bdd5b9d60b21b606082015260800190565b60208082526019908201527f73656e646572206973206e6f74207468652068616e646c657200000000000000604082015260600190565b604051601f8201601f191681016001600160401b0381118282101715613cda57613cda61406a565b604052919050565b60008219821115613cf557613cf5614028565b500190565b600063ffffffff808316818516808303821115613d1957613d19614028565b01949350505050565b600060ff821660ff84168060ff03821115613d3f57613d3f614028565b019392505050565b600063ffffffff80841680613d5e57613d5e61403e565b92169190910492915050565b600181815b80851115613da7578163ffffffff04821115613d8d57613d8d614028565b80851615613d9a57918102915b93841c9390800290613d6f565b509250929050565b600063ffffffff610fac818516828516600082613dce57506001610fb0565b81613ddb57506000610fb0565b8160018114613df15760028114613dfb57613e2c565b6001915050610fb0565b60ff841115613e0c57613e0c614028565b6001841b915063ffffffff821115613e2657613e26614028565b50610fb0565b5060208310610133831016604e8410600b8410161715613e63575081810a63ffffffff811115613e5e57613e5e614028565b610fb0565b613e6d8383613d6a565b8063ffffffff04821115613e8357613e83614028565b029392505050565b60008083128015600160ff1b850184121615613ea957613ea9614028565b6001600160ff1b0384018313811615613ec457613ec4614028565b50500390565b600082821015613edc57613edc614028565b500390565b600063ffffffff83811690831681811015613efe57613efe614028565b039392505050565b805160208201516001600160d01b03198082169291906006831015613f355780818460060360031b1b83161693505b505050919050565b60005b83811015613f58578181015183820152602001613f40565b838111156129bb5750506000910152565b600063ffffffff821680613f7f57613f7f614028565b6000190192915050565b6000600019821415613f9d57613f9d614028565b5060010190565b600063ffffffff80831681811415613fbe57613fbe614028565b6001019392505050565b600060ff821660ff811415613fdf57613fdf614028565b60010192915050565b600063ffffffff80841680613fff57613fff61403e565b92169190910692915050565b6000600160ff1b82141561402157614021614028565b5060000390565b634e487b7160e01b600052601160045260246000fd5b634e487b7160e01b600052601260045260246000fd5b634e487b7160e01b600052603260045260246000fd5b634e487b7160e01b600052604160045260246000fd5b6001600160a01b0381168114611c1c57600080fd5b63ffffffff81168114611c1c57600080fdfea2646970667358221220b8fae865e8f7daeeaefa575cfce556a7755e38d2fb9c453299a59cd0edb3fecf64736f6c63430008050033",
  "linkReferences": {},
  "deployedLinkReferences": {}
}