{
  "_format": "hh-sol-artifact-1",
  "contractName": "ProxiedBatchMerkleTree",
  "sourceName": "contracts/trees/ProxiedBatchUpdatableTree.sol",
  "abi": [
    {
      "inputs": [
        {
          "internalType": "uint32",
          "name": "_levels",
          "type": "uint32"
        },
        {
          "internalType": "contract IHasher",
          "name": "_hasher",
          "type": "address"
        },
        {
          "internalType": "contract IBatchTreeVerifierSelector",
          "name": "_treeUpdateVerifier",
          "type": "address"
        },
        {
          "internalType": "contract IMASPProxy",
          "name": "_maspProxy",
          "type": "address"
        }
      ],
      "stateMutability": "nonpayable",
      "type": "constructor"
    },
    {
      "anonymous": false,
      "inputs": [
        {
          "indexed": false,
          "internalType": "address",
          "name": "instance",
          "type": "address"
        },
        {
          "indexed": true,
          "internalType": "bytes32",
          "name": "hash",
          "type": "bytes32"
        },
        {
          "indexed": false,
          "internalType": "uint256",
          "name": "block",
          "type": "uint256"
        },
        {
          "indexed": false,
          "internalType": "uint256",
          "name": "index",
          "type": "uint256"
        }
      ],
      "name": "DepositData",
      "type": "event"
    },
    {
      "anonymous": false,
      "inputs": [
        {
          "indexed": true,
          "internalType": "uint256",
          "name": "commitment",
          "type": "uint256"
        },
        {
          "indexed": false,
          "internalType": "uint32",
          "name": "leafIndex",
          "type": "uint32"
        },
        {
          "indexed": false,
          "internalType": "uint256",
          "name": "timestamp",
          "type": "uint256"
        }
      ],
      "name": "Insertion",
      "type": "event"
    },
    {
      "inputs": [],
      "name": "FIELD_SIZE",
      "outputs": [
        {
          "internalType": "uint256",
          "name": "",
          "type": "uint256"
        }
      ],
      "stateMutability": "view",
      "type": "function"
    },
    {
      "inputs": [],
      "name": "HEADER_SIZE",
      "outputs": [
        {
          "internalType": "uint256",
          "name": "",
          "type": "uint256"
        }
      ],
      "stateMutability": "view",
      "type": "function"
    },
    {
      "inputs": [],
      "name": "ITEM_SIZE",
      "outputs": [
        {
          "internalType": "uint256",
          "name": "",
          "type": "uint256"
        }
      ],
      "stateMutability": "view",
      "type": "function"
    },
    {
      "inputs": [],
      "name": "ROOT_HISTORY_SIZE",
      "outputs": [
        {
          "internalType": "uint32",
          "name": "",
          "type": "uint32"
        }
      ],
      "stateMutability": "view",
      "type": "function"
    },
    {
      "inputs": [],
      "name": "SNARK_FIELD",
      "outputs": [
        {
          "internalType": "uint256",
          "name": "",
          "type": "uint256"
        }
      ],
      "stateMutability": "view",
      "type": "function"
    },
    {
      "inputs": [],
      "name": "ZERO_VALUE",
      "outputs": [
        {
          "internalType": "uint256",
          "name": "",
          "type": "uint256"
        }
      ],
      "stateMutability": "view",
      "type": "function"
    },
    {
      "inputs": [
        {
          "internalType": "bytes",
          "name": "_proof",
          "type": "bytes"
        },
        {
          "internalType": "bytes32",
          "name": "_argsHash",
          "type": "bytes32"
        },
        {
          "internalType": "bytes32",
          "name": "_currentRoot",
          "type": "bytes32"
        },
        {
          "internalType": "bytes32",
          "name": "_newRoot",
          "type": "bytes32"
        },
        {
          "internalType": "uint32",
          "name": "_pathIndices",
          "type": "uint32"
        },
        {
          "internalType": "bytes32[]",
          "name": "_leaves",
          "type": "bytes32[]"
        },
        {
          "internalType": "uint32",
          "name": "_batchHeight",
          "type": "uint32"
        }
      ],
      "name": "batchInsert",
      "outputs": [],
      "stateMutability": "nonpayable",
      "type": "function"
    },
    {
      "inputs": [
        {
          "internalType": "bytes32[]",
          "name": "_leaves",
          "type": "bytes32[]"
        }
      ],
      "name": "checkLeavesLength",
      "outputs": [],
      "stateMutability": "nonpayable",
      "type": "function"
    },
    {
      "inputs": [
        {
          "internalType": "uint256",
          "name": "",
          "type": "uint256"
        }
      ],
      "name": "commitments",
      "outputs": [
        {
          "internalType": "bool",
          "name": "",
          "type": "bool"
        }
      ],
      "stateMutability": "view",
      "type": "function"
    },
    {
      "inputs": [],
      "name": "currentRoot",
      "outputs": [
        {
          "internalType": "bytes32",
          "name": "",
          "type": "bytes32"
        }
      ],
      "stateMutability": "view",
      "type": "function"
    },
    {
      "inputs": [],
      "name": "currentRootIndex",
      "outputs": [
        {
          "internalType": "uint32",
          "name": "",
          "type": "uint32"
        }
      ],
      "stateMutability": "view",
      "type": "function"
    },
    {
      "inputs": [
        {
          "internalType": "uint256",
          "name": "",
          "type": "uint256"
        }
      ],
      "name": "filledSubtrees",
      "outputs": [
        {
          "internalType": "uint256",
          "name": "",
          "type": "uint256"
        }
      ],
      "stateMutability": "view",
      "type": "function"
    },
    {
      "inputs": [],
      "name": "getHasher",
      "outputs": [
        {
          "internalType": "contract IHasher",
          "name": "",
          "type": "address"
        }
      ],
      "stateMutability": "view",
      "type": "function"
    },
    {
      "inputs": [],
      "name": "getLastRoot",
      "outputs": [
        {
          "internalType": "uint256",
          "name": "",
          "type": "uint256"
        }
      ],
      "stateMutability": "view",
      "type": "function"
    },
    {
      "inputs": [],
      "name": "getLevels",
      "outputs": [
        {
          "internalType": "uint32",
          "name": "",
          "type": "uint32"
        }
      ],
      "stateMutability": "view",
      "type": "function"
    },
    {
      "inputs": [],
      "name": "getNextIndex",
      "outputs": [
        {
          "internalType": "uint32",
          "name": "",
          "type": "uint32"
        }
      ],
      "stateMutability": "view",
      "type": "function"
    },
    {
      "inputs": [
        {
          "internalType": "uint32",
          "name": "index",
          "type": "uint32"
        }
      ],
      "name": "getZeroHash",
      "outputs": [
        {
          "internalType": "uint256",
          "name": "",
          "type": "uint256"
        }
      ],
      "stateMutability": "view",
      "type": "function"
    },
    {
      "inputs": [
        {
          "internalType": "uint256",
          "name": "_left",
          "type": "uint256"
        },
        {
          "internalType": "uint256",
          "name": "_right",
          "type": "uint256"
        }
      ],
      "name": "hashLeftRight",
      "outputs": [
        {
          "internalType": "uint256",
          "name": "",
          "type": "uint256"
        }
      ],
      "stateMutability": "view",
      "type": "function"
    },
    {
      "inputs": [],
      "name": "hasher",
      "outputs": [
        {
          "internalType": "contract IHasher",
          "name": "",
          "type": "address"
        }
      ],
      "stateMutability": "view",
      "type": "function"
    },
    {
      "inputs": [],
      "name": "initialized",
      "outputs": [
        {
          "internalType": "bool",
          "name": "",
          "type": "bool"
        }
      ],
      "stateMutability": "view",
      "type": "function"
    },
    {
      "inputs": [
        {
          "internalType": "uint256",
          "name": "_root",
          "type": "uint256"
        }
      ],
      "name": "isKnownRoot",
      "outputs": [
        {
          "internalType": "bool",
          "name": "",
          "type": "bool"
        }
      ],
      "stateMutability": "view",
      "type": "function"
    },
    {
      "inputs": [],
      "name": "levels",
      "outputs": [
        {
          "internalType": "uint32",
          "name": "",
          "type": "uint32"
        }
      ],
      "stateMutability": "view",
      "type": "function"
    },
    {
      "inputs": [],
      "name": "maspProxy",
      "outputs": [
        {
          "internalType": "address",
          "name": "",
          "type": "address"
        }
      ],
      "stateMutability": "view",
      "type": "function"
    },
    {
      "inputs": [],
      "name": "nextIndex",
      "outputs": [
        {
          "internalType": "uint32",
          "name": "",
          "type": "uint32"
        }
      ],
      "stateMutability": "view",
      "type": "function"
    },
    {
      "inputs": [
        {
          "internalType": "uint256",
          "name": "",
          "type": "uint256"
        }
      ],
      "name": "nullifierHashes",
      "outputs": [
        {
          "internalType": "bool",
          "name": "",
          "type": "bool"
        }
      ],
      "stateMutability": "view",
      "type": "function"
    },
    {
      "inputs": [],
      "name": "previousRoot",
      "outputs": [
        {
          "internalType": "bytes32",
          "name": "",
          "type": "bytes32"
        }
      ],
      "stateMutability": "view",
      "type": "function"
    },
    {
      "inputs": [
        {
          "internalType": "uint256",
          "name": "",
          "type": "uint256"
        }
      ],
      "name": "queue",
      "outputs": [
        {
          "internalType": "bytes32",
          "name": "",
          "type": "bytes32"
        }
      ],
      "stateMutability": "view",
      "type": "function"
    },
    {
      "inputs": [],
      "name": "queueLength",
      "outputs": [
        {
          "internalType": "uint256",
          "name": "",
          "type": "uint256"
        }
      ],
      "stateMutability": "view",
      "type": "function"
    },
    {
      "inputs": [
        {
          "internalType": "uint256",
          "name": "",
          "type": "uint256"
        }
      ],
      "name": "roots",
      "outputs": [
        {
          "internalType": "uint256",
          "name": "root",
          "type": "uint256"
        },
        {
          "internalType": "uint32",
          "name": "latestLeafindex",
          "type": "uint32"
        }
      ],
      "stateMutability": "view",
      "type": "function"
    },
    {
      "inputs": [],
      "name": "treeUpdateVerifier",
      "outputs": [
        {
          "internalType": "contract IBatchTreeVerifierSelector",
          "name": "",
          "type": "address"
        }
      ],
      "stateMutability": "view",
      "type": "function"
    },
    {
      "inputs": [
        {
          "internalType": "uint256[8]",
          "name": "_proof",
          "type": "uint256[8]"
        }
      ],
      "name": "unpackProof",
      "outputs": [
        {
          "internalType": "uint256[2]",
          "name": "",
          "type": "uint256[2]"
        },
        {
          "internalType": "uint256[2][2]",
          "name": "",
          "type": "uint256[2][2]"
        },
        {
          "internalType": "uint256[2]",
          "name": "",
          "type": "uint256[2]"
        }
      ],
      "stateMutability": "pure",
      "type": "function"
    }
  ],
  "bytecode": "0x6080604052600580546001600160401b03191690553480156200002157600080fd5b5060405162001a8338038062001a83833981016040819052620000449162000426565b60008463ffffffff1611620000ac5760405162461bcd60e51b815260206004820152602360248201527f5f6c6576656c732073686f756c642062652067726561746572207468616e207a60448201526265726f60e81b60648201526084015b60405180910390fd5b60208463ffffffff1610620001045760405162461bcd60e51b815260206004820152601e60248201527f5f6c6576656c732073686f756c64206265206c657373207468616e20333200006044820152606401620000a3565b600580546001600160401b03166801000000000000000063ffffffff8716026001600160601b0316176c010000000000000000000000006001600160a01b038681169190910291909117909155600a80546001600160a01b03191691841691909117905560005b8463ffffffff168163ffffffff1610156200023f57600554604051631d052ab160e31b815263ffffffff831660048201526c010000000000000000000000009091046001600160a01b03169063e82955889060240160206040518083038186803b158015620001d957600080fd5b505afa158015620001ee573d6000803e3d6000fd5b505050506040513d601f19601f820116820180604052508101906200021491906200040c565b63ffffffff821660009081526002602052604090205580620002368162000496565b9150506200016b565b5060006008556040805180820191829052600554631d052ab160e31b90925263ffffffff861660448201529081906c0100000000000000000000000090046001600160a01b031663e82955886064830160206040518083038186803b158015620002a857600080fd5b505afa158015620002bd573d6000803e3d6000fd5b505050506040513d601f19601f82011682018060405250810190620002e391906200040c565b81526000602091820181905280526001815281517fa6eef7e35abe7026729641147f7915573c7e97b47efa546f5f6e3230263bcb495501517fa6eef7e35abe7026729641147f7915573c7e97b47efa546f5f6e3230263bcb4a805463ffffffff191663ffffffff928316179055600554604051631d052ab160e31b815291861660048301526c0100000000000000000000000090046001600160a01b03169063e82955889060240160206040518083038186803b158015620003a457600080fd5b505afa158015620003b9573d6000803e3d6000fd5b505050506040513d601f19601f82011682018060405250810190620003df91906200040c565b600655600b80546001600160a01b0319166001600160a01b039290921691909117905550620004e2915050565b6000602082840312156200041f57600080fd5b5051919050565b600080600080608085870312156200043d57600080fd5b845163ffffffff811681146200045257600080fd5b60208601519094506200046581620004c9565b60408601519093506200047881620004c9565b60608601519092506200048b81620004c9565b939692955090935050565b600063ffffffff80831681811415620004bf57634e487b7160e01b600052601160045260246000fd5b6001019392505050565b6001600160a01b0381168114620004df57600080fd5b50565b61159180620004f26000396000f3fe608060405234801561001057600080fd5b50600436106101e55760003560e01c806390eeb02b1161010f578063ea495db0116100a2578063f5ab0dd611610071578063f5ab0dd61461048b578063fb4db29b146104ad578063fc7e9c6f146104c0578063fdab463d146104d857600080fd5b8063ea495db014610412578063ec7329591461042a578063ed33639f14610451578063f178e47c1461046b57600080fd5b8063ba70f757116100de578063ba70f75714610386578063c2b40ae4146103a3578063cd87a3b4146103ea578063ddf0b009146103f257600080fd5b806390eeb02b146103515780639ec1e66114610361578063a6232a931461036a578063ab91c7b01461037d57600080fd5b8063414a37ba11610187578063582dd70711610156578063582dd7071461031b5780635bb939951461032e578063710daf4d14610341578063734335a11461034957600080fd5b8063414a37ba1461028057806349ce8997146102b65780634a20de58146102d95780634ecf518b1461030457600080fd5b80631da28f05116101c35780631da28f05146102485780631f79a1e91461025d578063218df2e314610280578063305e9eac146102a357600080fd5b80630c394a60146101ea5780630eb7606f14610215578063158ef93e1461022b575b600080fd5b600554600160401b900463ffffffff165b60405163ffffffff90911681526020015b60405180910390f35b600554640100000000900463ffffffff166101fb565b6000546102389060ff1681565b604051901515815260200161020c565b61025b6102563660046110f4565b6104e1565b005b61023861026b3660046111f6565b60036020526000908152604090205460ff1681565b61029560008051602061153c83398151915281565b60405190815260200161020c565b6102956102b1366004611231565b610b44565b6102386102c43660046111f6565b60046020526000908152604090205460ff1681565b600a546102ec906001600160a01b031681565b6040516001600160a01b03909116815260200161020c565b6005546101fb90600160401b900463ffffffff1681565b61025b610329366004610fe7565b610bd3565b61029561033c36600461120f565b610c48565b610295602081565b610295604481565b6005546101fb9063ffffffff1681565b61029560075481565b6102386103783660046111f6565b610d46565b61029560085481565b60055463ffffffff16600090815260016020526040902054610295565b6103d06103b13660046111f6565b6001602081905260009182526040909120805491015463ffffffff1682565b6040805192835263ffffffff90911660208301520161020c565b6101fb601e81565b6102956104003660046111f6565b60096020526000908152604090205481565b600554600160601b90046001600160a01b03166102ec565b6102957f2fe54c60d3acabf3343a35b6eba15db4821b340f76e741e2249685ed4899af6c81565b6005546102ec90600160601b90046001600160a01b031681565b6102956104793660046111f6565b60026020526000908152604090205481565b61049e610499366004611029565b610dc1565b60405161020c93929190611325565b600b546102ec906001600160a01b031681565b6005546101fb90640100000000900463ffffffff1681565b61029560065481565b600b546001600160a01b0316331461054f5760405162461bcd60e51b815260206004820152602660248201527f4f6e6c79204d4153502070726f78792063616e2063616c6c20746869732066756044820152653731ba34b7b760d11b60648201526084015b60405180910390fd5b60055460065464010000000090910463ffffffff169087146105b35760405162461bcd60e51b815260206004820152601f60248201527f496e697469616c206465706f73697420726f6f7420697320696e76616c6964006044820152606401610546565b8163ffffffff1681901c8563ffffffff16146106115760405162461bcd60e51b815260206004820152601e60248201527f496e636f7272656374206465706f73697420696e7365727420696e64657800006044820152606401610546565b60405163582dd70760e01b8152309063582dd7079061063690879087906004016112e9565b600060405180830381600087803b15801561065057600080fd5b505af1158015610664573d6000803e3d6000fd5b50610683925060008051602061153c83398151915291508890506114ac565b955061069d60008051602061153c833981519152886114ac565b60001b96506106ca604051806040016040528060078152602001661b995dd49bdbdd60ca1b815250610e4a565b6106d386610e90565b6106ff6040518060400160405280600b81526020016a18dd5c9c995b9d149bdbdd60aa1b815250610e4a565b61070887610e90565b6000610715846020611426565b6107209060446113e6565b67ffffffffffffffff81111561073857610738611525565b6040519080825280601f01601f191660200182016040528015610762576020820181803683370190505b50905085604482015286604082015287602082015260005b8481101561083057600060008051602061153c8339815191528787848181106107a5576107a561150f565b9050602002013560001c6107b991906114ac565b60001b90506107e7604051806040016040528060088152602001670d8cac2cc90c2e6d60c31b815250610e4a565b6107f081610e90565b6064602083028401018190526009600061080a84876113e6565b81526020019081526020016000206000905550808061082890611491565b91505061077a565b50600060008051602061153c83398151915260028360405161085291906112cd565b602060405180830381855afa15801561086f573d6000803e3d6000fd5b5050506040513d601f19601f8201168201806040525081019061089291906110db565b61089c91906114ac565b90506108c7604051806040016040528060088152602001670c2e4cee690c2e6d60c31b815250610e4a565b6108d081610ed5565b6108f9604051806040016040528060088152602001670c2e4cee690c2e6d60c31b815250610e4a565b6109028a610ed5565b808a146109455760405162461bcd60e51b8152602060048201526011602482015270092dcecc2d8d2c840c2e4cee640d0c2e6d607b1b6044820152606401610546565b60006109538c8e018e611029565b9050600080600061096384610dc1565b925092509250600a60009054906101000a90046001600160a01b03166001600160a01b031663df9690dd84848460405180602001604052808b8152508f8f90506040518663ffffffff1660e01b81526004016109c395949392919061134e565b60206040518083038186803b1580156109db57600080fd5b505afa1580156109ef573d6000803e3d6000fd5b505050506040513d601f19601f82011682018060405250810190610a1391906110b2565b610a695760405162461bcd60e51b815260206004820152602160248201527f496e76616c6964206465706f7369742074726565207570646174652070726f6f6044820152603360f91b6064820152608401610546565b600680546007558c9055600554600090601e90610a8d9063ffffffff1660016113fe565b610a9791906114c0565b600554909150610ab6908b90640100000000900463ffffffff166113fe565b6005805467ffffffff00000000191664010000000063ffffffff93841681029190911780835560408051808201825260065481529290910484166020808401918252958516600081815260019788905292909220925183555191909401805463ffffffff19908116929094169190911790558054909116909117905550505050505050505050505050505050565b600554604051631d052ab160e31b815263ffffffff83166004820152600091600160601b90046001600160a01b03169063e82955889060240160206040518083038186803b158015610b9557600080fd5b505afa158015610ba9573d6000803e3d6000fd5b505050506040513d601f19601f82011682018060405250810190610bcd91906110db565b92915050565b6004811480610be25750600881145b80610bed5750601081145b80610bf85750602081145b610c445760405162461bcd60e51b815260206004820152601860248201527f496e76616c6964206e756d626572206f66206c656176657300000000000000006044820152606401610546565b5050565b600080306001600160a01b031663ea495db06040518163ffffffff1660e01b815260040160206040518083038186803b158015610c8457600080fd5b505afa158015610c98573d6000803e3d6000fd5b505050506040513d601f19601f82011682018060405250810190610cbc91906111cd565b604051635bb9399560e01b815260048101869052602481018590529091506001600160a01b03821690635bb939959060440160206040518083038186803b158015610d0657600080fd5b505afa158015610d1a573d6000803e3d6000fd5b505050506040513d601f19601f82011682018060405250810190610d3e91906110db565b949350505050565b600081610d5557506000919050565b60055463ffffffff16805b63ffffffff8116600090815260016020526040902054841415610d87575060019392505050565b63ffffffff8116610d965750601e5b80610da081611471565b9150508163ffffffff168163ffffffff161415610d60575060009392505050565b610dc9610f37565b610dd1610f55565b610dd9610f37565b50506040805180820182528351815260208085015181830152825160808082018552868501518286019081526060808901519084015282528451808601865290870151815260a08701518184015281830152835180850190945260c0860151845260e0909501519083015293909150565b610e8d81604051602401610e5e91906113b3565b60408051601f198184030181529190526020810180516001600160e01b031663104c13eb60e21b179052610f16565b50565b610e8d81604051602401610ea691815260200190565b60408051601f198184030181529190526020810180516001600160e01b03166327b7cf8560e01b179052610f16565b610e8d81604051602401610eeb91815260200190565b60408051601f198184030181529190526020810180516001600160e01b031663f82c50f160e01b1790525b80516a636f6e736f6c652e6c6f67602083016000808483855afa5050505050565b60405180604001604052806002906020820280368337509192915050565b60405180604001604052806002905b610f6c610f37565b815260200190600190039081610f645790505090565b60008083601f840112610f9457600080fd5b50813567ffffffffffffffff811115610fac57600080fd5b6020830191508360208260051b8501011115610fc757600080fd5b9250929050565b803563ffffffff81168114610fe257600080fd5b919050565b60008060208385031215610ffa57600080fd5b823567ffffffffffffffff81111561101157600080fd5b61101d85828601610f82565b90969095509350505050565b600061010080838503121561103d57600080fd5b83601f84011261104c57600080fd5b60405181810181811067ffffffffffffffff8211171561106e5761106e611525565b604052808483810187101561108257600080fd5b600093505b60088410156110a757803582526001939093019260209182019101611087565b509095945050505050565b6000602082840312156110c457600080fd5b815180151581146110d457600080fd5b9392505050565b6000602082840312156110ed57600080fd5b5051919050565b600080600080600080600080600060e08a8c03121561111257600080fd5b893567ffffffffffffffff8082111561112a57600080fd5b818c0191508c601f83011261113e57600080fd5b81358181111561114d57600080fd5b8d602082850101111561115f57600080fd5b60208381019c50909a508c0135985060408c0135975060608c0135965061118860808d01610fce565b955060a08c013591508082111561119e57600080fd5b506111ab8c828d01610f82565b90945092506111be905060c08b01610fce565b90509295985092959850929598565b6000602082840312156111df57600080fd5b81516001600160a01b03811681146110d457600080fd5b60006020828403121561120857600080fd5b5035919050565b6000806040838503121561122257600080fd5b50508035926020909101359150565b60006020828403121561124357600080fd5b6110d482610fce565b806000805b6002808210611260575061129d565b835186845b83811015611283578251825260209283019290910190600101611265565b505050604095909501945060209290920191600101611251565b5050505050565b8060005b60028110156112c75781518452602093840193909101906001016112a8565b50505050565b600082516112df818460208701611445565b9190910192915050565b6020808252810182905260006001600160fb1b0383111561130957600080fd5b8260051b80856040850137600092016040019182525092915050565b610100810161133482866112a4565b611341604083018561124c565b610d3e60c08301846112a4565b610140810161135d82886112a4565b61136a604083018761124c565b61137760c08301866112a4565b61010082018460005b600181101561139f578151835260209283019290910190600101611380565b505050826101208301529695505050505050565b60208152600082518060208401526113d2816040850160208701611445565b601f01601f19169190910160400192915050565b600082198211156113f9576113f96114e3565b500190565b600063ffffffff80831681851680830382111561141d5761141d6114e3565b01949350505050565b6000816000190483118215151615611440576114406114e3565b500290565b60005b83811015611460578181015183820152602001611448565b838111156112c75750506000910152565b600063ffffffff821680611487576114876114e3565b6000190192915050565b60006000198214156114a5576114a56114e3565b5060010190565b6000826114bb576114bb6114f9565b500690565b600063ffffffff808416806114d7576114d76114f9565b92169190910692915050565b634e487b7160e01b600052601160045260246000fd5b634e487b7160e01b600052601260045260246000fd5b634e487b7160e01b600052603260045260246000fd5b634e487b7160e01b600052604160045260246000fdfe30644e72e131a029b85045b68181585d2833e84879b9709143e1f593f0000001a26469706673582212206b76d53e73b7b18e634d35cee91d5daa318e7f203ac63140ded76b4a578189ef64736f6c63430008050033",
  "linkReferences": {},
  "deployedLinkReferences": {}
}