{
  "_format": "hh-sol-artifact-1",
  "contractName": "SignatureBridge",
  "sourceName": "contracts/SignatureBridge.sol",
  "abi": [
    {
      "inputs": [
        {
          "internalType": "address",
          "name": "initialGovernor",
          "type": "address"
        },
        {
          "internalType": "uint32",
          "name": "nonce",
          "type": "uint32"
        }
      ],
      "stateMutability": "nonpayable",
      "type": "constructor"
    },
    {
      "anonymous": false,
      "inputs": [
        {
          "indexed": true,
          "internalType": "address",
          "name": "previousOwner",
          "type": "address"
        },
        {
          "indexed": true,
          "internalType": "address",
          "name": "newOwner",
          "type": "address"
        }
      ],
      "name": "GovernanceOwnershipTransferred",
      "type": "event"
    },
    {
      "anonymous": false,
      "inputs": [
        {
          "indexed": true,
          "internalType": "address",
          "name": "recovered",
          "type": "address"
        }
      ],
      "name": "RecoveredAddress",
      "type": "event"
    },
    {
      "inputs": [],
      "name": "EVM_CHAIN_ID_TYPE",
      "outputs": [
        {
          "internalType": "bytes2",
          "name": "",
          "type": "bytes2"
        }
      ],
      "stateMutability": "view",
      "type": "function"
    },
    {
      "inputs": [
        {
          "internalType": "bytes32",
          "name": "",
          "type": "bytes32"
        }
      ],
      "name": "_resourceIdToHandlerAddress",
      "outputs": [
        {
          "internalType": "address",
          "name": "",
          "type": "address"
        }
      ],
      "stateMutability": "view",
      "type": "function"
    },
    {
      "inputs": [
        {
          "internalType": "bytes32",
          "name": "resourceID",
          "type": "bytes32"
        },
        {
          "internalType": "bytes4",
          "name": "functionSig",
          "type": "bytes4"
        },
        {
          "internalType": "uint32",
          "name": "nonce",
          "type": "uint32"
        },
        {
          "internalType": "bytes32",
          "name": "newResourceID",
          "type": "bytes32"
        },
        {
          "internalType": "address",
          "name": "handlerAddress",
          "type": "address"
        },
        {
          "internalType": "bytes",
          "name": "sig",
          "type": "bytes"
        }
      ],
      "name": "adminSetResourceWithSignature",
      "outputs": [],
      "stateMutability": "nonpayable",
      "type": "function"
    },
    {
      "inputs": [],
      "name": "averageSessionLengthInMillisecs",
      "outputs": [
        {
          "internalType": "uint64",
          "name": "",
          "type": "uint64"
        }
      ],
      "stateMutability": "view",
      "type": "function"
    },
    {
      "inputs": [
        {
          "internalType": "bytes32",
          "name": "resourceID",
          "type": "bytes32"
        },
        {
          "internalType": "bytes4",
          "name": "functionSig",
          "type": "bytes4"
        },
        {
          "internalType": "uint32[]",
          "name": "nonces",
          "type": "uint32[]"
        },
        {
          "internalType": "bytes32[]",
          "name": "newResourceIDs",
          "type": "bytes32[]"
        },
        {
          "internalType": "address[]",
          "name": "handlerAddresses",
          "type": "address[]"
        },
        {
          "internalType": "bytes32",
          "name": "hashedData",
          "type": "bytes32"
        },
        {
          "internalType": "bytes",
          "name": "sig",
          "type": "bytes"
        }
      ],
      "name": "batchAdminSetResourceWithSignature",
      "outputs": [],
      "stateMutability": "nonpayable",
      "type": "function"
    },
    {
      "inputs": [
        {
          "internalType": "bytes[]",
          "name": "data",
          "type": "bytes[]"
        },
        {
          "internalType": "bytes",
          "name": "sig",
          "type": "bytes"
        }
      ],
      "name": "batchExecuteProposalsWithSignature",
      "outputs": [],
      "stateMutability": "nonpayable",
      "type": "function"
    },
    {
      "inputs": [
        {
          "internalType": "uint32",
          "name": "_leafIndex",
          "type": "uint32"
        },
        {
          "internalType": "address",
          "name": "_proposedGovernor",
          "type": "address"
        },
        {
          "internalType": "bytes32[]",
          "name": "_siblingPathNodes",
          "type": "bytes32[]"
        }
      ],
      "name": "createVote",
      "outputs": [
        {
          "components": [
            {
              "internalType": "uint32",
              "name": "leafIndex",
              "type": "uint32"
            },
            {
              "internalType": "address",
              "name": "proposedGovernor",
              "type": "address"
            },
            {
              "internalType": "bytes32[]",
              "name": "siblingPathNodes",
              "type": "bytes32[]"
            }
          ],
          "internalType": "struct Vote",
          "name": "",
          "type": "tuple"
        }
      ],
      "stateMutability": "view",
      "type": "function"
    },
    {
      "inputs": [],
      "name": "currentVotingPeriod",
      "outputs": [
        {
          "internalType": "uint256",
          "name": "",
          "type": "uint256"
        }
      ],
      "stateMutability": "view",
      "type": "function"
    },
    {
      "inputs": [
        {
          "internalType": "bytes[]",
          "name": "data",
          "type": "bytes[]"
        },
        {
          "internalType": "bytes[]",
          "name": "sig",
          "type": "bytes[]"
        }
      ],
      "name": "executeManyProposalsWithSignature",
      "outputs": [],
      "stateMutability": "nonpayable",
      "type": "function"
    },
    {
      "inputs": [
        {
          "internalType": "bytes",
          "name": "data",
          "type": "bytes"
        },
        {
          "internalType": "bytes",
          "name": "sig",
          "type": "bytes"
        }
      ],
      "name": "executeProposalWithSignature",
      "outputs": [],
      "stateMutability": "nonpayable",
      "type": "function"
    },
    {
      "inputs": [],
      "name": "getChainId",
      "outputs": [
        {
          "internalType": "uint256",
          "name": "",
          "type": "uint256"
        }
      ],
      "stateMutability": "view",
      "type": "function"
    },
    {
      "inputs": [],
      "name": "getChainIdType",
      "outputs": [
        {
          "internalType": "uint48",
          "name": "",
          "type": "uint48"
        }
      ],
      "stateMutability": "view",
      "type": "function"
    },
    {
      "inputs": [],
      "name": "getProposalNonce",
      "outputs": [
        {
          "internalType": "uint256",
          "name": "",
          "type": "uint256"
        }
      ],
      "stateMutability": "view",
      "type": "function"
    },
    {
      "inputs": [],
      "name": "governor",
      "outputs": [
        {
          "internalType": "address",
          "name": "",
          "type": "address"
        }
      ],
      "stateMutability": "view",
      "type": "function"
    },
    {
      "inputs": [
        {
          "internalType": "bytes32",
          "name": "resourceID",
          "type": "bytes32"
        }
      ],
      "name": "isCorrectExecutionChain",
      "outputs": [
        {
          "internalType": "bool",
          "name": "",
          "type": "bool"
        }
      ],
      "stateMutability": "view",
      "type": "function"
    },
    {
      "inputs": [
        {
          "internalType": "bytes32",
          "name": "resourceId",
          "type": "bytes32"
        }
      ],
      "name": "isCorrectExecutionContext",
      "outputs": [
        {
          "internalType": "bool",
          "name": "",
          "type": "bool"
        }
      ],
      "stateMutability": "view",
      "type": "function"
    },
    {
      "inputs": [],
      "name": "isGovernor",
      "outputs": [
        {
          "internalType": "bool",
          "name": "",
          "type": "bool"
        }
      ],
      "stateMutability": "view",
      "type": "function"
    },
    {
      "inputs": [
        {
          "internalType": "bytes",
          "name": "data",
          "type": "bytes"
        },
        {
          "internalType": "bytes",
          "name": "sig",
          "type": "bytes"
        }
      ],
      "name": "isSignatureFromGovernor",
      "outputs": [
        {
          "internalType": "bool",
          "name": "",
          "type": "bool"
        }
      ],
      "stateMutability": "view",
      "type": "function"
    },
    {
      "inputs": [
        {
          "internalType": "bytes32",
          "name": "hashedData",
          "type": "bytes32"
        },
        {
          "internalType": "bytes",
          "name": "sig",
          "type": "bytes"
        }
      ],
      "name": "isSignatureFromGovernorPrehashed",
      "outputs": [
        {
          "internalType": "bool",
          "name": "",
          "type": "bool"
        }
      ],
      "stateMutability": "view",
      "type": "function"
    },
    {
      "inputs": [],
      "name": "lastGovernorUpdateTime",
      "outputs": [
        {
          "internalType": "uint256",
          "name": "",
          "type": "uint256"
        }
      ],
      "stateMutability": "view",
      "type": "function"
    },
    {
      "inputs": [],
      "name": "numOfProposers",
      "outputs": [
        {
          "internalType": "uint32",
          "name": "",
          "type": "uint32"
        }
      ],
      "stateMutability": "view",
      "type": "function"
    },
    {
      "inputs": [
        {
          "internalType": "bytes32",
          "name": "_resourceId",
          "type": "bytes32"
        }
      ],
      "name": "parseChainIdFromResourceId",
      "outputs": [
        {
          "internalType": "uint64",
          "name": "",
          "type": "uint64"
        }
      ],
      "stateMutability": "pure",
      "type": "function"
    },
    {
      "inputs": [],
      "name": "proposalNonce",
      "outputs": [
        {
          "internalType": "uint256",
          "name": "",
          "type": "uint256"
        }
      ],
      "stateMutability": "view",
      "type": "function"
    },
    {
      "inputs": [],
      "name": "proposerSetRoot",
      "outputs": [
        {
          "internalType": "bytes32",
          "name": "",
          "type": "bytes32"
        }
      ],
      "stateMutability": "view",
      "type": "function"
    },
    {
      "inputs": [],
      "name": "proposerSetUpdateNonce",
      "outputs": [
        {
          "internalType": "uint32",
          "name": "",
          "type": "uint32"
        }
      ],
      "stateMutability": "view",
      "type": "function"
    },
    {
      "inputs": [
        {
          "internalType": "bytes",
          "name": "data",
          "type": "bytes"
        },
        {
          "internalType": "bytes",
          "name": "sig",
          "type": "bytes"
        }
      ],
      "name": "recover",
      "outputs": [
        {
          "internalType": "address",
          "name": "",
          "type": "address"
        }
      ],
      "stateMutability": "pure",
      "type": "function"
    },
    {
      "inputs": [],
      "name": "refreshNonce",
      "outputs": [
        {
          "internalType": "uint32",
          "name": "",
          "type": "uint32"
        }
      ],
      "stateMutability": "view",
      "type": "function"
    },
    {
      "inputs": [],
      "name": "renounceOwnership",
      "outputs": [],
      "stateMutability": "nonpayable",
      "type": "function"
    },
    {
      "inputs": [],
      "name": "sessionLengthMultiplier",
      "outputs": [
        {
          "internalType": "uint256",
          "name": "",
          "type": "uint256"
        }
      ],
      "stateMutability": "view",
      "type": "function"
    },
    {
      "inputs": [
        {
          "internalType": "address",
          "name": "newOwner",
          "type": "address"
        },
        {
          "internalType": "uint32",
          "name": "nonce",
          "type": "uint32"
        }
      ],
      "name": "transferOwnership",
      "outputs": [],
      "stateMutability": "nonpayable",
      "type": "function"
    },
    {
      "inputs": [
        {
          "internalType": "bytes",
          "name": "publicKey",
          "type": "bytes"
        },
        {
          "internalType": "uint32",
          "name": "nonce",
          "type": "uint32"
        },
        {
          "internalType": "bytes",
          "name": "sig",
          "type": "bytes"
        }
      ],
      "name": "transferOwnershipWithSignaturePubKey",
      "outputs": [],
      "stateMutability": "nonpayable",
      "type": "function"
    },
    {
      "inputs": [
        {
          "internalType": "bytes32",
          "name": "_proposerSetRoot",
          "type": "bytes32"
        },
        {
          "internalType": "uint64",
          "name": "_averageSessionLengthInMillisecs",
          "type": "uint64"
        },
        {
          "internalType": "uint32",
          "name": "_numOfProposers",
          "type": "uint32"
        },
        {
          "internalType": "uint32",
          "name": "_proposerSetUpdateNonce",
          "type": "uint32"
        },
        {
          "internalType": "bytes",
          "name": "_sig",
          "type": "bytes"
        }
      ],
      "name": "updateProposerSetData",
      "outputs": [],
      "stateMutability": "nonpayable",
      "type": "function"
    },
    {
      "inputs": [
        {
          "components": [
            {
              "internalType": "uint32",
              "name": "leafIndex",
              "type": "uint32"
            },
            {
              "internalType": "address",
              "name": "proposedGovernor",
              "type": "address"
            },
            {
              "internalType": "bytes32[]",
              "name": "siblingPathNodes",
              "type": "bytes32[]"
            }
          ],
          "internalType": "struct Vote",
          "name": "vote",
          "type": "tuple"
        }
      ],
      "name": "voteInFavorForceSetGovernor",
      "outputs": [],
      "stateMutability": "nonpayable",
      "type": "function"
    },
    {
      "inputs": [
        {
          "components": [
            {
              "internalType": "uint32",
              "name": "leafIndex",
              "type": "uint32"
            },
            {
              "internalType": "address",
              "name": "proposedGovernor",
              "type": "address"
            },
            {
              "internalType": "bytes32[]",
              "name": "siblingPathNodes",
              "type": "bytes32[]"
            }
          ],
          "internalType": "struct Vote[]",
          "name": "votes",
          "type": "tuple[]"
        },
        {
          "internalType": "bytes[]",
          "name": "sigs",
          "type": "bytes[]"
        }
      ],
      "name": "voteInFavorForceSetGovernorWithSig",
      "outputs": [],
      "stateMutability": "nonpayable",
      "type": "function"
    }
  ],
  "bytecode": "0x60806040526000805463ffffffff60a01b191681556002805463ffffffff19168155600480546001600160401b0319166001600160401b031790556005556007553480156200004d57600080fd5b506040516200301e3803806200301e8339810160408190526200007091620000f5565b6000805463ffffffff8316600160a01b81026001600160c01b03199092166001600160a01b0380871691909117929092178084556002805463ffffffff191690921790915542600155604051859385939290921691907f1f323489f404e3bad762215fc05447f9a77bb7f3b630a6f08a2851b999db41f7908290a35050505062000147565b600080604083850312156200010957600080fd5b82516001600160a01b03811681146200012157600080fd5b602084015190925063ffffffff811681146200013c57600080fd5b809150509250929050565b612ec780620001576000396000f3fe608060405234801561001057600080fd5b50600436106102065760003560e01c8063957b49a11161011a578063c5eb6b1f116100ad578063e786d35d1161007c578063e786d35d1461045e578063f2dd0bb714610471578063f3d23d541461049a578063f5fc3d6b146104ad578063fecb9553146104cc57600080fd5b8063c5eb6b1f14610426578063c7af33521461042f578063cc3c74a114610442578063d56b80141461044b57600080fd5b8063a6e94c91116100e9578063a6e94c91146103e1578063bac163a2146103f4578063bdfadc8414610404578063c2230d6e1461040d57600080fd5b8063957b49a11461039f5780639d2b1ed7146103b25780639e09583c146103c5578063a20403e9146103ce57600080fd5b80636245e5611161019d578063830b2f571161016c578063830b2f57146103325780638755bcad146103455780638b7e8782146103585780638ebfbfa91461037c578063935967001461038f57600080fd5b80636245e561146102df5780636c6f4846146102f4578063715018a6146103175780637296b5d81461031f57600080fd5b80631ed13d1b116101d95780631ed13d1b1461029e5780633408e470146102b15780633a049e02146102b75780634c830cbd146102c057600080fd5b8063016737bb1461020b5780630b27fb9a1461023b5780630c340a241461024d57806313cb01f914610272575b600080fd5b60045461021e906001600160401b031681565b6040516001600160401b0390911681526020015b60405180910390f35b600a545b604051908152602001610232565b6000546001600160a01b03165b6040516001600160a01b039091168152602001610232565b60005461028990600160a01b900463ffffffff1681565b60405163ffffffff9091168152602001610232565b61025a6102ac366004611ef1565b610531565b4661023f565b61023f60075481565b6102c8610551565b60405165ffffffffffff9091168152602001610232565b6102f26102ed366004611f9c565b61059f565b005b61030761030236600461201c565b610668565b6040519015158152602001610232565b6102f261069e565b6102f261032d366004612058565b610712565b6103076103403660046120cb565b61087c565b610307610353366004611ef1565b6108a0565b610363600160f81b81565b6040516001600160f01b03199091168152602001610232565b6102f261038a3660046121ea565b6108df565b6002546102899063ffffffff1681565b6102f26103ad366004612334565b610a1c565b6102f26103c03660046123fd565b610c1c565b61023f60015481565b6102f26103dc366004612479565b610c8d565b6102f26103ef3660046124b5565b610d7a565b6006546102899063ffffffff1681565b61023f60055481565b61021e61041b3660046120cb565b65ffffffffffff1690565b61023f60035481565b6000546001600160a01b03163314610307565b61023f600a5481565b6102f26104593660046125ac565b610dd4565b6102f261046c36600461267c565b611187565b61025a61047f3660046120cb565b600b602052600090815260409020546001600160a01b031681565b6102f26104a83660046126cd565b611202565b6103076104bb3660046120cb565b60301c6001600160a01b0316301490565b6105246104da366004612751565b60408051606080820183526000808352602083015291810191909152506040805160608101825263ffffffff9490941684526001600160a01b039290921660208401529082015290565b60405161023291906127a4565b815160208301206000908161054682856113c0565b925050505b92915050565b60408051600160f81b602082018190524660e01b6001600160e01b031981166022840152835180840360060181526026909301909352600092916105948161280c565b60d01c935050505090565b8363ffffffff1680600a54106105d05760405162461bcd60e51b81526004016105c790612843565b60405180910390fd5b600a546105de90600161289c565b8111156105fd5760405162461bcd60e51b81526004016105c7906128af565b600a81905560405161061b908890889088908890889060200161290c565b6040516020818303038152906040528261063582826108a0565b6106515760405162461bcd60e51b81526004016105c790612953565b61065d898988886113e4565b505050505050505050565b60008061067584846113c0565b90506106896000546001600160a01b031690565b6001600160a01b039182169116149392505050565b6000546001600160a01b031633146106c85760405162461bcd60e51b81526004016105c79061299f565b600080546040516001600160a01b03909116907f1f323489f404e3bad762215fc05447f9a77bb7f3b630a6f08a2851b999db41f7908390a3600080546001600160a01b0319169055565b60005463ffffffff808416600160a01b909204161061076f5760405162461bcd60e51b8152602060048201526019602482015278476f7665726e61626c653a20496e76616c6964206e6f6e636560381b60448201526064016105c7565b60005461078a90600160a01b900463ffffffff1660016129e5565b63ffffffff168263ffffffff1611156107f35760405162461bcd60e51b815260206004820152602560248201527f476f7665726e61626c653a204e6f6e6365206d75737420696e6372656d656e74604482015264206279203160d81b60648201526084016105c7565b82516020808501919091206040519091829161082c91610817918791899101612a2d565b604051602081830303815290604052846108a0565b6108485760405162461bcd60e51b81526004016105c79061299f565b610851816116ef565b50506000805463ffffffff909316600160a01b0263ffffffff60a01b19909316929092179091555050565b600065ffffffffffff821680610890610551565b65ffffffffffff16149392505050565b81516020830120600090816108b582856113c0565b90506108c96000546001600160a01b031690565b6001600160a01b03918216911614949350505050565b6108e98284612a5f565b8180518251146109545760405162461bcd60e51b815260206004820152603060248201527f5369676e61747572654272696467653a204461746120616e6420736967206c6560448201526f0dccee8d0e640daeae6e840dac2e8c6d60831b60648201526084016105c7565b60005b82518110156109ca5761099c83828151811061097557610975612a6c565b602002602001015183838151811061098f5761098f612a6c565b60200260200101516108a0565b6109b85760405162461bcd60e51b81526004016105c790612953565b806109c281612a82565b915050610957565b5060005b84811015610a1457610a028686838181106109eb576109eb612a6c565b90506020028101906109fd9190612a9b565b6117c8565b80610a0c81612a82565b9150506109ce565b505050505050565b6004546005546103e891610a3b916001600160401b0390911690612ae1565b610a459190612b0e565b600154610a52919061289c565b421015610a715760405162461bcd60e51b81526004016105c790612b22565b8051825114610add5760405162461bcd60e51b815260206004820152603260248201527f476f7665726e61626c653a20496e76616c6964206e756d626572206f6620766f60448201527174657320616e64207369676e61747572657360701b60648201526084016105c7565b60005b8251811015610c175760006001600160a01b0316838281518110610b0657610b06612a6c565b6020026020010151602001516001600160a01b031603610b385760405162461bcd60e51b81526004016105c790612b63565b6000610b95848381518110610b4f57610b4f612a6c565b6020026020010151604051602001610b6791906127a4565b604051602081830303815290604052848481518110610b8857610b88612a6c565b6020026020010151610531565b9050610bdc848381518110610bac57610bac612a6c565b60200260200101516040015182868581518110610bcb57610bcb612a6c565b60200260200101516000015161191a565b15610c0457610c04848381518110610bf657610bf6612a6c565b602002602001015182611a55565b5080610c0f81612a82565b915050610ae0565b505050565b82828080601f016020809104026020016040519081016040528093929190818152602001838380828437600092019190915250849250610c609150839050826108a0565b610c7c5760405162461bcd60e51b81526004016105c790612953565b610c8685856117c8565b5050505050565b6004546005546103e891610cac916001600160401b0390911690612ae1565b610cb69190612b0e565b600154610cc3919061289c565b421015610ce25760405162461bcd60e51b81526004016105c790612b22565b60208101516001600160a01b0316610d0c5760405162461bcd60e51b81526004016105c790612b63565b604081015181513391610d2091839061191a565b610d6c5760405162461bcd60e51b815260206004820181905260248201527f476f7665726e61626c653a20496e76616c6964206d65726b6c652070726f6f6660448201526064016105c7565b610d768282611a55565b5050565b6000546001600160a01b03163314610da45760405162461bcd60e51b81526004016105c79061299f565b610dad826116ef565b6000805463ffffffff909216600160a01b0263ffffffff60a01b1990921691909117905550565b8460005b8151811015610ea657818181518110610df357610df3612a6c565b602002602001015163ffffffff16600a5410610e215760405162461bcd60e51b81526004016105c790612843565b600a54610e2f90600161289c565b828281518110610e4157610e41612a6c565b602002602001015163ffffffff161115610e6d5760405162461bcd60e51b81526004016105c7906128af565b818181518110610e7f57610e7f612a6c565b602002602001015163ffffffff16600a819055508080610e9e90612a82565b915050610dd8565b508282610eb38282610668565b610ecf5760405162461bcd60e51b81526004016105c790612953565b86518851148015610ee1575085518751145b610f695760405162461bcd60e51b815260206004820152604d60248201527f5369676e61747572654272696467653a3a626174636841646d696e536574526560448201527f736f75726365576974685369676e61747572653a204172726179206c656e677460648201526c0d0e640daeae6e840dac2e8c6d609b1b608482015260a4016105c7565b600088516001600160401b03811115610f8457610f84611e3c565b604051908082528060200260200182016040528015610fb757816020015b6060815260200190600190039081610fa25790505b50905060005b8951811015611069578b8b8b8381518110610fda57610fda612a6c565b60200260200101518b8481518110610ff457610ff4612a6c565b60200260200101518b858151811061100e5761100e612a6c565b602002602001015160405160200161102a95949392919061290c565b60405160208183030381529060405282828151811061104b5761104b612a6c565b6020026020010181905250808061106190612a82565b915050610fbd565b50858160405160200161107c9190612bc0565b604051602081830303815290604052805190602001201461111d5760405162461bcd60e51b815260206004820152604f60248201527f5369676e61747572654272696467653a3a626174636841646d696e536574526560448201527f736f75726365576974685369676e61747572653a20486173686564206461746160648201526e040c8decae640dcdee840dac2e8c6d608b1b608482015260a4016105c7565b60005b8951811015611179576111678c8c8b848151811061114057611140612a6c565b60200260200101518b858151811061115a5761115a612a6c565b60200260200101516113e4565b8061117181612a82565b915050611120565b505050505050505050505050565b828260405160200161119a929190612c63565b604051602081830303815290604052816111b482826108a0565b6111d05760405162461bcd60e51b81526004016105c790612953565b60005b84811015610a14576111f08686838181106109eb576109eb612a6c565b806111fa81612a82565b9150506111d3565b60025463ffffffff8084169116106112585760405162461bcd60e51b8152602060048201526019602482015278476f7665726e61626c653a20496e76616c6964206e6f6e636560381b60448201526064016105c7565b60025461126c9063ffffffff1660016129e5565b63ffffffff168263ffffffff1611156112e05760405162461bcd60e51b815260206004820152603060248201527f476f7665726e61626c653a204e6f6e6365206d757374206e6f7420696e63726560448201526f6d656e74206d6f7265207468616e203160801b60648201526084016105c7565b60408051602081018790526001600160c01b031960c087901b16918101919091526001600160e01b031960e085811b8216604884015284901b16604c82015261133b90605001604051602081830303815290604052826108a0565b6113575760405162461bcd60e51b81526004016105c79061299f565b6003859055600480546001600160401b03861667ffffffffffffffff199091161790556006805463ffffffff80861663ffffffff19928316179092556002805492851692909116919091179055600780549060006113b483612a82565b91905055505050505050565b60008060006113cf8585611b92565b915091506113dc81611bd7565b509392505050565b60405163830b2f5760e01b815260048101859052309063830b2f5790602401602060405180830381865afa158015611420573d6000803e3d6000fd5b505050506040513d601f19601f820116820180604052508101906114449190612cfe565b6114605760405162461bcd60e51b81526004016105c790612d20565b60405163830b2f5760e01b815260048101839052309063830b2f5790602401602060405180830381865afa15801561149c573d6000803e3d6000fd5b505050506040513d601f19601f820116820180604052508101906114c09190612cfe565b6114dc5760405162461bcd60e51b81526004016105c790612d20565b60405163f5fc3d6b60e01b815260048101859052309063f5fc3d6b90602401602060405180830381865afa158015611518573d6000803e3d6000fd5b505050506040513d601f19601f8201168201806040525081019061153c9190612cfe565b6115c05760405162461bcd60e51b815260206004820152604960248201527f5369676e61747572654272696467653a3a61646d696e5365745265736f75726360448201527f65576974685369676e61747572653a20496e76616c696420657865637574696f6064820152681b8818dbdb9d195e1d60ba1b608482015260a4016105c7565b6001600160e01b03198316636245e56160e01b146116595760405162461bcd60e51b815260206004820152604a60248201527f5369676e61747572654272696467653a3a61646d696e5365745265736f75726360448201527f65576974685369676e61747572653a20496e76616c69642066756e6374696f6e606482015269207369676e617475726560b01b608482015260a4016105c7565b6000828152600b60205260409081902080546001600160a01b0319166001600160a01b038481169182179092559151635c7d1b9b60e11b815260048101859052603085901c909116602482018190528392909163b8fa373690604401600060405180830381600087803b1580156116cf57600080fd5b505af11580156116e3573d6000803e3d6000fd5b50505050505050505050565b6001600160a01b03811661175a5760405162461bcd60e51b815260206004820152602c60248201527f476f7665726e61626c653a204e657720676f7665726e6f72206973207468652060448201526b7a65726f206164647265737360a01b60648201526084016105c7565b600080546040516001600160a01b03808516939216917f1f323489f404e3bad762215fc05447f9a77bb7f3b630a6f08a2851b999db41f791a3600080546001600160a01b0319166001600160a01b0383161781554260015560078054916117c083612a82565b919050555050565b60006117d76020828486612d8e565b6117e091612db8565b60405163830b2f5760e01b815260048101829052909150309063830b2f5790602401602060405180830381865afa15801561181f573d6000803e3d6000fd5b505050506040513d601f19601f820116820180604052508101906118439190612cfe565b6118a75760405162461bcd60e51b815260206004820152602f60248201527f5369676e61747572654272696467653a20426174636820457865637574696e6760448201526e1037b7103bb937b7339031b430b4b760891b60648201526084016105c7565b6000818152600b60205260409081902054905163712467f960e11b81526001600160a01b03909116908190819063e248cff2906118ec90869089908990600401612dd6565b600060405180830381600087803b15801561190657600080fd5b505af115801561065d573d6000803e3d6000fd5b6040516bffffffffffffffffffffffff19606084901b166020820152600090819060340160408051601f1981840301815291905280516020909101209050808360005b87518160ff161015611a4657611974600283612df9565b63ffffffff166000036119d65782888260ff168151811061199757611997612a6c565b60200260200101516040516020016119b9929190918252602082015260400190565b604051602081830303815290604052805190602001209250611a27565b878160ff16815181106119eb576119eb612a6c565b602002602001015183604051602001611a0e929190918252602082015260400190565b6040516020818303038152906040528051906020012092505b611a32600283612e1c565b915080611a3e81612e3f565b91505061195d565b50506003541495945050505050565b60075460009081526008602090815260408083206001600160a01b0385811685529252909120541615611af65760075460008181526008602090815260408083206001600160a01b03808716855290835281842054948452600983528184209416808452939091528120805460019290611ad690849063ffffffff16612e5e565b92506101000a81548163ffffffff021916908363ffffffff160217905550505b602082810180516007805460009081526008855260408082206001600160a01b03888116845290875281832080546001600160a01b03191695821695909517909455915481526009855281812093519092168252919092528120805460019290611b6790849063ffffffff166129e5565b92506101000a81548163ffffffff021916908363ffffffff160217905550610d768260200151611d24565b6000808251604103611bc85760208301516040840151606085015160001a611bbc87828585611d78565b94509450505050611bd0565b506000905060025b9250929050565b6000816004811115611beb57611beb612e7b565b03611bf35750565b6001816004811115611c0757611c07612e7b565b03611c545760405162461bcd60e51b815260206004820152601860248201527f45434453413a20696e76616c6964207369676e6174757265000000000000000060448201526064016105c7565b6002816004811115611c6857611c68612e7b565b03611cb55760405162461bcd60e51b815260206004820152601f60248201527f45434453413a20696e76616c6964207369676e6174757265206c656e6774680060448201526064016105c7565b6003816004811115611cc957611cc9612e7b565b03611d215760405162461bcd60e51b815260206004820152602260248201527f45434453413a20696e76616c6964207369676e6174757265202773272076616c604482015261756560f01b60648201526084016105c7565b50565b600654611d399060029063ffffffff16612e1c565b60075460009081526009602090815260408083206001600160a01b038616845290915290205463ffffffff91821691161115611d2157611d21816116ef565b6000807f7fffffffffffffffffffffffffffffff5d576e7357a4501ddfe92f46681b20a0831115611daf5750600090506003611e33565b6040805160008082526020820180845289905260ff881692820192909252606081018690526080810185905260019060a0016020604051602081039080840390855afa158015611e03573d6000803e3d6000fd5b5050604051601f1901519150506001600160a01b038116611e2c57600060019250925050611e33565b9150600090505b94509492505050565b634e487b7160e01b600052604160045260246000fd5b604051601f8201601f191681016001600160401b0381118282101715611e7a57611e7a611e3c565b604052919050565b600082601f830112611e9357600080fd5b81356001600160401b03811115611eac57611eac611e3c565b611ebf601f8201601f1916602001611e52565b818152846020838601011115611ed457600080fd5b816020850160208301376000918101602001919091529392505050565b60008060408385031215611f0457600080fd5b82356001600160401b0380821115611f1b57600080fd5b611f2786838701611e82565b93506020850135915080821115611f3d57600080fd5b50611f4a85828601611e82565b9150509250929050565b80356001600160e01b031981168114611f6c57600080fd5b919050565b803563ffffffff81168114611f6c57600080fd5b80356001600160a01b0381168114611f6c57600080fd5b60008060008060008060c08789031215611fb557600080fd5b86359550611fc560208801611f54565b9450611fd360408801611f71565b935060608701359250611fe860808801611f85565b915060a08701356001600160401b0381111561200357600080fd5b61200f89828a01611e82565b9150509295509295509295565b6000806040838503121561202f57600080fd5b8235915060208301356001600160401b0381111561204c57600080fd5b611f4a85828601611e82565b60008060006060848603121561206d57600080fd5b83356001600160401b038082111561208457600080fd5b61209087838801611e82565b945061209e60208701611f71565b935060408601359150808211156120b457600080fd5b506120c186828701611e82565b9150509250925092565b6000602082840312156120dd57600080fd5b5035919050565b60008083601f8401126120f657600080fd5b5081356001600160401b0381111561210d57600080fd5b6020830191508360208260051b8501011115611bd057600080fd5b60006001600160401b0382111561214157612141611e3c565b5060051b60200190565b600061215e61215984612128565b611e52565b8381529050602080820190600585901b84018681111561217d57600080fd5b845b818110156121b85780356001600160401b0381111561219e5760008081fd5b6121aa89828901611e82565b85525092820192820161217f565b505050509392505050565b600082601f8301126121d457600080fd5b6121e38383356020850161214b565b9392505050565b6000806000604084860312156121ff57600080fd5b83356001600160401b038082111561221657600080fd5b612222878388016120e4565b9095509350602086013591508082111561223b57600080fd5b506120c1868287016121c3565b600082601f83011261225957600080fd5b8135602061226961215983612128565b82815260059290921b8401810191818101908684111561228857600080fd5b8286015b848110156122a3578035835291830191830161228c565b509695505050505050565b6000606082840312156122c057600080fd5b604051606081016001600160401b0382821081831117156122e3576122e3611e3c565b816040528293506122f385611f71565b835261230160208601611f85565b6020840152604085013591508082111561231a57600080fd5b5061232785828601612248565b6040830152505092915050565b6000806040838503121561234757600080fd5b82356001600160401b038082111561235e57600080fd5b818501915085601f83011261237257600080fd5b8135602061238261215983612128565b82815260059290921b840181019181810190898411156123a157600080fd5b8286015b848110156123d9578035868111156123bd5760008081fd5b6123cb8c86838b01016122ae565b8452509183019183016123a5565b50965050860135925050808211156123f057600080fd5b50611f4a858286016121c3565b60008060006040848603121561241257600080fd5b83356001600160401b038082111561242957600080fd5b818601915086601f83011261243d57600080fd5b81358181111561244c57600080fd5b87602082850101111561245e57600080fd5b6020928301955093509085013590808211156120b457600080fd5b60006020828403121561248b57600080fd5b81356001600160401b038111156124a157600080fd5b6124ad848285016122ae565b949350505050565b600080604083850312156124c857600080fd5b6124d183611f85565b91506124df60208401611f71565b90509250929050565b600082601f8301126124f957600080fd5b8135602061250961215983612128565b82815260059290921b8401810191818101908684111561252857600080fd5b8286015b848110156122a35761253d81611f71565b835291830191830161252c565b600082601f83011261255b57600080fd5b8135602061256b61215983612128565b82815260059290921b8401810191818101908684111561258a57600080fd5b8286015b848110156122a35761259f81611f85565b835291830191830161258e565b600080600080600080600060e0888a0312156125c757600080fd5b873596506125d760208901611f54565b955060408801356001600160401b03808211156125f357600080fd5b6125ff8b838c016124e8565b965060608a013591508082111561261557600080fd5b6126218b838c01612248565b955060808a013591508082111561263757600080fd5b6126438b838c0161254a565b945060a08a0135935060c08a013591508082111561266057600080fd5b5061266d8a828b01611e82565b91505092959891949750929550565b60008060006040848603121561269157600080fd5b83356001600160401b03808211156126a857600080fd5b6126b4878388016120e4565b909550935060208601359150808211156120b457600080fd5b600080600080600060a086880312156126e557600080fd5b8535945060208601356001600160401b03808216821461270457600080fd5b81955061271360408901611f71565b945061272160608901611f71565b9350608088013591508082111561273757600080fd5b5061274488828901611e82565b9150509295509295909350565b60008060006060848603121561276657600080fd5b61276f84611f71565b925061277d60208501611f85565b915060408401356001600160401b0381111561279857600080fd5b6120c186828701612248565b6020808252825163ffffffff1682820152828101516001600160a01b031660408084019190915283015160608084015280516080840181905260009291820190839060a08601905b808310156122a357835182529284019260019290920191908401906127ec565b805160208201516001600160d01b0319808216929190600683101561283b5780818460060360031b1b83161693505b505050919050565b60208082526023908201527f50726f706f73616c4e6f6e6365547261636b65723a20496e76616c6964206e6f6040820152626e636560e81b606082015260800190565b634e487b7160e01b600052601160045260246000fd5b8082018082111561054b5761054b612886565b6020808252603a908201527f50726f706f73616c4e6f6e6365547261636b65723a204e6f6e6365206d75737460408201527f206e6f7420696e6372656d656e74206d6f7265207468616e2031000000000000606082015260800190565b9485526001600160e01b0319938416602086015260e09290921b9092166024840152602883019190915260601b6bffffffffffffffffffffffff19166048820152605c0190565b6020808252602c908201527f5369676e61747572654272696467653a204e6f742076616c696420736967206660408201526b3937b69033b7bb32b93737b960a11b606082015260800190565b60208082526026908201527f476f7665726e61626c653a2063616c6c6572206973206e6f742074686520676f6040820152653b32b93737b960d11b606082015260800190565b63ffffffff818116838216019080821115612a0257612a02612886565b5092915050565b60005b83811015612a24578181015183820152602001612a0c565b50506000910152565b63ffffffff60e01b8360e01b16815260008251612a51816004850160208701612a09565b919091016004019392505050565b60006121e336848461214b565b634e487b7160e01b600052603260045260246000fd5b600060018201612a9457612a94612886565b5060010190565b6000808335601e19843603018112612ab257600080fd5b8301803591506001600160401b03821115612acc57600080fd5b602001915036819003821315611bd057600080fd5b808202811582820484141761054b5761054b612886565b634e487b7160e01b600052601260045260246000fd5b600082612b1d57612b1d612af8565b500490565b60208082526021908201527f476f7665726e61626c653a20496e76616c69642074696d6520666f7220766f746040820152606560f81b606082015260800190565b60208082526038908201527f476f7665726e61626c653a2050726f706f73656420676f7665726e6f7220636160408201527f6e6e6f7420626520746865207a65726f20616464726573730000000000000000606082015260800190565b6000602080830181845280855180835260408601915060408160051b870101925083870160005b82811015612c2d57878503603f1901845281518051808752612c0e818989018a8501612a09565b601f01601f191695909501860194509285019290850190600101612be7565b5092979650505050505050565b81835281816020850137506000828201602090810191909152601f909101601f19169091010190565b60208082528181018390526000906040600585901b8401810190840186845b87811015612cf157868403603f190183528135368a9003601e19018112612ca857600080fd5b890185810190356001600160401b03811115612cc357600080fd5b803603821315612cd257600080fd5b612cdd868284612c3a565b955050509184019190840190600101612c82565b5091979650505050505050565b600060208284031215612d1057600080fd5b815180151581146121e357600080fd5b60208082526048908201527f5369676e61747572654272696467653a3a61646d696e5365745265736f75726360408201527f65576974685369676e61747572653a20457865637574696e67206f6e2077726f60608201526737339031b430b4b760c11b608082015260a00190565b60008085851115612d9e57600080fd5b83861115612dab57600080fd5b5050820193919092039150565b8035602083101561054b57600019602084900360031b1b1692915050565b838152604060208201526000612df0604083018486612c3a565b95945050505050565b600063ffffffff80841680612e1057612e10612af8565b92169190910692915050565b600063ffffffff80841680612e3357612e33612af8565b92169190910492915050565b600060ff821660ff8103612e5557612e55612886565b60010192915050565b63ffffffff828116828216039080821115612a0257612a02612886565b634e487b7160e01b600052602160045260246000fdfea2646970667358221220b51b539bdb77fb441eea3dc48f023517d944cab30c1356d4bea0cd07098b30ea64736f6c63430008120033",
  "linkReferences": {},
  "deployedLinkReferences": {}
}