{
  "_format": "hh-sol-artifact-1",
  "contractName": "SignatureBridge",
  "sourceName": "contracts/SignatureBridge.sol",
  "abi": [
    {
      "inputs": [
        {
          "internalType": "address",
          "name": "initialGovernor",
          "type": "address"
        },
        {
          "internalType": "uint32",
          "name": "nonce",
          "type": "uint32"
        }
      ],
      "stateMutability": "nonpayable",
      "type": "constructor"
    },
    {
      "anonymous": false,
      "inputs": [
        {
          "indexed": true,
          "internalType": "address",
          "name": "previousOwner",
          "type": "address"
        },
        {
          "indexed": true,
          "internalType": "address",
          "name": "newOwner",
          "type": "address"
        }
      ],
      "name": "GovernanceOwnershipTransferred",
      "type": "event"
    },
    {
      "anonymous": false,
      "inputs": [
        {
          "indexed": false,
          "internalType": "address",
          "name": "account",
          "type": "address"
        }
      ],
      "name": "Paused",
      "type": "event"
    },
    {
      "anonymous": false,
      "inputs": [
        {
          "indexed": true,
          "internalType": "address",
          "name": "recovered",
          "type": "address"
        }
      ],
      "name": "RecoveredAddress",
      "type": "event"
    },
    {
      "anonymous": false,
      "inputs": [
        {
          "indexed": false,
          "internalType": "address",
          "name": "account",
          "type": "address"
        }
      ],
      "name": "Unpaused",
      "type": "event"
    },
    {
      "inputs": [],
      "name": "EVM_CHAIN_ID_TYPE",
      "outputs": [
        {
          "internalType": "bytes2",
          "name": "",
          "type": "bytes2"
        }
      ],
      "stateMutability": "view",
      "type": "function"
    },
    {
      "inputs": [
        {
          "internalType": "bytes32",
          "name": "",
          "type": "bytes32"
        }
      ],
      "name": "_resourceIDToHandlerAddress",
      "outputs": [
        {
          "internalType": "address",
          "name": "",
          "type": "address"
        }
      ],
      "stateMutability": "view",
      "type": "function"
    },
    {
      "inputs": [
        {
          "internalType": "bytes32",
          "name": "resourceID",
          "type": "bytes32"
        },
        {
          "internalType": "bytes4",
          "name": "functionSig",
          "type": "bytes4"
        },
        {
          "internalType": "uint32",
          "name": "nonce",
          "type": "uint32"
        },
        {
          "internalType": "bytes32",
          "name": "newResourceID",
          "type": "bytes32"
        },
        {
          "internalType": "address",
          "name": "handlerAddress",
          "type": "address"
        },
        {
          "internalType": "bytes",
          "name": "sig",
          "type": "bytes"
        }
      ],
      "name": "adminSetResourceWithSignature",
      "outputs": [],
      "stateMutability": "nonpayable",
      "type": "function"
    },
    {
      "inputs": [],
      "name": "averageSessionLengthInMillisecs",
      "outputs": [
        {
          "internalType": "uint64",
          "name": "",
          "type": "uint64"
        }
      ],
      "stateMutability": "view",
      "type": "function"
    },
    {
      "inputs": [
        {
          "internalType": "bytes[]",
          "name": "data",
          "type": "bytes[]"
        },
        {
          "internalType": "bytes[]",
          "name": "sig",
          "type": "bytes[]"
        }
      ],
      "name": "batchExecuteProposalWithSignature",
      "outputs": [],
      "stateMutability": "nonpayable",
      "type": "function"
    },
    {
      "inputs": [],
      "name": "currentVotingPeriod",
      "outputs": [
        {
          "internalType": "uint256",
          "name": "",
          "type": "uint256"
        }
      ],
      "stateMutability": "view",
      "type": "function"
    },
    {
      "inputs": [
        {
          "internalType": "bytes",
          "name": "data",
          "type": "bytes"
        },
        {
          "internalType": "bytes",
          "name": "sig",
          "type": "bytes"
        }
      ],
      "name": "executeProposalWithSignature",
      "outputs": [],
      "stateMutability": "nonpayable",
      "type": "function"
    },
    {
      "inputs": [],
      "name": "getChainId",
      "outputs": [
        {
          "internalType": "uint256",
          "name": "",
          "type": "uint256"
        }
      ],
      "stateMutability": "view",
      "type": "function"
    },
    {
      "inputs": [],
      "name": "getChainIdType",
      "outputs": [
        {
          "internalType": "uint48",
          "name": "",
          "type": "uint48"
        }
      ],
      "stateMutability": "view",
      "type": "function"
    },
    {
      "inputs": [],
      "name": "getProposalNonce",
      "outputs": [
        {
          "internalType": "uint256",
          "name": "",
          "type": "uint256"
        }
      ],
      "stateMutability": "view",
      "type": "function"
    },
    {
      "inputs": [],
      "name": "governor",
      "outputs": [
        {
          "internalType": "address",
          "name": "",
          "type": "address"
        }
      ],
      "stateMutability": "view",
      "type": "function"
    },
    {
      "inputs": [
        {
          "internalType": "bytes32",
          "name": "resourceID",
          "type": "bytes32"
        }
      ],
      "name": "isCorrectExecutionChain",
      "outputs": [
        {
          "internalType": "bool",
          "name": "",
          "type": "bool"
        }
      ],
      "stateMutability": "view",
      "type": "function"
    },
    {
      "inputs": [
        {
          "internalType": "bytes32",
          "name": "resourceId",
          "type": "bytes32"
        }
      ],
      "name": "isCorrectExecutionContext",
      "outputs": [
        {
          "internalType": "bool",
          "name": "",
          "type": "bool"
        }
      ],
      "stateMutability": "view",
      "type": "function"
    },
    {
      "inputs": [],
      "name": "isGovernor",
      "outputs": [
        {
          "internalType": "bool",
          "name": "",
          "type": "bool"
        }
      ],
      "stateMutability": "view",
      "type": "function"
    },
    {
      "inputs": [
        {
          "internalType": "bytes",
          "name": "data",
          "type": "bytes"
        },
        {
          "internalType": "bytes",
          "name": "sig",
          "type": "bytes"
        }
      ],
      "name": "isSignatureFromGovernor",
      "outputs": [
        {
          "internalType": "bool",
          "name": "",
          "type": "bool"
        }
      ],
      "stateMutability": "view",
      "type": "function"
    },
    {
      "inputs": [],
      "name": "lastGovernorUpdateTime",
      "outputs": [
        {
          "internalType": "uint256",
          "name": "",
          "type": "uint256"
        }
      ],
      "stateMutability": "view",
      "type": "function"
    },
    {
      "inputs": [],
      "name": "numOfProposers",
      "outputs": [
        {
          "internalType": "uint32",
          "name": "",
          "type": "uint32"
        }
      ],
      "stateMutability": "view",
      "type": "function"
    },
    {
      "inputs": [
        {
          "internalType": "bytes32",
          "name": "_resourceId",
          "type": "bytes32"
        }
      ],
      "name": "parseChainIdFromResourceId",
      "outputs": [
        {
          "internalType": "uint64",
          "name": "",
          "type": "uint64"
        }
      ],
      "stateMutability": "pure",
      "type": "function"
    },
    {
      "inputs": [],
      "name": "paused",
      "outputs": [
        {
          "internalType": "bool",
          "name": "",
          "type": "bool"
        }
      ],
      "stateMutability": "view",
      "type": "function"
    },
    {
      "inputs": [],
      "name": "proposalNonce",
      "outputs": [
        {
          "internalType": "uint256",
          "name": "",
          "type": "uint256"
        }
      ],
      "stateMutability": "view",
      "type": "function"
    },
    {
      "inputs": [],
      "name": "proposerSetRoot",
      "outputs": [
        {
          "internalType": "bytes32",
          "name": "",
          "type": "bytes32"
        }
      ],
      "stateMutability": "view",
      "type": "function"
    },
    {
      "inputs": [],
      "name": "proposerSetUpdateNonce",
      "outputs": [
        {
          "internalType": "uint32",
          "name": "",
          "type": "uint32"
        }
      ],
      "stateMutability": "view",
      "type": "function"
    },
    {
      "inputs": [
        {
          "internalType": "bytes",
          "name": "data",
          "type": "bytes"
        },
        {
          "internalType": "bytes",
          "name": "sig",
          "type": "bytes"
        }
      ],
      "name": "recover",
      "outputs": [
        {
          "internalType": "address",
          "name": "",
          "type": "address"
        }
      ],
      "stateMutability": "pure",
      "type": "function"
    },
    {
      "inputs": [],
      "name": "refreshNonce",
      "outputs": [
        {
          "internalType": "uint32",
          "name": "",
          "type": "uint32"
        }
      ],
      "stateMutability": "view",
      "type": "function"
    },
    {
      "inputs": [],
      "name": "renounceOwnership",
      "outputs": [],
      "stateMutability": "nonpayable",
      "type": "function"
    },
    {
      "inputs": [],
      "name": "sessionLengthMultiplier",
      "outputs": [
        {
          "internalType": "uint256",
          "name": "",
          "type": "uint256"
        }
      ],
      "stateMutability": "view",
      "type": "function"
    },
    {
      "inputs": [
        {
          "internalType": "address",
          "name": "newOwner",
          "type": "address"
        },
        {
          "internalType": "uint32",
          "name": "nonce",
          "type": "uint32"
        }
      ],
      "name": "transferOwnership",
      "outputs": [],
      "stateMutability": "nonpayable",
      "type": "function"
    },
    {
      "inputs": [
        {
          "internalType": "bytes",
          "name": "publicKey",
          "type": "bytes"
        },
        {
          "internalType": "uint32",
          "name": "nonce",
          "type": "uint32"
        },
        {
          "internalType": "bytes",
          "name": "sig",
          "type": "bytes"
        }
      ],
      "name": "transferOwnershipWithSignaturePubKey",
      "outputs": [],
      "stateMutability": "nonpayable",
      "type": "function"
    },
    {
      "inputs": [
        {
          "internalType": "bytes32",
          "name": "_proposerSetRoot",
          "type": "bytes32"
        },
        {
          "internalType": "uint64",
          "name": "_averageSessionLengthInMillisecs",
          "type": "uint64"
        },
        {
          "internalType": "uint32",
          "name": "_numOfProposers",
          "type": "uint32"
        },
        {
          "internalType": "uint32",
          "name": "_proposerSetUpdateNonce",
          "type": "uint32"
        },
        {
          "internalType": "bytes",
          "name": "_sig",
          "type": "bytes"
        }
      ],
      "name": "updateProposerSetData",
      "outputs": [],
      "stateMutability": "nonpayable",
      "type": "function"
    },
    {
      "inputs": [
        {
          "components": [
            {
              "internalType": "uint32",
              "name": "leafIndex",
              "type": "uint32"
            },
            {
              "internalType": "bytes32[]",
              "name": "siblingPathNodes",
              "type": "bytes32[]"
            },
            {
              "internalType": "address",
              "name": "proposedGovernor",
              "type": "address"
            }
          ],
          "internalType": "struct Governable.Vote",
          "name": "vote",
          "type": "tuple"
        }
      ],
      "name": "voteInFavorForceSetGovernor",
      "outputs": [],
      "stateMutability": "nonpayable",
      "type": "function"
    }
  ],
  "bytecode": "0x608060405260008054600160a81b600160e81b0319168155600280546001600160401b0319166001600160401b031781556003556005553480156200004357600080fd5b5060405162002417380380620024178339810160408190526200006691620000e5565b600080546001600160c81b0319166101006001600160a01b03858116820263ffffffff60a81b191692909217600160a81b63ffffffff86160217808455426008556040518694869493909204909216917f1f323489f404e3bad762215fc05447f9a77bb7f3b630a6f08a2851b999db41f7908290a35050505062000137565b60008060408385031215620000f957600080fd5b82516001600160a01b03811681146200011157600080fd5b602084015190925063ffffffff811681146200012c57600080fd5b809150509250929050565b6122d080620001476000396000f3fe608060405234801561001057600080fd5b50600436106101da5760003560e01c80638755bcad11610104578063bdfadc84116100a2578063cc3c74a111610071578063cc3c74a11461041e578063d8c62db014610427578063f3d23d541461043a578063f5fc3d6b1461044d57600080fd5b8063bdfadc84146103db578063c2230d6e146103e4578063c5eb6b1f146103fd578063c7af33521461040657600080fd5b80639d2b1ed7116100de5780639d2b1ed71461039c5780639e09583c146103af578063a6e94c91146103b8578063bac163a2146103cb57600080fd5b80638755bcad1461034e5780638b7e878214610361578063935967001461038557600080fd5b80633a049e021161017c578063715018a61161014b578063715018a6146102f75780637296b5d8146102ff578063830b2f571461031257806384db809f1461032557600080fd5b80633a049e02146102a55780634c830cbd146102ae5780635c975abb146102cd5780636245e561146102e457600080fd5b806313cb01f9116101b857806313cb01f91461024b5780631ed13d1b14610277578063241188041461028a5780633408e4701461029f57600080fd5b8063016737bb146101df5780630b27fb9a1461020f5780630c340a2414610221575b600080fd5b6002546101f2906001600160401b031681565b6040516001600160401b0390911681526020015b60405180910390f35b6009545b604051908152602001610206565b60005461010090046001600160a01b03165b6040516001600160a01b039091168152602001610206565b60005461026290600160a81b900463ffffffff1681565b60405163ffffffff9091168152602001610206565b610233610285366004611cc4565b61046c565b61029d610298366004611d83565b61048c565b005b46610213565b61021360055481565b6102b6610665565b60405165ffffffffffff9091168152602001610206565b60005460ff165b6040519015158152602001610206565b61029d6102f2366004611b28565b6106b3565b61029d610b36565b61029d61030d366004611d27565b610bb4565b6102d4610320366004611b0f565b610d04565b610233610333366004611b0f565b600a602052600090815260409020546001600160a01b031681565b6102d461035c366004611cc4565b610d28565b61036c600160f81b81565b6040516001600160f01b03199091168152602001610206565b60005461026290600160c81b900463ffffffff1681565b61029d6103aa366004611c3b565b610d5c565b61021360085481565b61029d6103c6366004611a09565b610f25565b6004546102629063ffffffff1681565b61021360035481565b6101f26103f2366004611b0f565b65ffffffffffff1690565b61021360015481565b60005461010090046001600160a01b031633146102d4565b61021360095481565b61029d610435366004611a3c565b610f84565b61029d610448366004611bb7565b611241565b6102d461045b366004611b0f565b60301c6001600160a01b0316301490565b81516020830120600090816104818285611400565b925050505b92915050565b6002546104a5906103e8906001600160401b0316612133565b6001600160401b03166003546104bb919061214d565b6008546104c891906120d0565b4210156105145760405162461bcd60e51b8152602060048201526015602482015274496e76616c69642074696d6520666f7220766f746560581b60448201526064015b60405180910390fd5b602081015181513391610528918390611424565b61056b5760405162461bcd60e51b815260206004820152601460248201527334b73b30b634b21036b2b935b63290383937b7b360611b604482015260640161050b565b60055460009081526006602090815260408083206001600160a01b038516845290915290205460ff16156105d15760405162461bcd60e51b815260206004820152600d60248201526c185b1c9958591e481d9bdd1959609a1b604482015260640161050b565b6005805460009081526006602090815260408083206001600160a01b038087168552908352818420805460ff1916600190811790915594548452600783528184208783015190911684529091528120805490919061063690849063ffffffff166120e8565b92506101000a81548163ffffffff021916908363ffffffff160217905550610661826040015161155c565b5050565b60408051600160f81b602082018190524660e01b6001600160e01b031981166022840152835180840360060181526026909301909352600092916106a881612197565b60d01c935050505090565b8363ffffffff1680600954106107175760405162461bcd60e51b815260206004820152602360248201527f50726f706f73616c4e6f6e6365547261636b65723a20496e76616c6964206e6f6044820152626e636560e81b606482015260840161050b565b6009546107259060016120d0565b81111561079a5760405162461bcd60e51b815260206004820152603a60248201527f50726f706f73616c4e6f6e6365547261636b65723a204e6f6e6365206d75737460448201527f206e6f7420696e6372656d656e74206d6f7265207468616e2031000000000000606482015260840161050b565b600981905560408051602081018990526001600160e01b03198881168284015260e088901b16604482015260488101869052606085901b6bffffffffffffffffffffffff191660688201528151605c818303018152607c909101909152826108028282610d28565b61081e5760405162461bcd60e51b815260040161050b90611f99565b60405163830b2f5760e01b8152600481018a9052309063830b2f579060240160206040518083038186803b15801561085557600080fd5b505afa158015610869573d6000803e3d6000fd5b505050506040513d601f19601f8201168201806040525081019061088d9190611ae6565b6108a95760405162461bcd60e51b815260040161050b90611f3c565b60405163830b2f5760e01b815260048101879052309063830b2f579060240160206040518083038186803b1580156108e057600080fd5b505afa1580156108f4573d6000803e3d6000fd5b505050506040513d601f19601f820116820180604052508101906109189190611ae6565b6109345760405162461bcd60e51b815260040161050b90611f3c565b60405163f5fc3d6b60e01b8152600481018a9052309063f5fc3d6b9060240160206040518083038186803b15801561096b57600080fd5b505afa15801561097f573d6000803e3d6000fd5b505050506040513d601f19601f820116820180604052508101906109a39190611ae6565b610a155760405162461bcd60e51b815260206004820152603860248201527f61646d696e5365745265736f75726365576974685369676e61747572653a204960448201527f6e76616c696420657865637574696f6e20636f6e746578740000000000000000606482015260840161050b565b6001600160e01b03198816636245e56160e01b14610a9b5760405162461bcd60e51b815260206004820152603960248201527f61646d696e5365745265736f75726365576974685369676e61747572653a204960448201527f6e76616c69642066756e6374696f6e207369676e617475726500000000000000606482015260840161050b565b6000868152600a60205260409081902080546001600160a01b0319166001600160a01b038881169182179092559151635c7d1b9b60e11b815260048101899052603089901c909116602482018190528792909163b8fa373690604401600060405180830381600087803b158015610b1157600080fd5b505af1158015610b25573d6000803e3d6000fd5b505050505050505050505050505050565b60005461010090046001600160a01b03163314610b655760405162461bcd60e51b815260040161050b90611ef6565b600080546040516101009091046001600160a01b0316907f1f323489f404e3bad762215fc05447f9a77bb7f3b630a6f08a2851b999db41f7908390a360008054610100600160a81b0319169055565b60005463ffffffff808416600160a81b9092041610610c055760405162461bcd60e51b815260206004820152600d60248201526c496e76616c6964206e6f6e636560981b604482015260640161050b565b600054610c2090600160a81b900463ffffffff1660016120e8565b63ffffffff168263ffffffff161115610c7b5760405162461bcd60e51b815260206004820152601960248201527f4e6f6e6365206d75737420696e6372656d656e74206279203100000000000000604482015260640161050b565b825160208085019190912060405190918291610cb491610c9f918791899101611e6c565b60405160208183030381529060405284610d28565b610cd05760405162461bcd60e51b815260040161050b90611ef6565b610cd9816115b3565b50506000805463ffffffff909316600160a81b0263ffffffff60a81b19909316929092179091555050565b600065ffffffffffff821680610d18610665565b65ffffffffffff16149392505050565b8151602083012060009081610d3d8285611400565b60005461010090046001600160a01b0390811691161495945050505050565b82828080601f016020809104026020016040519081016040528093929190818152602001838380828437600092019190915250849250610da0915083905082610d28565b610dbc5760405162461bcd60e51b815260040161050b90611f99565b6000610dcb60208287896120a6565b610dd491612179565b60405163830b2f5760e01b815260048101829052909150309063830b2f579060240160206040518083038186803b158015610e0e57600080fd5b505afa158015610e22573d6000803e3d6000fd5b505050506040513d601f19601f82011682018060405250810190610e469190611ae6565b610ea45760405162461bcd60e51b815260206004820152602960248201527f5369676e61747572654272696467653a20457865637574696e67206f6e20777260448201526837b7339031b430b4b760b91b606482015260840161050b565b6000818152600a60205260409081902054905163712467f960e11b81526001600160a01b03909116908190819063e248cff290610ee99086908c908c90600401611ec0565b600060405180830381600087803b158015610f0357600080fd5b505af1158015610f17573d6000803e3d6000fd5b505050505050505050505050565b60005461010090046001600160a01b03163314610f545760405162461bcd60e51b815260040161050b90611ef6565b610f5d826115b3565b6000805463ffffffff909216600160a81b0263ffffffff60a81b1990921691909117905550565b610f8e828461216c565b818051825114610ff95760405162461bcd60e51b815260206004820152603060248201527f5369676e61747572654272696467653a204461746120616e6420736967206c6560448201526f0dccee8d0e640daeae6e840dac2e8c6d60831b606482015260840161050b565b60005b825181101561106f5761104183828151811061101a5761101a61226e565b60200260200101518383815181106110345761103461226e565b6020026020010151610d28565b61105d5760405162461bcd60e51b815260040161050b90611f99565b80611067816121ce565b915050610ffc565b5060005b8481101561123957600086868381811061108f5761108f61226e565b90506020028101906110a19190611fe5565b6110b0916020916000916120a6565b6110b991612179565b60405163830b2f5760e01b815260048101829052909150309063830b2f579060240160206040518083038186803b1580156110f357600080fd5b505afa158015611107573d6000803e3d6000fd5b505050506040513d601f19601f8201168201806040525081019061112b9190611ae6565b61118f5760405162461bcd60e51b815260206004820152602f60248201527f5369676e61747572654272696467653a20426174636820457865637574696e6760448201526e1037b7103bb937b7339031b430b4b760891b606482015260840161050b565b6000818152600a60205260409020546001600160a01b0316808063e248cff2848b8b888181106111c1576111c161226e565b90506020028101906111d39190611fe5565b6040518463ffffffff1660e01b81526004016111f193929190611ec0565b600060405180830381600087803b15801561120b57600080fd5b505af115801561121f573d6000803e3d6000fd5b505050505050508080611231906121ce565b915050611073565b505050505050565b60005463ffffffff808416600160c81b90920416106112925760405162461bcd60e51b815260206004820152600d60248201526c496e76616c6964206e6f6e636560981b604482015260640161050b565b6000546112ad90600160c81b900463ffffffff1660016120e8565b63ffffffff168263ffffffff1611156113145760405162461bcd60e51b8152602060048201526024808201527f4e6f6e6365206d757374206e6f7420696e6372656d656e74206d6f7265207468604482015263616e203160e01b606482015260840161050b565b60408051602081018790526001600160c01b031960c087901b16918101919091526001600160e01b031960e085811b8216604884015284901b16604c82015261136f9060500160405160208183030381529060405282610d28565b61138b5760405162461bcd60e51b815260040161050b90611ef6565b60018590556002805467ffffffffffffffff19166001600160401b0386161790556004805463ffffffff191663ffffffff858116919091179091556000805463ffffffff60c81b1916600160c81b9285169290920291909117815560058054916113f4836121ce565b91905055505050505050565b600080600061140f8585611693565b9150915061141c816116d9565b509392505050565b6040516bffffffffffffffffffffffff19606084901b166020820152600090819060340160408051601f1981840301815291905280516020909101209050808360005b87518160ff16101561154d5761147e600283612209565b63ffffffff166114dd5782888260ff168151811061149e5761149e61226e565b60200260200101516040516020016114c0929190918252602082015260400190565b60405160208183030381529060405280519060200120925061152e565b878160ff16815181106114f2576114f261226e565b602002602001015183604051602001611515929190918252602082015260400190565b6040516020818303038152906040528051906020012092505b611539600283612110565b915080611545816121e9565b915050611467565b50506001541495945050505050565b6004546115719060029063ffffffff16612110565b60055460009081526007602090815260408083206001600160a01b038616845290915290205463ffffffff918216911611156115b0576115b0816115b3565b50565b6001600160a01b03811661161b5760405162461bcd60e51b815260206004820152602960248201527f476f7665726e61626c653a206e6577206f776e657220697320746865207a65726044820152686f206164647265737360b81b606482015260840161050b565b600080546040516001600160a01b038085169361010090930416917f1f323489f404e3bad762215fc05447f9a77bb7f3b630a6f08a2851b999db41f791a360008054610100600160a81b0319166101006001600160a01b0384160217815542600855600580549161168b836121ce565b919050555050565b6000808251604114156116ca5760208301516040840151606085015160001a6116be87828585611827565b945094505050506116d2565b506000905060025b9250929050565b60008160048111156116ed576116ed612258565b14156116f65750565b600181600481111561170a5761170a612258565b14156117585760405162461bcd60e51b815260206004820152601860248201527f45434453413a20696e76616c6964207369676e61747572650000000000000000604482015260640161050b565b600281600481111561176c5761176c612258565b14156117ba5760405162461bcd60e51b815260206004820152601f60248201527f45434453413a20696e76616c6964207369676e6174757265206c656e67746800604482015260640161050b565b60038160048111156117ce576117ce612258565b14156115b05760405162461bcd60e51b815260206004820152602260248201527f45434453413a20696e76616c6964207369676e6174757265202773272076616c604482015261756560f01b606482015260840161050b565b6000807f7fffffffffffffffffffffffffffffff5d576e7357a4501ddfe92f46681b20a083111561185e57506000905060036118e2565b6040805160008082526020820180845289905260ff881692820192909252606081018690526080810185905260019060a0016020604051602081039080840390855afa1580156118b2573d6000803e3d6000fd5b5050604051601f1901519150506001600160a01b0381166118db576000600192509250506118e2565b9150600090505b94509492505050565b60006118fe6118f984612083565b612053565b9050808382526020808301915083868660051b8601111561191e57600080fd5b6000805b8781101561195e5782356001600160401b0381111561193f578283fd5b61194b8a828a01611986565b8652509383019391830191600101611922565b50505050509392505050565b80356001600160a01b038116811461198157600080fd5b919050565b600082601f83011261199757600080fd5b81356001600160401b038111156119b0576119b0612284565b6119c3601f8201601f1916602001612053565b8181528460208386010111156119d857600080fd5b816020850160208301376000918101602001919091529392505050565b803563ffffffff8116811461198157600080fd5b60008060408385031215611a1c57600080fd5b611a258361196a565b9150611a33602084016119f5565b90509250929050565b600080600060408486031215611a5157600080fd5b83356001600160401b0380821115611a6857600080fd5b818601915086601f830112611a7c57600080fd5b813581811115611a8b57600080fd5b8760208260051b8501011115611aa057600080fd5b602092830195509350908501359080821115611abb57600080fd5b508401601f81018613611acd57600080fd5b611adc868235602084016118eb565b9150509250925092565b600060208284031215611af857600080fd5b81518015158114611b0857600080fd5b9392505050565b600060208284031215611b2157600080fd5b5035919050565b60008060008060008060c08789031215611b4157600080fd5b8635955060208701356001600160e01b031981168114611b6057600080fd5b9450611b6e604088016119f5565b935060608701359250611b836080880161196a565b915060a08701356001600160401b03811115611b9e57600080fd5b611baa89828a01611986565b9150509295509295509295565b600080600080600060a08688031215611bcf57600080fd5b8535945060208601356001600160401b038082168214611bee57600080fd5b819550611bfd604089016119f5565b9450611c0b606089016119f5565b93506080880135915080821115611c2157600080fd5b50611c2e88828901611986565b9150509295509295909350565b600080600060408486031215611c5057600080fd5b83356001600160401b0380821115611c6757600080fd5b818601915086601f830112611c7b57600080fd5b813581811115611c8a57600080fd5b876020828501011115611c9c57600080fd5b602092830195509350908501359080821115611cb757600080fd5b50611adc86828701611986565b60008060408385031215611cd757600080fd5b82356001600160401b0380821115611cee57600080fd5b611cfa86838701611986565b93506020850135915080821115611d1057600080fd5b50611d1d85828601611986565b9150509250929050565b600080600060608486031215611d3c57600080fd5b83356001600160401b0380821115611d5357600080fd5b611d5f87838801611986565b9450611d6d602087016119f5565b93506040860135915080821115611cb757600080fd5b60006020808385031215611d9657600080fd5b82356001600160401b0380821115611dad57600080fd5b9084019060608287031215611dc157600080fd5b611dc961202b565b611dd2836119f5565b81528383013582811115611de557600080fd5b83019150601f82018713611df857600080fd5b8135611e066118f982612083565b8082825286820191508685018a888560051b8801011115611e2657600080fd5b600095505b83861015611e49578035835260019590950194918701918701611e2b565b508387015250611e5d90506040840161196a565b60408201529695505050505050565b63ffffffff60e01b8360e01b1681526000825160005b81811015611e9f5760208186018101516004868401015201611e82565b81811115611eb1576000600483860101525b50919091016004019392505050565b83815260406020820152816040820152818360608301376000818301606090810191909152601f909201601f1916010192915050565b60208082526026908201527f476f7665726e61626c653a2063616c6c6572206973206e6f742074686520676f6040820152653b32b93737b960d11b606082015260800190565b60208082526037908201527f61646d696e5365745265736f75726365576974685369676e61747572653a204560408201527f7865637574696e67206f6e2077726f6e6720636861696e000000000000000000606082015260800190565b6020808252602c908201527f5369676e61747572654272696467653a204e6f742076616c696420736967206660408201526b3937b69033b7bb32b93737b960a11b606082015260800190565b6000808335601e19843603018112611ffc57600080fd5b8301803591506001600160401b0382111561201657600080fd5b6020019150368190038213156116d257600080fd5b604051606081016001600160401b038111828210171561204d5761204d612284565b60405290565b604051601f8201601f191681016001600160401b038111828210171561207b5761207b612284565b604052919050565b60006001600160401b0382111561209c5761209c612284565b5060051b60200190565b600080858511156120b657600080fd5b838611156120c357600080fd5b5050820193919092039150565b600082198211156120e3576120e361222c565b500190565b600063ffffffff8083168185168083038211156121075761210761222c565b01949350505050565b600063ffffffff8084168061212757612127612242565b92169190910492915050565b60006001600160401b038084168061212757612127612242565b60008160001904831182151516156121675761216761222c565b500290565b6000611b083684846118eb565b8035602083101561048657600019602084900360031b1b1692915050565b805160208201516001600160d01b031980821692919060068310156121c65780818460060360031b1b83161693505b505050919050565b60006000198214156121e2576121e261222c565b5060010190565b600060ff821660ff8114156122005761220061222c565b60010192915050565b600063ffffffff8084168061222057612220612242565b92169190910692915050565b634e487b7160e01b600052601160045260246000fd5b634e487b7160e01b600052601260045260246000fd5b634e487b7160e01b600052602160045260246000fd5b634e487b7160e01b600052603260045260246000fd5b634e487b7160e01b600052604160045260246000fdfea2646970667358221220626ea6e35667d6eaf20c5082c3409f05197c6f5549ea127acd32457626d1273664736f6c63430008050033",
  "linkReferences": {},
  "deployedLinkReferences": {}
}