{
  "_format": "hh-sol-artifact-1",
  "contractName": "Treasury",
  "sourceName": "contracts/Treasury.sol",
  "abi": [
    {
      "inputs": [
        {
          "internalType": "address",
          "name": "_treasuryHandler",
          "type": "address"
        }
      ],
      "stateMutability": "nonpayable",
      "type": "constructor"
    },
    {
      "inputs": [],
      "name": "getProposalNonce",
      "outputs": [
        {
          "internalType": "uint256",
          "name": "",
          "type": "uint256"
        }
      ],
      "stateMutability": "view",
      "type": "function"
    },
    {
      "inputs": [],
      "name": "proposalNonce",
      "outputs": [
        {
          "internalType": "uint256",
          "name": "",
          "type": "uint256"
        }
      ],
      "stateMutability": "view",
      "type": "function"
    },
    {
      "inputs": [
        {
          "internalType": "address",
          "name": "tokenAddress",
          "type": "address"
        },
        {
          "internalType": "address payable",
          "name": "to",
          "type": "address"
        },
        {
          "internalType": "uint256",
          "name": "amountToRescue",
          "type": "uint256"
        },
        {
          "internalType": "uint32",
          "name": "nonce",
          "type": "uint32"
        }
      ],
      "name": "rescueTokens",
      "outputs": [],
      "stateMutability": "nonpayable",
      "type": "function"
    },
    {
      "inputs": [
        {
          "internalType": "address",
          "name": "newHandler",
          "type": "address"
        },
        {
          "internalType": "uint32",
          "name": "nonce",
          "type": "uint32"
        }
      ],
      "name": "setHandler",
      "outputs": [],
      "stateMutability": "nonpayable",
      "type": "function"
    },
    {
      "stateMutability": "payable",
      "type": "receive"
    }
  ],
  "bytecode": "0x608060405234801561001057600080fd5b5060405161080738038061080783398101604081905261002f91610054565b600180546001600160a01b0319166001600160a01b0392909216919091179055610084565b60006020828403121561006657600080fd5b81516001600160a01b038116811461007d57600080fd5b9392505050565b610774806100936000396000f3fe6080604052600436106100435760003560e01c80630b27fb9a1461004f578063622c77d91461007257806372c1ad0314610094578063cc3c74a1146100b457600080fd5b3661004a57005b600080fd5b34801561005b57600080fd5b506000545b60405190815260200160405180910390f35b34801561007e57600080fd5b5061009261008d366004610549565b6100ca565b005b3480156100a057600080fd5b506100926100af36600461059a565b61043c565b3480156100c057600080fd5b5061006060005481565b6001546001600160a01b031633146100fd5760405162461bcd60e51b81526004016100f490610611565b60405180910390fd5b8063ffffffff1680600054106101255760405162461bcd60e51b81526004016100f490610660565b600054610133906001610700565b8111156101525760405162461bcd60e51b81526004016100f4906106a3565b60008190556001600160a01b0384166101bb5760405162461bcd60e51b815260206004820152602560248201527f43616e6e6f742073656e64206c697175696469747920746f207a65726f206164604482015264647265737360d81b60648201526084016100f4565b6001600160a01b0385163014156102145760405162461bcd60e51b815260206004820152601b60248201527f43616e6e6f74207265736375652077726170706564206173736574000000000060448201526064016100f4565b6001600160a01b0385166102a45747838110610266576040516001600160a01b0386169085156108fc029086906000818181858888f19350505050158015610260573d6000803e3d6000fd5b5061029e565b6040516001600160a01b0386169082156108fc029083906000818181858888f1935050505015801561029c573d6000803e3d6000fd5b505b50610435565b6040516370a0823160e01b81523060048201526000906001600160a01b038716906370a082319060240160206040518083038186803b1580156102e657600080fd5b505afa1580156102fa573d6000803e3d6000fd5b505050506040513d601f19601f8201168201806040525081019061031e91906105f8565b90508381106103af5760405163a9059cbb60e01b81526001600160a01b0386811660048301526024820186905287169063a9059cbb90604401602060405180830381600087803b15801561037157600080fd5b505af1158015610385573d6000803e3d6000fd5b505050506040513d601f19601f820116820180604052508101906103a991906105cf565b50610433565b60405163a9059cbb60e01b81526001600160a01b0386811660048301526024820183905287169063a9059cbb90604401602060405180830381600087803b1580156103f957600080fd5b505af115801561040d573d6000803e3d6000fd5b505050506040513d601f19601f8201168201806040525081019061043191906105cf565b505b505b5050505050565b6001546001600160a01b031633146104665760405162461bcd60e51b81526004016100f490610611565b8063ffffffff16806000541061048e5760405162461bcd60e51b81526004016100f490610660565b60005461049c906001610700565b8111156104bb5760405162461bcd60e51b81526004016100f4906106a3565b60008190556001600160a01b03831661050c5760405162461bcd60e51b8152602060048201526013602482015272048616e646c65722063616e6e6f74206265203606c1b60448201526064016100f4565b5050600180546001600160a01b0319166001600160a01b0392909216919091179055565b803563ffffffff8116811461054457600080fd5b919050565b6000806000806080858703121561055f57600080fd5b843561056a81610726565b9350602085013561057a81610726565b92506040850135915061058f60608601610530565b905092959194509250565b600080604083850312156105ad57600080fd5b82356105b881610726565b91506105c660208401610530565b90509250929050565b6000602082840312156105e157600080fd5b815180151581146105f157600080fd5b9392505050565b60006020828403121561060a57600080fd5b5051919050565b6020808252602f908201527f46756e6374696f6e2063616e206f6e6c792062652063616c6c6564206279207460408201526e3932b0b9bab93c903430b7323632b960891b606082015260800190565b60208082526023908201527f50726f706f73616c4e6f6e6365547261636b65723a20496e76616c6964206e6f6040820152626e636560e81b606082015260800190565b6020808252603a908201527f50726f706f73616c4e6f6e6365547261636b65723a204e6f6e6365206d75737460408201527f206e6f7420696e6372656d656e74206d6f7265207468616e2031000000000000606082015260800190565b6000821982111561072157634e487b7160e01b600052601160045260246000fd5b500190565b6001600160a01b038116811461073b57600080fd5b5056fea2646970667358221220a75d208ad9e77c4d1b6bf46564c1554ce98c4a65a9de6845baa0f4e25291b45864736f6c63430008050033",
  "linkReferences": {},
  "deployedLinkReferences": {}
}