{
  "_format": "hh-sol-artifact-1",
  "contractName": "VAnchorEncodeInputs",
  "sourceName": "contracts/libs/VAnchorEncodeInputs.sol",
  "abi": [
    {
      "inputs": [],
      "name": "EVM_CHAIN_ID_TYPE",
      "outputs": [
        {
          "internalType": "bytes2",
          "name": "",
          "type": "bytes2"
        }
      ],
      "stateMutability": "view",
      "type": "function"
    },
    {
      "inputs": [
        {
          "components": [
            {
              "internalType": "bytes",
              "name": "roots",
              "type": "bytes"
            },
            {
              "internalType": "bytes",
              "name": "extensionRoots",
              "type": "bytes"
            },
            {
              "internalType": "uint256[]",
              "name": "inputNullifiers",
              "type": "uint256[]"
            },
            {
              "internalType": "uint256[2]",
              "name": "outputCommitments",
              "type": "uint256[2]"
            },
            {
              "internalType": "uint256",
              "name": "publicAmount",
              "type": "uint256"
            },
            {
              "internalType": "uint256",
              "name": "extDataHash",
              "type": "uint256"
            }
          ],
          "internalType": "struct PublicInputs",
          "name": "_args",
          "type": "tuple"
        },
        {
          "internalType": "bytes",
          "name": "",
          "type": "bytes"
        },
        {
          "internalType": "uint8",
          "name": "_maxEdges",
          "type": "uint8"
        }
      ],
      "name": "_encodeInputs16",
      "outputs": [
        {
          "internalType": "bytes",
          "name": "",
          "type": "bytes"
        },
        {
          "internalType": "uint256[]",
          "name": "",
          "type": "uint256[]"
        }
      ],
      "stateMutability": "view",
      "type": "function"
    },
    {
      "inputs": [
        {
          "components": [
            {
              "internalType": "bytes",
              "name": "roots",
              "type": "bytes"
            },
            {
              "internalType": "bytes",
              "name": "extensionRoots",
              "type": "bytes"
            },
            {
              "internalType": "uint256[]",
              "name": "inputNullifiers",
              "type": "uint256[]"
            },
            {
              "internalType": "uint256[2]",
              "name": "outputCommitments",
              "type": "uint256[2]"
            },
            {
              "internalType": "uint256",
              "name": "publicAmount",
              "type": "uint256"
            },
            {
              "internalType": "uint256",
              "name": "extDataHash",
              "type": "uint256"
            }
          ],
          "internalType": "struct PublicInputs",
          "name": "_args",
          "type": "tuple"
        },
        {
          "internalType": "bytes",
          "name": "",
          "type": "bytes"
        },
        {
          "internalType": "uint8",
          "name": "_maxEdges",
          "type": "uint8"
        }
      ],
      "name": "_encodeInputs2",
      "outputs": [
        {
          "internalType": "bytes",
          "name": "",
          "type": "bytes"
        },
        {
          "internalType": "uint256[]",
          "name": "",
          "type": "uint256[]"
        }
      ],
      "stateMutability": "view",
      "type": "function"
    },
    {
      "inputs": [],
      "name": "getChainId",
      "outputs": [
        {
          "internalType": "uint256",
          "name": "",
          "type": "uint256"
        }
      ],
      "stateMutability": "view",
      "type": "function"
    },
    {
      "inputs": [],
      "name": "getChainIdType",
      "outputs": [
        {
          "internalType": "uint48",
          "name": "",
          "type": "uint48"
        }
      ],
      "stateMutability": "view",
      "type": "function"
    }
  ],
  "bytecode": "0x61166b61003a600b82828239805160001a60731461002d57634e487b7160e01b600052600060045260246000fd5b30600052607381538281f3fe73000000000000000000000000000000000000000030146080604052600436106100615760003560e01c80633408e470146100665780634c830cbd146100795780637d6c5ceb146100985780638b7e8782146100b9578063ab149fd8146100dd575b600080fd5b6040514681526020015b60405180910390f35b6100816100f0565b60405165ffffffffffff9091168152602001610070565b6100ab6100a6366004611276565b61013e565b604051610070929190611388565b6100c4600160f81b81565b6040516001600160f01b03199091168152602001610070565b6100ab6100eb366004611276565b610bf5565b60408051600160f81b602082018190524660e01b6001600160e01b031981166022840152835180840360060181526026909301909352600092916101338161141e565b60d01c935050505090565b606080600061014b6100f0565b65ffffffffffff1690506000610162856001611455565b60ff1667ffffffffffffffff81111561017d5761017d61108d565b6040519080825280602002602001820160405280156101a6578160200160208202803683370190505b50905060608560ff16600103610618576101be611011565b600089600001518060200190518101906101d89190611482565b90508060006020020151846000815181106101f5576101f56114d7565b602090810291909101015280600160200201518460018151811061021b5761021b6114d7565b60209081029190910181019190915260808b0151835260a08b01519083015260408a01518051600090610250576102506114d7565b60200260200101518260026017811061026b5761026b6114d7565b602002015260408a015180516001908110610288576102886114d7565b6020026020010151826003601781106102a3576102a36114d7565b602002015260408a0151805160029081106102c0576102c06114d7565b6020026020010151826004601781106102db576102db6114d7565b602002015260408a0151805160039081106102f8576102f86114d7565b602002602001015182600560178110610313576103136114d7565b602002015260408a015180516004908110610330576103306114d7565b60200260200101518260066017811061034b5761034b6114d7565b602002015260408a015180516005908110610368576103686114d7565b602002602001015182600760178110610383576103836114d7565b602002015260408a0151805160069081106103a0576103a06114d7565b6020026020010151826008601781106103bb576103bb6114d7565b602002015260408a0151805160079081106103d8576103d86114d7565b6020026020010151826009601781106103f3576103f36114d7565b602002015260408a015180516008908110610410576104106114d7565b602002602001015182600a6017811061042b5761042b6114d7565b602002015260408a015180516009908110610448576104486114d7565b602002602001015182600b60178110610463576104636114d7565b602002015260408a01518051600a908110610480576104806114d7565b602002602001015182600c6017811061049b5761049b6114d7565b602002015260408a01518051600b9081106104b8576104b86114d7565b602002602001015182600d601781106104d3576104d36114d7565b602002015260408a01518051600c9081106104f0576104f06114d7565b602002602001015182600e6017811061050b5761050b6114d7565b602002015260408a01518051600d908110610528576105286114d7565b602002602001015182600f60178110610543576105436114d7565b602002015260408a01518051600e908110610560576105606114d7565b60200260200101518260106017811061057b5761057b6114d7565b602002015260408a01518051600f908110610598576105986114d7565b6020026020010151826011601781106105b3576105b36114d7565b6020908102919091019190915260608b0180515161024085015251810151610260840152610280830186905281516102a0840152818101516102c0840152604051610600918491016114ed565b60405160208183030381529060405292505050610be9565b8560ff16600703610b925761062b611030565b600089600001518060200190518101906106459190611522565b9050806000602002015184600081518110610662576106626114d7565b6020908102919091010152806001602002015184600181518110610688576106886114d7565b60209081029190910101528060026020020151846002815181106106ae576106ae6114d7565b60209081029190910101528060036020020151846003815181106106d4576106d46114d7565b60209081029190910101528060046020020151846004815181106106fa576106fa6114d7565b6020908102919091010152806005602002015184600581518110610720576107206114d7565b6020908102919091010152806006602002015184600681518110610746576107466114d7565b602090810291909101015280600760200201518460078151811061076c5761076c6114d7565b60209081029190910181019190915260808b0151835260a08b01519083015260408a015180516000906107a1576107a16114d7565b6020026020010151826002601d81106107bc576107bc6114d7565b602002015260408a0151805160019081106107d9576107d96114d7565b6020026020010151826003601d81106107f4576107f46114d7565b602002015260408a015180516002908110610811576108116114d7565b6020026020010151826004601d811061082c5761082c6114d7565b602002015260408a015180516003908110610849576108496114d7565b6020026020010151826005601d8110610864576108646114d7565b602002015260408a015180516004908110610881576108816114d7565b6020026020010151826006601d811061089c5761089c6114d7565b602002015260408a0151805160059081106108b9576108b96114d7565b6020026020010151826007601d81106108d4576108d46114d7565b602002015260408a0151805160069081106108f1576108f16114d7565b6020026020010151826008601d811061090c5761090c6114d7565b602002015260408a015180516007908110610929576109296114d7565b6020026020010151826009601d8110610944576109446114d7565b602002015260408a015180516008908110610961576109616114d7565b602002602001015182600a601d811061097c5761097c6114d7565b602002015260408a015180516009908110610999576109996114d7565b602002602001015182600b601d81106109b4576109b46114d7565b602002015260408a01518051600a9081106109d1576109d16114d7565b602002602001015182600c601d81106109ec576109ec6114d7565b602002015260408a01518051600b908110610a0957610a096114d7565b602002602001015182600d601d8110610a2457610a246114d7565b602002015260408a01518051600c908110610a4157610a416114d7565b602002602001015182600e601d8110610a5c57610a5c6114d7565b602002015260408a01518051600d908110610a7957610a796114d7565b602002602001015182600f601d8110610a9457610a946114d7565b602002015260408a01518051600e908110610ab157610ab16114d7565b6020026020010151826010601d8110610acc57610acc6114d7565b602002015260408a01518051600f908110610ae957610ae96114d7565b6020026020010151826011601d8110610b0457610b046114d7565b6020908102919091019190915260608b810180515161024086015251820151610260850152610280840187905282516102a0850152828201516102c08501526040808401516102e086015290830151610300850152608083015161032085015260a083015161034085015260c083015161036085015260e08301516103808501525161060091849101611596565b60405162461bcd60e51b815260206004820152602260248201527f56416e63686f72456e636f6465496e707574733a20496e76616c696420656467604482015261657360f01b606482015260840160405180910390fd5b97909650945050505050565b6060806000610c026100f0565b65ffffffffffff1690506000610c19856001611455565b60ff1667ffffffffffffffff811115610c3457610c3461108d565b604051908082528060200260200182016040528015610c5d578160200160208202803683370190505b50905060608560ff16600103610da357610c7561104f565b60008960000151806020019051810190610c8f9190611482565b9050806000602002015184600081518110610cac57610cac6114d7565b6020908102919091010152806001602002015184600181518110610cd257610cd26114d7565b60209081029190910181019190915260808b0151835260a08b01519083015260408a01518051600090610d0757610d076114d7565b602002602001015182600260098110610d2257610d226114d7565b602002015260408a015180516001908110610d3f57610d3f6114d7565b602002602001015182600360098110610d5a57610d5a6114d7565b6020908102919091019190915260608b0180515160808501525181015160a084015260c08301869052815160e084015281810151610100840152604051610600918491016115cb565b8560ff16600703610b9257610db661106e565b60008960000151806020019051810190610dd09190611522565b9050806000602002015184600081518110610ded57610ded6114d7565b6020908102919091010152806001602002015184600181518110610e1357610e136114d7565b6020908102919091010152806002602002015184600281518110610e3957610e396114d7565b6020908102919091010152806003602002015184600381518110610e5f57610e5f6114d7565b6020908102919091010152806004602002015184600481518110610e8557610e856114d7565b6020908102919091010152806005602002015184600581518110610eab57610eab6114d7565b6020908102919091010152806006602002015184600681518110610ed157610ed16114d7565b6020908102919091010152806007602002015184600781518110610ef757610ef76114d7565b60209081029190910181019190915260808b0151835260a08b01519083015260408a01518051600090610f2c57610f2c6114d7565b6020026020010151826002600f8110610f4757610f476114d7565b602002015260408a015180516001908110610f6457610f646114d7565b6020026020010151826003600f8110610f7f57610f7f6114d7565b6020908102919091019190915260608b8101805151608080870191909152905183015160a08087019190915260c08087018a9052855160e080890191909152868601516101008901526040808801516101208a01529487015161014089015292860151610160880152908501516101808701528401516101a08601528301516101c08501525161060091849101611600565b604051806102e001604052806017906020820280368337509192915050565b604051806103a00160405280601d906020820280368337509192915050565b6040518061012001604052806009906020820280368337509192915050565b604051806101e00160405280600f906020820280368337509192915050565b634e487b7160e01b600052604160045260246000fd5b60405160c0810167ffffffffffffffff811182821017156110c6576110c661108d565b60405290565b6040805190810167ffffffffffffffff811182821017156110c6576110c661108d565b604051601f8201601f1916810167ffffffffffffffff811182821017156111185761111861108d565b604052919050565b600082601f83011261113157600080fd5b813567ffffffffffffffff81111561114b5761114b61108d565b61115e601f8201601f19166020016110ef565b81815284602083860101111561117357600080fd5b816020850160208301376000918101602001919091529392505050565b600082601f8301126111a157600080fd5b8135602067ffffffffffffffff8211156111bd576111bd61108d565b8160051b6111cc8282016110ef565b92835284810182019282810190878511156111e657600080fd5b83870192505b84831015611205578235825291830191908301906111ec565b979650505050505050565b600082601f83011261122157600080fd5b6112296110cc565b80604084018581111561123b57600080fd5b845b8181101561125557803584526020938401930161123d565b509095945050505050565b803560ff8116811461127157600080fd5b919050565b60008060006060848603121561128b57600080fd5b833567ffffffffffffffff808211156112a357600080fd5b9085019060e082880312156112b757600080fd5b6112bf6110a3565b8235828111156112ce57600080fd5b6112da89828601611120565b8252506020830135828111156112ef57600080fd5b6112fb89828601611120565b60208301525060408301358281111561131357600080fd5b61131f89828601611190565b6040830152506113328860608501611210565b606082015260a0830135608082015260c083013560a082015280955050602086013591508082111561136357600080fd5b5061137086828701611120565b92505061137f60408501611260565b90509250925092565b604081526000835180604084015260005b818110156113b65760208187018101516060868401015201611399565b50600060608285010152601f19601f82011683019050606081016020606085840301818601528186518084526080850191508288019450600093505b8084101561141257845182529382019360019390930192908201906113f2565b50979650505050505050565b805160208201516001600160d01b0319808216929190600683101561144d5780818460060360031b1b83161693505b505050919050565b60ff818116838216019081111561147c57634e487b7160e01b600052601160045260246000fd5b92915050565b60006040828403121561149457600080fd5b82601f8301126114a357600080fd5b6114ab6110cc565b8060408401858111156114bd57600080fd5b845b818110156112555780518452602093840193016114bf565b634e487b7160e01b600052603260045260246000fd5b60008183825b60178110156115125781518352602092830192909101906001016114f3565b5050506102e08201905092915050565b600061010080838503121561153657600080fd5b83601f84011261154557600080fd5b60405181810181811067ffffffffffffffff821117156115675761156761108d565b60405290830190808583111561157c57600080fd5b845b8381101561125557805182526020918201910161157e565b60008183825b601d8110156115bb57815183526020928301929091019060010161159c565b5050506103a08201905092915050565b60008183825b60098110156115f05781518352602092830192909101906001016115d1565b5050506101208201905092915050565b60008183825b600f811015611625578151835260209283019290910190600101611606565b5050506101e0820190509291505056fea2646970667358221220c42404013d155f86afb83ac13268483ca33383fc018561b99edcda31e03e4e0164736f6c63430008120033",
  "linkReferences": {},
  "deployedLinkReferences": {}
}