{
  "_format": "hh-sol-artifact-1",
  "contractName": "VAnchorTree",
  "sourceName": "contracts/vanchors/instances/VAnchorTree.sol",
  "abi": [
    {
      "inputs": [
        {
          "internalType": "contract IAnchorVerifier",
          "name": "_verifier",
          "type": "address"
        },
        {
          "internalType": "uint32",
          "name": "_merkleTreeLevels",
          "type": "uint32"
        },
        {
          "internalType": "contract IHasher",
          "name": "_hasher",
          "type": "address"
        },
        {
          "internalType": "address",
          "name": "_handler",
          "type": "address"
        },
        {
          "internalType": "address",
          "name": "_token",
          "type": "address"
        },
        {
          "internalType": "uint8",
          "name": "_maxEdges",
          "type": "uint8"
        }
      ],
      "stateMutability": "nonpayable",
      "type": "constructor"
    },
    {
      "anonymous": false,
      "inputs": [
        {
          "indexed": false,
          "internalType": "uint256",
          "name": "chainID",
          "type": "uint256"
        },
        {
          "indexed": false,
          "internalType": "uint256",
          "name": "latestLeafIndex",
          "type": "uint256"
        },
        {
          "indexed": false,
          "internalType": "uint256",
          "name": "merkleRoot",
          "type": "uint256"
        }
      ],
      "name": "EdgeAddition",
      "type": "event"
    },
    {
      "anonymous": false,
      "inputs": [
        {
          "indexed": false,
          "internalType": "uint256",
          "name": "chainID",
          "type": "uint256"
        },
        {
          "indexed": false,
          "internalType": "uint256",
          "name": "latestLeafIndex",
          "type": "uint256"
        },
        {
          "indexed": false,
          "internalType": "uint256",
          "name": "merkleRoot",
          "type": "uint256"
        }
      ],
      "name": "EdgeUpdate",
      "type": "event"
    },
    {
      "anonymous": false,
      "inputs": [
        {
          "indexed": true,
          "internalType": "uint256",
          "name": "commitment",
          "type": "uint256"
        },
        {
          "indexed": false,
          "internalType": "uint32",
          "name": "leafIndex",
          "type": "uint32"
        },
        {
          "indexed": false,
          "internalType": "uint256",
          "name": "timestamp",
          "type": "uint256"
        },
        {
          "indexed": true,
          "internalType": "uint256",
          "name": "newMerkleRoot",
          "type": "uint256"
        }
      ],
      "name": "Insertion",
      "type": "event"
    },
    {
      "anonymous": false,
      "inputs": [
        {
          "indexed": false,
          "internalType": "uint256",
          "name": "maximumDepositAmount",
          "type": "uint256"
        },
        {
          "indexed": false,
          "internalType": "uint32",
          "name": "nonce",
          "type": "uint32"
        }
      ],
      "name": "MaxDepositLimitUpdated",
      "type": "event"
    },
    {
      "anonymous": false,
      "inputs": [
        {
          "indexed": false,
          "internalType": "uint256",
          "name": "minimalWithdrawalAmount",
          "type": "uint256"
        },
        {
          "indexed": false,
          "internalType": "uint32",
          "name": "nonce",
          "type": "uint32"
        }
      ],
      "name": "MinWithdrawalLimitUpdated",
      "type": "event"
    },
    {
      "anonymous": false,
      "inputs": [
        {
          "indexed": false,
          "internalType": "uint256",
          "name": "commitment",
          "type": "uint256"
        },
        {
          "indexed": false,
          "internalType": "uint256",
          "name": "subTreeIndex",
          "type": "uint256"
        },
        {
          "indexed": false,
          "internalType": "uint256",
          "name": "leafIndex",
          "type": "uint256"
        },
        {
          "indexed": false,
          "internalType": "bytes",
          "name": "encryptedOutput",
          "type": "bytes"
        }
      ],
      "name": "NewCommitment",
      "type": "event"
    },
    {
      "anonymous": false,
      "inputs": [
        {
          "indexed": false,
          "internalType": "uint256",
          "name": "nullifier",
          "type": "uint256"
        }
      ],
      "name": "NewNullifier",
      "type": "event"
    },
    {
      "anonymous": false,
      "inputs": [
        {
          "indexed": true,
          "internalType": "address",
          "name": "owner",
          "type": "address"
        },
        {
          "indexed": false,
          "internalType": "bytes",
          "name": "key",
          "type": "bytes"
        }
      ],
      "name": "PublicKey",
      "type": "event"
    },
    {
      "anonymous": false,
      "inputs": [
        {
          "indexed": false,
          "internalType": "address",
          "name": "handler",
          "type": "address"
        },
        {
          "indexed": false,
          "internalType": "uint32",
          "name": "nonce",
          "type": "uint32"
        }
      ],
      "name": "SetHandler",
      "type": "event"
    },
    {
      "anonymous": false,
      "inputs": [
        {
          "indexed": false,
          "internalType": "address",
          "name": "verifier",
          "type": "address"
        },
        {
          "indexed": false,
          "internalType": "uint32",
          "name": "nonce",
          "type": "uint32"
        }
      ],
      "name": "SetVerifier",
      "type": "event"
    },
    {
      "inputs": [],
      "name": "EVM_CHAIN_ID_TYPE",
      "outputs": [
        {
          "internalType": "bytes2",
          "name": "",
          "type": "bytes2"
        }
      ],
      "stateMutability": "view",
      "type": "function"
    },
    {
      "inputs": [],
      "name": "FIELD_SIZE",
      "outputs": [
        {
          "internalType": "uint256",
          "name": "",
          "type": "uint256"
        }
      ],
      "stateMutability": "view",
      "type": "function"
    },
    {
      "inputs": [],
      "name": "MAX_EXT_AMOUNT",
      "outputs": [
        {
          "internalType": "int256",
          "name": "",
          "type": "int256"
        }
      ],
      "stateMutability": "view",
      "type": "function"
    },
    {
      "inputs": [],
      "name": "MAX_FEE",
      "outputs": [
        {
          "internalType": "uint256",
          "name": "",
          "type": "uint256"
        }
      ],
      "stateMutability": "view",
      "type": "function"
    },
    {
      "inputs": [],
      "name": "ROOT_HISTORY_SIZE",
      "outputs": [
        {
          "internalType": "uint32",
          "name": "",
          "type": "uint32"
        }
      ],
      "stateMutability": "view",
      "type": "function"
    },
    {
      "inputs": [],
      "name": "ZERO_VALUE",
      "outputs": [
        {
          "internalType": "uint256",
          "name": "",
          "type": "uint256"
        }
      ],
      "stateMutability": "view",
      "type": "function"
    },
    {
      "inputs": [
        {
          "internalType": "address",
          "name": "_fromTokenAddress",
          "type": "address"
        },
        {
          "internalType": "address",
          "name": "_toTokenAddress",
          "type": "address"
        },
        {
          "internalType": "uint256",
          "name": "_extAmount",
          "type": "uint256"
        }
      ],
      "name": "_executeWrapping",
      "outputs": [
        {
          "internalType": "uint256",
          "name": "",
          "type": "uint256"
        }
      ],
      "stateMutability": "payable",
      "type": "function"
    },
    {
      "inputs": [
        {
          "internalType": "bytes",
          "name": "",
          "type": "bytes"
        },
        {
          "components": [
            {
              "internalType": "address",
              "name": "recipient",
              "type": "address"
            },
            {
              "internalType": "int256",
              "name": "extAmount",
              "type": "int256"
            },
            {
              "internalType": "address",
              "name": "relayer",
              "type": "address"
            },
            {
              "internalType": "uint256",
              "name": "fee",
              "type": "uint256"
            },
            {
              "internalType": "uint256",
              "name": "refund",
              "type": "uint256"
            },
            {
              "internalType": "address",
              "name": "token",
              "type": "address"
            }
          ],
          "internalType": "struct CommonExtData",
          "name": "_externalData",
          "type": "tuple"
        },
        {
          "components": [
            {
              "internalType": "bytes",
              "name": "encryptedOutput1",
              "type": "bytes"
            },
            {
              "internalType": "bytes",
              "name": "encryptedOutput2",
              "type": "bytes"
            }
          ],
          "internalType": "struct Encryptions",
          "name": "_encryptions",
          "type": "tuple"
        }
      ],
      "name": "_genExtDataHash",
      "outputs": [
        {
          "internalType": "bytes32",
          "name": "",
          "type": "bytes32"
        }
      ],
      "stateMutability": "nonpayable",
      "type": "function"
    },
    {
      "inputs": [
        {
          "internalType": "address",
          "name": "_fromTokenAddress",
          "type": "address"
        },
        {
          "internalType": "address",
          "name": "_toTokenAddress",
          "type": "address"
        },
        {
          "internalType": "address",
          "name": "_recipient",
          "type": "address"
        },
        {
          "internalType": "uint256",
          "name": "_minusExtAmount",
          "type": "uint256"
        }
      ],
      "name": "_withdrawAndUnwrap",
      "outputs": [],
      "stateMutability": "payable",
      "type": "function"
    },
    {
      "inputs": [
        {
          "internalType": "int256",
          "name": "_extAmount",
          "type": "int256"
        },
        {
          "internalType": "uint256",
          "name": "_fee",
          "type": "uint256"
        }
      ],
      "name": "calculatePublicAmount",
      "outputs": [
        {
          "internalType": "uint256",
          "name": "",
          "type": "uint256"
        }
      ],
      "stateMutability": "pure",
      "type": "function"
    },
    {
      "inputs": [
        {
          "internalType": "uint256",
          "name": "",
          "type": "uint256"
        }
      ],
      "name": "commitments",
      "outputs": [
        {
          "internalType": "bool",
          "name": "",
          "type": "bool"
        }
      ],
      "stateMutability": "view",
      "type": "function"
    },
    {
      "inputs": [
        {
          "internalType": "uint256",
          "name": "_maximumDepositAmount",
          "type": "uint256"
        },
        {
          "internalType": "uint32",
          "name": "_nonce",
          "type": "uint32"
        }
      ],
      "name": "configureMaximumDepositLimit",
      "outputs": [],
      "stateMutability": "nonpayable",
      "type": "function"
    },
    {
      "inputs": [
        {
          "internalType": "uint256",
          "name": "_minimalWithdrawalAmount",
          "type": "uint256"
        },
        {
          "internalType": "uint32",
          "name": "_nonce",
          "type": "uint32"
        }
      ],
      "name": "configureMinimalWithdrawalLimit",
      "outputs": [],
      "stateMutability": "nonpayable",
      "type": "function"
    },
    {
      "inputs": [
        {
          "internalType": "uint256",
          "name": "",
          "type": "uint256"
        }
      ],
      "name": "currentNeighborRootIndex",
      "outputs": [
        {
          "internalType": "uint32",
          "name": "",
          "type": "uint32"
        }
      ],
      "stateMutability": "view",
      "type": "function"
    },
    {
      "inputs": [],
      "name": "currentRootIndex",
      "outputs": [
        {
          "internalType": "uint32",
          "name": "",
          "type": "uint32"
        }
      ],
      "stateMutability": "view",
      "type": "function"
    },
    {
      "inputs": [
        {
          "internalType": "uint256",
          "name": "",
          "type": "uint256"
        }
      ],
      "name": "edgeExistsForChain",
      "outputs": [
        {
          "internalType": "bool",
          "name": "",
          "type": "bool"
        }
      ],
      "stateMutability": "view",
      "type": "function"
    },
    {
      "inputs": [
        {
          "internalType": "uint256",
          "name": "",
          "type": "uint256"
        }
      ],
      "name": "edgeIndex",
      "outputs": [
        {
          "internalType": "uint256",
          "name": "",
          "type": "uint256"
        }
      ],
      "stateMutability": "view",
      "type": "function"
    },
    {
      "inputs": [
        {
          "internalType": "uint256",
          "name": "",
          "type": "uint256"
        }
      ],
      "name": "edgeList",
      "outputs": [
        {
          "internalType": "uint256",
          "name": "chainID",
          "type": "uint256"
        },
        {
          "internalType": "uint256",
          "name": "root",
          "type": "uint256"
        },
        {
          "internalType": "uint256",
          "name": "latestLeafIndex",
          "type": "uint256"
        },
        {
          "internalType": "bytes32",
          "name": "srcResourceID",
          "type": "bytes32"
        }
      ],
      "stateMutability": "view",
      "type": "function"
    },
    {
      "inputs": [
        {
          "internalType": "uint256",
          "name": "",
          "type": "uint256"
        }
      ],
      "name": "filledSubtrees",
      "outputs": [
        {
          "internalType": "uint256",
          "name": "",
          "type": "uint256"
        }
      ],
      "stateMutability": "view",
      "type": "function"
    },
    {
      "inputs": [],
      "name": "getChainId",
      "outputs": [
        {
          "internalType": "uint256",
          "name": "",
          "type": "uint256"
        }
      ],
      "stateMutability": "view",
      "type": "function"
    },
    {
      "inputs": [],
      "name": "getChainIdType",
      "outputs": [
        {
          "internalType": "uint48",
          "name": "",
          "type": "uint48"
        }
      ],
      "stateMutability": "view",
      "type": "function"
    },
    {
      "inputs": [],
      "name": "getHasher",
      "outputs": [
        {
          "internalType": "contract IHasher",
          "name": "",
          "type": "address"
        }
      ],
      "stateMutability": "view",
      "type": "function"
    },
    {
      "inputs": [],
      "name": "getLastRoot",
      "outputs": [
        {
          "internalType": "uint256",
          "name": "",
          "type": "uint256"
        }
      ],
      "stateMutability": "view",
      "type": "function"
    },
    {
      "inputs": [],
      "name": "getLatestNeighborEdges",
      "outputs": [
        {
          "components": [
            {
              "internalType": "uint256",
              "name": "chainID",
              "type": "uint256"
            },
            {
              "internalType": "uint256",
              "name": "root",
              "type": "uint256"
            },
            {
              "internalType": "uint256",
              "name": "latestLeafIndex",
              "type": "uint256"
            },
            {
              "internalType": "bytes32",
              "name": "srcResourceID",
              "type": "bytes32"
            }
          ],
          "internalType": "struct Edge[]",
          "name": "",
          "type": "tuple[]"
        }
      ],
      "stateMutability": "view",
      "type": "function"
    },
    {
      "inputs": [],
      "name": "getLatestNeighborRoots",
      "outputs": [
        {
          "internalType": "uint256[]",
          "name": "",
          "type": "uint256[]"
        }
      ],
      "stateMutability": "view",
      "type": "function"
    },
    {
      "inputs": [],
      "name": "getLevels",
      "outputs": [
        {
          "internalType": "uint32",
          "name": "",
          "type": "uint32"
        }
      ],
      "stateMutability": "view",
      "type": "function"
    },
    {
      "inputs": [],
      "name": "getNextIndex",
      "outputs": [
        {
          "internalType": "uint32",
          "name": "",
          "type": "uint32"
        }
      ],
      "stateMutability": "view",
      "type": "function"
    },
    {
      "inputs": [],
      "name": "getProposalNonce",
      "outputs": [
        {
          "internalType": "uint256",
          "name": "",
          "type": "uint256"
        }
      ],
      "stateMutability": "view",
      "type": "function"
    },
    {
      "inputs": [
        {
          "internalType": "uint32",
          "name": "index",
          "type": "uint32"
        }
      ],
      "name": "getZeroHash",
      "outputs": [
        {
          "internalType": "uint256",
          "name": "",
          "type": "uint256"
        }
      ],
      "stateMutability": "view",
      "type": "function"
    },
    {
      "inputs": [],
      "name": "handler",
      "outputs": [
        {
          "internalType": "address",
          "name": "",
          "type": "address"
        }
      ],
      "stateMutability": "view",
      "type": "function"
    },
    {
      "inputs": [
        {
          "internalType": "uint256",
          "name": "_chainID",
          "type": "uint256"
        }
      ],
      "name": "hasEdge",
      "outputs": [
        {
          "internalType": "bool",
          "name": "",
          "type": "bool"
        }
      ],
      "stateMutability": "view",
      "type": "function"
    },
    {
      "inputs": [
        {
          "internalType": "uint256",
          "name": "_left",
          "type": "uint256"
        },
        {
          "internalType": "uint256",
          "name": "_right",
          "type": "uint256"
        }
      ],
      "name": "hashLeftRight",
      "outputs": [
        {
          "internalType": "uint256",
          "name": "",
          "type": "uint256"
        }
      ],
      "stateMutability": "view",
      "type": "function"
    },
    {
      "inputs": [],
      "name": "hasher",
      "outputs": [
        {
          "internalType": "contract IHasher",
          "name": "",
          "type": "address"
        }
      ],
      "stateMutability": "view",
      "type": "function"
    },
    {
      "inputs": [
        {
          "internalType": "uint256",
          "name": "_minimalWithdrawalAmount",
          "type": "uint256"
        },
        {
          "internalType": "uint256",
          "name": "_maximumDepositAmount",
          "type": "uint256"
        }
      ],
      "name": "initialize",
      "outputs": [],
      "stateMutability": "nonpayable",
      "type": "function"
    },
    {
      "inputs": [],
      "name": "initialized",
      "outputs": [
        {
          "internalType": "bool",
          "name": "",
          "type": "bool"
        }
      ],
      "stateMutability": "view",
      "type": "function"
    },
    {
      "inputs": [
        {
          "internalType": "bytes32",
          "name": "resourceID",
          "type": "bytes32"
        }
      ],
      "name": "isCorrectExecutionChain",
      "outputs": [
        {
          "internalType": "bool",
          "name": "",
          "type": "bool"
        }
      ],
      "stateMutability": "view",
      "type": "function"
    },
    {
      "inputs": [
        {
          "internalType": "bytes32",
          "name": "resourceId",
          "type": "bytes32"
        }
      ],
      "name": "isCorrectExecutionContext",
      "outputs": [
        {
          "internalType": "bool",
          "name": "",
          "type": "bool"
        }
      ],
      "stateMutability": "view",
      "type": "function"
    },
    {
      "inputs": [
        {
          "internalType": "uint256",
          "name": "_neighborChainID",
          "type": "uint256"
        },
        {
          "internalType": "uint256",
          "name": "_root",
          "type": "uint256"
        }
      ],
      "name": "isKnownNeighborRoot",
      "outputs": [
        {
          "internalType": "bool",
          "name": "",
          "type": "bool"
        }
      ],
      "stateMutability": "view",
      "type": "function"
    },
    {
      "inputs": [
        {
          "internalType": "uint256",
          "name": "_root",
          "type": "uint256"
        }
      ],
      "name": "isKnownRoot",
      "outputs": [
        {
          "internalType": "bool",
          "name": "",
          "type": "bool"
        }
      ],
      "stateMutability": "view",
      "type": "function"
    },
    {
      "inputs": [
        {
          "internalType": "uint256",
          "name": "_nullifierHash",
          "type": "uint256"
        }
      ],
      "name": "isSpent",
      "outputs": [
        {
          "internalType": "bool",
          "name": "",
          "type": "bool"
        }
      ],
      "stateMutability": "view",
      "type": "function"
    },
    {
      "inputs": [
        {
          "internalType": "uint256[]",
          "name": "_nullifierHashes",
          "type": "uint256[]"
        }
      ],
      "name": "isSpentArray",
      "outputs": [
        {
          "internalType": "bool[]",
          "name": "",
          "type": "bool[]"
        }
      ],
      "stateMutability": "view",
      "type": "function"
    },
    {
      "inputs": [
        {
          "internalType": "uint256[]",
          "name": "_roots",
          "type": "uint256[]"
        }
      ],
      "name": "isValidRoots",
      "outputs": [
        {
          "internalType": "bool",
          "name": "",
          "type": "bool"
        }
      ],
      "stateMutability": "view",
      "type": "function"
    },
    {
      "inputs": [],
      "name": "lastBalance",
      "outputs": [
        {
          "internalType": "uint256",
          "name": "",
          "type": "uint256"
        }
      ],
      "stateMutability": "view",
      "type": "function"
    },
    {
      "inputs": [],
      "name": "levels",
      "outputs": [
        {
          "internalType": "uint32",
          "name": "",
          "type": "uint32"
        }
      ],
      "stateMutability": "view",
      "type": "function"
    },
    {
      "inputs": [],
      "name": "maxEdges",
      "outputs": [
        {
          "internalType": "uint8",
          "name": "",
          "type": "uint8"
        }
      ],
      "stateMutability": "view",
      "type": "function"
    },
    {
      "inputs": [],
      "name": "maximumDepositAmount",
      "outputs": [
        {
          "internalType": "uint256",
          "name": "",
          "type": "uint256"
        }
      ],
      "stateMutability": "view",
      "type": "function"
    },
    {
      "inputs": [],
      "name": "minimalWithdrawalAmount",
      "outputs": [
        {
          "internalType": "uint256",
          "name": "",
          "type": "uint256"
        }
      ],
      "stateMutability": "view",
      "type": "function"
    },
    {
      "inputs": [
        {
          "internalType": "uint256",
          "name": "",
          "type": "uint256"
        },
        {
          "internalType": "uint32",
          "name": "",
          "type": "uint32"
        }
      ],
      "name": "neighborRoots",
      "outputs": [
        {
          "internalType": "uint256",
          "name": "",
          "type": "uint256"
        }
      ],
      "stateMutability": "view",
      "type": "function"
    },
    {
      "inputs": [],
      "name": "nextIndex",
      "outputs": [
        {
          "internalType": "uint32",
          "name": "",
          "type": "uint32"
        }
      ],
      "stateMutability": "view",
      "type": "function"
    },
    {
      "inputs": [
        {
          "internalType": "uint256",
          "name": "",
          "type": "uint256"
        }
      ],
      "name": "nullifierHashes",
      "outputs": [
        {
          "internalType": "bool",
          "name": "",
          "type": "bool"
        }
      ],
      "stateMutability": "view",
      "type": "function"
    },
    {
      "inputs": [],
      "name": "outerLevels",
      "outputs": [
        {
          "internalType": "uint32",
          "name": "",
          "type": "uint32"
        }
      ],
      "stateMutability": "view",
      "type": "function"
    },
    {
      "inputs": [
        {
          "internalType": "bytes32",
          "name": "_resourceId",
          "type": "bytes32"
        }
      ],
      "name": "parseChainIdFromResourceId",
      "outputs": [
        {
          "internalType": "uint64",
          "name": "",
          "type": "uint64"
        }
      ],
      "stateMutability": "pure",
      "type": "function"
    },
    {
      "inputs": [],
      "name": "proposalNonce",
      "outputs": [
        {
          "internalType": "uint256",
          "name": "",
          "type": "uint256"
        }
      ],
      "stateMutability": "view",
      "type": "function"
    },
    {
      "inputs": [
        {
          "components": [
            {
              "internalType": "address",
              "name": "owner",
              "type": "address"
            },
            {
              "internalType": "bytes",
              "name": "keyData",
              "type": "bytes"
            }
          ],
          "internalType": "struct VAnchorBase.Account",
          "name": "_account",
          "type": "tuple"
        }
      ],
      "name": "register",
      "outputs": [],
      "stateMutability": "nonpayable",
      "type": "function"
    },
    {
      "inputs": [
        {
          "components": [
            {
              "internalType": "address",
              "name": "owner",
              "type": "address"
            },
            {
              "internalType": "bytes",
              "name": "keyData",
              "type": "bytes"
            }
          ],
          "internalType": "struct VAnchorBase.Account",
          "name": "_account",
          "type": "tuple"
        },
        {
          "internalType": "bytes",
          "name": "_proof",
          "type": "bytes"
        },
        {
          "internalType": "bytes",
          "name": "_auxPublicInputs",
          "type": "bytes"
        },
        {
          "components": [
            {
              "internalType": "address",
              "name": "recipient",
              "type": "address"
            },
            {
              "internalType": "int256",
              "name": "extAmount",
              "type": "int256"
            },
            {
              "internalType": "address",
              "name": "relayer",
              "type": "address"
            },
            {
              "internalType": "uint256",
              "name": "fee",
              "type": "uint256"
            },
            {
              "internalType": "uint256",
              "name": "refund",
              "type": "uint256"
            },
            {
              "internalType": "address",
              "name": "token",
              "type": "address"
            }
          ],
          "internalType": "struct CommonExtData",
          "name": "_externalData",
          "type": "tuple"
        },
        {
          "components": [
            {
              "internalType": "bytes",
              "name": "roots",
              "type": "bytes"
            },
            {
              "internalType": "bytes",
              "name": "extensionRoots",
              "type": "bytes"
            },
            {
              "internalType": "uint256[]",
              "name": "inputNullifiers",
              "type": "uint256[]"
            },
            {
              "internalType": "uint256[2]",
              "name": "outputCommitments",
              "type": "uint256[2]"
            },
            {
              "internalType": "uint256",
              "name": "publicAmount",
              "type": "uint256"
            },
            {
              "internalType": "uint256",
              "name": "extDataHash",
              "type": "uint256"
            }
          ],
          "internalType": "struct PublicInputs",
          "name": "_publicInputs",
          "type": "tuple"
        },
        {
          "components": [
            {
              "internalType": "bytes",
              "name": "encryptedOutput1",
              "type": "bytes"
            },
            {
              "internalType": "bytes",
              "name": "encryptedOutput2",
              "type": "bytes"
            }
          ],
          "internalType": "struct Encryptions",
          "name": "_encryptions",
          "type": "tuple"
        }
      ],
      "name": "registerAndTransact",
      "outputs": [],
      "stateMutability": "payable",
      "type": "function"
    },
    {
      "inputs": [
        {
          "internalType": "uint256",
          "name": "",
          "type": "uint256"
        }
      ],
      "name": "roots",
      "outputs": [
        {
          "internalType": "uint256",
          "name": "root",
          "type": "uint256"
        },
        {
          "internalType": "uint32",
          "name": "latestLeafindex",
          "type": "uint32"
        }
      ],
      "stateMutability": "view",
      "type": "function"
    },
    {
      "inputs": [
        {
          "internalType": "address",
          "name": "_handler",
          "type": "address"
        },
        {
          "internalType": "uint32",
          "name": "_nonce",
          "type": "uint32"
        }
      ],
      "name": "setHandler",
      "outputs": [],
      "stateMutability": "nonpayable",
      "type": "function"
    },
    {
      "inputs": [
        {
          "internalType": "address",
          "name": "_verifier",
          "type": "address"
        },
        {
          "internalType": "uint32",
          "name": "_nonce",
          "type": "uint32"
        }
      ],
      "name": "setVerifier",
      "outputs": [],
      "stateMutability": "nonpayable",
      "type": "function"
    },
    {
      "inputs": [],
      "name": "token",
      "outputs": [
        {
          "internalType": "address",
          "name": "",
          "type": "address"
        }
      ],
      "stateMutability": "view",
      "type": "function"
    },
    {
      "inputs": [
        {
          "internalType": "bytes",
          "name": "_proof",
          "type": "bytes"
        },
        {
          "internalType": "bytes",
          "name": "_auxPublicInputs",
          "type": "bytes"
        },
        {
          "components": [
            {
              "internalType": "address",
              "name": "recipient",
              "type": "address"
            },
            {
              "internalType": "int256",
              "name": "extAmount",
              "type": "int256"
            },
            {
              "internalType": "address",
              "name": "relayer",
              "type": "address"
            },
            {
              "internalType": "uint256",
              "name": "fee",
              "type": "uint256"
            },
            {
              "internalType": "uint256",
              "name": "refund",
              "type": "uint256"
            },
            {
              "internalType": "address",
              "name": "token",
              "type": "address"
            }
          ],
          "internalType": "struct CommonExtData",
          "name": "_externalData",
          "type": "tuple"
        },
        {
          "components": [
            {
              "internalType": "bytes",
              "name": "roots",
              "type": "bytes"
            },
            {
              "internalType": "bytes",
              "name": "extensionRoots",
              "type": "bytes"
            },
            {
              "internalType": "uint256[]",
              "name": "inputNullifiers",
              "type": "uint256[]"
            },
            {
              "internalType": "uint256[2]",
              "name": "outputCommitments",
              "type": "uint256[2]"
            },
            {
              "internalType": "uint256",
              "name": "publicAmount",
              "type": "uint256"
            },
            {
              "internalType": "uint256",
              "name": "extDataHash",
              "type": "uint256"
            }
          ],
          "internalType": "struct PublicInputs",
          "name": "_publicInputs",
          "type": "tuple"
        },
        {
          "components": [
            {
              "internalType": "bytes",
              "name": "encryptedOutput1",
              "type": "bytes"
            },
            {
              "internalType": "bytes",
              "name": "encryptedOutput2",
              "type": "bytes"
            }
          ],
          "internalType": "struct Encryptions",
          "name": "_encryptions",
          "type": "tuple"
        }
      ],
      "name": "transact",
      "outputs": [],
      "stateMutability": "payable",
      "type": "function"
    },
    {
      "inputs": [
        {
          "internalType": "uint256[8]",
          "name": "_proof",
          "type": "uint256[8]"
        }
      ],
      "name": "unpackProof",
      "outputs": [
        {
          "internalType": "uint256[2]",
          "name": "",
          "type": "uint256[2]"
        },
        {
          "internalType": "uint256[2][2]",
          "name": "",
          "type": "uint256[2][2]"
        },
        {
          "internalType": "uint256[2]",
          "name": "",
          "type": "uint256[2]"
        }
      ],
      "stateMutability": "pure",
      "type": "function"
    },
    {
      "inputs": [
        {
          "internalType": "uint256",
          "name": "_root",
          "type": "uint256"
        },
        {
          "internalType": "uint32",
          "name": "_leafIndex",
          "type": "uint32"
        },
        {
          "internalType": "bytes32",
          "name": "_srcResourceID",
          "type": "bytes32"
        }
      ],
      "name": "updateEdge",
      "outputs": [],
      "stateMutability": "payable",
      "type": "function"
    },
    {
      "inputs": [],
      "name": "verifier",
      "outputs": [
        {
          "internalType": "contract IAnchorVerifier",
          "name": "",
          "type": "address"
        }
      ],
      "stateMutability": "view",
      "type": "function"
    }
  ],
  "bytecode": "0x60e060405260108054600160a01b600160e01b03191690553480156200002457600080fd5b50604051620055c9380380620055c983398101604081905262000047916200036a565b6001600555600780546001600160a01b038086166001600160a01b03199283161790925563ffffffff871660a081905260ff841660805260108054848b1693169290921790915590831660c05285908590620000f65760405162461bcd60e51b815260206004820152602360248201527f5f6c6576656c732073686f756c642062652067726561746572207468616e207a60448201526265726f60e81b60648201526084015b60405180910390fd5b60208263ffffffff16106200014e5760405162461bcd60e51b815260206004820152601e60248201527f5f6c6576656c732073686f756c64206265206c657373207468616e20333200006044820152606401620000ed565b601080546001600160e01b0316600160e01b63ffffffff851602179055601180546001600160a01b0319166001600160a01b03831617905560005b8263ffffffff168163ffffffff1610156200023e57601154604051631d052ab160e31b815263ffffffff831660048201526001600160a01b039091169063e829558890602401602060405180830381865afa158015620001ed573d6000803e3d6000fd5b505050506040513d601f19601f820116820180604052508101906200021391906200040b565b63ffffffff82166000908152600260205260409020558062000235816200043b565b91505062000189565b506040805180820190915260115481906001600160a01b031663e82955886200026960018762000461565b6040516001600160e01b031960e084901b16815263ffffffff919091166004820152602401602060405180830381865afa158015620002ac573d6000803e3d6000fd5b505050506040513d601f19601f82011682018060405250810190620002d291906200040b565b81526000602091820181905280526001815281517fa6eef7e35abe7026729641147f7915573c7e97b47efa546f5f6e3230263bcb495501517fa6eef7e35abe7026729641147f7915573c7e97b47efa546f5f6e3230263bcb4a805463ffffffff191663ffffffff90921691909117905550620004889650505050505050565b6001600160a01b03811681146200036757600080fd5b50565b60008060008060008060c087890312156200038457600080fd5b8651620003918162000351565b602088015190965063ffffffff81168114620003ac57600080fd5b6040880151909550620003bf8162000351565b6060880151909450620003d28162000351565b6080880151909350620003e58162000351565b60a088015190925060ff81168114620003fd57600080fd5b809150509295509295509295565b6000602082840312156200041e57600080fd5b5051919050565b634e487b7160e01b600052601160045260246000fd5b600063ffffffff80831681810362000457576200045762000425565b6001019392505050565b63ffffffff82811682821603908082111562000481576200048162000425565b5092915050565b60805160a05160c0516150af6200051a60003960008181610ccc0152611ab90152600081816109a401528181610e13015281816117d40152611e7201526000818161073901528181610d1801528181610d82015281816116620152818161170201528181611cb001528181611e36015281816123d00152818161342b015281816134d0015261359601526150af6000f3fe6080604052600436106103b85760003560e01c80638c832b13116101f2578063cc3c74a11161010d578063ec732959116100a0578063f5fc3d6b1161006f578063f5fc3d6b14610c5e578063fa73168714610c8a578063fc0c546a14610cba578063fc7e9c6f14610cee57600080fd5b8063ec73295914610bae578063ed33639f14610be2578063f178e47c14610c02578063f5ab0dd614610c2f57600080fd5b8063e4a30116116100dc578063e4a3011614610b16578063e70ea87c14610b36578063ea495db014610b63578063ea65ba4914610b8157600080fd5b8063cc3c74a114610a8b578063cd87a3b414610aa1578063d384534d14610ab6578063dbc916b814610ad657600080fd5b8063b75e679811610185578063c1922f9e11610154578063c1922f9e146109c6578063c2230d6e146109d9578063c2b40ae414610a17578063c80916d414610a6b57600080fd5b8063b75e679814610941578063ba70f75714610961578063bc063e1a146107a3578063bfbc0a391461099257600080fd5b8063a0d192f5116101c1578063a0d192f5146108ce578063a38f76e8146108ee578063a6232a9314610901578063b2bc6e0f1461092157600080fd5b80638c832b13146108445780638f1c56bd1461086457806390eeb02b1461087a578063921563111461089e57600080fd5b806349ce8997116102e257806371523c3211610275578063830b2f5711610244578063830b2f57146107bb578063840b2791146107db5780638b7e8782146107f15780638c0d34d81461082257600080fd5b806371523c321461072757806372c1ad031461076d57806378abb49b1461078d5780637fe24ffe146107a357600080fd5b80635a129efe116102b15780635a129efe146106915780635bb93995146106c15780635d2d766c146106e15780636338bcbc1461071457600080fd5b806349ce8997146105fe5780634c830cbd1461062e5780634ecf518b1461065a578063509cd41e1461067e57600080fd5b80632570b7b41161035a57806338a26a091161032957806338a26a091461055f5780633bfa8d7a14610572578063414a37ba1461059257806343e7119f146105c657600080fd5b80632570b7b4146104d45780632b7ac3f3146104f4578063305e9eac1461052c5780633408e4701461054c57600080fd5b8063158ef93e11610396578063158ef93e146104365780631e627617146104605780631f79a1e9146104825780631f7f99f7146104b257600080fd5b80630b27fb9a146103bd5780630c394a60146103e15780630eb7606f14610414575b600080fd5b3480156103c957600080fd5b506006545b6040519081526020015b60405180910390f35b3480156103ed57600080fd5b50601054600160e01b900463ffffffff165b60405163ffffffff90911681526020016103d8565b34801561042057600080fd5b50601054600160c01b900463ffffffff166103ff565b34801561044257600080fd5b506000546104509060ff1681565b60405190151581526020016103d8565b34801561046c57600080fd5b50610475610d12565b6040516103d89190613d92565b34801561048e57600080fd5b5061045061049d366004613dd6565b60036020526000908152604090205460ff1681565b3480156104be57600080fd5b506104d26104cd366004613e01565b610ed4565b005b3480156104e057600080fd5b506103ce6104ef366004613e31565b610fd0565b34801561050057600080fd5b50601054610514906001600160a01b031681565b6040516001600160a01b0390911681526020016103d8565b34801561053857600080fd5b506103ce610547366004613e53565b6110cd565b34801561055857600080fd5b50466103ce565b6104d261056d366004614278565b611140565b34801561057e57600080fd5b5061045061058d366004613e31565b61115e565b34801561059e57600080fd5b506103ce7f30644e72e131a029b85045b68181585d2833e84879b9709143e1f593f000000181565b3480156105d257600080fd5b506103ce6105e1366004613e01565b600b60209081526000928352604080842090915290825290205481565b34801561060a57600080fd5b50610450610619366004613dd6565b60046020526000908152604090205460ff1681565b34801561063a57600080fd5b506106436111f5565b60405165ffffffffffff90911681526020016103d8565b34801561066657600080fd5b506010546103ff90600160e01b900463ffffffff1681565b6104d261068c36600461435c565b611243565b34801561069d57600080fd5b506104506106ac366004613dd6565b60009081526003602052604090205460ff1690565b3480156106cd57600080fd5b506103ce6106dc366004613e31565b6112bf565b3480156106ed57600080fd5b506103ff6106fc366004613dd6565b600c6020526000908152604090205463ffffffff1681565b6103ce6107223660046143ad565b611397565b34801561073357600080fd5b5061075b7f000000000000000000000000000000000000000000000000000000000000000081565b60405160ff90911681526020016103d8565b34801561077957600080fd5b506104d26107883660046143ee565b61150f565b34801561079957600080fd5b506103ce600f5481565b3480156107af57600080fd5b506103ce600160f81b81565b3480156107c757600080fd5b506104506107d6366004613dd6565b611638565b3480156107e757600080fd5b506103ce600e5481565b3480156107fd57600080fd5b50610809600160f81b81565b6040516001600160f01b031990911681526020016103d8565b34801561082e57600080fd5b5061083761165c565b6040516103d8919061441c565b34801561085057600080fd5b506104d261085f366004613e01565b6118a1565b34801561087057600080fd5b506103ce600d5481565b34801561088657600080fd5b506010546103ff90600160a01b900463ffffffff1681565b3480156108aa57600080fd5b506104506108b9366004613dd6565b60009081526009602052604090205460ff1690565b3480156108da57600080fd5b506104d26108e93660046143ee565b61198b565b6104d26108fc366004614480565b611ab4565b34801561090d57600080fd5b5061045061091c366004613dd6565b611ae9565b34801561092d57600080fd5b506104d261093c366004614541565b611b6f565b34801561094d57600080fd5b5061045061095c366004614575565b611bd4565b34801561096d57600080fd5b50601054600160a01b900463ffffffff166000908152600160205260409020546103ce565b34801561099e57600080fd5b506103ff7f000000000000000000000000000000000000000000000000000000000000000081565b6104d26109d43660046145a9565b611fa6565b3480156109e557600080fd5b506109ff6109f4366004613dd6565b65ffffffffffff1690565b6040516001600160401b0390911681526020016103d8565b348015610a2357600080fd5b50610a51610a32366004613dd6565b6001602081905260009182526040909120805491015463ffffffff1682565b6040805192835263ffffffff9091166020830152016103d8565b348015610a7757600080fd5b50600754610514906001600160a01b031681565b348015610a9757600080fd5b506103ce60065481565b348015610aad57600080fd5b506103ff601e81565b348015610ac257600080fd5b506103ce610ad13660046145d0565b6125be565b348015610ae257600080fd5b50610af6610af1366004613dd6565b612664565b6040805194855260208501939093529183015260608201526080016103d8565b348015610b2257600080fd5b506104d2610b31366004613e31565b61269e565b348015610b4257600080fd5b506103ce610b51366004613dd6565b60086020526000908152604090205481565b348015610b6f57600080fd5b506011546001600160a01b0316610514565b348015610b8d57600080fd5b50610ba1610b9c366004614645565b612719565b6040516103d891906146b9565b348015610bba57600080fd5b506103ce7f2fe54c60d3acabf3343a35b6eba15db4821b340f76e741e2249685ed4899af6c81565b348015610bee57600080fd5b50601154610514906001600160a01b031681565b348015610c0e57600080fd5b506103ce610c1d366004613dd6565b60026020526000908152604090205481565b348015610c3b57600080fd5b50610c4f610c4a3660046146f3565b6127e1565b6040516103d8939291906147a5565b348015610c6a57600080fd5b50610450610c79366004613dd6565b60301c6001600160a01b0316301490565b348015610c9657600080fd5b50610450610ca5366004613dd6565b60096020526000908152604090205460ff1681565b348015610cc657600080fd5b506105147f000000000000000000000000000000000000000000000000000000000000000081565b348015610cfa57600080fd5b506010546103ff90600160c01b900463ffffffff1681565b606060007f000000000000000000000000000000000000000000000000000000000000000060ff166001600160401b03811115610d5157610d51613e70565b604051908082528060200260200182016040528015610d7a578160200160208202803683370190505b50905060005b7f000000000000000000000000000000000000000000000000000000000000000060ff16811015610ece57610db68160016147e4565b600a5410610e0657600a8181548110610dd157610dd16147f7565b906000526020600020906004020160010154828281518110610df557610df56147f7565b602002602001018181525050610ebc565b3063305e9eac610e3760017f000000000000000000000000000000000000000000000000000000000000000061480d565b6040516001600160e01b031960e084901b16815263ffffffff919091166004820152602401602060405180830381865afa158015610e79573d6000803e3d6000fd5b505050506040513d601f19601f82011682018060405250810190610e9d9190614831565b828281518110610eaf57610eaf6147f7565b6020026020010181815250505b80610ec68161484a565b915050610d80565b50919050565b6007546001600160a01b03163314610f075760405162461bcd60e51b8152600401610efe90614863565b60405180910390fd5b8063ffffffff168060065410610f2f5760405162461bcd60e51b8152600401610efe9061489a565b600654610f3d9060016147e4565b811115610f5c5760405162461bcd60e51b8152600401610efe906148dd565b600681905560005460ff16610f835760405162461bcd60e51b8152600401610efe9061493a565b610f8c83600e55565b6040805184815263ffffffff841660208201527f7365fbc0361c0ff116a7632dca78f1f79cba64d281371ad578752ce44cb0f29b91015b60405180910390a1505050565b6000600160f81b82106110135760405162461bcd60e51b815260206004820152600b60248201526a496e76616c69642066656560a81b6044820152606401610efe565b611020600160f81b614971565b831380156110315750600160f81b83125b6110725760405162461bcd60e51b8152602060048201526012602482015271125b9d985b1a5908195e1d08185b5bdd5b9d60721b6044820152606401610efe565b600061107e838561498d565b905060008112156110c15761109281614971565b6110bc907f30644e72e131a029b85045b68181585d2833e84879b9709143e1f593f00000016149ad565b6110c3565b805b9150505b92915050565b601154604051631d052ab160e31b815263ffffffff831660048201526000916001600160a01b03169063e829558890602401602060405180830381865afa15801561111c573d6000803e3d6000fd5b505050506040513d601f19601f820116820180604052508101906110c79190614831565b61114986611b6f565b6111568585858585611ab4565b505050505050565b600081600003611170575060006110c7565b6000838152600c602052604090205463ffffffff16805b6000858152600b6020908152604080832063ffffffff8516845290915290205484036111b8576001925050506110c7565b8063ffffffff166000036111ca5750601e5b806111d4816149c0565b9150508163ffffffff168163ffffffff160361118757506000949350505050565b60408051600160f81b602082018190524660e01b6001600160e01b03198116602284015283518084036006018152602690930190935260009291611238816149e0565b60d01c935050505090565b61124e84308361286a565b604051632404142f60e11b81526001600160a01b038481166004830152602482018390528381166044830152851690634808285e906064015b600060405180830381600087803b1580156112a157600080fd5b505af11580156112b5573d6000803e3d6000fd5b5050505050505050565b600080306001600160a01b031663ea495db06040518163ffffffff1660e01b8152600401602060405180830381865afa158015611300573d6000803e3d6000fd5b505050506040513d601f19601f820116820180604052508101906113249190614a17565b604051635bb9399560e01b815260048101869052602481018590529091506001600160a01b03821690635bb9399590604401602060405180830381865afa158015611373573d6000803e3d6000fd5b505050506040513d601f19601f820116820180604052508101906110c39190614831565b604051634b66a6ff60e11b81526004810182905260009081906001600160a01b038516906396cd4dfe90602401602060405180830381865afa1580156113e1573d6000803e3d6000fd5b505050506040513d601f19601f820116820180604052508101906114059190614831565b90506001600160a01b0385166114965780341461142157600080fd5b604051633d97186b60e11b81523360048201526001600160a01b03868116602483015260006044830152306064830152851690637b2e30d69034906084016000604051808303818588803b15801561147857600080fd5b505af115801561148c573d6000803e3d6000fd5b5050505050611507565b604051633d97186b60e11b81523360048201526001600160a01b03868116602483015260448201839052306064830152851690637b2e30d69034906084016000604051808303818588803b1580156114ed57600080fd5b505af1158015611501573d6000803e3d6000fd5b50505050505b949350505050565b6007546001600160a01b031633146115395760405162461bcd60e51b8152600401610efe90614863565b8063ffffffff1680600654106115615760405162461bcd60e51b8152600401610efe9061489a565b60065461156f9060016147e4565b81111561158e5760405162461bcd60e51b8152600401610efe906148dd565b60068190556001600160a01b0383166115df5760405162461bcd60e51b8152602060048201526013602482015272048616e646c65722063616e6e6f74206265203606c1b6044820152606401610efe565b600780546001600160a01b0319166001600160a01b0385169081179091556040805191825263ffffffff841660208301527fd2e262b0385d9d9b956b22e37ce5d35b7120e1d369538757a6d7afd7bfe2d0269101610fc3565b600065ffffffffffff82168061164c6111f5565b65ffffffffffff16149392505050565b606060007f000000000000000000000000000000000000000000000000000000000000000060ff166001600160401b0381111561169b5761169b613e70565b6040519080825280602002602001820160405280156116fa57816020015b6116e76040518060800160405280600081526020016000815260200160008152602001600080191681525090565b8152602001906001900390816116b95790505b50905060005b7f000000000000000000000000000000000000000000000000000000000000000060ff16811015610ece576117368160016147e4565b600a54106117b457600a8181548110611751576117516147f7565b90600052602060002090600402016040518060800160405290816000820154815260200160018201548152602001600282015481526020016003820154815250508282815181106117a4576117a46147f7565b602002602001018190525061188f565b604080516080810190915260008152602081013063305e9eac6117f860017f000000000000000000000000000000000000000000000000000000000000000061480d565b6040516001600160e01b031960e084901b16815263ffffffff919091166004820152602401602060405180830381865afa15801561183a573d6000803e3d6000fd5b505050506040513d601f19601f8201168201806040525081019061185e9190614831565b8152602001600081526020016000801b815250828281518110611883576118836147f7565b60200260200101819052505b806118998161484a565b915050611700565b6007546001600160a01b031633146118cb5760405162461bcd60e51b8152600401610efe90614863565b8063ffffffff1680600654106118f35760405162461bcd60e51b8152600401610efe9061489a565b6006546119019060016147e4565b8111156119205760405162461bcd60e51b8152600401610efe906148dd565b600681905560005460ff166119475760405162461bcd60e51b8152600401610efe9061493a565b61195083600f55565b6040805184815263ffffffff841660208201527f1aac2d1c43f1cd792e5494b49218701c2ca718a80d6d6b480b7903c049e6bb1d9101610fc3565b6007546001600160a01b031633146119b55760405162461bcd60e51b8152600401610efe90614863565b8063ffffffff1680600654106119dd5760405162461bcd60e51b8152600401610efe9061489a565b6006546119eb9060016147e4565b811115611a0a5760405162461bcd60e51b8152600401610efe906148dd565b60068190556001600160a01b038316611a5b5760405162461bcd60e51b8152602060048201526013602482015272048616e646c65722063616e6e6f74206265203606c1b6044820152606401610efe565b601080546001600160a01b0319166001600160a01b0385169081179091556040805191825263ffffffff841660208301527ffb66e9e8ae339b78aacff90234fbd7dd75bea9bcea581ea47833249a68f2bb8e9101610fc3565b611ae27f00000000000000000000000000000000000000000000000000000000000000008686868686612932565b5050505050565b600081600003611afb57506000919050565b601054600160a01b900463ffffffff16805b63ffffffff81166000908152600160205260409020548403611b33575060019392505050565b8063ffffffff16600003611b455750601e5b80611b4f816149c0565b9150508163ffffffff168163ffffffff1603611b0d575060009392505050565b80516001600160a01b03163314611bc85760405162461bcd60e51b815260206004820152601c60248201527f6f6e6c79206f776e65722063616e2062652072656769737465726564000000006044820152606401610efe565b611bd181612b82565b50565b6000306001600160a01b031663a6232a9383600081518110611bf857611bf86147f7565b60200260200101516040518263ffffffff1660e01b8152600401611c1e91815260200190565b602060405180830381865afa158015611c3b573d6000803e3d6000fd5b505050506040513d601f19601f82011682018060405250810190611c5f9190614a34565b611cab5760405162461bcd60e51b815260206004820152601c60248201527f43616e6e6f742066696e6420796f7572206d65726b6c6520726f6f74000000006044820152606401610efe565b611cd67f00000000000000000000000000000000000000000000000000000000000000006001614a56565b60ff16825114611d285760405162461bcd60e51b815260206004820152601b60248201527f496e636f727265637420726f6f74206172726179206c656e67746800000000006044820152606401610efe565b600160005b600a54811015611e2f576000600a8281548110611d4c57611d4c6147f7565b90600052602060002090600402016040518060800160405290816000820154815260200160018201548152602001600282015481526020016003820154815250509050611dc2816000015186846001611da591906147e4565b81518110611db557611db56147f7565b602002602001015161115e565b611e0e5760405162461bcd60e51b815260206004820152601760248201527f4e65696768626f7220726f6f74206e6f7420666f756e640000000000000000006044820152606401610efe565b82611e188161484a565b935050508080611e279061484a565b915050611d2d565b505b611e5c7f00000000000000000000000000000000000000000000000000000000000000006001614a56565b60ff168114611f9d573063305e9eac611e9660017f000000000000000000000000000000000000000000000000000000000000000061480d565b6040516001600160e01b031960e084901b16815263ffffffff919091166004820152602401602060405180830381865afa158015611ed8573d6000803e3d6000fd5b505050506040513d601f19601f82011682018060405250810190611efc9190614831565b838281518110611f0e57611f0e6147f7565b602002602001015114611f8b576040805162461bcd60e51b81526020600482015260248101919091527f4c696e6b61626c65416e63686f723a206e6f6e2d6578697374656e742065646760448201527f65206973206e6f742073657420746f207468652064656661756c7420726f6f746064820152608401610efe565b80611f958161484a565b915050611e31565b50600192915050565b6007546001600160a01b03163314611fd05760405162461bcd60e51b8152600401610efe90614863565b60005460ff16611ff25760405162461bcd60e51b8152600401610efe9061493a565b611ffa612bce565b600065ffffffffffff8216604051639215631160e01b81526001600160401b03821660048201529091503090639215631190602401602060405180830381865afa15801561204c573d6000803e3d6000fd5b505050506040513d601f19601f820116820180604052508101906120709190614a34565b156123c9576001600160401b038116600090815260086020526040902054600a805463ffffffff8616929081106120a9576120a96147f7565b9060005260206000209060040201600201541061211f5760405162461bcd60e51b815260206004820152602e60248201527f4c696e6b61626c65416e63686f723a204e6577206c65616620696e646578206d60448201526d3ab9ba1031329033b932b0ba32b960911b6064820152608401610efe565b600a60086000836001600160401b03168152602001908152602001600020548154811061214e5761214e6147f7565b9060005260206000209060040201600201546201000061216e91906147e4565b8363ffffffff16106121e85760405162461bcd60e51b815260206004820152603a60248201527f4c696e6b61626c65416e63686f723a204e6577206c65616620696e646578206d60448201527f7573742062652077697468696e20325e313620757064617465730000000000006064820152608401610efe565b600a60086000836001600160401b031681526020019081526020016000205481548110612217576122176147f7565b906000526020600020906004020160030154821461228e5760405162461bcd60e51b815260206004820152602e60248201527f4c696e6b61626c65416e63686f723a207372635265736f757263654944206d7560448201526d7374206265207468652073616d6560901b6064820152608401610efe565b6001600160401b038116600090815260086020526040902054600a805463ffffffff86169190839081106122c4576122c46147f7565b90600052602060002090600402016002018190555084600a82815481106122ed576122ed6147f7565b6000918252602080832060016004909302018201939093556001600160401b0385168252600c90925260408120549091601e916123329163ffffffff90911690614a6f565b61233c9190614aa2565b6001600160401b0384166000818152600c60209081526040808320805463ffffffff191663ffffffff878116918217909255600b84528285209085528352928190208b905580519384529189169083015281018890529091507f918597b0fdca66b353a1b90d2287c2b06307c4d35c824dfcffeb4b675c961ce49060600160405180910390a150506125ae565b600a5460ff7f000000000000000000000000000000000000000000000000000000000000000016116124505760405162461bcd60e51b815260206004820152602a60248201527f4c696e6b61626c65416e63686f723a205468697320416e63686f7220697320616044820152697420636170616369747960b01b6064820152608401610efe565b6001600160401b0381166000818152600960209081526040808320805460ff19166001908117909155600a805483516080810185528781528086018c815263ffffffff8c1682870181815260608085018e81529786018755958a528351600486027fc65a7bb8d6351c1cf70c95a316cc6a92839c986682d98bc35f958f4883f9d2a881019190915592517fc65a7bb8d6351c1cf70c95a316cc6a92839c986682d98bc35f958f4883f9d2a9840155517fc65a7bb8d6351c1cf70c95a316cc6a92839c986682d98bc35f958f4883f9d2aa83015594517fc65a7bb8d6351c1cf70c95a316cc6a92839c986682d98bc35f958f4883f9d2ab9091015587875260088652848720829055600b865284872087805286528487208c9055845197885294870192909252918501899052939192917f5fe2c40955fb42111954fb4f898e4db4998d64ebaae1c872141ff1943990418a910160405180910390a15050505b506125b96001600555565b505050565b600060405180610100016040528084600001516001600160a01b031681526020018460200151815260200184604001516001600160a01b0316815260200184606001518152602001846080015181526020018460a001516001600160a01b031681526020018360000151815260200183602001518152506040516020016126459190614b15565b6040516020818303038152906040528051906020012090509392505050565b600a818154811061267457600080fd5b60009182526020909120600490910201805460018201546002830154600390930154919350919084565b60005460ff16156126f15760405162461bcd60e51b815260206004820181905260248201527f496e697469616c697a65643a20416c726561647920696e697469616c697a65646044820152606401610efe565b6127036000805460ff19166001179055565b61270c82600e55565b61271581600f55565b5050565b60606000826001600160401b0381111561273557612735613e70565b60405190808252806020026020018201604052801561275e578160200160208202803683370190505b50905060005b838110156127d95761279d858583818110612781576127816147f7565b9050602002013560009081526003602052604090205460ff1690565b156127c75760018282815181106127b6576127b66147f7565b911515602092830291909101909101525b806127d18161484a565b915050612764565b509392505050565b6127e9613d47565b6127f1613d65565b6127f9613d47565b50506040805180820182528351815260208085015181830152825160808082018552868501518286019081526060808901519084015282528451808601865290870151815260a08701518184015281830152835180850190945260c0860151845260e0909501519083015293909150565b6040516370a0823160e01b81523060048201526000906001600160a01b038516906370a0823190602401602060405180830381865afa1580156128b1573d6000803e3d6000fd5b505050506040513d601f19601f820116820180604052508101906128d59190614831565b90508181106128f7576128f26001600160a01b0385168484612c27565b61292c565b6040516340c10f1960e01b81526001600160a01b038481166004830152602482018490528516906340c10f1990604401611287565b50505050565b61293f8585858585612c8a565b600083602001511315612a0957600f54836020015111156129b55760405162461bcd60e51b815260206004820152602a60248201527f616d6f756e74206973206c6172676572207468616e206d6178696d756d4465706044820152691bdcda5d105b5bdd5b9d60b21b6064820152608401610efe565b856001600160a01b03168360a001516001600160a01b0316036129f45760208301516129ef906001600160a01b0388169033903090612e91565b612a09565b612a078360a00151878560200151611397565b505b600083602001511215612b5b5782516001600160a01b0316612a6d5760405162461bcd60e51b815260206004820152601e60248201527f43616e277420776974686472617720746f207a65726f206164647265737300006044820152606401610efe565b600e548360200151612a7e90614971565b1015612ae05760405162461bcd60e51b815260206004820152602b60248201527f616d6f756e74206973206c657373207468616e206d696e696d616c576974686460448201526a1c985dd85b105b5bdd5b9d60aa1b6064820152608401610efe565b856001600160a01b03168360a001516001600160a01b031603612b1e57612b198684600001518560200151612b1490614971565b61286a565b612b3a565b612b3a868460a001518560000151866020015161068c90614971565b608083015115612b5b57612b5b836080015184600001518560400151612ec9565b606083015115612b7857612b78868460400151856060015161301f565b61115682826130ad565b80600001516001600160a01b03167f2c1ca5c14df2aba59d26842c5ff53f6817052ef34f6f7537f8b4c9e3805a5e508260200151604051612bc39190614bc0565b60405180910390a250565b600260055403612c205760405162461bcd60e51b815260206004820152601f60248201527f5265656e7472616e637947756172643a207265656e7472616e742063616c6c006044820152606401610efe565b6002600555565b6040516001600160a01b0383166024820152604481018290526125b990849063a9059cbb60e01b906064015b60408051601f198184030181529190526020810180516001600160e01b03166001600160e01b0319909316929092179091526132b0565b6000612c978585846125be565b905060005b836040015151811015612d3757612cdf84604001518281518110612cc257612cc26147f7565b602002602001015160009081526003602052604090205460ff1690565b15612d255760405162461bcd60e51b8152602060048201526016602482015275125b9c1d5d081a5cc8185b1c9958591e481cdc195b9d60521b6044820152606401610efe565b80612d2f8161484a565b915050612c9c565b50612d627f30644e72e131a029b85045b68181585d2833e84879b9709143e1f593f000000182614bda565b8360a0015114612db45760405162461bcd60e51b815260206004820152601c60248201527f496e636f72726563742065787465726e616c20646174612068617368000000006044820152606401610efe565b612dc684602001518560600151610fd0565b836080015114612e105760405162461bcd60e51b8152602060048201526015602482015274125b9d985b1a59081c1d589b1a58c8185b5bdd5b9d605a1b6044820152606401610efe565b612e1c86868585613382565b60005b836040015151811015612e885760016003600086604001518481518110612e4857612e486147f7565b6020026020010151815260200190815260200160002060006101000a81548160ff0219169083151502179055508080612e809061484a565b915050612e1f565b50505050505050565b6040516001600160a01b038085166024830152831660448201526064810182905261292c9085906323b872dd60e01b90608401612c53565b823414612f315760405162461bcd60e51b815260206004820152603060248201527f496e636f727265637420726566756e6420616d6f756e7420726563656976656460448201526f08189e481d1a194818dbdb9d1c9858dd60821b6064820152608401610efe565b6000826001600160a01b03168460405160006040518083038185875af1925050503d8060008114612f7e576040519150601f19603f3d011682016040523d82523d6000602084013e612f83565b606091505b505090508061292c576000826001600160a01b03168560405160006040518083038185875af1925050503d8060008114612fd9576040519150601f19603f3d011682016040523d82523d6000602084013e612fde565b606091505b5050905080611ae25760405162461bcd60e51b815260206004820152600d60248201526c1499599d5b990819985a5b1959609a1b6044820152606401610efe565b6040516370a0823160e01b81523060048201526000906001600160a01b038516906370a0823190602401602060405180830381865afa158015613066573d6000803e3d6000fd5b505050506040513d601f19601f8201168201806040525081019061308a9190614831565b9050811561292c578181106128f7576128f26001600160a01b0385168484612c27565b606082015180516020909101516130c49190613606565b5060608201517f8646243b1f3099f7f0c30af0d00cb712e1cc160b88e861c647f19d2f38eef573906000602002015160006002306001600160a01b0316630eb7606f6040518163ffffffff1660e01b8152600401602060405180830381865afa158015613135573d6000803e3d6000fd5b505050506040513d601f19601f820116820180604052508101906131599190614bee565b613163919061480d565b84516040516131759493929190614c0b565b60405180910390a160608201517f8646243b1f3099f7f0c30af0d00cb712e1cc160b88e861c647f19d2f38eef573906001602002015160006001306001600160a01b0316630eb7606f6040518163ffffffff1660e01b8152600401602060405180830381865afa1580156131ed573d6000803e3d6000fd5b505050506040513d601f19601f820116820180604052508101906132119190614bee565b61321b919061480d565b84602001516040516132309493929190614c0b565b60405180910390a160005b8260400151518110156125b9577f9218fa47e982bf1ded9b6823b77dbac4a5db62fc73f8efc325c7de424a4118028360400151828151811061327f5761327f6147f7565b602002602001015160405161329691815260200190565b60405180910390a1806132a88161484a565b91505061323b565b6000613305826040518060400160405280602081526020017f5361666545524332303a206c6f772d6c6576656c2063616c6c206661696c6564815250856001600160a01b03166138019092919063ffffffff16565b8051909150156125b957808060200190518101906133239190614a34565b6125b95760405162461bcd60e51b815260206004820152602a60248201527f5361666545524332303a204552433230206f7065726174696f6e20646964206e6044820152691bdd081cdd58d8d9595960b21b6064820152608401610efe565b8160400151516002148061339b57508160400151516010145b6133e75760405162461bcd60e51b815260206004820152601860248201527f496e76616c6964206e756d626572206f6620696e7075747300000000000000006044820152606401610efe565b6040820151516002146000808261349d57604051637d6c5ceb60e01b815273__$c855d983235a063579a323068f4c8734f9$__90637d6c5ceb906134539088908a907f000000000000000000000000000000000000000000000000000000000000000090600401614c36565b600060405180830381865af4158015613470573d6000803e3d6000fd5b505050506040513d6000823e601f3d908101601f191682016040526134989190810190614d05565b61353d565b60405163156293fb60e31b815273__$c855d983235a063579a323068f4c8734f9$__9063ab149fd8906134f89088908a907f000000000000000000000000000000000000000000000000000000000000000090600401614c36565b600060405180830381865af4158015613515573d6000803e3d6000fd5b505050506040513d6000823e601f3d908101601f1916820160405261353d9190810190614d05565b9150915061354a81611bd4565b61358e5760405162461bcd60e51b8152602060048201526015602482015274496e76616c69642076616e63686f7220726f6f747360581b6044820152606401610efe565b6135ba8783857f0000000000000000000000000000000000000000000000000000000000000000613810565b612e885760405162461bcd60e51b815260206004820152601960248201527f496e76616c6964207472616e73616374696f6e2070726f6f66000000000000006044820152606401610efe565b60008281526004602052604081205460ff16156136355760405162461bcd60e51b8152600401610efe90614dfd565b60008281526004602052604090205460ff16156136645760405162461bcd60e51b8152600401610efe90614dfd565b6000613683604051806040016040528086815260200185815250613920565b60008581526004602081815260408084208054600160ff19918216811790925589865294829020805490951617909355825163ba70f75760e01b81529251939450309363ba70f7579380840193908290030181865afa1580156136ea573d6000803e3d6000fd5b505050506040513d601f19601f8201168201806040525081019061370e9190614831565b6040805163ffffffff8416815242602082015286917f0eb4c02013d417d0ed2dbca4ad4c749718452bf34902768ad51eb049799a217f910160405180910390a3306001600160a01b031663ba70f7576040518163ffffffff1660e01b8152600401602060405180830381865afa15801561378c573d6000803e3d6000fd5b505050506040513d601f19601f820116820180604052508101906137b09190614831565b837f0eb4c02013d417d0ed2dbca4ad4c749718452bf34902768ad51eb049799a217f6137dd846001614a6f565b6040805163ffffffff90921682524260208301520160405180910390a39392505050565b60606115078484600085613933565b600080858060200190518101906138279190614e3e565b90506000806000613837846127e1565b9250925092506000601060009054906101000a90046001600160a01b03166001600160a01b0316638041ca538585858d8c8e6040518763ffffffff1660e01b815260040161388a96959493929190614e95565b602060405180830381865afa1580156138a7573d6000803e3d6000fd5b505050506040513d601f19601f820116820180604052508101906138cb9190614a34565b9050806139135760405162461bcd60e51b815260206004820152601660248201527524b73b30b634b2103bb4ba34323930bb90383937b7b360511b6044820152606401610efe565b9998505050505050505050565b805160208201516000916110c791613a0e565b6060824710156139945760405162461bcd60e51b815260206004820152602660248201527f416464726573733a20696e73756666696369656e742062616c616e636520666f6044820152651c8818d85b1b60d21b6064820152608401610efe565b600080866001600160a01b031685876040516139b09190614ef1565b60006040518083038185875af1925050503d80600081146139ed576040519150601f19603f3d011682016040523d82523d6000602084013e6139f2565b606091505b5091509150613a0387838387613ca9565b979650505050505050565b60105460009063ffffffff600160c01b8204811691613a3791600160e01b90910416600261501e565b63ffffffff168163ffffffff1603613aaa5760405162461bcd60e51b815260206004820152603060248201527f4d65726b6c6520747265652069732066756c6c2e204e6f206d6f7265206c656160448201526f1d995cc818d85b88189948185919195960821b6064820152608401610efe565b6000613ab7600283615033565b90506000613ac586866112bf565b905060008060015b60105463ffffffff600160e01b90910481169082161015613bdb57613af3600286614aa2565b63ffffffff16600003613b9457601154604051631d052ab160e31b815263ffffffff831660048201528594506001600160a01b039091169063e829558890602401602060405180830381865afa158015613b51573d6000803e3d6000fd5b505050506040513d601f19601f82011682018060405250810190613b759190614831565b63ffffffff821660009081526002602052604090208590559150613bb0565b63ffffffff811660009081526002602052604090205492508391505b613bba83836112bf565b9350613bc7600286615033565b945080613bd381615056565b915050613acd565b50601054600090601e90613bfd90600160a01b900463ffffffff166001614a6f565b613c079190614aa2565b6010805463ffffffff60a01b1916600160a01b63ffffffff8416021790559050613c32866002614a6f565b6010805463ffffffff60c01b1916600160c01b63ffffffff93841681029190911791829055604080518082018252978852910482166020808801918252938316600090815260019485905291909120955186555194909101805463ffffffff19169490911693909317909255509195945050505050565b60608315613d18578251600003613d11576001600160a01b0385163b613d115760405162461bcd60e51b815260206004820152601d60248201527f416464726573733a2063616c6c20746f206e6f6e2d636f6e74726163740000006044820152606401610efe565b5081611507565b6115078383815115613d2d5781518083602001fd5b8060405162461bcd60e51b8152600401610efe9190614bc0565b60405180604001604052806002906020820280368337509192915050565b60405180604001604052806002905b613d7c613d47565b815260200190600190039081613d745790505090565b6020808252825182820181905260009190848201906040850190845b81811015613dca57835183529284019291840191600101613dae565b50909695505050505050565b600060208284031215613de857600080fd5b5035919050565b63ffffffff81168114611bd157600080fd5b60008060408385031215613e1457600080fd5b823591506020830135613e2681613def565b809150509250929050565b60008060408385031215613e4457600080fd5b50508035926020909101359150565b600060208284031215613e6557600080fd5b81356110c181613def565b634e487b7160e01b600052604160045260246000fd5b604080519081016001600160401b0381118282101715613ea857613ea8613e70565b60405290565b60405160c081016001600160401b0381118282101715613ea857613ea8613e70565b60405161010081016001600160401b0381118282101715613ea857613ea8613e70565b604051601f8201601f191681016001600160401b0381118282101715613f1b57613f1b613e70565b604052919050565b6001600160a01b0381168114611bd157600080fd5b60006001600160401b03821115613f5157613f51613e70565b50601f01601f191660200190565b600082601f830112613f7057600080fd5b8135613f83613f7e82613f38565b613ef3565b818152846020838601011115613f9857600080fd5b816020850160208301376000918101602001919091529392505050565b600060408284031215613fc757600080fd5b613fcf613e86565b90508135613fdc81613f23565b815260208201356001600160401b03811115613ff757600080fd5b61400384828501613f5f565b60208301525092915050565b600060c0828403121561402157600080fd5b614029613eae565b9050813561403681613f23565b815260208281013590820152604082013561405081613f23565b80604083015250606082013560608201526080820135608082015260a082013561407981613f23565b60a082015292915050565b60006001600160401b0382111561409d5761409d613e70565b5060051b60200190565b600082601f8301126140b857600080fd5b813560206140c8613f7e83614084565b82815260059290921b840181019181810190868411156140e757600080fd5b8286015b8481101561410257803583529183019183016140eb565b509695505050505050565b600082601f83011261411e57600080fd5b614126613e86565b80604084018581111561413857600080fd5b845b8181101561415257803584526020938401930161413a565b509095945050505050565b600060e0828403121561416f57600080fd5b614177613eae565b905081356001600160401b038082111561419057600080fd5b61419c85838601613f5f565b835260208401359150808211156141b257600080fd5b6141be85838601613f5f565b602084015260408401359150808211156141d757600080fd5b506141e4848285016140a7565b6040830152506141f7836060840161410d565b606082015260a0820135608082015260c082013560a082015292915050565b60006040828403121561422857600080fd5b614230613e86565b905081356001600160401b038082111561424957600080fd5b61425585838601613f5f565b8352602084013591508082111561426b57600080fd5b5061400384828501613f5f565b600080600080600080610160878903121561429257600080fd5b86356001600160401b03808211156142a957600080fd5b6142b58a838b01613fb5565b975060208901359150808211156142cb57600080fd5b6142d78a838b01613f5f565b965060408901359150808211156142ed57600080fd5b6142f98a838b01613f5f565b95506143088a60608b0161400f565b945061012089013591508082111561431f57600080fd5b61432b8a838b0161415d565b935061014089013591508082111561434257600080fd5b5061434f89828a01614216565b9150509295509295509295565b6000806000806080858703121561437257600080fd5b843561437d81613f23565b9350602085013561438d81613f23565b9250604085013561439d81613f23565b9396929550929360600135925050565b6000806000606084860312156143c257600080fd5b83356143cd81613f23565b925060208401356143dd81613f23565b929592945050506040919091013590565b6000806040838503121561440157600080fd5b823561440c81613f23565b91506020830135613e2681613def565b602080825282518282018190526000919060409081850190868401855b8281101561447357815180518552868101518786015285810151868601526060908101519085015260809093019290850190600101614439565b5091979650505050505050565b6000806000806000610140868803121561449957600080fd5b85356001600160401b03808211156144b057600080fd5b6144bc89838a01613f5f565b965060208801359150808211156144d257600080fd5b6144de89838a01613f5f565b95506144ed8960408a0161400f565b945061010088013591508082111561450457600080fd5b61451089838a0161415d565b935061012088013591508082111561452757600080fd5b5061453488828901614216565b9150509295509295909350565b60006020828403121561455357600080fd5b81356001600160401b0381111561456957600080fd5b6110c384828501613fb5565b60006020828403121561458757600080fd5b81356001600160401b0381111561459d57600080fd5b6110c3848285016140a7565b6000806000606084860312156145be57600080fd5b8335925060208401356143dd81613def565b600080600061010084860312156145e657600080fd5b83356001600160401b03808211156145fd57600080fd5b61460987838801613f5f565b9450614618876020880161400f565b935060e086013591508082111561462e57600080fd5b5061463b86828701614216565b9150509250925092565b6000806020838503121561465857600080fd5b82356001600160401b038082111561466f57600080fd5b818501915085601f83011261468357600080fd5b81358181111561469257600080fd5b8660208260051b85010111156146a757600080fd5b60209290920196919550909350505050565b6020808252825182820181905260009190848201906040850190845b81811015613dca5783511515835292840192918401916001016146d5565b600061010080838503121561470757600080fd5b83601f84011261471657600080fd5b61471e613ed0565b90830190808583111561473057600080fd5b845b8381101561474a578035835260209283019201614732565b5095945050505050565b8060005b600281101561292c578151845260209384019390910190600101614758565b8060005b600281101561292c5761478f848351614754565b604093909301926020919091019060010161477b565b61010081016147b48286614754565b6147c16040830185614777565b61150760c0830184614754565b634e487b7160e01b600052601160045260246000fd5b808201808211156110c7576110c76147ce565b634e487b7160e01b600052603260045260246000fd5b63ffffffff82811682821603908082111561482a5761482a6147ce565b5092915050565b60006020828403121561484357600080fd5b5051919050565b60006001820161485c5761485c6147ce565b5060010190565b60208082526019908201527f73656e646572206973206e6f74207468652068616e646c657200000000000000604082015260600190565b60208082526023908201527f50726f706f73616c4e6f6e6365547261636b65723a20496e76616c6964206e6f6040820152626e636560e81b606082015260800190565b6020808252603a908201527f50726f706f73616c4e6f6e6365547261636b65723a204e6f6e6365206d75737460408201527f206e6f7420696e6372656d656e74206d6f7265207468616e2031000000000000606082015260800190565b6020808252601c908201527f496e697469616c697a65643a204e6f7420696e697469616c697a656400000000604082015260600190565b6000600160ff1b8201614986576149866147ce565b5060000390565b818103600083128015838313168383128216171561482a5761482a6147ce565b818103818111156110c7576110c76147ce565b600063ffffffff8216806149d6576149d66147ce565b6000190192915050565b805160208201516001600160d01b03198082169291906006831015614a0f5780818460060360031b1b83161693505b505050919050565b600060208284031215614a2957600080fd5b81516110c181613f23565b600060208284031215614a4657600080fd5b815180151581146110c157600080fd5b60ff81811683821601908111156110c7576110c76147ce565b63ffffffff81811683821601908082111561482a5761482a6147ce565b634e487b7160e01b600052601260045260246000fd5b600063ffffffff80841680614ab957614ab9614a8c565b92169190910692915050565b60005b83811015614ae0578181015183820152602001614ac8565b50506000910152565b60008151808452614b01816020860160208601614ac5565b601f01601f19169290920160200192915050565b6020815260018060a01b0382511660208201526020820151604082015260006040830151614b4e60608401826001600160a01b03169052565b5060608301516080830152608083015160a083015260a0830151614b7d60c08401826001600160a01b03169052565b5060c08301516101008060e0850152614b9a610120850183614ae9565b915060e0850151601f198584030182860152614bb68382614ae9565b9695505050505050565b602081526000614bd36020830184614ae9565b9392505050565b600082614be957614be9614a8c565b500690565b600060208284031215614c0057600080fd5b81516110c181613def565b84815283602082015263ffffffff83166040820152608060608201526000614bb66080830184614ae9565b606081526000845160e06060840152614c53610140840182614ae9565b9050602080870151605f1980868503016080870152614c728483614ae9565b60408a015187820390920160a088015281518082529184019450600092508301905b80831015614cb45784518252938301936001929092019190830190614c94565b5060608901519350614cc960c0870185614754565b608089015161010087015260a089015161012087015285810383870152614cf08189614ae9565b945050505050611507604083018460ff169052565b60008060408385031215614d1857600080fd5b82516001600160401b0380821115614d2f57600080fd5b818501915085601f830112614d4357600080fd5b81516020614d53613f7e83613f38565b8281528882848701011115614d6757600080fd5b614d7683838301848801614ac5565b87820151909650935082841115614d8c57600080fd5b838701935087601f850112614da057600080fd5b83519250614db0613f7e84614084565b83815260059390931b8401810192818101925088841115614dd057600080fd5b938101935b83851015614dee57845183529381019391810191614dd5565b80955050505050509250929050565b60208082526021908201527f54686520636f6d6d69746d656e7420686173206265656e207375626d697474656040820152601960fa1b606082015260800190565b6000610100808385031215614e5257600080fd5b83601f840112614e6157600080fd5b614e69613ed0565b908301908085831115614e7b57600080fd5b845b8381101561474a578051835260209283019201614e7d565b6000610160614ea4838a614754565b614eb16040840189614777565b614ebe60c0840188614754565b80610100840152614ed181840187614ae9565b60ff95909516610120840152505090151561014090910152949350505050565b60008251614f03818460208701614ac5565b9190910192915050565b600181815b80851115614f4a578163ffffffff04821115614f3057614f306147ce565b80851615614f3d57918102915b93841c9390800290614f12565b509250929050565b600082614f61575060016110c7565b81614f6e575060006110c7565b8160018114614f845760028114614f8e57614fbf565b60019150506110c7565b60ff841115614f9f57614f9f6147ce565b6001841b915063ffffffff821115614fb957614fb96147ce565b506110c7565b5060208310610133831016604e8410600b8410161715614ff6575081810a63ffffffff811115614ff157614ff16147ce565b6110c7565b6150008383614f0d565b8063ffffffff04821115615016576150166147ce565b029392505050565b600063ffffffff6110c3818516828516614f52565b600063ffffffff8084168061504a5761504a614a8c565b92169190910492915050565b600063ffffffff80831681810361506f5761506f6147ce565b600101939250505056fea264697066735822122020a5c69fa22ee80f177af0320cc357c98cdeac96dad1b3de39d36419f300f58264736f6c63430008120033",
  "linkReferences": {
    "contracts/libs/VAnchorEncodeInputs.sol": {
      "VAnchorEncodeInputs": [
        {
          "length": 20,
          "start": 14625
        },
        {
          "length": 20,
          "start": 14790
        }
      ]
    }
  },
  "deployedLinkReferences": {
    "contracts/libs/VAnchorEncodeInputs.sol": {
      "VAnchorEncodeInputs": [
        {
          "length": 20,
          "start": 13319
        },
        {
          "length": 20,
          "start": 13484
        }
      ]
    }
  }
}