{
  "_format": "hh-sol-artifact-1",
  "contractName": "Verifier2_2",
  "sourceName": "contracts/verifiers/vanchor_2/Verifier2_2.sol",
  "abi": [
    {
      "inputs": [
        {
          "internalType": "uint256[2]",
          "name": "a",
          "type": "uint256[2]"
        },
        {
          "internalType": "uint256[2][2]",
          "name": "b",
          "type": "uint256[2][2]"
        },
        {
          "internalType": "uint256[2]",
          "name": "c",
          "type": "uint256[2]"
        },
        {
          "internalType": "uint256[9]",
          "name": "input",
          "type": "uint256[9]"
        }
      ],
      "name": "verifyProof",
      "outputs": [
        {
          "internalType": "bool",
          "name": "r",
          "type": "bool"
        }
      ],
      "stateMutability": "view",
      "type": "function"
    }
  ],
  "bytecode": "0x608060405234801561001057600080fd5b50611510806100206000396000f3fe608060405234801561001057600080fd5b506004361061002b5760003560e01c8063c542c93b14610030575b600080fd5b61004361003e366004611358565b610057565b604051901515815260200160405180910390f35b600061006161116b565b60408051808201825287518152602080890151818301529083528151608081018352875151818401908152885183015160608301528152825180840184528883018051518252518301518184015281830152838201528151808301835286518152868201518183015283830152815160098082526101408201909352600092909182016101208036833701905050905060005b60098110156101435784816009811061010f5761010f611436565b602002015182828151811061012657610126611436565b60209081029190910101528061013b81611462565b9150506100f4565b5061014e818361016f565b60000361016057600192505050610167565b6000925050505b949350505050565b60007f30644e72e131a029b85045b68181585d2833e84879b9709143e1f593f00000018161019b610366565b9050806080015151855160016101b1919061147b565b146101f85760405162461bcd60e51b81526020600482015260126024820152711d995c9a599a595c8b5898590b5a5b9c1d5d60721b60448201526064015b60405180910390fd5b604080518082019091526000808252602082018190525b86518110156102e9578387828151811061022b5761022b611436565b6020026020010151106102805760405162461bcd60e51b815260206004820152601f60248201527f76657269666965722d6774652d736e61726b2d7363616c61722d6669656c640060448201526064016101ef565b6102d5826102d08560800151846001610299919061147b565b815181106102a9576102a9611436565b60200260200101518a85815181106102c3576102c3611436565b6020026020010151610aba565b610b50565b9150806102e181611462565b91505061020f565b5061031281836080015160008151811061030557610305611436565b6020026020010151610b50565b90506103486103248660000151610be9565b8660200151846000015185602001518587604001518b604001518960600151610c88565b6103585760019350505050610360565b600093505050505b92915050565b61036e6111bc565b6040805180820182527f2d4d9aa7e302d9df41749d5507949d05dbea33fbb16c643b22f599a2be6df2e281527f14bedd503c37ceb061d8ec60209fe345ce89830a19230301f076caff004d19266020808301919091529083528151608080820184527f0967032fcbf776d1afc985f88877f182d38480a653f2decaa9794cbc3bf3060c8285019081527f0e187847ad4c798374d0d6732bf501847dd68bc0e071241e0213bc7fc13db7ab606080850191909152908352845180860186527f304cfbd1e08a704a99f5e847d93f8c3caafddec46b7a0d379da69a4d112346a781527f1739c1b1a457a8c7313123d24d2f9192f896b7c63eea05a9d57f06547ad0cec8818601528385015285840192909252835180820185527f198e9393920d483a7260bfb731fb5d25f1aa493335a9e71297e485b7aef312c28186019081527f1800deef121f1e76426a00665e5c4479674322d4f75edadd46debd5cd992f6ed828501528152845180860186527f090689d0585ff075ec9e99ad690c3395bc4b313370b38ef355acdadcd122975b81527f12c85ea5db8c6deb4aab71808dcb408fe3d1e7690c43d37b4ce6cc0166fa7daa818601528185015285850152835190810184527f0cc1fef90dc5ef1d150879becb97b17bfc6787ccf765201fd41d7ea4f8fd930e8185019081527f073ec54de5f3288dd532ec4bbd73ab8679b3370f0c16ee025e2cdb1e69babdbc828401528152835180850185527f1d2fe70c81acf899225546e516a0c6175700e288c9ee2da62927fa6834cbbf9d81527f275b46aa5657f9bd345fb843c229fd788083cf14e530b141759f07bd47c5b2348185015281840152908401528151600a8082526101608201909352919082015b60408051808201909152600080825260208201528152602001906001900390816105ea57505060808201908152604080518082019091527f15d511e4540e6c3ce640aacf91d983375d6dde4d522ed8e9d590f0d97538f9a081527f211bde556fe7889be081f2992d820c45de2908743311350f73773e20bd228f4260208201529051805160009061067d5761067d611436565b602002602001018190525060405180604001604052807f07e48a305a5fd6ab9740b7b1e1e446b22644ed9d1d0dc3f667a9bbaa02666ec081526020017f021eb27511e58880cb64fee4bfafb6297ea5306b9d01722a0b8b28d8c954dd2e81525081608001516001815181106106f4576106f4611436565b602002602001018190525060405180604001604052807f17521d19d8cd07dab5e845fb4c143e36f991bacf5373ad845d46e8a642cf22c781526020017f058a890cb1234b18247e41d05d55fce183fc4c86dc64e5e056f8d35d33d56c8a815250816080015160028151811061076b5761076b611436565b602002602001018190525060405180604001604052807f26dcdf0ea39c71a519fdffb33f03ec904ffd7820e229c61ab287deaf2011fb7881526020017f1b7391f7e90c2a240852407017f7db0f5cd83d61d5cd41b9f90ad26be30bf7bc81525081608001516003815181106107e2576107e2611436565b602002602001018190525060405180604001604052807f23cd7e5a278f0600921a963c0b5595ef8074d7720d27b2c1c2f60867be19227581526020017f10ab8d8e948237f373c08ab9b7f7ffb1fdfaec9eef750185f1dfcbb83c6c4a85815250816080015160048151811061085957610859611436565b602002602001018190525060405180604001604052807f154d52e042465ff365b2ee4eccd469b9c13e5d6e50f3f3d7ef8db69315e2278e81526020017f0527c8895ddf937f12b2c4023c40cba0e956294fad14a9c987f995b73cdb9f0e81525081608001516005815181106108d0576108d0611436565b602002602001018190525060405180604001604052807f236bd21deadef35aa21cc11442aad4b15e7993db9734a78862173f1960997f0281526020017f207d652edb8989c554a9a73e29ef1728134744181ea0714ff43a1b80fd7e53b1815250816080015160068151811061094757610947611436565b602002602001018190525060405180604001604052807f196dcfa39a9e220e40d2fd3fdde799423ac4e7d808eb1d3595fa8f495c2fe75181526020017f2553f9ef7f527b5f3dba1554163f766c49f0c89a6d705b0f8166378a23403ddd81525081608001516007815181106109be576109be611436565b602002602001018190525060405180604001604052807f1f7429b100880e3451f1d4690f6d18485295cd6428b889e3fa3767901bae5bef81526020017f09a8c2ea70095902ef68a0d3c7bf1b53768d7e85fdc6ec8b5adfec386c1aaff88152508160800151600881518110610a3557610a35611436565b602002602001018190525060405180604001604052807f2fb89c5d428feb02dc1baabddb5fc4a24d6c0639df4623f5ce190b4ee6bcacda81526020017f175ce26e907ec1595f1c49b542f966067cd32e5bcbe22e4b971e890bc6e8ebbd8152508160800151600981518110610aac57610aac611436565b602002602001018190525090565b6040805180820190915260008082526020820152610ad661120d565b835181526020808501519082015260408101839052600060608360808460076107d05a03fa90508080610b0557fe5b5080610b485760405162461bcd60e51b81526020600482015260126024820152711c185a5c9a5b99cb5b5d5b0b59985a5b195960721b60448201526064016101ef565b505092915050565b6040805180820190915260008082526020820152610b6c61122b565b8351815260208085015181830152835160408301528301516060808301919091526000908360c08460066107d05a03fa90508080610ba657fe5b5080610b485760405162461bcd60e51b81526020600482015260126024820152711c185a5c9a5b99cb5859190b59985a5b195960721b60448201526064016101ef565b604080518082019091526000808252602082015281517f30644e72e131a029b85045b68181585d97816a916871ca8d3c208c16d87cfd4790158015610c3057506020830151155b15610c505750506040805180820190915260008082526020820152919050565b604051806040016040528084600001518152602001828560200151610c75919061148e565b610c7f90846114b0565b90529392505050565b60408051600480825260a08201909252600091829190816020015b6040805180820190915260008082526020820152815260200190600190039081610ca357505060408051600480825260a0820190925291925060009190602082015b610ced611249565b815260200190600190039081610ce55790505090508a82600081518110610d1657610d16611436565b60200260200101819052508882600181518110610d3557610d35611436565b60200260200101819052508682600281518110610d5457610d54611436565b60200260200101819052508482600381518110610d7357610d73611436565b60200260200101819052508981600081518110610d9257610d92611436565b60200260200101819052508781600181518110610db157610db1611436565b60200260200101819052508581600281518110610dd057610dd0611436565b60200260200101819052508381600381518110610def57610def611436565b6020026020010181905250610e048282610e13565b9b9a5050505050505050505050565b60008151835114610e5f5760405162461bcd60e51b81526020600482015260166024820152751c185a5c9a5b99cb5b195b99dd1a1ccb59985a5b195960521b60448201526064016101ef565b82516000610e6e8260066114c3565b905060008167ffffffffffffffff811115610e8b57610e8b6112a5565b604051908082528060200260200182016040528015610eb4578160200160208202803683370190505b50905060005b838110156110ef57868181518110610ed457610ed4611436565b60200260200101516000015182826006610eee91906114c3565b610ef990600061147b565b81518110610f0957610f09611436565b602002602001018181525050868181518110610f2757610f27611436565b60200260200101516020015182826006610f4191906114c3565b610f4c90600161147b565b81518110610f5c57610f5c611436565b602002602001018181525050858181518110610f7a57610f7a611436565b6020908102919091010151515182610f938360066114c3565b610f9e90600261147b565b81518110610fae57610fae611436565b602002602001018181525050858181518110610fcc57610fcc611436565b60209081029190910181015151015182610fe78360066114c3565b610ff290600361147b565b8151811061100257611002611436565b60200260200101818152505085818151811061102057611020611436565b60200260200101516020015160006002811061103e5761103e611436565b60200201518261104f8360066114c3565b61105a90600461147b565b8151811061106a5761106a611436565b60200260200101818152505085818151811061108857611088611436565b6020026020010151602001516001600281106110a6576110a6611436565b6020020151826110b78360066114c3565b6110c290600561147b565b815181106110d2576110d2611436565b6020908102919091010152806110e781611462565b915050610eba565b506110f8611269565b6000602082602086026020860160086107d05a03fa9050808061111757fe5b508061115d5760405162461bcd60e51b81526020600482015260156024820152741c185a5c9a5b99cb5bdc18dbd9194b59985a5b1959605a1b60448201526064016101ef565b505115159695505050505050565b6040805160a081019091526000606082018181526080830191909152815260208101611195611249565b81526020016111b7604051806040016040528060008152602001600081525090565b905290565b6040805160e08101909152600060a0820181815260c08301919091528152602081016111e6611249565b81526020016111f3611249565b8152602001611200611249565b8152602001606081525090565b60405180606001604052806003906020820280368337509192915050565b60405180608001604052806004906020820280368337509192915050565b604051806040016040528061125c611287565b81526020016111b7611287565b60405180602001604052806001906020820280368337509192915050565b60405180604001604052806002906020820280368337509192915050565b634e487b7160e01b600052604160045260246000fd5b6040805190810167ffffffffffffffff811182821017156112de576112de6112a5565b60405290565b604051610120810167ffffffffffffffff811182821017156112de576112de6112a5565b600082601f83011261131957600080fd5b6113216112bb565b80604084018581111561133357600080fd5b845b8181101561134d578035845260209384019301611335565b509095945050505050565b60008060008061022080868803121561137057600080fd5b61137a8787611308565b9450604087605f88011261138d57600080fd5b6113956112bb565b8060c089018a8111156113a757600080fd5b838a015b818110156113cc576113bd8c82611308565b845260209093019284016113ab565b508197506113da8b82611308565b9650505050508661011f8701126113f057600080fd5b6113f86112e4565b90860190808883111561140a57600080fd5b61010088015b83811015611428578035835260209283019201611410565b509598949750929550505050565b634e487b7160e01b600052603260045260246000fd5b634e487b7160e01b600052601160045260246000fd5b6000600182016114745761147461144c565b5060010190565b808201808211156103605761036061144c565b6000826114ab57634e487b7160e01b600052601260045260246000fd5b500690565b818103818111156103605761036061144c565b80820281158282048414176103605761036061144c56fea2646970667358221220cdf44d83d73fd9f743a221cd4ec041d15139e968d3fc7be99b3d1a016724058f64736f6c63430008120033",
  "linkReferences": {},
  "deployedLinkReferences": {}
}