{
  "_format": "hh-sol-artifact-1",
  "contractName": "Verifier8_2",
  "sourceName": "contracts/verifiers/vanchor_2/Verifier8_2.sol",
  "abi": [
    {
      "inputs": [
        {
          "internalType": "uint256[2]",
          "name": "a",
          "type": "uint256[2]"
        },
        {
          "internalType": "uint256[2][2]",
          "name": "b",
          "type": "uint256[2][2]"
        },
        {
          "internalType": "uint256[2]",
          "name": "c",
          "type": "uint256[2]"
        },
        {
          "internalType": "uint256[15]",
          "name": "input",
          "type": "uint256[15]"
        }
      ],
      "name": "verifyProof",
      "outputs": [
        {
          "internalType": "bool",
          "name": "r",
          "type": "bool"
        }
      ],
      "stateMutability": "view",
      "type": "function"
    }
  ],
  "bytecode": "0x608060405234801561001057600080fd5b506117da806100206000396000f3fe608060405234801561001057600080fd5b506004361061002b5760003560e01c8063f054a9a314610030575b600080fd5b61004361003e366004611622565b610057565b604051901515815260200160405180910390f35b6000610061611435565b604080518082018252875181526020808901518183015290835281516080810183528751518184019081528851830151606083015281528251808401845288830180515182525183015181840152818301528382015281518083018352865181528682015181830152838301528151600f8082526102008201909352600092909182016101e08036833701905050905060005b600f811015610143578481600f811061010f5761010f611700565b602002015182828151811061012657610126611700565b60209081029190910101528061013b8161172c565b9150506100f4565b5061014e818361016f565b60000361016057600192505050610167565b6000925050505b949350505050565b60007f30644e72e131a029b85045b68181585d2833e84879b9709143e1f593f00000018161019b610366565b9050806080015151855160016101b19190611745565b146101f85760405162461bcd60e51b81526020600482015260126024820152711d995c9a599a595c8b5898590b5a5b9c1d5d60721b60448201526064015b60405180910390fd5b604080518082019091526000808252602082018190525b86518110156102e9578387828151811061022b5761022b611700565b6020026020010151106102805760405162461bcd60e51b815260206004820152601f60248201527f76657269666965722d6774652d736e61726b2d7363616c61722d6669656c640060448201526064016101ef565b6102d5826102d085608001518460016102999190611745565b815181106102a9576102a9611700565b60200260200101518a85815181106102c3576102c3611700565b6020026020010151610d84565b610e1a565b9150806102e18161172c565b91505061020f565b5061031281836080015160008151811061030557610305611700565b6020026020010151610e1a565b90506103486103248660000151610eb3565b8660200151846000015185602001518587604001518b604001518960600151610f52565b6103585760019350505050610360565b600093505050505b92915050565b61036e611486565b6040805180820182527f2d4d9aa7e302d9df41749d5507949d05dbea33fbb16c643b22f599a2be6df2e281527f14bedd503c37ceb061d8ec60209fe345ce89830a19230301f076caff004d19266020808301919091529083528151608080820184527f0967032fcbf776d1afc985f88877f182d38480a653f2decaa9794cbc3bf3060c8285019081527f0e187847ad4c798374d0d6732bf501847dd68bc0e071241e0213bc7fc13db7ab606080850191909152908352845180860186527f304cfbd1e08a704a99f5e847d93f8c3caafddec46b7a0d379da69a4d112346a781527f1739c1b1a457a8c7313123d24d2f9192f896b7c63eea05a9d57f06547ad0cec8818601528385015285840192909252835180820185527f198e9393920d483a7260bfb731fb5d25f1aa493335a9e71297e485b7aef312c28186019081527f1800deef121f1e76426a00665e5c4479674322d4f75edadd46debd5cd992f6ed828501528152845180860186527f090689d0585ff075ec9e99ad690c3395bc4b313370b38ef355acdadcd122975b81527f12c85ea5db8c6deb4aab71808dcb408fe3d1e7690c43d37b4ce6cc0166fa7daa818601528185015285850152835190810184527f106fb48e5e192dd95da2a9a095ca6610b742dc50bb1f1aeda5ae3fc058bddb9d8185019081527f0b8832b25b67a62e5860aee7bdc0a02add27a5b95ac5bd748573e5ed5641c193828401528152835180850185527f219264f52b0ff4842d312e8314cf6baa309e56b453697829e4a6d3cb1168689d81527f2950ed77e9ae00f2c38bab4ea99f8792e14a55d3796c94f71af72099df64f858818501528184015290840152815160108082526102208201909352919082015b60408051808201909152600080825260208201528152602001906001900390816105ea57505060808201908152604080518082019091527f0cbbbe7fb9ccce6ce39be4d2cc28f867513f6cb4aed4d3503816a1bea415b02281527f2417973d39c8e2752d08fc34f98707185899701a80d63965d9457ccdc961468c60208201529051805160009061067d5761067d611700565b602002602001018190525060405180604001604052807f14122e94f7d54d95bd9f801df80c547f5e771ce659e5986352e128a376c79a4c81526020017f1f37240058c64d9c6e6fe4873433c2284a1f8a515c80e42cd09d53875925fb6481525081608001516001815181106106f4576106f4611700565b602002602001018190525060405180604001604052807f20f42c6b7f6d72e78e63f7456ee954b15064cf330228a06d73a656c1eb65c18981526020017f0c0faf8ea94ddda6f94065c94b4e9564d44d071402d78a72bbae9b0c7cb7a02b815250816080015160028151811061076b5761076b611700565b602002602001018190525060405180604001604052807f08f68d0bbc9a36db803b24e9382f7327d21423c7ae1d261ddf3f96a9e3947a0781526020017f08f72c8020d4bcbba872f6353e840d35e1c166511386c42053efb794f15c884981525081608001516003815181106107e2576107e2611700565b602002602001018190525060405180604001604052807f05233e51c130de05dd1a85607e5594fae0d698f56e7560a33feb4aa454844cc081526020017f1ec5b7849b470c3e7d770d2682bf30a62ffd7dd8b00991b9bb0166b605dd89dc815250816080015160048151811061085957610859611700565b602002602001018190525060405180604001604052807f0d36fb19d845b1dd516c59345a347c7032e753a545680d187b378209a8e5770e81526020017f24d0a9b1dc7109ba586b0bda719aa2a692f5befdcfa8bf1fbc7c89d87ed7ac2b81525081608001516005815181106108d0576108d0611700565b602002602001018190525060405180604001604052807f16ed4685abe09a44fb5cf3276562919bc5b212b1f602bba35208af5a72055e7d81526020017f1c10f6b50d2d302c24cff6cfc42c421a2ad8314df265b1e43f6f65e70ed40e0b815250816080015160068151811061094757610947611700565b602002602001018190525060405180604001604052807f0ffdb60275502746226e97b4305863cc24c630d4005582a29e592933aa64f45181526020017f249d3748d1bf7a8c6b11638a11ec1157afa1f6c8e769ac7d8920c2dee95b0ef381525081608001516007815181106109be576109be611700565b602002602001018190525060405180604001604052807f11d6e66351ca08858e5653c1fc9c1159dc5495269f4e712f288488252b6f688c81526020017f1d34893d128369b7994e47224ebaf87fe3d64ff86bc1dcc1f6a048c57f1ccfbc8152508160800151600881518110610a3557610a35611700565b602002602001018190525060405180604001604052807f0bead4334151c6320bedda529d1dfce79b86468b1fa49a625a369855efbd9c5681526020017f2c1f3a0a26f18a4792310f1ecec0cb06c777bb9ca9273a77d5cf25f03453ee1c8152508160800151600981518110610aac57610aac611700565b602002602001018190525060405180604001604052807f03bd7cd88e5c9fe2566bd83c487d3a58a05b87bc53610f7c430ad2dfdf1e64fe81526020017f3020ee3347439c3d80a4e1279e70a0aeb2f44a4ff3699c6b08759927c51bfc148152508160800151600a81518110610b2357610b23611700565b602002602001018190525060405180604001604052807f2429ec1a6dfb2f01e9b6a072cea4e3fd63f1ea0941dae5ac573db864c5af32dd81526020017f189f7dc9361badfff9c6b92417f5098ac79b6fc65b1d058ef7f365b6ac6dea348152508160800151600b81518110610b9a57610b9a611700565b602002602001018190525060405180604001604052807f2f8a061d0e1b8a62d875e2a4878edbe5a17a458c05f5992a9c41284493cec90481526020017f1bfe883751ca460f93fdf11ee4620d1061c5ef2419a508b1df13e2f58d8c2c578152508160800151600c81518110610c1157610c11611700565b602002602001018190525060405180604001604052807f1a8f9c5186d637af233e5bd6be9eb36048126ade28c159eca461acf4f3770a5081526020017f2731f17ee3fe535450a046c248c04214d805c4b74d487eb05dbadc6ce904c3b98152508160800151600d81518110610c8857610c88611700565b602002602001018190525060405180604001604052807f02f86dbd34fffee3f2d0e89cc229fc8ab5078a4f1f899245ca6daa7fe9c8010681526020017f1e66a2922d7f05c62d34b18573cf30ec2220530a13f2e9d32c983ab1673cb36a8152508160800151600e81518110610cff57610cff611700565b602002602001018190525060405180604001604052807f2a4422f2c472a7513ccdbdc6f5cf613598332dea7e100418351c9aed98af4a2e81526020017f095c612e91f72f005c7aa12f7b6a2739d1331c88cd7e89560f243ae4e11cfb078152508160800151600f81518110610d7657610d76611700565b602002602001018190525090565b6040805180820190915260008082526020820152610da06114d7565b835181526020808501519082015260408101839052600060608360808460076107d05a03fa90508080610dcf57fe5b5080610e125760405162461bcd60e51b81526020600482015260126024820152711c185a5c9a5b99cb5b5d5b0b59985a5b195960721b60448201526064016101ef565b505092915050565b6040805180820190915260008082526020820152610e366114f5565b8351815260208085015181830152835160408301528301516060808301919091526000908360c08460066107d05a03fa90508080610e7057fe5b5080610e125760405162461bcd60e51b81526020600482015260126024820152711c185a5c9a5b99cb5859190b59985a5b195960721b60448201526064016101ef565b604080518082019091526000808252602082015281517f30644e72e131a029b85045b68181585d97816a916871ca8d3c208c16d87cfd4790158015610efa57506020830151155b15610f1a5750506040805180820190915260008082526020820152919050565b604051806040016040528084600001518152602001828560200151610f3f9190611758565b610f49908461177a565b90529392505050565b60408051600480825260a08201909252600091829190816020015b6040805180820190915260008082526020820152815260200190600190039081610f6d57505060408051600480825260a0820190925291925060009190602082015b610fb7611513565b815260200190600190039081610faf5790505090508a82600081518110610fe057610fe0611700565b60200260200101819052508882600181518110610fff57610fff611700565b6020026020010181905250868260028151811061101e5761101e611700565b6020026020010181905250848260038151811061103d5761103d611700565b6020026020010181905250898160008151811061105c5761105c611700565b6020026020010181905250878160018151811061107b5761107b611700565b6020026020010181905250858160028151811061109a5761109a611700565b602002602001018190525083816003815181106110b9576110b9611700565b60200260200101819052506110ce82826110dd565b9b9a5050505050505050505050565b600081518351146111295760405162461bcd60e51b81526020600482015260166024820152751c185a5c9a5b99cb5b195b99dd1a1ccb59985a5b195960521b60448201526064016101ef565b8251600061113882600661178d565b905060008167ffffffffffffffff8111156111555761115561156f565b60405190808252806020026020018201604052801561117e578160200160208202803683370190505b50905060005b838110156113b95786818151811061119e5761119e611700565b602002602001015160000151828260066111b8919061178d565b6111c3906000611745565b815181106111d3576111d3611700565b6020026020010181815250508681815181106111f1576111f1611700565b6020026020010151602001518282600661120b919061178d565b611216906001611745565b8151811061122657611226611700565b60200260200101818152505085818151811061124457611244611700565b602090810291909101015151518261125d83600661178d565b611268906002611745565b8151811061127857611278611700565b60200260200101818152505085818151811061129657611296611700565b602090810291909101810151510151826112b183600661178d565b6112bc906003611745565b815181106112cc576112cc611700565b6020026020010181815250508581815181106112ea576112ea611700565b60200260200101516020015160006002811061130857611308611700565b60200201518261131983600661178d565b611324906004611745565b8151811061133457611334611700565b60200260200101818152505085818151811061135257611352611700565b60200260200101516020015160016002811061137057611370611700565b60200201518261138183600661178d565b61138c906005611745565b8151811061139c5761139c611700565b6020908102919091010152806113b18161172c565b915050611184565b506113c2611533565b6000602082602086026020860160086107d05a03fa905080806113e157fe5b50806114275760405162461bcd60e51b81526020600482015260156024820152741c185a5c9a5b99cb5bdc18dbd9194b59985a5b1959605a1b60448201526064016101ef565b505115159695505050505050565b6040805160a08101909152600060608201818152608083019190915281526020810161145f611513565b8152602001611481604051806040016040528060008152602001600081525090565b905290565b6040805160e08101909152600060a0820181815260c08301919091528152602081016114b0611513565b81526020016114bd611513565b81526020016114ca611513565b8152602001606081525090565b60405180606001604052806003906020820280368337509192915050565b60405180608001604052806004906020820280368337509192915050565b6040518060400160405280611526611551565b8152602001611481611551565b60405180602001604052806001906020820280368337509192915050565b60405180604001604052806002906020820280368337509192915050565b634e487b7160e01b600052604160045260246000fd5b6040805190810167ffffffffffffffff811182821017156115a8576115a861156f565b60405290565b6040516101e0810167ffffffffffffffff811182821017156115a8576115a861156f565b600082601f8301126115e357600080fd5b6115eb611585565b8060408401858111156115fd57600080fd5b845b818110156116175780358452602093840193016115ff565b509095945050505050565b6000806000806102e080868803121561163a57600080fd5b61164487876115d2565b9450604087605f88011261165757600080fd5b61165f611585565b8060c089018a81111561167157600080fd5b838a015b81811015611696576116878c826115d2565b84526020909301928401611675565b508197506116a48b826115d2565b9650505050508661011f8701126116ba57600080fd5b6116c26115ae565b9086019080888311156116d457600080fd5b61010088015b838110156116f25780358352602092830192016116da565b509598949750929550505050565b634e487b7160e01b600052603260045260246000fd5b634e487b7160e01b600052601160045260246000fd5b60006001820161173e5761173e611716565b5060010190565b8082018082111561036057610360611716565b60008261177557634e487b7160e01b600052601260045260246000fd5b500690565b8181038181111561036057610360611716565b80820281158282048414176103605761036061171656fea2646970667358221220dc826a907050904b65334266adb3488004bf27c9252d81b9eb18700ba38e4b7464736f6c63430008120033",
  "linkReferences": {},
  "deployedLinkReferences": {}
}