{
  "_format": "hh-sol-artifact-1",
  "contractName": "Verifier8_16",
  "sourceName": "contracts/verifiers/vanchor_16/Verifier8_16.sol",
  "abi": [
    {
      "inputs": [
        {
          "internalType": "uint256[2]",
          "name": "a",
          "type": "uint256[2]"
        },
        {
          "internalType": "uint256[2][2]",
          "name": "b",
          "type": "uint256[2][2]"
        },
        {
          "internalType": "uint256[2]",
          "name": "c",
          "type": "uint256[2]"
        },
        {
          "internalType": "uint256[29]",
          "name": "input",
          "type": "uint256[29]"
        }
      ],
      "name": "verifyProof",
      "outputs": [
        {
          "internalType": "bool",
          "name": "r",
          "type": "bool"
        }
      ],
      "stateMutability": "view",
      "type": "function"
    }
  ],
  "bytecode": "0x608060405234801561001057600080fd5b50611e5c806100206000396000f3fe608060405234801561001057600080fd5b506004361061002b5760003560e01c806354b8a14614610030575b600080fd5b61004361003e366004611ca4565b610057565b604051901515815260200160405180910390f35b6000610061611ab7565b604080518082018252875181526020808901518183015290835281516080810183528751518184019081528851830151606083015281528251808401845288830180515182525183015181840152818301528382015281518083018352865181528682015181830152838301528151601d8082526103c08201909352600092909182016103a08036833701905050905060005b601d811015610143578481601d811061010f5761010f611d82565b602002015182828151811061012657610126611d82565b60209081029190910101528061013b81611dae565b9150506100f4565b5061014e818361016f565b60000361016057600192505050610167565b6000925050505b949350505050565b60007f30644e72e131a029b85045b68181585d2833e84879b9709143e1f593f00000018161019b610366565b9050806080015151855160016101b19190611dc7565b146101f85760405162461bcd60e51b81526020600482015260126024820152711d995c9a599a595c8b5898590b5a5b9c1d5d60721b60448201526064015b60405180910390fd5b604080518082019091526000808252602082018190525b86518110156102e9578387828151811061022b5761022b611d82565b6020026020010151106102805760405162461bcd60e51b815260206004820152601f60248201527f76657269666965722d6774652d736e61726b2d7363616c61722d6669656c640060448201526064016101ef565b6102d5826102d085608001518460016102999190611dc7565b815181106102a9576102a9611d82565b60200260200101518a85815181106102c3576102c3611d82565b6020026020010151611406565b61149c565b9150806102e181611dae565b91505061020f565b5061031281836080015160008151811061030557610305611d82565b602002602001015161149c565b90506103486103248660000151611535565b8660200151846000015185602001518587604001518b6040015189606001516115d4565b6103585760019350505050610360565b600093505050505b92915050565b61036e611b08565b6040805180820182527f2d4d9aa7e302d9df41749d5507949d05dbea33fbb16c643b22f599a2be6df2e281527f14bedd503c37ceb061d8ec60209fe345ce89830a19230301f076caff004d19266020808301919091529083528151608080820184527f0967032fcbf776d1afc985f88877f182d38480a653f2decaa9794cbc3bf3060c8285019081527f0e187847ad4c798374d0d6732bf501847dd68bc0e071241e0213bc7fc13db7ab606080850191909152908352845180860186527f304cfbd1e08a704a99f5e847d93f8c3caafddec46b7a0d379da69a4d112346a781527f1739c1b1a457a8c7313123d24d2f9192f896b7c63eea05a9d57f06547ad0cec8818601528385015285840192909252835180820185527f198e9393920d483a7260bfb731fb5d25f1aa493335a9e71297e485b7aef312c28186019081527f1800deef121f1e76426a00665e5c4479674322d4f75edadd46debd5cd992f6ed828501528152845180860186527f090689d0585ff075ec9e99ad690c3395bc4b313370b38ef355acdadcd122975b81527f12c85ea5db8c6deb4aab71808dcb408fe3d1e7690c43d37b4ce6cc0166fa7daa818601528185015285850152835190810184527f1cc7ac279784340642b1cc49d773a417a38bd7a80fc82ac74cb60a687cca413e8185019081527f20d8a26ba687447378c13cfc7582d10d45e796df727f537581691b50fd087c94828401528152835180850185527f03a011f2c98d9a7a3965dcf51acdd54f36b09102a1c285469ed7c897ff07f17b81527f12315cb01ba5132d2eb44c0f3b67d08a25d9982d96b9fe185d93592f89ef1c918185015281840152908401528151601e8082526103e08201909352919082015b60408051808201909152600080825260208201528152602001906001900390816105ea57505060808201908152604080518082019091527f19804926191ba300560244c0ae0cc099cee18f334652af7e043c0d05023e06e281527f06ae2719273a3aec6544e09c743f98542b7004d7ddcb06bef04ff616301ff9d360208201529051805160009061067d5761067d611d82565b602002602001018190525060405180604001604052807f12a72d298dc7148b0e7d96354c2ac218ce68e984530750cd743dc878495c7ac281526020017f1f1f172ca09859d572bde8f1f76a00ae9ac173b89e80c896bf63f4e49b07a59581525081608001516001815181106106f4576106f4611d82565b602002602001018190525060405180604001604052807f2b125029d111496e07ca75e82106ced35a4485e61711d42bd25bffee331768f481526020017f17732fafc2f7e10e87ffeedccbd033dfd17e4d811bbff6c24bb1ec92c7ce229d815250816080015160028151811061076b5761076b611d82565b602002602001018190525060405180604001604052807f18f233abe02dcc79817c59ce21fa19f14318c7148ca035307578669d1e4d73c081526020017f0853bb479ff75d612e80bda376c94604a5f2d5e6d619d4508147a41dc84e593d81525081608001516003815181106107e2576107e2611d82565b602002602001018190525060405180604001604052807f2ead0de572402347dbda5d965c1feafb8e339860e730ea5d7f000cae27aee87581526020017f29935b54a32251dd4b9121b4a5a3d74570d90ea6c3e5415c419dc36c1c8a0b31815250816080015160048151811061085957610859611d82565b602002602001018190525060405180604001604052807f27c0bf5c324b84fbdb6e44fc58eaf38d26c1edb862954a4071b2c9955cf300ec81526020017f18b6b11bfc2a160c2ac7d7b540e57589ad2be4f83d8be325c7e98dd6a2d0574381525081608001516005815181106108d0576108d0611d82565b602002602001018190525060405180604001604052807f05e9c1477c52bb0dae3d9bc10c37c9493fe816e1966556fa1c7907a72f31182081526020017f27fdf27ebb712097e483194ba4b6078e5aa5a25a9a8aea7abe0afc752b955b9b815250816080015160068151811061094757610947611d82565b602002602001018190525060405180604001604052807f216086e63c589b732f7619a09e8678d4e1ec0d7273435f49e19f26f27d27b7ce81526020017f1e350de5443548a6819a3d3da6f946fb514f95798ba4e07067b6f2fb67c496bd81525081608001516007815181106109be576109be611d82565b602002602001018190525060405180604001604052807f25423ba709e0cbf4261d697dee52fc5e43504b2f62d2ceebe55186ddceca828e81526020017f04dddf4d6bf84d623de70acd5ba0344c8f796538f8a07e6914d7aac00302c4568152508160800151600881518110610a3557610a35611d82565b602002602001018190525060405180604001604052807f27c27e95e96ab30616da5ffda14628a22a38f75dba17215c85fd087be8519da681526020017f0e3ba204c1d793c685837542579b18e12856e6034594df67c622d85c8c64731e8152508160800151600981518110610aac57610aac611d82565b602002602001018190525060405180604001604052807f15b2a4bce3bf314175c3645749a9d49a268dc65fd0964f2f291c280b4e540a1e81526020017f05dbc398bd2f41052a30226690f25abecb185545324f50953bfcf9eae17b92628152508160800151600a81518110610b2357610b23611d82565b602002602001018190525060405180604001604052807f1ba472ee0d936e08c500a111ce0836b2a476b7bc27e09f1890bc04f5e977c40681526020017f26d4db915d205b87bbc9b54f0d94c18c87293fa1822519d291bd30508dcac7328152508160800151600b81518110610b9a57610b9a611d82565b602002602001018190525060405180604001604052807f11e5b3a32eec3ea692fb15f0a18b72744e2bc44801025b0630efb0c55f4bef9d81526020017f2d09b14a5d47245ed44242979391bb60232305e066b745f2686465f7da23e5198152508160800151600c81518110610c1157610c11611d82565b602002602001018190525060405180604001604052807f29746db985251727d1c240cad3f0782644dbb5dab126c69b115956d95639fbb481526020017f2f3d625e3d7e39c2a139189524b30167b158e1c15e629c07f7bba738f4592c678152508160800151600d81518110610c8857610c88611d82565b602002602001018190525060405180604001604052807f1d28f7081a2889ba756a3b7d00d05e6ca7bf18e448caaaedc938ef6db67d5ff081526020017f022d1f81de96bdd31a002553b1da367e146ab2f5f75abbb4d5511bf137c27bd38152508160800151600e81518110610cff57610cff611d82565b602002602001018190525060405180604001604052807f1f79a78fe2249a8c1e2c380980918cdeefdf6bf9df24ce27cd289819fe6cc9c281526020017f28a2529f4fbb30d680af5071c8e2dd79a90a8400abf8273a6ebe6a50f8cdab468152508160800151600f81518110610d7657610d76611d82565b602002602001018190525060405180604001604052807f20e91c5e1b3c3e0647d9162766419dd481641b05340b010cdeace0f7d0ac991281526020017f08b30f35eca901a04d30d6b50c146edd15a54f9bf86341159b6d13465c9bba8d8152508160800151601081518110610ded57610ded611d82565b602002602001018190525060405180604001604052807f2e1a0bc6ce5abe53983412e07bf125eaf8fb45997b3dae89ae65bbcc80de9a1881526020017f2da6993aa197b78333f5e5f4f254ad542dce3c77acd3b264271f7a2fe4b865f98152508160800151601181518110610e6457610e64611d82565b602002602001018190525060405180604001604052807f0da2cb4fc4fced47c513a9464e48baebf066102bec6219bb0da24626a3f89a6781526020017f1f31fa8e032ba7848e89bbeed55385da34e435f61d9384833bd1f4664a2c60408152508160800151601281518110610edb57610edb611d82565b602002602001018190525060405180604001604052807f2e30a1f87c3e80f0eecf7ea771a020e9eef33b58e753f9cc74679b78d2ab367481526020017f27319b6002022cd2030f508650412e49988f38e62ba5b48222dab6699eec2df78152508160800151601381518110610f5257610f52611d82565b602002602001018190525060405180604001604052807f2d923106a6e37f1f83002d9e51433ef556fd66079e66e4a33313d4bac48b30b481526020017f2cfe56c5ded16b5721a4398f210e147d8245ffbd9272bfe92294879c417231b48152508160800151601481518110610fc957610fc9611d82565b602002602001018190525060405180604001604052807f2d5f939f9e66d23b643b360ce20dcaacd6e699e12cd574de04c23653df554e3681526020017f0d58464d8f4a35cfe27368b12224b41bf7d6c477479746ea530d501172977937815250816080015160158151811061104057611040611d82565b602002602001018190525060405180604001604052807f2d2019ff7518c0c23779ca10244b9f14def76bdd4a9fa2c964888bd47c9a35cd81526020017f1d28c7c57800aa5d86e2105868365d4ae442b77dd8a076362c6ee1f8e81c55a981525081608001516016815181106110b7576110b7611d82565b602002602001018190525060405180604001604052807f06f504d9c93181f0dcd8a5a7c91f1ddbf3bc87059abb29c4bc1184b8657620f381526020017f16fc550bc3d84422fd5afbce9e4ede678bdba2c0248a357dc55faf0874483a05815250816080015160178151811061112e5761112e611d82565b602002602001018190525060405180604001604052807f2f666eef59792cd8205bf8988ed10fde00ee86da5873913ee20a8220129cabb281526020017f1022083670d04a80aa315317a3f905e71b40d3819dd618203669b2168696e80f81525081608001516018815181106111a5576111a5611d82565b602002602001018190525060405180604001604052807f1b59ec0f2702b6ef5519ef95b7e5eb0b56b77e03a9994714c2242b99327c47ac81526020017f1d0923c00f9d3e414145ee3f8fd6c9730fde740a0cf181d654b044bba6e4f366815250816080015160198151811061121c5761121c611d82565b602002602001018190525060405180604001604052807f2f91a05874f6b576f69c89299b3d698ece2d0c9fbc065cef80dd8f306e901f0b81526020017f23fd71617903108e7f2eb1c4a019d3d6936765b09ff858b2bf2dfa4d2abe6e9e8152508160800151601a8151811061129357611293611d82565b602002602001018190525060405180604001604052807f0d121590ac45174cac44a71a05247690e56d8afe54e4f477eaeacea619b0f35481526020017f1b3862a8978ef430b77acd0a50e6cb6f38fba544694c50c065e38b2e622b2f098152508160800151601b8151811061130a5761130a611d82565b602002602001018190525060405180604001604052807f2d341b0f01a5d6355de67b5555eba95015560a8ca3396aab1c81608f488d99e181526020017f1cb5490a942735507550c1071b1e196d679f036a94dd42c2f218a077a9894a198152508160800151601c8151811061138157611381611d82565b602002602001018190525060405180604001604052807f10bf0a6c57666fa2a737fbe0ec9d78f5fbd27b139e6b18fad0e640f66231778881526020017f11f55a0ef7d63613b81bf127dcfff253671e245c80e70317d7630013513f37938152508160800151601d815181106113f8576113f8611d82565b602002602001018190525090565b6040805180820190915260008082526020820152611422611b59565b835181526020808501519082015260408101839052600060608360808460076107d05a03fa9050808061145157fe5b50806114945760405162461bcd60e51b81526020600482015260126024820152711c185a5c9a5b99cb5b5d5b0b59985a5b195960721b60448201526064016101ef565b505092915050565b60408051808201909152600080825260208201526114b8611b77565b8351815260208085015181830152835160408301528301516060808301919091526000908360c08460066107d05a03fa905080806114f257fe5b50806114945760405162461bcd60e51b81526020600482015260126024820152711c185a5c9a5b99cb5859190b59985a5b195960721b60448201526064016101ef565b604080518082019091526000808252602082015281517f30644e72e131a029b85045b68181585d97816a916871ca8d3c208c16d87cfd479015801561157c57506020830151155b1561159c5750506040805180820190915260008082526020820152919050565b6040518060400160405280846000015181526020018285602001516115c19190611dda565b6115cb9084611dfc565b90529392505050565b60408051600480825260a08201909252600091829190816020015b60408051808201909152600080825260208201528152602001906001900390816115ef57505060408051600480825260a0820190925291925060009190602082015b611639611b95565b8152602001906001900390816116315790505090508a8260008151811061166257611662611d82565b6020026020010181905250888260018151811061168157611681611d82565b602002602001018190525086826002815181106116a0576116a0611d82565b602002602001018190525084826003815181106116bf576116bf611d82565b602002602001018190525089816000815181106116de576116de611d82565b602002602001018190525087816001815181106116fd576116fd611d82565b6020026020010181905250858160028151811061171c5761171c611d82565b6020026020010181905250838160038151811061173b5761173b611d82565b6020026020010181905250611750828261175f565b9b9a5050505050505050505050565b600081518351146117ab5760405162461bcd60e51b81526020600482015260166024820152751c185a5c9a5b99cb5b195b99dd1a1ccb59985a5b195960521b60448201526064016101ef565b825160006117ba826006611e0f565b905060008167ffffffffffffffff8111156117d7576117d7611bf1565b604051908082528060200260200182016040528015611800578160200160208202803683370190505b50905060005b83811015611a3b5786818151811061182057611820611d82565b6020026020010151600001518282600661183a9190611e0f565b611845906000611dc7565b8151811061185557611855611d82565b60200260200101818152505086818151811061187357611873611d82565b6020026020010151602001518282600661188d9190611e0f565b611898906001611dc7565b815181106118a8576118a8611d82565b6020026020010181815250508581815181106118c6576118c6611d82565b60209081029190910101515151826118df836006611e0f565b6118ea906002611dc7565b815181106118fa576118fa611d82565b60200260200101818152505085818151811061191857611918611d82565b60209081029190910181015151015182611933836006611e0f565b61193e906003611dc7565b8151811061194e5761194e611d82565b60200260200101818152505085818151811061196c5761196c611d82565b60200260200101516020015160006002811061198a5761198a611d82565b60200201518261199b836006611e0f565b6119a6906004611dc7565b815181106119b6576119b6611d82565b6020026020010181815250508581815181106119d4576119d4611d82565b6020026020010151602001516001600281106119f2576119f2611d82565b602002015182611a03836006611e0f565b611a0e906005611dc7565b81518110611a1e57611a1e611d82565b602090810291909101015280611a3381611dae565b915050611806565b50611a44611bb5565b6000602082602086026020860160086107d05a03fa90508080611a6357fe5b5080611aa95760405162461bcd60e51b81526020600482015260156024820152741c185a5c9a5b99cb5bdc18dbd9194b59985a5b1959605a1b60448201526064016101ef565b505115159695505050505050565b6040805160a081019091526000606082018181526080830191909152815260208101611ae1611b95565b8152602001611b03604051806040016040528060008152602001600081525090565b905290565b6040805160e08101909152600060a0820181815260c0830191909152815260208101611b32611b95565b8152602001611b3f611b95565b8152602001611b4c611b95565b8152602001606081525090565b60405180606001604052806003906020820280368337509192915050565b60405180608001604052806004906020820280368337509192915050565b6040518060400160405280611ba8611bd3565b8152602001611b03611bd3565b60405180602001604052806001906020820280368337509192915050565b60405180604001604052806002906020820280368337509192915050565b634e487b7160e01b600052604160045260246000fd5b6040805190810167ffffffffffffffff81118282101715611c2a57611c2a611bf1565b60405290565b6040516103a0810167ffffffffffffffff81118282101715611c2a57611c2a611bf1565b600082601f830112611c6557600080fd5b611c6d611c07565b806040840185811115611c7f57600080fd5b845b81811015611c99578035845260209384019301611c81565b509095945050505050565b6000806000806104a0808688031215611cbc57600080fd5b611cc68787611c54565b9450604087605f880112611cd957600080fd5b611ce1611c07565b8060c089018a811115611cf357600080fd5b838a015b81811015611d1857611d098c82611c54565b84526020909301928401611cf7565b50819750611d268b82611c54565b9650505050508661011f870112611d3c57600080fd5b611d44611c30565b908601908088831115611d5657600080fd5b61010088015b83811015611d74578035835260209283019201611d5c565b509598949750929550505050565b634e487b7160e01b600052603260045260246000fd5b634e487b7160e01b600052601160045260246000fd5b600060018201611dc057611dc0611d98565b5060010190565b8082018082111561036057610360611d98565b600082611df757634e487b7160e01b600052601260045260246000fd5b500690565b8181038181111561036057610360611d98565b808202811582820484141761036057610360611d9856fea2646970667358221220383494e986a3f48a15788da49b2106dd317b974dd6475ca92342c3338f9e2e2864736f6c63430008120033",
  "linkReferences": {},
  "deployedLinkReferences": {}
}